{"abi":[{"type":"constructor","inputs":[{"name":"_institutionRegistry","type":"address","internalType":"address"},{"name":"_escrowManager","type":"address","internalType":"address"},{"name":"_patToken","type":"address","internalType":"address"},{"name":"_userRegistry","type":"address","internalType":"address"},{"name":"admin","type":"address","internalType":"address"}],"stateMutability":"nonpayable"},{"type":"receive","stateMutability":"payable"},{"type":"function","name":"CAMPAIGN_STAKE","inputs":[],"outputs":[{"name":"","type":"uint256","internalType":"uint256"}],"stateMutability":"view"},{"type":"function","name":"DEFAULT_ADMIN_ROLE","inputs":[],"outputs":[{"name":"","type":"bytes32","internalType":"bytes32"}],"stateMutability":"view"},{"type":"function","name":"GOVERNANCE_ROLE","inputs":[],"outputs":[{"name":"","type":"bytes32","internalType":"bytes32"}],"stateMutability":"view"},{"type":"function","name":"MAX_CAMPAIGN_DURATION","inputs":[],"outputs":[{"name":"","type":"uint256","internalType":"uint256"}],"stateMutability":"view"},{"type":"function","name":"MAX_GOAL","inputs":[],"outputs":[{"name":"","type":"uint256","internalType":"uint256"}],"stateMutability":"view"},{"type":"function","name":"MIN_CAMPAIGN_DURATION","inputs":[],"outputs":[{"name":"","type":"uint256","internalType":"uint256"}],"stateMutability":"view"},{"type":"function","name":"MIN_GOAL","inputs":[],"outputs":[{"name":"","type":"uint256","internalType":"uint256"}],"stateMutability":"view"},{"type":"function","name":"activeCampaignIds","inputs":[{"name":"","type":"uint256","internalType":"uint256"}],"outputs":[{"name":"","type":"uint256","internalType":"uint256"}],"stateMutability":"view"},{"type":"function","name":"campaignActiveIndex","inputs":[{"name":"","type":"uint256","internalType":"uint256"}],"outputs":[{"name":"","type":"uint256","internalType":"uint256"}],"stateMutability":"view"},{"type":"function","name":"campaignCounter","inputs":[],"outputs":[{"name":"","type":"uint256","internalType":"uint256"}],"stateMutability":"view"},{"type":"function","name":"campaignDonors","inputs":[{"name":"","type":"uint256","internalType":"uint256"},{"name":"","type":"uint256","internalType":"uint256"}],"outputs":[{"name":"","type":"address","internalType":"address"}],"stateMutability":"view"},{"type":"function","name":"campaigns","inputs":[{"name":"","type":"uint256","internalType":"uint256"}],"outputs":[{"name":"id","type":"uint256","internalType":"uint256"},{"name":"institution","type":"address","internalType":"address"},{"name":"title","type":"string","internalType":"string"},{"name":"description","type":"string","internalType":"string"},{"name":"category","type":"string","internalType":"string"},{"name":"ipfsMetadata","type":"string","internalType":"string"},{"name":"goal","type":"uint256","internalType":"uint256"},{"name":"deadline","type":"uint256","internalType":"uint256"},{"name":"raised","type":"uint256","internalType":"uint256"},{"name":"stakeAmount","type":"uint256","internalType":"uint256"},{"name":"createdAt","type":"uint256","internalType":"uint256"},{"name":"status","type":"uint8","internalType":"enum CampaignFactory.CampaignStatus"},{"name":"fundsReleased","type":"bool","internalType":"bool"},{"name":"donorCount","type":"uint256","internalType":"uint256"}],"stateMutability":"view"},{"type":"function","name":"cancelCampaign","inputs":[{"name":"campaignId","type":"uint256","internalType":"uint256"},{"name":"reason","type":"string","internalType":"string"}],"outputs":[],"stateMutability":"nonpayable"},{"type":"function","name":"completeCampaign","inputs":[{"name":"campaignId","type":"uint256","internalType":"uint256"}],"outputs":[],"stateMutability":"nonpayable"},{"type":"function","name":"createCampaign","inputs":[{"name":"title","type":"string","internalType":"string"},{"name":"description","type":"string","internalType":"string"},{"name":"category","type":"string","internalType":"string"},{"name":"ipfsMetadata","type":"string","internalType":"string"},{"name":"goal","type":"uint256","internalType":"uint256"},{"name":"duration","type":"uint256","internalType":"uint256"}],"outputs":[{"name":"","type":"uint256","internalType":"uint256"}],"stateMutability":"payable"},{"type":"function","name":"donate","inputs":[{"name":"campaignId","type":"uint256","internalType":"uint256"}],"outputs":[],"stateMutability":"payable"},{"type":"function","name":"donations","inputs":[{"name":"","type":"uint256","internalType":"uint256"},{"name":"","type":"address","internalType":"address"}],"outputs":[{"name":"","type":"uint256","internalType":"uint256"}],"stateMutability":"view"},{"type":"function","name":"endCampaign","inputs":[{"name":"campaignId","type":"uint256","internalType":"uint256"}],"outputs":[],"stateMutability":"nonpayable"},{"type":"function","name":"escrowManager","inputs":[],"outputs":[{"name":"","type":"address","internalType":"contract EscrowManager"}],"stateMutability":"view"},{"type":"function","name":"getActiveCampaigns","inputs":[{"name":"offset","type":"uint256","internalType":"uint256"},{"name":"limit","type":"uint256","internalType":"uint256"}],"outputs":[{"name":"","type":"uint256[]","internalType":"uint256[]"}],"stateMutability":"view"},{"type":"function","name":"getCampaign","inputs":[{"name":"campaignId","type":"uint256","internalType":"uint256"}],"outputs":[{"name":"institution","type":"address","internalType":"address"},{"name":"title","type":"string","internalType":"string"},{"name":"description","type":"string","internalType":"string"},{"name":"category","type":"string","internalType":"string"},{"name":"goal","type":"uint256","internalType":"uint256"},{"name":"raised","type":"uint256","internalType":"uint256"},{"name":"deadline","type":"uint256","internalType":"uint256"},{"name":"status","type":"uint8","internalType":"enum CampaignFactory.CampaignStatus"}],"stateMutability":"view"},{"type":"function","name":"getCampaignDonors","inputs":[{"name":"campaignId","type":"uint256","internalType":"uint256"}],"outputs":[{"name":"","type":"address[]","internalType":"address[]"}],"stateMutability":"view"},{"type":"function","name":"getCampaignProgress","inputs":[{"name":"campaignId","type":"uint256","internalType":"uint256"}],"outputs":[{"name":"","type":"uint256","internalType":"uint256"}],"stateMutability":"view"},{"type":"function","name":"getDonationAmount","inputs":[{"name":"campaignId","type":"uint256","internalType":"uint256"},{"name":"donor","type":"address","internalType":"address"}],"outputs":[{"name":"","type":"uint256","internalType":"uint256"}],"stateMutability":"view"},{"type":"function","name":"getInstitutionCampaigns","inputs":[{"name":"institution","type":"address","internalType":"address"}],"outputs":[{"name":"","type":"uint256[]","internalType":"uint256[]"}],"stateMutability":"view"},{"type":"function","name":"getRoleAdmin","inputs":[{"name":"role","type":"bytes32","internalType":"bytes32"}],"outputs":[{"name":"","type":"bytes32","internalType":"bytes32"}],"stateMutability":"view"},{"type":"function","name":"grantRole","inputs":[{"name":"role","type":"bytes32","internalType":"bytes32"},{"name":"account","type":"address","internalType":"address"}],"outputs":[],"stateMutability":"nonpayable"},{"type":"function","name":"hasRole","inputs":[{"name":"role","type":"bytes32","internalType":"bytes32"},{"name":"account","type":"address","internalType":"address"}],"outputs":[{"name":"","type":"bool","internalType":"bool"}],"stateMutability":"view"},{"type":"function","name":"institutionCampaigns","inputs":[{"name":"","type":"address","internalType":"address"},{"name":"","type":"uint256","internalType":"uint256"}],"outputs":[{"name":"","type":"uint256","internalType":"uint256"}],"stateMutability":"view"},{"type":"function","name":"institutionRegistry","inputs":[],"outputs":[{"name":"","type":"address","internalType":"contract InstitutionRegistry"}],"stateMutability":"view"},{"type":"function","name":"patToken","inputs":[],"outputs":[{"name":"","type":"address","internalType":"contract PATToken"}],"stateMutability":"view"},{"type":"function","name":"pause","inputs":[],"outputs":[],"stateMutability":"nonpayable"},{"type":"function","name":"paused","inputs":[],"outputs":[{"name":"","type":"bool","internalType":"bool"}],"stateMutability":"view"},{"type":"function","name":"renounceRole","inputs":[{"name":"role","type":"bytes32","internalType":"bytes32"},{"name":"callerConfirmation","type":"address","internalType":"address"}],"outputs":[],"stateMutability":"nonpayable"},{"type":"function","name":"revokeRole","inputs":[{"name":"role","type":"bytes32","internalType":"bytes32"},{"name":"account","type":"address","internalType":"address"}],"outputs":[],"stateMutability":"nonpayable"},{"type":"function","name":"supportsInterface","inputs":[{"name":"interfaceId","type":"bytes4","internalType":"bytes4"}],"outputs":[{"name":"","type":"bool","internalType":"bool"}],"stateMutability":"view"},{"type":"function","name":"unpause","inputs":[],"outputs":[],"stateMutability":"nonpayable"},{"type":"function","name":"updateEscrowManager","inputs":[{"name":"newEscrow","type":"address","internalType":"address"}],"outputs":[],"stateMutability":"nonpayable"},{"type":"function","name":"userRegistry","inputs":[],"outputs":[{"name":"","type":"address","internalType":"contract UserRegistry"}],"stateMutability":"view"},{"type":"event","name":"CampaignCancelled","inputs":[{"name":"campaignId","type":"uint256","indexed":true,"internalType":"uint256"},{"name":"reason","type":"string","indexed":false,"internalType":"string"},{"name":"timestamp","type":"uint256","indexed":false,"internalType":"uint256"}],"anonymous":false},{"type":"event","name":"CampaignCreated","inputs":[{"name":"campaignId","type":"uint256","indexed":true,"internalType":"uint256"},{"name":"institution","type":"address","indexed":true,"internalType":"address"},{"name":"title","type":"string","indexed":false,"internalType":"string"},{"name":"goal","type":"uint256","indexed":false,"internalType":"uint256"},{"name":"deadline","type":"uint256","indexed":false,"internalType":"uint256"},{"name":"timestamp","type":"uint256","indexed":false,"internalType":"uint256"}],"anonymous":false},{"type":"event","name":"CampaignEnded","inputs":[{"name":"campaignId","type":"uint256","indexed":true,"internalType":"uint256"},{"name":"successful","type":"bool","indexed":false,"internalType":"bool"},{"name":"totalRaised","type":"uint256","indexed":false,"internalType":"uint256"},{"name":"timestamp","type":"uint256","indexed":false,"internalType":"uint256"}],"anonymous":false},{"type":"event","name":"CampaignGoalReached","inputs":[{"name":"campaignId","type":"uint256","indexed":true,"internalType":"uint256"},{"name":"totalRaised","type":"uint256","indexed":false,"internalType":"uint256"},{"name":"timestamp","type":"uint256","indexed":false,"internalType":"uint256"}],"anonymous":false},{"type":"event","name":"DonationReceived","inputs":[{"name":"campaignId","type":"uint256","indexed":true,"internalType":"uint256"},{"name":"donor","type":"address","indexed":true,"internalType":"address"},{"name":"amount","type":"uint256","indexed":false,"internalType":"uint256"},{"name":"timestamp","type":"uint256","indexed":false,"internalType":"uint256"}],"anonymous":false},{"type":"event","name":"Paused","inputs":[{"name":"account","type":"address","indexed":false,"internalType":"address"}],"anonymous":false},{"type":"event","name":"RoleAdminChanged","inputs":[{"name":"role","type":"bytes32","indexed":true,"internalType":"bytes32"},{"name":"previousAdminRole","type":"bytes32","indexed":true,"internalType":"bytes32"},{"name":"newAdminRole","type":"bytes32","indexed":true,"internalType":"bytes32"}],"anonymous":false},{"type":"event","name":"RoleGranted","inputs":[{"name":"role","type":"bytes32","indexed":true,"internalType":"bytes32"},{"name":"account","type":"address","indexed":true,"internalType":"address"},{"name":"sender","type":"address","indexed":true,"internalType":"address"}],"anonymous":false},{"type":"event","name":"RoleRevoked","inputs":[{"name":"role","type":"bytes32","indexed":true,"internalType":"bytes32"},{"name":"account","type":"address","indexed":true,"internalType":"address"},{"name":"sender","type":"address","indexed":true,"internalType":"address"}],"anonymous":false},{"type":"event","name":"StakeCut","inputs":[{"name":"campaignId","type":"uint256","indexed":true,"internalType":"uint256"},{"name":"amount","type":"uint256","indexed":false,"internalType":"uint256"},{"name":"timestamp","type":"uint256","indexed":false,"internalType":"uint256"}],"anonymous":false},{"type":"event","name":"Unpaused","inputs":[{"name":"account","type":"address","indexed":false,"internalType":"address"}],"anonymous":false},{"type":"error","name":"AccessControlBadConfirmation","inputs":[]},{"type":"error","name":"AccessControlUnauthorizedAccount","inputs":[{"name":"account","type":"address","internalType":"address"},{"name":"neededRole","type":"bytes32","internalType":"bytes32"}]},{"type":"error","name":"CampaignAlreadyEnded","inputs":[]},{"type":"error","name":"CampaignNotActive","inputs":[]},{"type":"error","name":"CampaignNotFound","inputs":[]},{"type":"error","name":"DeadlineNotReached","inputs":[]},{"type":"error","name":"DeadlinePassed","inputs":[]},{"type":"error","name":"EnforcedPause","inputs":[]},{"type":"error","name":"ExpectedPause","inputs":[]},{"type":"error","name":"FundsNotReleased","inputs":[]},{"type":"error","name":"InstitutionNotVerified","inputs":[]},{"type":"error","name":"InvalidAmount","inputs":[]},{"type":"error","name":"InvalidCampaignGoal","inputs":[]},{"type":"error","name":"InvalidDeadline","inputs":[]},{"type":"error","name":"InvalidParameter","inputs":[]},{"type":"error","name":"InvalidStakeAmount","inputs":[]},{"type":"error","name":"ReentrancyGuardReentrantCall","inputs":[]},{"type":"error","name":"TransferFailed","inputs":[]},{"type":"error","name":"UnauthorizedCampaignCreator","inputs":[]},{"type":"error","name":"ZeroAddress","inputs":[]}],"bytecode":{"object":"0x6080346101a357601f61267b38819003918201601f19168301916001600160401b038311848410176101a75780849260a0946040528339810103126101a357610047816101bb565b90610054602082016101bb565b90610061604082016101bb565b6100796080610072606085016101bb565b93016101bb565b60017f9b779b17422d0df92223018b32b4d1fa46e071723d6817e2486d003becc55f0055926001600160a01b038516158015610192575b8015610181575b8015610170575b801561015f575b6101505760018054610100600160a81b03191660089690961b610100600160a81b031695909517909455600280546001600160a01b03199081166001600160a01b0396871617909155600380548216928616929092179091556004805490911691909316179091556101409061013a816101cf565b50610245565b5060405161234290816102d98239f35b63d92e233d60e01b5f5260045ffd5b506001600160a01b038416156100c5565b506001600160a01b038316156100be565b506001600160a01b038216156100b7565b506001600160a01b038116156100b0565b5f80fd5b634e487b7160e01b5f52604160045260245ffd5b51906001600160a01b03821682036101a357565b6001600160a01b0381165f9081525f51602061265b5f395f51905f52602052604090205460ff16610240576001600160a01b03165f8181525f51602061265b5f395f51905f5260205260408120805460ff191660011790553391905f51602061261b5f395f51905f528180a4600190565b505f90565b6001600160a01b0381165f9081525f51602061263b5f395f51905f52602052604090205460ff16610240576001600160a01b03165f8181525f51602061263b5f395f51905f5260205260408120805460ff191660011790553391907f71840dc4906352362b0cdaf79870196c8e42acafade72d5d5a6d59291253ceb1905f51602061261b5f395f51905f529080a460019056fe608080604052600436101561001c575b50361561001a575f80fd5b005b5f905f3560e01c90816301ffc9a714611c5757508063041ae4c614611c36578063141961bc14611b0a5780631b1fcb0414611ade5780631c4ee68b14611ab4578063209b7d5f146119fc578063248a9ca3146119d25780632f2ff15d14611995578063309bb3f21461197257806336568abe1461192e578063391a0455146118e55780633d90e7ab146118bd5780633f4ba83a146118575780635598f8cc146117905780635c7460d6146117685780635c975abb146117465780636e21c775146114fe5780637ff4a493146114dc57806380217c231461146a5780638456cb59146114105780638ab9b92a146113e95780638aea3dc9146113cb5780638c7bc838146113ad5780638f1aad121461135257806391d14854146113095780639553f1801461108a578063992abd4514611050578063a217fddf14611034578063a8aee94014610866578063b65314581461083b578063c12255c414610812578063d547741f146107cb578063dd0408ae1461063f578063e43826d8146105fa578063ee1554a3146105fa578063f14faf6f14610277578063f25e1e931461022c578063f36c8f5c146101f15763fca604d70361000f57346101ee57806003193601126101ee576020600854604051908152f35b80fd5b50346101ee57806003193601126101ee5760206040517f71840dc4906352362b0cdaf79870196c8e42acafade72d5d5a6d59291253ceb18152f35b50346101ee5761023b36611ef1565b919081526006602052604081209081548310156101ee57602061025e8484611e41565b905460405160039290921b1c6001600160a01b03168152f35b5060203660031901126101ee5760043561028f612299565b6102976122d1565b808252600560205260408220818154036105eb57600b810160ff81541660058110156105065780151590816105df575b506105d057600782015442116105c15734156105b257828452600760209081526040808620335f908152925290205415610542575b82845260076020526040842060018060a01b0333165f5260205260405f20610325348254611f86565b90556008820191610337348454611f86565b835560025485906001600160a01b0316803b1561053e57816044916040519283809263401d70c960e11b82528a600483015233602483015234905af180156105335761051a575b5050604051348152426020820152847f3dbea1b4ce5f95137fdcac9b1d685825c3d70ace830df1ca5a181d3887add41060403393a3600683549101541115806104f1575b6104ad575b505050610bb83402348104610bb8036104995760035482916001600160a01b0390911690813b156104955782916044839260405194859384926309d99bb760e01b845233600485015260248401525af1610480575b506004546001600160a01b0316803b1561047d5781809160246040518094819363d168465760e01b83523360048401525af1610468575b5060015f5160206122ed5f395f51905f525580f35b8161047291611ce2565b6101ee57805f610453565b50fd5b8161048a91611ce2565b6101ee57805f61041c565b5050fd5b634e487b7160e01b82526011600452602482fd5b805460ff1916600117905554604080519182524260208301527fd8d347acf5a316df55df4d039cac3621ab84f287c26bcbcccd3aa2250996301191a25f80806103c7565b5060ff815416600581101561050657156103c2565b634e487b7160e01b85526021600452602485fd5b8161052491611ce2565b61052f57845f61037e565b8480fd5b6040513d84823e3d90fd5b5080fd5b600c82016105508154611f78565b9055828452600660205260408420805490600160401b82101561059e579061057d91600182018155611e41565b81546001600160a01b0360039290921b91821b19163390911b1790556102fc565b634e487b7160e01b86526041600452602486fd5b63162908e360e11b8452600484fd5b63387b2e5560e11b8452600484fd5b63219a945b60e11b8452600484fd5b6001915014155f6102c7565b6337f9b70b60e11b8352600483fd5b50346101ee5760403660031901126101ee576040610616611de9565b9160043581526007602052209060018060a01b03165f52602052602060405f2054604051908152f35b50346101ee5760203660031901126101ee576004359061065d6122d1565b81815260056020526040812060018101549092906001600160a01b0316156107bc57600b830160ff8154166005811015908161050657600281149182156107af575b821561078a575b505061077b576007840154421061076c57817fb08e1ab37063e3923cffc12a3d0f40784e4beea9eda44c005fccaba6bb497f46606086600887980190600682549101541194600260ff198254161790556106ff846121fb565b5460405190851582526020820152426040820152a261071b5750f35b6002546001600160a01b031690813b156104955782916024839260405194859384926352b2380960e01b845260048401525af180156105335761075b5750f35b8161076591611ce2565b6101ee5780f35b633376277360e11b8352600483fd5b63287e67e760e01b8352600483fd5b90915061079b576004145f806106a6565b634e487b7160e01b84526021600452602484fd5b506003811491508461069f565b6337f9b70b60e11b8252600482fd5b50346101ee5760403660031901126101ee5761080e6004356107eb611de9565b90610809610804825f525f602052600160405f20015490565b6120c1565b61217b565b5080f35b50346101ee57806003193601126101ee576002546040516001600160a01b039091168152602090f35b50346101ee5761086261085661085036611ef1565b90611fab565b60405191829182611eb8565b0390f35b5060c03660031901126101ee5760043567ffffffffffffffff811161053e57610893903690600401611e72565b9060243567ffffffffffffffff811161053e576108b4903690600401611e72565b60443567ffffffffffffffff8111611030576108d4903690600401611e72565b60643567ffffffffffffffff811161102c576108f4903690600401611e72565b926084359260a43594610905612299565b61090d6122d1565b600154604051633adc43a760e01b8152336004820152906020908290602490829060081c6001600160a01b03165afa908115611021578491610ff2575b5015610fe3576658d15e176280003403610fd457662386f26fc1000085108015610fc2575b610fb35762093a8086108015610fa7575b610f98578651158015610f8f575b610f80576109ab600854966109a288611f78565b60085542611f86565b938684526005602052604084209287845560018401336bffffffffffffffffffffffff60a01b82541617905560028401895167ffffffffffffffff8111610eb9576109f68254611caa565b601f8111610f3b575b50806020601f8211600114610ed8578891610ecd575b508160011b915f199060031b1c19161790555b8051600385019167ffffffffffffffff8211610eb9578190610a4a8454611caa565b601f8111610e69575b50602090601f8311600114610e07578892610dfc575b50508160011b915f199060031b1c19161790555b8051600484019167ffffffffffffffff821161059e578190610a9f8454611caa565b601f8111610dac575b50602090601f8311600114610d4a578792610d3f575b50508160011b915f199060031b1c19161790555b8051600583019167ffffffffffffffff8211610d2b578190610af48454611caa565b601f8111610cdb575b50602090601f8311600114610c79578692610c6e575b50508160011b915f199060031b1c19161790555b836006820155826007820155346009820155600b81019060ff198254168255600a4291015560ff198154169055600954600160401b811015610c5a5784610b79826001610b9194016009556009611e41565b90919082549060031b91821b915f19901b1916179055565b6009545f19810190811161049957848252600a6020526040822055338152600b60205260408120805491600160401b831015610c465750948492610c0284610b798560209a60017f9a6f279818b6c3ecad22dd882c63460a80cee0df2841c888adb08588aff26c2298018155611e41565b610c1760405192608084526080840190611db8565b948783015260408201524260608201528033940390a360015f5160206122ed5f395f51905f5255604051908152f35b634e487b7160e01b81526041600452602490fd5b634e487b7160e01b82526041600452602482fd5b015190505f80610b13565b8487528187209250601f198416875b818110610cc35750908460019594939210610cab575b505050811b019055610b27565b01515f1960f88460031b161c191690555f8080610c9e565b92936020600181928786015181550195019301610c88565b90915083865260208620601f840160051c81019160208510610d21575b90601f859493920160051c01905b818110610d135750610afd565b878155849350600101610d06565b9091508190610cf8565b634e487b7160e01b85526041600452602485fd5b015190505f80610abe565b8488528188209250601f198416885b818110610d945750908460019594939210610d7c575b505050811b019055610ad2565b01515f1960f88460031b161c191690555f8080610d6f565b92936020600181928786015181550195019301610d59565b90915083875260208720601f840160051c81019160208510610df2575b90601f859493920160051c01905b818110610de45750610aa8565b888155849350600101610dd7565b9091508190610dc9565b015190505f80610a69565b8489528189209250601f198416895b818110610e515750908460019594939210610e39575b505050811b019055610a7d565b01515f1960f88460031b161c191690555f8080610e2c565b92936020600181928786015181550195019301610e16565b90915083885260208820601f840160051c81019160208510610eaf575b90601f859493920160051c01905b818110610ea15750610a53565b898155849350600101610e94565b9091508190610e86565b634e487b7160e01b87526041600452602487fd5b90508b01515f610a15565b8389528089209150601f198316898e5b828210610f225750509083600194939210610f0a575b5050811b019055610a28565b8d01515f1960f88460031b161c191690555f80610efe565b600184956020939584930151815501940192018e610ee8565b82885260208820601f830160051c81019160208410610f76575b601f0160051c01905b818110610f6b57506109ff565b888155600101610f5e565b9091508190610f55565b630309cb8760e51b8352600483fd5b5081511561098e565b631da7447960e21b8352600483fd5b5062ed4e008611610980565b63ddad631360e01b8352600483fd5b5068056bc75e2d63100000851161096f565b630103be3b60e21b8352600483fd5b631c117d4160e21b8352600483fd5b611014915060203d60201161101a575b61100c8183611ce2565b810190611f60565b5f61094a565b503d611002565b6040513d86823e3d90fd5b8380fd5b8280fd5b50346101ee57806003193601126101ee57602090604051908152f35b50346101ee5760203660031901126101ee57600435906009548210156101ee57602061107b83611e15565b90549060031b1c604051908152f35b50346101ee5760203660031901126101ee577f71840dc4906352362b0cdaf79870196c8e42acafade72d5d5a6d59291253ceb1815260208181526040808320335f90815292529020546004359060ff16156112d25780825260056020526040822090600b82019060ff8254166005811015610506576002036105d057600254604051630186e4ad60e71b81526004810192909252602090829060249082906001600160a01b03165afa9081156110215784916112b3575b50156112a457600460ff1982541617905581808080600160098601958287549755019460018060a01b038654165af13d1561129f573d61118081611e56565b9061118e6040519283611ce2565b81528360203d92013e5b1561129057600154815483929160081c6001600160a01b039081169116813b1561128b57839160a483926040519485938492634e7ce73f60e01b845260048401526032602484015260606044840152601f60648401527f43616d706169676e20436f6d706c65746564205375636365737366756c6c790060848401525af190811561128057839161126b575b505060035490546001600160a01b039182169116813b15610495578291602483926040519485938492633beaa6e760e11b845260048401525af180156105335761075b5750f35b8161127591611ce2565b61047d57815f611224565b6040513d85823e3d90fd5b505050fd5b6312171d8360e31b8252600482fd5b611198565b63328f4ba960e11b8352600483fd5b6112cc915060203d60201161101a5761100c8183611ce2565b5f611141565b63e2517d3f60e01b8252336004527f71840dc4906352362b0cdaf79870196c8e42acafade72d5d5a6d59291253ceb1602452604482fd5b50346101ee5760403660031901126101ee576040611325611de9565b91600435815280602052209060018060a01b03165f52602052602060ff60405f2054166040519015158152f35b50346101ee5760203660031901126101ee5761136c611dff565b611374612072565b6001600160a01b0316801561139e576bffffffffffffffffffffffff60a01b600254161760025580f35b63d92e233d60e01b8252600482fd5b50346101ee57806003193601126101ee57602060405162ed4e008152f35b50346101ee57806003193601126101ee57602060405162093a808152f35b50346101ee5760203660031901126101ee576020611408600435611f28565b604051908152f35b50346101ee57806003193601126101ee57611429612072565b6114316122d1565b600160ff19815416176001557f62e78cea01bee320cd4e420270b5ea74000d11b0c9f74754ebdbfc544b05a2586020604051338152a180f35b50346101ee5760203660031901126101ee576001600160a01b0361148c611dff565b168152600b60205260408120604051918260208354918281520192825260208220915b8181106114c6576108628561085681870382611ce2565b82548452602090930192600192830192016114af565b50346101ee57806003193601126101ee5760206040516658d15e176280008152f35b50346117105760403660031901126117105760043560243567ffffffffffffffff811161171057611533903690600401611e72565b5f82815260056020526040902060018101546001600160a01b0316330361173757600b810160ff81541660058110156117235761171457805460ff191660031790556002546001600160a01b0316803b15611710575f80916024604051809481936352b2380960e01b83528960048401525af18015611705576116d0575b507f3d42b75be034f16e0201690ebcef5a16943dd203ee09ef1456e82f61d336dd38604060098593018054906115eb8260011c8093611f07565b90558151908152426020820152a2600154839060081c6001600160a01b0316803b1561053e5781809160a460405180948193634e7ce73f60e01b8352336004840152606319602484015260606044840152601260648401527110d85b5c185a59db8810d85b98d95b1b195960721b60848401525af18015610533576116bb575b50506116af7fcdaa0694c96cfdb1f3b74f7c0729680db4b89274a2f989ff02f7a7320024cb3f9161169b846121fb565b604051918291604083526040830190611db8565b4260208301520390a280f35b816116c591611ce2565b61103057825f61166b565b6116dd9194505f90611ce2565b5f927f3d42b75be034f16e0201690ebcef5a16943dd203ee09ef1456e82f61d336dd386115b1565b6040513d5f823e3d90fd5b5f80fd5b63219a945b60e11b5f5260045ffd5b634e487b7160e01b5f52602160045260245ffd5b63dea4837160e01b5f5260045ffd5b34611710575f36600319011261171057602060ff600154166040519015158152f35b34611710575f366003190112611710576004546040516001600160a01b039091168152602090f35b34611710576020366003190112611710576004355f52600560205260405f2060018060a01b0360018201541660068201546108626008840154600785015460ff600b870154169161183d6117e660028901611d18565b9761182f61180260046117fb60038501611d18565b9301611d18565b916118216040519b8c9b8c5261010060208d01526101008c0190611db8565b908a820360408c0152611db8565b9088820360608a0152611db8565b94608087015260a086015260c085015260e0840190611ddc565b34611710575f3660031901126117105761186f612072565b60015460ff8116156118ae5760ff19166001557f5db9ee0a495bf2e6ff9c91a7834c1ba4fdd244a5e8aa4e537bd38aeae4b073aa6020604051338152a1005b638dfc202b60e01b5f5260045ffd5b34611710575f366003190112611710576003546040516001600160a01b039091168152602090f35b34611710576040366003190112611710576118fe611dff565b6001600160a01b03165f908152600b60205260409020805460243591908210156117105760209161107b91611e41565b3461171057604036600319011261171057611947611de9565b336001600160a01b038216036119635761001a9060043561217b565b63334bd91960e11b5f5260045ffd5b34611710575f36600319011261171057602060405168056bc75e2d631000008152f35b346117105760403660031901126117105761001a6004356119b4611de9565b906119cd610804825f525f602052600160405f20015490565b6120f9565b346117105760203660031901126117105760206114086004355f525f602052600160405f20015490565b34611710576020366003190112611710576004355f52600660205260405f20604051806020835491828152019081935f5260205f20905f5b818110611a955750505081611a4a910382611ce2565b604051918291602083019060208452518091526040830191905f5b818110611a73575050500390f35b82516001600160a01b0316845285945060209384019390920191600101611a65565b82546001600160a01b0316845260209093019260019283019201611a34565b34611710576020366003190112611710576004355f52600a602052602060405f2054604051908152f35b34611710575f3660031901126117105760015460405160089190911c6001600160a01b03168152602090f35b34611710576020366003190112611710576004355f908152600560205260409020805460018201546001600160a01b031691611b4860028201611d18565b611b5460038301611d18565b91611b6160048201611d18565b92611b6e60058301611d18565b936006830154946007840154600885015491600986015493600a87015495600b88015497600c0154986040519c8d9c8d5260208d015260408c016101c090526101c08c01611bbb91611db8565b8b810360608d0152611bcc91611db8565b8a810360808c0152611bdd91611db8565b89810360a08b0152611bee91611db8565b9660c089015260e0880152610100870152610120860152610140850152610160840160ff821690611c1e91611ddc565b60081c60ff1615156101808401526101a08301520390f35b34611710575f366003190112611710576020604051662386f26fc100008152f35b34611710576020366003190112611710576004359063ffffffff60e01b821680920361171057602091637965db0b60e01b8114908115611c99575b5015158152f35b6301ffc9a760e01b14905083611c92565b90600182811c92168015611cd8575b6020831014611cc457565b634e487b7160e01b5f52602260045260245ffd5b91607f1691611cb9565b90601f8019910116810190811067ffffffffffffffff821117611d0457604052565b634e487b7160e01b5f52604160045260245ffd5b9060405191825f825492611d2b84611caa565b8084529360018116908115611d965750600114611d52575b50611d5092500383611ce2565b565b90505f9291925260205f20905f915b818310611d7a575050906020611d50928201015f611d43565b6020919350806001915483858901015201910190918492611d61565b905060209250611d5094915060ff191682840152151560051b8201015f611d43565b805180835260209291819084018484015e5f828201840152601f01601f1916010190565b9060058210156117235752565b602435906001600160a01b038216820361171057565b600435906001600160a01b038216820361171057565b600954811015611e2d5760095f5260205f2001905f90565b634e487b7160e01b5f52603260045260245ffd5b8054821015611e2d575f5260205f2001905f90565b67ffffffffffffffff8111611d0457601f01601f191660200190565b81601f8201121561171057803590611e8982611e56565b92611e976040519485611ce2565b8284526020838301011161171057815f926020809301838601378301015290565b60206040818301928281528451809452019201905f5b818110611edb5750505090565b8251845260209384019390920191600101611ece565b6040906003190112611710576004359060243590565b91908203918211611f1457565b634e487b7160e01b5f52601160045260245ffd5b5f52600560205260405f206006810154908115611f5a5760080154606481029080820460641490151715611f14570490565b50505f90565b90816020910312611710575180151581036117105790565b5f198114611f145760010190565b91908201809211611f1457565b67ffffffffffffffff8111611d045760051b60200190565b906009549081831015612057578181611fd593611fc9869485611f86565b11156120475750611f07565b611fde81611f93565b91611fec6040519384611ce2565b818352601f19611ffb83611f93565b013660208501375f5b8281106120115750505090565b61202361201e8284611f86565b611e15565b90549060031b1c908451811015611e2d5760019160208260051b8701015201612004565b612052915082611f86565b611f07565b505050604051612068602082611ce2565b5f81525f36813790565b335f9081527fad3228b676f7d3cd4284a5443f17f1962b36e491b30a40b2405849e597ba5fb5602052604090205460ff16156120aa57565b63e2517d3f60e01b5f52336004525f60245260445ffd5b5f8181526020818152604080832033845290915290205460ff16156120e35750565b63e2517d3f60e01b5f523360045260245260445ffd5b5f818152602081815260408083206001600160a01b038616845290915290205460ff16611f5a575f818152602081815260408083206001600160a01b0395909516808452949091528120805460ff19166001179055339291907f2f8788117e7eff1d82e926ec794901d17c78024a50270940304540a733656f0d9080a4600190565b5f818152602081815260408083206001600160a01b038616845290915290205460ff1615611f5a575f818152602081815260408083206001600160a01b0395909516808452949091528120805460ff19169055339291907ff6391f5c32d9c69d2a47ea670b442974b53935d1edc7fd64eb21e047a839171b9080a4600190565b805f52600a60205260405f20546009545f198101908111611f1457808210612269575b50506009548015612255575f190161223581611e15565b8154905f199060031b1b191690556009555f52600a6020525f6040812055565b634e487b7160e01b5f52603160045260245ffd5b61227290611e15565b90549060031b1c61228681610b7984611e15565b5f52600a60205260405f20555f8061221e565b60025f5160206122ed5f395f51905f5254146122c25760025f5160206122ed5f395f51905f5255565b633ee5aeb560e01b5f5260045ffd5b60ff600154166122dd57565b63d93c066560e01b5f5260045ffdfe9b779b17422d0df92223018b32b4d1fa46e071723d6817e2486d003becc55f00a26469706673582212207d276f5b2018647bde9bcfca0b2159795cda2c8804bfae54d86ccb029bc14ba364736f6c634300081e00332f8788117e7eff1d82e926ec794901d17c78024a50270940304540a733656f0d316a51056d8b2401ab04c48d9973add294eadde229c785c6d19cde93785467efad3228b676f7d3cd4284a5443f17f1962b36e491b30a40b2405849e597ba5fb5","linkReferences":{}},"methodIdentifiers":{"CAMPAIGN_STAKE()":"7ff4a493","DEFAULT_ADMIN_ROLE()":"a217fddf","GOVERNANCE_ROLE()":"f36c8f5c","MAX_CAMPAIGN_DURATION()":"8c7bc838","MAX_GOAL()":"309bb3f2","MIN_CAMPAIGN_DURATION()":"8aea3dc9","MIN_GOAL()":"041ae4c6","activeCampaignIds(uint256)":"992abd45","campaignActiveIndex(uint256)":"1c4ee68b","campaignCounter()":"fca604d7","campaignDonors(uint256,uint256)":"f25e1e93","campaigns(uint256)":"141961bc","cancelCampaign(uint256,string)":"6e21c775","completeCampaign(uint256)":"9553f180","createCampaign(string,string,string,string,uint256,uint256)":"a8aee940","donate(uint256)":"f14faf6f","donations(uint256,address)":"ee1554a3","endCampaign(uint256)":"dd0408ae","escrowManager()":"c12255c4","getActiveCampaigns(uint256,uint256)":"b6531458","getCampaign(uint256)":"5598f8cc","getCampaignDonors(uint256)":"209b7d5f","getCampaignProgress(uint256)":"8ab9b92a","getDonationAmount(uint256,address)":"e43826d8","getInstitutionCampaigns(address)":"80217c23","getRoleAdmin(bytes32)":"248a9ca3","grantRole(bytes32,address)":"2f2ff15d","hasRole(bytes32,address)":"91d14854","institutionCampaigns(address,uint256)":"391a0455","institutionRegistry()":"1b1fcb04","patToken()":"3d90e7ab","pause()":"8456cb59","paused()":"5c975abb","renounceRole(bytes32,address)":"36568abe","revokeRole(bytes32,address)":"d547741f","supportsInterface(bytes4)":"01ffc9a7","unpause()":"3f4ba83a","updateEscrowManager(address)":"8f1aad12","userRegistry()":"5c7460d6"},"id":51}