{"abi":[{"type":"constructor","inputs":[{"name":"_institutionRegistry","type":"address","internalType":"address"},{"name":"_escrowManager","type":"address","internalType":"address"},{"name":"_patToken","type":"address","internalType":"address"},{"name":"_userRegistry","type":"address","internalType":"address"},{"name":"admin","type":"address","internalType":"address"}],"stateMutability":"nonpayable"},{"type":"receive","stateMutability":"payable"},{"type":"function","name":"CAMPAIGN_STAKE","inputs":[],"outputs":[{"name":"","type":"uint256","internalType":"uint256"}],"stateMutability":"view"},{"type":"function","name":"DEFAULT_ADMIN_ROLE","inputs":[],"outputs":[{"name":"","type":"bytes32","internalType":"bytes32"}],"stateMutability":"view"},{"type":"function","name":"GOVERNANCE_ROLE","inputs":[],"outputs":[{"name":"","type":"bytes32","internalType":"bytes32"}],"stateMutability":"view"},{"type":"function","name":"MAX_CAMPAIGN_DURATION","inputs":[],"outputs":[{"name":"","type":"uint256","internalType":"uint256"}],"stateMutability":"view"},{"type":"function","name":"MAX_GOAL","inputs":[],"outputs":[{"name":"","type":"uint256","internalType":"uint256"}],"stateMutability":"view"},{"type":"function","name":"MIN_CAMPAIGN_DURATION","inputs":[],"outputs":[{"name":"","type":"uint256","internalType":"uint256"}],"stateMutability":"view"},{"type":"function","name":"MIN_GOAL","inputs":[],"outputs":[{"name":"","type":"uint256","internalType":"uint256"}],"stateMutability":"view"},{"type":"function","name":"activeCampaignIds","inputs":[{"name":"","type":"uint256","internalType":"uint256"}],"outputs":[{"name":"","type":"uint256","internalType":"uint256"}],"stateMutability":"view"},{"type":"function","name":"campaignActiveIndex","inputs":[{"name":"","type":"uint256","internalType":"uint256"}],"outputs":[{"name":"","type":"uint256","internalType":"uint256"}],"stateMutability":"view"},{"type":"function","name":"campaignCounter","inputs":[],"outputs":[{"name":"","type":"uint256","internalType":"uint256"}],"stateMutability":"view"},{"type":"function","name":"campaignDonors","inputs":[{"name":"","type":"uint256","internalType":"uint256"},{"name":"","type":"uint256","internalType":"uint256"}],"outputs":[{"name":"","type":"address","internalType":"address"}],"stateMutability":"view"},{"type":"function","name":"campaigns","inputs":[{"name":"","type":"uint256","internalType":"uint256"}],"outputs":[{"name":"id","type":"uint256","internalType":"uint256"},{"name":"institution","type":"address","internalType":"address"},{"name":"title","type":"string","internalType":"string"},{"name":"description","type":"string","internalType":"string"},{"name":"category","type":"string","internalType":"string"},{"name":"ipfsMetadata","type":"string","internalType":"string"},{"name":"goal","type":"uint256","internalType":"uint256"},{"name":"deadline","type":"uint256","internalType":"uint256"},{"name":"raised","type":"uint256","internalType":"uint256"},{"name":"stakeAmount","type":"uint256","internalType":"uint256"},{"name":"createdAt","type":"uint256","internalType":"uint256"},{"name":"status","type":"uint8","internalType":"enum CampaignFactory.CampaignStatus"},{"name":"fundsReleased","type":"bool","internalType":"bool"},{"name":"donorCount","type":"uint256","internalType":"uint256"}],"stateMutability":"view"},{"type":"function","name":"cancelCampaign","inputs":[{"name":"campaignId","type":"uint256","internalType":"uint256"},{"name":"reason","type":"string","internalType":"string"}],"outputs":[],"stateMutability":"nonpayable"},{"type":"function","name":"completeCampaign","inputs":[{"name":"campaignId","type":"uint256","internalType":"uint256"}],"outputs":[],"stateMutability":"nonpayable"},{"type":"function","name":"createCampaign","inputs":[{"name":"title","type":"string","internalType":"string"},{"name":"description","type":"string","internalType":"string"},{"name":"category","type":"string","internalType":"string"},{"name":"ipfsMetadata","type":"string","internalType":"string"},{"name":"goal","type":"uint256","internalType":"uint256"},{"name":"duration","type":"uint256","internalType":"uint256"}],"outputs":[{"name":"","type":"uint256","internalType":"uint256"}],"stateMutability":"payable"},{"type":"function","name":"donate","inputs":[{"name":"campaignId","type":"uint256","internalType":"uint256"}],"outputs":[],"stateMutability":"payable"},{"type":"function","name":"donations","inputs":[{"name":"","type":"uint256","internalType":"uint256"},{"name":"","type":"address","internalType":"address"}],"outputs":[{"name":"","type":"uint256","internalType":"uint256"}],"stateMutability":"view"},{"type":"function","name":"endCampaign","inputs":[{"name":"campaignId","type":"uint256","internalType":"uint256"}],"outputs":[],"stateMutability":"nonpayable"},{"type":"function","name":"escrowManager","inputs":[],"outputs":[{"name":"","type":"address","internalType":"contract EscrowManager"}],"stateMutability":"view"},{"type":"function","name":"getActiveCampaigns","inputs":[{"name":"offset","type":"uint256","internalType":"uint256"},{"name":"limit","type":"uint256","internalType":"uint256"}],"outputs":[{"name":"","type":"uint256[]","internalType":"uint256[]"}],"stateMutability":"view"},{"type":"function","name":"getCampaign","inputs":[{"name":"campaignId","type":"uint256","internalType":"uint256"}],"outputs":[{"name":"institution","type":"address","internalType":"address"},{"name":"title","type":"string","internalType":"string"},{"name":"description","type":"string","internalType":"string"},{"name":"category","type":"string","internalType":"string"},{"name":"goal","type":"uint256","internalType":"uint256"},{"name":"raised","type":"uint256","internalType":"uint256"},{"name":"deadline","type":"uint256","internalType":"uint256"},{"name":"status","type":"uint8","internalType":"enum CampaignFactory.CampaignStatus"}],"stateMutability":"view"},{"type":"function","name":"getCampaignDonationData","inputs":[{"name":"campaignId","type":"uint256","internalType":"uint256"}],"outputs":[{"name":"donors","type":"address[]","internalType":"address[]"},{"name":"amounts","type":"uint256[]","internalType":"uint256[]"},{"name":"title","type":"string","internalType":"string"}],"stateMutability":"view"},{"type":"function","name":"getCampaignDonors","inputs":[{"name":"campaignId","type":"uint256","internalType":"uint256"}],"outputs":[{"name":"","type":"address[]","internalType":"address[]"}],"stateMutability":"view"},{"type":"function","name":"getCampaignProgress","inputs":[{"name":"campaignId","type":"uint256","internalType":"uint256"}],"outputs":[{"name":"","type":"uint256","internalType":"uint256"}],"stateMutability":"view"},{"type":"function","name":"getDonationAmount","inputs":[{"name":"campaignId","type":"uint256","internalType":"uint256"},{"name":"donor","type":"address","internalType":"address"}],"outputs":[{"name":"","type":"uint256","internalType":"uint256"}],"stateMutability":"view"},{"type":"function","name":"getInstitutionCampaigns","inputs":[{"name":"institution","type":"address","internalType":"address"}],"outputs":[{"name":"","type":"uint256[]","internalType":"uint256[]"}],"stateMutability":"view"},{"type":"function","name":"getPlatformStats","inputs":[],"outputs":[{"name":"totalRaised","type":"uint256","internalType":"uint256"},{"name":"totalInstitutions","type":"uint256","internalType":"uint256"},{"name":"activeCampaignsCount","type":"uint256","internalType":"uint256"},{"name":"totalDonors","type":"uint256","internalType":"uint256"}],"stateMutability":"view"},{"type":"function","name":"getRoleAdmin","inputs":[{"name":"role","type":"bytes32","internalType":"bytes32"}],"outputs":[{"name":"","type":"bytes32","internalType":"bytes32"}],"stateMutability":"view"},{"type":"function","name":"grantRole","inputs":[{"name":"role","type":"bytes32","internalType":"bytes32"},{"name":"account","type":"address","internalType":"address"}],"outputs":[],"stateMutability":"nonpayable"},{"type":"function","name":"hasRole","inputs":[{"name":"role","type":"bytes32","internalType":"bytes32"},{"name":"account","type":"address","internalType":"address"}],"outputs":[{"name":"","type":"bool","internalType":"bool"}],"stateMutability":"view"},{"type":"function","name":"institutionCampaigns","inputs":[{"name":"","type":"address","internalType":"address"},{"name":"","type":"uint256","internalType":"uint256"}],"outputs":[{"name":"","type":"uint256","internalType":"uint256"}],"stateMutability":"view"},{"type":"function","name":"institutionRegistry","inputs":[],"outputs":[{"name":"","type":"address","internalType":"contract InstitutionRegistry"}],"stateMutability":"view"},{"type":"function","name":"patToken","inputs":[],"outputs":[{"name":"","type":"address","internalType":"contract PATToken"}],"stateMutability":"view"},{"type":"function","name":"pause","inputs":[],"outputs":[],"stateMutability":"nonpayable"},{"type":"function","name":"paused","inputs":[],"outputs":[{"name":"","type":"bool","internalType":"bool"}],"stateMutability":"view"},{"type":"function","name":"renounceRole","inputs":[{"name":"role","type":"bytes32","internalType":"bytes32"},{"name":"callerConfirmation","type":"address","internalType":"address"}],"outputs":[],"stateMutability":"nonpayable"},{"type":"function","name":"revokeRole","inputs":[{"name":"role","type":"bytes32","internalType":"bytes32"},{"name":"account","type":"address","internalType":"address"}],"outputs":[],"stateMutability":"nonpayable"},{"type":"function","name":"supportsInterface","inputs":[{"name":"interfaceId","type":"bytes4","internalType":"bytes4"}],"outputs":[{"name":"","type":"bool","internalType":"bool"}],"stateMutability":"view"},{"type":"function","name":"totalPlatformRaised","inputs":[],"outputs":[{"name":"","type":"uint256","internalType":"uint256"}],"stateMutability":"view"},{"type":"function","name":"unpause","inputs":[],"outputs":[],"stateMutability":"nonpayable"},{"type":"function","name":"updateEscrowManager","inputs":[{"name":"newEscrow","type":"address","internalType":"address"}],"outputs":[],"stateMutability":"nonpayable"},{"type":"function","name":"userRegistry","inputs":[],"outputs":[{"name":"","type":"address","internalType":"contract UserRegistry"}],"stateMutability":"view"},{"type":"event","name":"CampaignCancelled","inputs":[{"name":"campaignId","type":"uint256","indexed":true,"internalType":"uint256"},{"name":"reason","type":"string","indexed":false,"internalType":"string"},{"name":"timestamp","type":"uint256","indexed":false,"internalType":"uint256"}],"anonymous":false},{"type":"event","name":"CampaignCreated","inputs":[{"name":"campaignId","type":"uint256","indexed":true,"internalType":"uint256"},{"name":"institution","type":"address","indexed":true,"internalType":"address"},{"name":"title","type":"string","indexed":false,"internalType":"string"},{"name":"goal","type":"uint256","indexed":false,"internalType":"uint256"},{"name":"deadline","type":"uint256","indexed":false,"internalType":"uint256"},{"name":"timestamp","type":"uint256","indexed":false,"internalType":"uint256"}],"anonymous":false},{"type":"event","name":"CampaignEnded","inputs":[{"name":"campaignId","type":"uint256","indexed":true,"internalType":"uint256"},{"name":"successful","type":"bool","indexed":false,"internalType":"bool"},{"name":"totalRaised","type":"uint256","indexed":false,"internalType":"uint256"},{"name":"timestamp","type":"uint256","indexed":false,"internalType":"uint256"}],"anonymous":false},{"type":"event","name":"CampaignGoalReached","inputs":[{"name":"campaignId","type":"uint256","indexed":true,"internalType":"uint256"},{"name":"totalRaised","type":"uint256","indexed":false,"internalType":"uint256"},{"name":"timestamp","type":"uint256","indexed":false,"internalType":"uint256"}],"anonymous":false},{"type":"event","name":"DonationReceived","inputs":[{"name":"campaignId","type":"uint256","indexed":true,"internalType":"uint256"},{"name":"donor","type":"address","indexed":true,"internalType":"address"},{"name":"amount","type":"uint256","indexed":false,"internalType":"uint256"},{"name":"timestamp","type":"uint256","indexed":false,"internalType":"uint256"}],"anonymous":false},{"type":"event","name":"Paused","inputs":[{"name":"account","type":"address","indexed":false,"internalType":"address"}],"anonymous":false},{"type":"event","name":"RoleAdminChanged","inputs":[{"name":"role","type":"bytes32","indexed":true,"internalType":"bytes32"},{"name":"previousAdminRole","type":"bytes32","indexed":true,"internalType":"bytes32"},{"name":"newAdminRole","type":"bytes32","indexed":true,"internalType":"bytes32"}],"anonymous":false},{"type":"event","name":"RoleGranted","inputs":[{"name":"role","type":"bytes32","indexed":true,"internalType":"bytes32"},{"name":"account","type":"address","indexed":true,"internalType":"address"},{"name":"sender","type":"address","indexed":true,"internalType":"address"}],"anonymous":false},{"type":"event","name":"RoleRevoked","inputs":[{"name":"role","type":"bytes32","indexed":true,"internalType":"bytes32"},{"name":"account","type":"address","indexed":true,"internalType":"address"},{"name":"sender","type":"address","indexed":true,"internalType":"address"}],"anonymous":false},{"type":"event","name":"StakeCut","inputs":[{"name":"campaignId","type":"uint256","indexed":true,"internalType":"uint256"},{"name":"amount","type":"uint256","indexed":false,"internalType":"uint256"},{"name":"timestamp","type":"uint256","indexed":false,"internalType":"uint256"}],"anonymous":false},{"type":"event","name":"Unpaused","inputs":[{"name":"account","type":"address","indexed":false,"internalType":"address"}],"anonymous":false},{"type":"error","name":"AccessControlBadConfirmation","inputs":[]},{"type":"error","name":"AccessControlUnauthorizedAccount","inputs":[{"name":"account","type":"address","internalType":"address"},{"name":"neededRole","type":"bytes32","internalType":"bytes32"}]},{"type":"error","name":"CampaignAlreadyEnded","inputs":[]},{"type":"error","name":"CampaignNotActive","inputs":[]},{"type":"error","name":"CampaignNotFound","inputs":[]},{"type":"error","name":"DeadlineNotReached","inputs":[]},{"type":"error","name":"DeadlinePassed","inputs":[]},{"type":"error","name":"EnforcedPause","inputs":[]},{"type":"error","name":"ExpectedPause","inputs":[]},{"type":"error","name":"FundsNotReleased","inputs":[]},{"type":"error","name":"InstitutionNotVerified","inputs":[]},{"type":"error","name":"InvalidAmount","inputs":[]},{"type":"error","name":"InvalidCampaignGoal","inputs":[]},{"type":"error","name":"InvalidDeadline","inputs":[]},{"type":"error","name":"InvalidParameter","inputs":[]},{"type":"error","name":"InvalidStakeAmount","inputs":[]},{"type":"error","name":"ReentrancyGuardReentrantCall","inputs":[]},{"type":"error","name":"TransferFailed","inputs":[]},{"type":"error","name":"UnauthorizedCampaignCreator","inputs":[]},{"type":"error","name":"ZeroAddress","inputs":[]}],"bytecode":{"object":"0x6080346101a357601f6129b238819003918201601f19168301916001600160401b038311848410176101a75780849260a0946040528339810103126101a357610047816101bb565b90610054602082016101bb565b90610061604082016101bb565b6100796080610072606085016101bb565b93016101bb565b60017f9b779b17422d0df92223018b32b4d1fa46e071723d6817e2486d003becc55f0055926001600160a01b038516158015610192575b8015610181575b8015610170575b801561015f575b6101505760018054610100600160a81b03191660089690961b610100600160a81b031695909517909455600280546001600160a01b03199081166001600160a01b0396871617909155600380548216928616929092179091556004805490911691909316179091556101409061013a816101cf565b50610245565b5060405161267990816102d98239f35b63d92e233d60e01b5f5260045ffd5b506001600160a01b038416156100c5565b506001600160a01b038316156100be565b506001600160a01b038216156100b7565b506001600160a01b038116156100b0565b5f80fd5b634e487b7160e01b5f52604160045260245ffd5b51906001600160a01b03821682036101a357565b6001600160a01b0381165f9081525f5160206129925f395f51905f52602052604090205460ff16610240576001600160a01b03165f8181525f5160206129925f395f51905f5260205260408120805460ff191660011790553391905f5160206129525f395f51905f528180a4600190565b505f90565b6001600160a01b0381165f9081525f5160206129725f395f51905f52602052604090205460ff16610240576001600160a01b03165f8181525f5160206129725f395f51905f5260205260408120805460ff191660011790553391907f71840dc4906352362b0cdaf79870196c8e42acafade72d5d5a6d59291253ceb1905f5160206129525f395f51905f529080a460019056fe608080604052600436101561001c575b50361561001a575f80fd5b005b5f905f3560e01c90816301ffc9a714611f3b57508063041ae4c614611f1b578063136d888314611e18578063141961bc14611cec5780631b1fcb0414611cc05780631c4ee68b14611c96578063209b7d5f14611c15578063248a9ca314611beb5780632f2ff15d14611bae578063309bb3f214611b8b57806336568abe14611b47578063391a045514611afe5780633d90e7ab14611ad65780633f4ba83a14611a705780635598f8cc146119a95780635c7460d6146119815780635c8cf6b6146119645780635c975abb146119425780636e21c775146116fa5780637c80b736146115d85780637ff4a493146115b757806380217c23146115455780638456cb59146114eb5780638ab9b92a146114c45780638aea3dc9146114a65780638c7bc838146114885780638f1aad121461142d57806391d14854146113e45780639553f180146110e3578063992abd45146110a9578063a217fddf1461108d578063a8aee9401461089f578063b65314581461086c578063c12255c414610843578063d547741f146107fc578063dd0408ae14610670578063e43826d81461062b578063ee1554a31461062b578063f14faf6f14610298578063f25e1e931461024d578063f36c8f5c146102125763fca604d70361000f573461020f578060031936011261020f576020600854604051908152f35b80fd5b503461020f578060031936011261020f5760206040517f71840dc4906352362b0cdaf79870196c8e42acafade72d5d5a6d59291253ceb18152f35b503461020f5761025c3661220b565b9190815260066020526040812090815483101561020f57602061027f8484612161565b905460405160039290921b1c6001600160a01b03168152f35b50602036600319011261020f576004356102b06125d0565b6102b8612608565b8082526005602052604082208181540361061c57600b810160ff8154166005811015610537578015159081610610575b5061060157600782015442116105f25734156105e357828452600760209081526040808620335f908152925290205415610573575b82845260076020526040842060018060a01b0333165f5260205260405f206103463482546122fe565b905560088201916103583484546122fe565b835560025485906001600160a01b0316803b1561056f57816044916040519283809263401d70c960e11b82528a600483015233602483015234905af180156105645761054b575b5050604051348152426020820152847f3dbea1b4ce5f95137fdcac9b1d685825c3d70ace830df1ca5a181d3887add41060403393a36103e034600c546122fe565b600c5560068354910154111580610522575b6104de575b505050610bb83402348104610bb8036104ca576003548291906001600160a01b0316803b156104c6576040516309d99bb760e01b8152336004820152602481019290925282908290604490829084905af16104b1575b506004546001600160a01b0316803b156104ae5781809160246040518094819363d168465760e01b83523360048401525af1610499575b5060015f5160206126245f395f51905f525580f35b816104a391611fc6565b61020f57805f610484565b50fd5b816104bb91611fc6565b61020f57805f61044d565b5050fd5b634e487b7160e01b82526011600452602482fd5b805460ff1916600117905554604080519182524260208301527fd8d347acf5a316df55df4d039cac3621ab84f287c26bcbcccd3aa2250996301191a25f80806103f7565b5060ff815416600581101561053757156103f2565b634e487b7160e01b85526021600452602485fd5b8161055591611fc6565b61056057845f61039f565b8480fd5b6040513d84823e3d90fd5b5080fd5b600c820161058181546122f0565b9055828452600660205260408420805490600160401b8210156105cf57906105ae91600182018155612161565b81546001600160a01b0360039290921b91821b19163390911b17905561031d565b634e487b7160e01b86526041600452602486fd5b63162908e360e11b8452600484fd5b63387b2e5560e11b8452600484fd5b63219a945b60e11b8452600484fd5b6001915014155f6102e8565b6337f9b70b60e11b8352600483fd5b503461020f57604036600319011261020f576040610647612109565b9160043581526007602052209060018060a01b03165f52602052602060405f2054604051908152f35b503461020f57602036600319011261020f576004359061068e612608565b81815260056020526040812060018101549092906001600160a01b0316156107ed57600b830160ff8154166005811015908161053757600281149182156107e0575b82156107bb575b50506107ac576007840154421061079d57817fb08e1ab37063e3923cffc12a3d0f40784e4beea9eda44c005fccaba6bb497f46606086600887980190600682549101541194600260ff1982541617905561073084612532565b5460405190851582526020820152426040820152a261074c5750f35b6002546001600160a01b031690813b156104c65782916024839260405194859384926352b2380960e01b845260048401525af180156105645761078c5750f35b8161079691611fc6565b61020f5780f35b633376277360e11b8352600483fd5b63287e67e760e01b8352600483fd5b9091506107cc576004145f806106d7565b634e487b7160e01b84526021600452602484fd5b50600381149150846106d0565b6337f9b70b60e11b8252600482fd5b503461020f57604036600319011261020f5761083f60043561081c612109565b9061083a610835825f525f602052600160405f20015490565b6123f8565b6124b2565b5080f35b503461020f578060031936011261020f576002546040516001600160a01b039091168152602090f35b503461020f5761089b6108876108813661220b565b9061230b565b6040519182916020835260208301906121d8565b0390f35b5060c036600319011261020f5760043567ffffffffffffffff811161056f576108cc903690600401612192565b9060243567ffffffffffffffff811161056f576108ed903690600401612192565b60443567ffffffffffffffff81116110895761090d903690600401612192565b60643567ffffffffffffffff81116110855761092d903690600401612192565b926084359260a4359461093e6125d0565b610946612608565b600154604051633adc43a760e01b8152336004820152906020908290602490829060081c6001600160a01b03165afa90811561107a57849161104b575b501561103c576516bcc41e9000340361102d576509184e72a0008510801561101b575b61100c5762093a8086108015611000575b610ff1578651158015610fe8575b610fd9576109e2600854966109d9886122f0565b600855426122fe565b938684526005602052604084209287845560018401336bffffffffffffffffffffffff60a01b82541617905560028401895167ffffffffffffffff8111610f0557610a2d8254611f8e565b601f8111610f87575b50806020601f8211600114610f24578891610f19575b508160011b915f199060031b1c19161790555b8051600385019167ffffffffffffffff8211610f05578190610a818454611f8e565b601f8111610eab575b50602090601f8311600114610e49578892610e3e575b50508160011b915f199060031b1c19161790555b8051600484019167ffffffffffffffff82116105cf578190610ad68454611f8e565b601f8111610de4575b50602090601f8311600114610d82578792610d77575b50508160011b915f199060031b1c19161790555b8051600583019167ffffffffffffffff8211610d63578190610b2b8454611f8e565b601f8111610d09575b50602090601f8311600114610ca7578692610c9c575b50508160011b915f199060031b1c19161790555b836006820155826007820155346009820155600b810160ff198154169055600a42910155600954600160401b811015610c885784610ba7826001610bbf94016009556009612161565b90919082549060031b91821b915f19901b1916179055565b6009545f1981019081116104ca57848252600a6020526040822055338152600b60205260408120805491600160401b831015610c745750948492610c3084610ba78560209a60017f9a6f279818b6c3ecad22dd882c63460a80cee0df2841c888adb08588aff26c2298018155612161565b610c456040519260808452608084019061209c565b948783015260408201524260608201528033940390a360015f5160206126245f395f51905f5255604051908152f35b634e487b7160e01b81526041600452602490fd5b634e487b7160e01b82526041600452602482fd5b015190505f80610b4a565b8487528187209250601f198416875b818110610cf15750908460019594939210610cd9575b505050811b019055610b5e565b01515f1960f88460031b161c191690555f8080610ccc565b92936020600181928786015181550195019301610cb6565b82811115610b345790915083865260208620601f840160051c9060208510610d5b575b849392601f0160051c8290039101875b828110610d4a575050610b34565b808201899055859450600101610d3c565b879150610d2c565b634e487b7160e01b85526041600452602485fd5b015190505f80610af5565b8488528188209250601f198416885b818110610dcc5750908460019594939210610db4575b505050811b019055610b09565b01515f1960f88460031b161c191690555f8080610da7565b92936020600181928786015181550195019301610d91565b82811115610adf5790915083875260208720601f840160051c9060208510610e36575b849392601f0160051c8290039101885b828110610e25575050610adf565b8082018a9055859450600101610e17565b889150610e07565b015190505f80610aa0565b8489528189209250601f198416895b818110610e935750908460019594939210610e7b575b505050811b019055610ab4565b01515f1960f88460031b161c191690555f8080610e6e565b92936020600181928786015181550195019301610e58565b82811115610a8a5790915083885260208820601f840160051c9060208510610efd575b849392601f0160051c8290039101895b828110610eec575050610a8a565b8082018b9055859450600101610ede565b899150610ece565b634e487b7160e01b87526041600452602487fd5b90508b01515f610a4c565b8389528089209150601f198316898e5b828210610f6e5750509083600194939210610f56575b5050811b019055610a5f565b8d01515f1960f88460031b161c191690555f80610f4a565b600184956020939584930151815501940192018e610f34565b81811115610a365782885260208820601f830160051c9060208410610fd1575b81601f9101920160051c0390885b828110610fc3575050610a36565b808a60019284015501610fb5565b899150610fa7565b630309cb8760e51b8352600483fd5b508151156109c5565b631da7447960e21b8352600483fd5b5062ed4e0086116109b7565b63ddad631360e01b8352600483fd5b5068056bc75e2d6310000085116109a6565b630103be3b60e21b8352600483fd5b631c117d4160e21b8352600483fd5b61106d915060203d602011611073575b6110658183611fc6565b8101906122d8565b5f610983565b503d61105b565b6040513d86823e3d90fd5b8380fd5b8280fd5b503461020f578060031936011261020f57602090604051908152f35b503461020f57602036600319011261020f576004359060095482101561020f5760206110d483612135565b90549060031b1c604051908152f35b503461020f57602036600319011261020f577f71840dc4906352362b0cdaf79870196c8e42acafade72d5d5a6d59291253ceb1815260208181526040808320335f9081529252902054600435919060ff16156113ad5781815260056020526040812091600b83019060ff82541660058110156107cc5760020361139e57600254604051630186e4ad60e71b81526004810192909252602090829060249082906001600160a01b03165afa908115611393578391611374575b501561136557600460ff1982541617905560098201818154915581808080600187019460018060a01b038654165af13d15611360573d6111da81612176565b906111e86040519283611fc6565b81528360203d92013e5b1561135157600154815492938493909160081c6001600160a01b039081169116813b1561056057849160a483926040519485938492634e7ce73f60e01b845260048401526032602484015260606044840152601f60648401527f43616d706169676e20436f6d706c65746564205375636365737366756c6c790060848401525af190811561107a57849161133c575b50506001548254600892830154926001600160a01b0392901c82169116813b1561056057604051632494fa3760e21b81526001600160a01b03919091166004820152602481019290925283919082908290604490829084905af1611327575b505060035490546001600160a01b039182169116813b156104c6578291602483926040519485938492633beaa6e760e11b845260048401525af180156105645761078c5750f35b8161133191611fc6565b6104ae57815f6112e0565b8161134691611fc6565b6104c657825f611281565b6312171d8360e31b8252600482fd5b6111f2565b63328f4ba960e11b8252600482fd5b61138d915060203d602011611073576110658183611fc6565b5f61119b565b6040513d85823e3d90fd5b63219a945b60e11b8352600483fd5b63e2517d3f60e01b8152336004527f71840dc4906352362b0cdaf79870196c8e42acafade72d5d5a6d59291253ceb1602452604490fd5b503461020f57604036600319011261020f576040611400612109565b91600435815280602052209060018060a01b03165f52602052602060ff60405f2054166040519015158152f35b503461020f57602036600319011261020f5761144761211f565b61144f6123a9565b6001600160a01b03168015611479576bffffffffffffffffffffffff60a01b600254161760025580f35b63d92e233d60e01b8252600482fd5b503461020f578060031936011261020f57602060405162ed4e008152f35b503461020f578060031936011261020f57602060405162093a808152f35b503461020f57602036600319011261020f5760206114e36004356122a0565b604051908152f35b503461020f578060031936011261020f576115046123a9565b61150c612608565b600160ff19815416176001557f62e78cea01bee320cd4e420270b5ea74000d11b0c9f74754ebdbfc544b05a2586020604051338152a180f35b503461020f57602036600319011261020f576001600160a01b0361156761211f565b168152600b60205260408120604051918260208354918281520192825260208220915b8181106115a15761089b8561088781870382611fc6565b825484526020909301926001928301920161158a565b503461020f578060031936011261020f5760206040516516bcc41e90008152f35b503461020f57602036600319011261020f57600435808252600660205260408220906040518083602082955493848152019086526020862092865b8181106116d857505061162892500383611fc6565b808352600560205261163f60026040852001611ffc565b9161164a815161225a565b91845b825181101561169c57818652600760205260408620600191906001600160a01b03611678838761228c565b5116838060a01b03165f5260205260405f2054611695828761228c565b520161164d565b6116bc8361089b876116ca886040519586956060875260608701906120cd565b9085820360208701526121d8565b90838203604085015261209c565b84546001600160a01b0316835260019485019487945060209093019201611613565b503461190c57604036600319011261190c5760043560243567ffffffffffffffff811161190c5761172f903690600401612192565b5f82815260056020526040902060018101546001600160a01b0316330361193357600b810160ff815416600581101561191f5761191057805460ff191660031790556002546001600160a01b0316803b1561190c575f80916024604051809481936352b2380960e01b83528960048401525af18015611901576118cc575b507f3d42b75be034f16e0201690ebcef5a16943dd203ee09ef1456e82f61d336dd38604060098593018054906117e78260011c8093612221565b90558151908152426020820152a2600154839060081c6001600160a01b0316803b1561056f5781809160a460405180948193634e7ce73f60e01b8352336004840152606319602484015260606044840152601260648401527110d85b5c185a59db8810d85b98d95b1b195960721b60848401525af18015610564576118b7575b50506118ab7fcdaa0694c96cfdb1f3b74f7c0729680db4b89274a2f989ff02f7a7320024cb3f9161189784612532565b60405191829160408352604083019061209c565b4260208301520390a280f35b816118c191611fc6565b61108957825f611867565b6118d99194505f90611fc6565b5f927f3d42b75be034f16e0201690ebcef5a16943dd203ee09ef1456e82f61d336dd386117ad565b6040513d5f823e3d90fd5b5f80fd5b63219a945b60e11b5f5260045ffd5b634e487b7160e01b5f52602160045260245ffd5b63dea4837160e01b5f5260045ffd5b3461190c575f36600319011261190c57602060ff600154166040519015158152f35b3461190c575f36600319011261190c576020600c54604051908152f35b3461190c575f36600319011261190c576004546040516001600160a01b039091168152602090f35b3461190c57602036600319011261190c576004355f52600560205260405f2060018060a01b03600182015416600682015461089b6008840154600785015460ff600b8701541691611a566119ff60028901611ffc565b97611a48611a1b6004611a1460038501611ffc565b9301611ffc565b91611a3a6040519b8c9b8c5261010060208d01526101008c019061209c565b908a820360408c015261209c565b9088820360608a015261209c565b94608087015260a086015260c085015260e08401906120c0565b3461190c575f36600319011261190c57611a886123a9565b60015460ff811615611ac75760ff19166001557f5db9ee0a495bf2e6ff9c91a7834c1ba4fdd244a5e8aa4e537bd38aeae4b073aa6020604051338152a1005b638dfc202b60e01b5f5260045ffd5b3461190c575f36600319011261190c576003546040516001600160a01b039091168152602090f35b3461190c57604036600319011261190c57611b1761211f565b6001600160a01b03165f908152600b602052604090208054602435919082101561190c576020916110d491612161565b3461190c57604036600319011261190c57611b60612109565b336001600160a01b03821603611b7c5761001a906004356124b2565b63334bd91960e11b5f5260045ffd5b3461190c575f36600319011261190c57602060405168056bc75e2d631000008152f35b3461190c57604036600319011261190c5761001a600435611bcd612109565b90611be6610835825f525f602052600160405f20015490565b612430565b3461190c57602036600319011261190c5760206114e36004355f525f602052600160405f20015490565b3461190c57602036600319011261190c576004355f52600660205260405f206040519081602082549182815201915f5260205f20905f5b818110611c775761089b85611c6381870382611fc6565b6040519182916020835260208301906120cd565b82546001600160a01b0316845260209093019260019283019201611c4c565b3461190c57602036600319011261190c576004355f52600a602052602060405f2054604051908152f35b3461190c575f36600319011261190c5760015460405160089190911c6001600160a01b03168152602090f35b3461190c57602036600319011261190c576004355f908152600560205260409020805460018201546001600160a01b031691611d2a60028201611ffc565b611d3660038301611ffc565b91611d4360048201611ffc565b92611d5060058301611ffc565b936006830154946007840154600885015491600986015493600a87015495600b88015497600c0154986040519c8d9c8d5260208d015260408c016101c090526101c08c01611d9d9161209c565b8b810360608d0152611dae9161209c565b8a810360808c0152611dbf9161209c565b89810360a08b0152611dd09161209c565b9660c089015260e0880152610100870152610120860152610140850152610160840160ff821690611e00916120c0565b60081c60ff1615156101808401526101a08301520390f35b3461190c575f36600319011261190c57600c54600154604051632ca2cc5f60e11b815291906020908390600490829060081c6001600160a01b03165afa8015611901575f90611ee8575b6009546004805460405163038a0d2560e51b81529550602091869182906001600160a01b03165afa918215611901575f92611eb3575b60809450604051938452602084015260408301526060820152f35b91506020843d602011611ee0575b81611ece60209383611fc6565b8101031261190c576080935191611e98565b3d9150611ec1565b506020823d602011611f13575b81611f0260209383611fc6565b8101031261190c5760049151611e62565b3d9150611ef5565b3461190c575f36600319011261190c5760206040516509184e72a0008152f35b3461190c57602036600319011261190c576004359063ffffffff60e01b821680920361190c57602091637965db0b60e01b8114908115611f7d575b5015158152f35b6301ffc9a760e01b14905083611f76565b90600182811c92168015611fbc575b6020831014611fa857565b634e487b7160e01b5f52602260045260245ffd5b91607f1691611f9d565b90601f8019910116810190811067ffffffffffffffff821117611fe857604052565b634e487b7160e01b5f52604160045260245ffd5b9060405191825f82549261200f84611f8e565b808452936001811690811561207a5750600114612036575b5061203492500383611fc6565b565b90505f9291925260205f20905f915b81831061205e575050906020612034928201015f612027565b6020919350806001915483858901015201910190918492612045565b90506020925061203494915060ff191682840152151560051b8201015f612027565b805180835260209291819084018484015e5f828201840152601f01601f1916010190565b90600582101561191f5752565b90602080835192838152019201905f5b8181106120ea5750505090565b82516001600160a01b03168452602093840193909201916001016120dd565b602435906001600160a01b038216820361190c57565b600435906001600160a01b038216820361190c57565b60095481101561214d5760095f5260205f2001905f90565b634e487b7160e01b5f52603260045260245ffd5b805482101561214d575f5260205f2001905f90565b67ffffffffffffffff8111611fe857601f01601f191660200190565b81601f8201121561190c578035906121a982612176565b926121b76040519485611fc6565b8284526020838301011161190c57815f926020809301838601378301015290565b90602080835192838152019201905f5b8181106121f55750505090565b82518452602093840193909201916001016121e8565b604090600319011261190c576004359060243590565b9190820391821161222e57565b634e487b7160e01b5f52601160045260245ffd5b67ffffffffffffffff8111611fe85760051b60200190565b9061226482612242565b6122716040519182611fc6565b8281528092612282601f1991612242565b0190602036910137565b805182101561214d5760209160051b010190565b5f52600560205260405f2060068101549081156122d2576008015460648102908082046064149015171561222e570490565b50505f90565b9081602091031261190c5751801515810361190c5790565b5f19811461222e5760010190565b9190820180921161222e57565b9190600954908184101561238d5781816123369361232a8794856122fe565b111561237d5750612221565b61233f8161225a565b905f5b818110612350575090925050565b80612365612360600193886122fe565b612135565b90549060031b1c612376828661228c565b5201612342565b6123889150826122fe565b612221565b5050905060405161239f602082611fc6565b5f81525f36813790565b335f9081527fad3228b676f7d3cd4284a5443f17f1962b36e491b30a40b2405849e597ba5fb5602052604090205460ff16156123e157565b63e2517d3f60e01b5f52336004525f60245260445ffd5b5f8181526020818152604080832033845290915290205460ff161561241a5750565b63e2517d3f60e01b5f523360045260245260445ffd5b5f818152602081815260408083206001600160a01b038616845290915290205460ff166122d2575f818152602081815260408083206001600160a01b0395909516808452949091528120805460ff19166001179055339291907f2f8788117e7eff1d82e926ec794901d17c78024a50270940304540a733656f0d9080a4600190565b5f818152602081815260408083206001600160a01b038616845290915290205460ff16156122d2575f818152602081815260408083206001600160a01b0395909516808452949091528120805460ff19169055339291907ff6391f5c32d9c69d2a47ea670b442974b53935d1edc7fd64eb21e047a839171b9080a4600190565b805f52600a60205260405f20546009545f19810190811161222e578082106125a0575b5050600954801561258c575f190161256c81612135565b8154905f199060031b1b191690556009555f52600a6020525f6040812055565b634e487b7160e01b5f52603160045260245ffd5b6125a990612135565b90549060031b1c6125bd81610ba784612135565b5f52600a60205260405f20555f80612555565b60025f5160206126245f395f51905f5254146125f95760025f5160206126245f395f51905f5255565b633ee5aeb560e01b5f5260045ffd5b60ff6001541661261457565b63d93c066560e01b5f5260045ffdfe9b779b17422d0df92223018b32b4d1fa46e071723d6817e2486d003becc55f00a2646970667358221220f18f75575b619af97ec4c37eaeaf019b2af0749ce235cc300e062b4d9fbf2da764736f6c634300082100332f8788117e7eff1d82e926ec794901d17c78024a50270940304540a733656f0d316a51056d8b2401ab04c48d9973add294eadde229c785c6d19cde93785467efad3228b676f7d3cd4284a5443f17f1962b36e491b30a40b2405849e597ba5fb5","linkReferences":{}},"methodIdentifiers":{"CAMPAIGN_STAKE()":"7ff4a493","DEFAULT_ADMIN_ROLE()":"a217fddf","GOVERNANCE_ROLE()":"f36c8f5c","MAX_CAMPAIGN_DURATION()":"8c7bc838","MAX_GOAL()":"309bb3f2","MIN_CAMPAIGN_DURATION()":"8aea3dc9","MIN_GOAL()":"041ae4c6","activeCampaignIds(uint256)":"992abd45","campaignActiveIndex(uint256)":"1c4ee68b","campaignCounter()":"fca604d7","campaignDonors(uint256,uint256)":"f25e1e93","campaigns(uint256)":"141961bc","cancelCampaign(uint256,string)":"6e21c775","completeCampaign(uint256)":"9553f180","createCampaign(string,string,string,string,uint256,uint256)":"a8aee940","donate(uint256)":"f14faf6f","donations(uint256,address)":"ee1554a3","endCampaign(uint256)":"dd0408ae","escrowManager()":"c12255c4","getActiveCampaigns(uint256,uint256)":"b6531458","getCampaign(uint256)":"5598f8cc","getCampaignDonationData(uint256)":"7c80b736","getCampaignDonors(uint256)":"209b7d5f","getCampaignProgress(uint256)":"8ab9b92a","getDonationAmount(uint256,address)":"e43826d8","getInstitutionCampaigns(address)":"80217c23","getPlatformStats()":"136d8883","getRoleAdmin(bytes32)":"248a9ca3","grantRole(bytes32,address)":"2f2ff15d","hasRole(bytes32,address)":"91d14854","institutionCampaigns(address,uint256)":"391a0455","institutionRegistry()":"1b1fcb04","patToken()":"3d90e7ab","pause()":"8456cb59","paused()":"5c975abb","renounceRole(bytes32,address)":"36568abe","revokeRole(bytes32,address)":"d547741f","supportsInterface(bytes4)":"01ffc9a7","totalPlatformRaised()":"5c8cf6b6","unpause()":"3f4ba83a","updateEscrowManager(address)":"8f1aad12","userRegistry()":"5c7460d6"},"id":51}