{"abi":[{"type":"constructor","inputs":[{"name":"admin","type":"address","internalType":"address"}],"stateMutability":"nonpayable"},{"type":"function","name":"DEFAULT_ADMIN_ROLE","inputs":[],"outputs":[{"name":"","type":"bytes32","internalType":"bytes32"}],"stateMutability":"view"},{"type":"function","name":"MINTER_ROLE","inputs":[],"outputs":[{"name":"","type":"bytes32","internalType":"bytes32"}],"stateMutability":"view"},{"type":"function","name":"approve","inputs":[{"name":"to","type":"address","internalType":"address"},{"name":"tokenId","type":"uint256","internalType":"uint256"}],"outputs":[],"stateMutability":"nonpayable"},{"type":"function","name":"balanceOf","inputs":[{"name":"owner","type":"address","internalType":"address"}],"outputs":[{"name":"","type":"uint256","internalType":"uint256"}],"stateMutability":"view"},{"type":"function","name":"batchMintReceipts","inputs":[{"name":"campaignId","type":"uint256","internalType":"uint256"},{"name":"donors","type":"address[]","internalType":"address[]"},{"name":"amounts","type":"uint256[]","internalType":"uint256[]"},{"name":"donatedAts","type":"uint256[]","internalType":"uint256[]"},{"name":"campaignTitle","type":"string","internalType":"string"},{"name":"ipfsMetadata","type":"string","internalType":"string"}],"outputs":[],"stateMutability":"nonpayable"},{"type":"function","name":"campaignDonorToken","inputs":[{"name":"","type":"uint256","internalType":"uint256"},{"name":"","type":"address","internalType":"address"}],"outputs":[{"name":"","type":"uint256","internalType":"uint256"}],"stateMutability":"view"},{"type":"function","name":"donorTokens","inputs":[{"name":"","type":"address","internalType":"address"},{"name":"","type":"uint256","internalType":"uint256"}],"outputs":[{"name":"","type":"uint256","internalType":"uint256"}],"stateMutability":"view"},{"type":"function","name":"getApproved","inputs":[{"name":"tokenId","type":"uint256","internalType":"uint256"}],"outputs":[{"name":"","type":"address","internalType":"address"}],"stateMutability":"view"},{"type":"function","name":"getDonorCampaignToken","inputs":[{"name":"campaignId","type":"uint256","internalType":"uint256"},{"name":"donor","type":"address","internalType":"address"}],"outputs":[{"name":"","type":"uint256","internalType":"uint256"}],"stateMutability":"view"},{"type":"function","name":"getDonorReceipts","inputs":[{"name":"donor","type":"address","internalType":"address"}],"outputs":[{"name":"","type":"uint256[]","internalType":"uint256[]"}],"stateMutability":"view"},{"type":"function","name":"getReceipt","inputs":[{"name":"tokenId","type":"uint256","internalType":"uint256"}],"outputs":[{"name":"campaignId","type":"uint256","internalType":"uint256"},{"name":"donor","type":"address","internalType":"address"},{"name":"amountWei","type":"uint256","internalType":"uint256"},{"name":"donatedAt","type":"uint256","internalType":"uint256"},{"name":"releasedAt","type":"uint256","internalType":"uint256"},{"name":"campaignTitle","type":"string","internalType":"string"},{"name":"ipfsMetadata","type":"string","internalType":"string"}],"stateMutability":"view"},{"type":"function","name":"getRoleAdmin","inputs":[{"name":"role","type":"bytes32","internalType":"bytes32"}],"outputs":[{"name":"","type":"bytes32","internalType":"bytes32"}],"stateMutability":"view"},{"type":"function","name":"grantRole","inputs":[{"name":"role","type":"bytes32","internalType":"bytes32"},{"name":"account","type":"address","internalType":"address"}],"outputs":[],"stateMutability":"nonpayable"},{"type":"function","name":"hasRole","inputs":[{"name":"role","type":"bytes32","internalType":"bytes32"},{"name":"account","type":"address","internalType":"address"}],"outputs":[{"name":"","type":"bool","internalType":"bool"}],"stateMutability":"view"},{"type":"function","name":"isApprovedForAll","inputs":[{"name":"owner","type":"address","internalType":"address"},{"name":"operator","type":"address","internalType":"address"}],"outputs":[{"name":"","type":"bool","internalType":"bool"}],"stateMutability":"view"},{"type":"function","name":"mintReceipt","inputs":[{"name":"campaignId","type":"uint256","internalType":"uint256"},{"name":"donor","type":"address","internalType":"address"},{"name":"amountWei","type":"uint256","internalType":"uint256"},{"name":"donatedAt","type":"uint256","internalType":"uint256"},{"name":"campaignTitle","type":"string","internalType":"string"},{"name":"ipfsMetadata","type":"string","internalType":"string"}],"outputs":[{"name":"tokenId","type":"uint256","internalType":"uint256"}],"stateMutability":"nonpayable"},{"type":"function","name":"name","inputs":[],"outputs":[{"name":"","type":"string","internalType":"string"}],"stateMutability":"view"},{"type":"function","name":"ownerOf","inputs":[{"name":"tokenId","type":"uint256","internalType":"uint256"}],"outputs":[{"name":"","type":"address","internalType":"address"}],"stateMutability":"view"},{"type":"function","name":"receipts","inputs":[{"name":"","type":"uint256","internalType":"uint256"}],"outputs":[{"name":"campaignId","type":"uint256","internalType":"uint256"},{"name":"donor","type":"address","internalType":"address"},{"name":"amountWei","type":"uint256","internalType":"uint256"},{"name":"donatedAt","type":"uint256","internalType":"uint256"},{"name":"releasedAt","type":"uint256","internalType":"uint256"},{"name":"campaignTitle","type":"string","internalType":"string"},{"name":"ipfsMetadata","type":"string","internalType":"string"}],"stateMutability":"view"},{"type":"function","name":"renounceRole","inputs":[{"name":"role","type":"bytes32","internalType":"bytes32"},{"name":"callerConfirmation","type":"address","internalType":"address"}],"outputs":[],"stateMutability":"nonpayable"},{"type":"function","name":"revokeRole","inputs":[{"name":"role","type":"bytes32","internalType":"bytes32"},{"name":"account","type":"address","internalType":"address"}],"outputs":[],"stateMutability":"nonpayable"},{"type":"function","name":"safeTransferFrom","inputs":[{"name":"from","type":"address","internalType":"address"},{"name":"to","type":"address","internalType":"address"},{"name":"tokenId","type":"uint256","internalType":"uint256"}],"outputs":[],"stateMutability":"nonpayable"},{"type":"function","name":"safeTransferFrom","inputs":[{"name":"from","type":"address","internalType":"address"},{"name":"to","type":"address","internalType":"address"},{"name":"tokenId","type":"uint256","internalType":"uint256"},{"name":"data","type":"bytes","internalType":"bytes"}],"outputs":[],"stateMutability":"nonpayable"},{"type":"function","name":"setApprovalForAll","inputs":[{"name":"operator","type":"address","internalType":"address"},{"name":"approved","type":"bool","internalType":"bool"}],"outputs":[],"stateMutability":"nonpayable"},{"type":"function","name":"supportsInterface","inputs":[{"name":"interfaceId","type":"bytes4","internalType":"bytes4"}],"outputs":[{"name":"","type":"bool","internalType":"bool"}],"stateMutability":"view"},{"type":"function","name":"symbol","inputs":[],"outputs":[{"name":"","type":"string","internalType":"string"}],"stateMutability":"view"},{"type":"function","name":"tokenURI","inputs":[{"name":"tokenId","type":"uint256","internalType":"uint256"}],"outputs":[{"name":"","type":"string","internalType":"string"}],"stateMutability":"view"},{"type":"function","name":"totalMinted","inputs":[],"outputs":[{"name":"","type":"uint256","internalType":"uint256"}],"stateMutability":"view"},{"type":"function","name":"transferFrom","inputs":[{"name":"from","type":"address","internalType":"address"},{"name":"to","type":"address","internalType":"address"},{"name":"tokenId","type":"uint256","internalType":"uint256"}],"outputs":[],"stateMutability":"nonpayable"},{"type":"event","name":"Approval","inputs":[{"name":"owner","type":"address","indexed":true,"internalType":"address"},{"name":"approved","type":"address","indexed":true,"internalType":"address"},{"name":"tokenId","type":"uint256","indexed":true,"internalType":"uint256"}],"anonymous":false},{"type":"event","name":"ApprovalForAll","inputs":[{"name":"owner","type":"address","indexed":true,"internalType":"address"},{"name":"operator","type":"address","indexed":true,"internalType":"address"},{"name":"approved","type":"bool","indexed":false,"internalType":"bool"}],"anonymous":false},{"type":"event","name":"BatchMetadataUpdate","inputs":[{"name":"_fromTokenId","type":"uint256","indexed":false,"internalType":"uint256"},{"name":"_toTokenId","type":"uint256","indexed":false,"internalType":"uint256"}],"anonymous":false},{"type":"event","name":"MetadataUpdate","inputs":[{"name":"_tokenId","type":"uint256","indexed":false,"internalType":"uint256"}],"anonymous":false},{"type":"event","name":"ReceiptMinted","inputs":[{"name":"tokenId","type":"uint256","indexed":true,"internalType":"uint256"},{"name":"campaignId","type":"uint256","indexed":true,"internalType":"uint256"},{"name":"donor","type":"address","indexed":true,"internalType":"address"},{"name":"amountWei","type":"uint256","indexed":false,"internalType":"uint256"},{"name":"ipfsMetadata","type":"string","indexed":false,"internalType":"string"},{"name":"timestamp","type":"uint256","indexed":false,"internalType":"uint256"}],"anonymous":false},{"type":"event","name":"RoleAdminChanged","inputs":[{"name":"role","type":"bytes32","indexed":true,"internalType":"bytes32"},{"name":"previousAdminRole","type":"bytes32","indexed":true,"internalType":"bytes32"},{"name":"newAdminRole","type":"bytes32","indexed":true,"internalType":"bytes32"}],"anonymous":false},{"type":"event","name":"RoleGranted","inputs":[{"name":"role","type":"bytes32","indexed":true,"internalType":"bytes32"},{"name":"account","type":"address","indexed":true,"internalType":"address"},{"name":"sender","type":"address","indexed":true,"internalType":"address"}],"anonymous":false},{"type":"event","name":"RoleRevoked","inputs":[{"name":"role","type":"bytes32","indexed":true,"internalType":"bytes32"},{"name":"account","type":"address","indexed":true,"internalType":"address"},{"name":"sender","type":"address","indexed":true,"internalType":"address"}],"anonymous":false},{"type":"event","name":"Transfer","inputs":[{"name":"from","type":"address","indexed":true,"internalType":"address"},{"name":"to","type":"address","indexed":true,"internalType":"address"},{"name":"tokenId","type":"uint256","indexed":true,"internalType":"uint256"}],"anonymous":false},{"type":"error","name":"AccessControlBadConfirmation","inputs":[]},{"type":"error","name":"AccessControlUnauthorizedAccount","inputs":[{"name":"account","type":"address","internalType":"address"},{"name":"neededRole","type":"bytes32","internalType":"bytes32"}]},{"type":"error","name":"ArrayLengthMismatch","inputs":[]},{"type":"error","name":"ERC721IncorrectOwner","inputs":[{"name":"sender","type":"address","internalType":"address"},{"name":"tokenId","type":"uint256","internalType":"uint256"},{"name":"owner","type":"address","internalType":"address"}]},{"type":"error","name":"ERC721InsufficientApproval","inputs":[{"name":"operator","type":"address","internalType":"address"},{"name":"tokenId","type":"uint256","internalType":"uint256"}]},{"type":"error","name":"ERC721InvalidApprover","inputs":[{"name":"approver","type":"address","internalType":"address"}]},{"type":"error","name":"ERC721InvalidOperator","inputs":[{"name":"operator","type":"address","internalType":"address"}]},{"type":"error","name":"ERC721InvalidOwner","inputs":[{"name":"owner","type":"address","internalType":"address"}]},{"type":"error","name":"ERC721InvalidReceiver","inputs":[{"name":"receiver","type":"address","internalType":"address"}]},{"type":"error","name":"ERC721InvalidSender","inputs":[{"name":"sender","type":"address","internalType":"address"}]},{"type":"error","name":"ERC721NonexistentToken","inputs":[{"name":"tokenId","type":"uint256","internalType":"uint256"}]},{"type":"error","name":"InvalidAmount","inputs":[]},{"type":"error","name":"InvalidIPFSHash","inputs":[]},{"type":"error","name":"ReentrancyGuardReentrantCall","inputs":[]},{"type":"error","name":"ZeroAddress","inputs":[]}],"bytecode":{"object":"0x60806040523461038c576126116020813803918261001c81610390565b93849283398101031261038c57516001600160a01b03811680820361038c576100456040610390565b91601983527f50756c736541696420446f6e6174696f6e205265636569707400000000000000602084015261007a6040610390565b60048152632820a22960e11b602082015283519092906001600160401b0381116102a0575f54600181811c91168015610382575b602082101461028257601f8111610320575b50602094601f82116001146102bf579481929394955f926102b4575b50508160011b915f199060031b1c1916175f555b82516001600160401b0381116102a057600154600181811c91168015610296575b602082101461028257601f811161021f575b506020601f82116001146101bc57819293945f926101b1575b50508160011b915f199060031b1c1916176001555b60017f9b779b17422d0df92223018b32b4d1fa46e071723d6817e2486d003becc55f0055156101a2578061018761018d926103b5565b5061042b565b506001600b556040516120f290816104bf8239f35b63d92e233d60e01b5f5260045ffd5b015190505f8061013c565b601f1982169060015f52805f20915f5b818110610207575095836001959697106101ef575b505050811b01600155610151565b01515f1960f88460031b161c191690555f80806101e1565b9192602060018192868b0151815501940192016101cc565b60015f527fb10e2d527612073b26eecdfd717e6a320cf44b4afac2b0732d9fcbe2b7fa0cf6601f830160051c81019160208410610278575b601f0160051c01905b81811061026d5750610123565b5f8155600101610260565b9091508190610257565b634e487b7160e01b5f52602260045260245ffd5b90607f1690610111565b634e487b7160e01b5f52604160045260245ffd5b015190505f806100dc565b601f198216955f8052805f20915f5b888110610308575083600195969798106102f0575b505050811b015f556100f0565b01515f1960f88460031b161c191690555f80806102e3565b919260206001819286850151815501940192016102ce565b5f80527f290decd9548b62a8d60345a988386fc84ba6bc95484008f6362f93160ef3e563601f830160051c81019160208410610378575b601f0160051c01905b81811061036d57506100c0565b5f8155600101610360565b9091508190610357565b90607f16906100ae565b5f80fd5b6040519190601f01601f191682016001600160401b038111838210176102a057604052565b6001600160a01b0381165f9081525f5160206125d15f395f51905f52602052604090205460ff16610426576001600160a01b03165f8181525f5160206125d15f395f51905f5260205260408120805460ff191660011790553391905f5160206125b15f395f51905f528180a4600190565b505f90565b6001600160a01b0381165f9081525f5160206125f15f395f51905f52602052604090205460ff16610426576001600160a01b03165f8181525f5160206125f15f395f51905f5260205260408120805460ff191660011790553391907f9f2df0fed2c77648de5860a4cc508cd0818c85b8b8a1ab4ceeef8d981c8956a6905f5160206125b15f395f51905f529080a460019056fe6080806040526004361015610012575f80fd5b5f3560e01c90816301ffc9a7146110595750806306fdde0314610fb7578063081812fc14610f7b578063095ea7b314610e915780630f7ee1ec14610ac857806323b872dd14610e7a578063248a9ca314610e475780632f2ff15d14610e0957806336568abe14610dc557806342842e0e14610d965780634fac0ec71461075b5780636352211e14610d6657806370a0823114610d1557806391d1485414610ccc57806395d89b4114610c02578063a217fddf14610be8578063a22cb46514610b4d578063a2309ff814610b30578063b63e6ac314610ac8578063b88d4fde14610a5d578063c41ce0fd1461095e578063c87b56dd14610927578063d5391393146108ed578063d547741f146108aa578063da16c453146107f6578063e985e9c51461079f578063ed49c5621461075b578063ef383c48146101b75763f3eb69ab1461015b575f80fd5b346101b35760403660031901126101b35761017461111c565b6001600160a01b03165f908152600960205260409020805460243591908210156101b3576020916101a4916113c3565b90549060031b1c604051908152f35b5f80fd5b346101b35760c03660031901126101b3576004356024356001600160401b0381116101b357366023820112156101b35780600401356101f58161134f565b91610203604051938461119b565b8183526024602084019260051b820101903682116101b357602401915b81831061073b575050506044356001600160401b0381116101b357610249903690600401611366565b6064356001600160401b0381116101b357610268903690600401611366565b926084356001600160401b0381116101b357610288903690600401611334565b9360a4356001600160401b0381116101b3576102a8903690600401611334565b6102b0611a6c565b8451845181149081159161072f575b50610720575f5b855181101561071e576001600160a01b036102e18288611a24565b511615801561070c575b610704575f848152600a602052604090206001600160a01b0361030e8389611a24565b511660018060a01b03165f5260205260405f205461070457600b546103328161158c565b600b55610340600c5461158c565b600c55610360816001600160a01b03610359858b611a24565b5116611d5b565b61036a8382611f56565b6001600160a01b0361037c8389611a24565b51166103888388611a24565b516103938487611a24565b5190604051916103a283611180565b8883526020808401948552604080850193845260608501928352426080860190815260a086018f815260c087018b81525f8a81526008909552929093209551865595516001860180546001600160a01b0319166001600160a01b03929092169190911790559251600285015590516003840155925160048301559151805160058301916001600160401b0382116106395761043d8354611148565b601f81116106bf575b50602090601f8311600114610658576006949392915f918361064d575b50508160011b915f199060031b1c19161790555b0190518051906001600160401b038211610639576104958354611148565b601f81116105f4575b50602090601f831160011461058c57600195949392915f9183610581575b50505f19600383901b1c191690851b1790555b828060a01b036104df838a611a24565b51165f5260096020526104f58160405f206115ae565b855f52600a60205260405f20838060a01b03610511848b611a24565b5116848060a01b03165f526020528060405f205585838060a01b03610536848b611a24565b5116917fc4d200e0b5cd7c6ee9eec88772cbcd1ebd49f66310ff2cb66b824530cc871d32610577610567868c611a24565b516040519182918a4291846115e7565b0390a45b016102c6565b015190508c806104bc565b90601f19831691845f52815f20925f5b8181106105dc575091600197969594929183899593106105c4575b505050811b0190556104cf565b01515f1960f88460031b161c191690558c80806105b7565b9293602060018192878601518155019501930161059c565b835f5260205f20601f840160051c8101916020851061062f575b601f0160051c01905b818110610624575061049e565b5f8155600101610617565b909150819061060e565b634e487b7160e01b5f52604160045260245ffd5b015190508e80610463565b90601f19831691845f52815f20925f5b8181106106a757509160019391856006989796941061068f575b505050811b019055610477565b01515f1960f88460031b161c191690558e8080610682565b92936020600181928786015181550195019301610668565b835f5260205f20601f840160051c810191602085106106fa575b601f0160051c01905b8181106106ef5750610446565b5f81556001016106e2565b90915081906106d9565b60019061057b565b506107178186611a24565b51156102eb565b005b63512509d360e11b5f5260045ffd5b905082511415876102bf565b82356001600160a01b03811681036101b357815260209283019201610220565b346101b35760403660031901126101b357610774611132565b6004355f52600a60205260405f209060018060a01b03165f52602052602060405f2054604051908152f35b346101b35760403660031901126101b3576107b861111c565b6107c0611132565b9060018060a01b03165f52600560205260405f209060018060a01b03165f52602052602060ff60405f2054166040519015158152f35b346101b35760203660031901126101b3576001600160a01b0361081761111c565b165f52600960205260405f20604051806020835491828152019081935f5260205f20905f5b818110610894575050508161085291038261119b565b604051918291602083019060208452518091526040830191905f5b81811061087b575050500390f35b825184528594506020938401939092019160010161086d565b825484526020909301926001928301920161083c565b346101b35760403660031901126101b35761071e6004356108c9611132565b906108e86108e3825f526007602052600160405f20015490565b611adb565b611ba1565b346101b3575f3660031901126101b35760206040517f9f2df0fed2c77648de5860a4cc508cd0818c85b8b8a1ab4ceeef8d981c8956a68152f35b346101b35760203660031901126101b35761095a6109466004356119f4565b6040519182916020835260208301906110f8565b0390f35b346101b35760c03660031901126101b357610977611132565b6084356001600160401b0381116101b357610996903690600401611334565b9060a4356001600160401b0381116101b3576109b6903690600401611334565b6109be611a6c565b60027f9b779b17422d0df92223018b32b4d1fa46e071723d6817e2486d003becc55f005414610a4e57602092610a229260027f9b779b17422d0df92223018b32b4d1fa46e071723d6817e2486d003becc55f00556064359060443590600435611609565b60017f9b779b17422d0df92223018b32b4d1fa46e071723d6817e2486d003becc55f0055604051908152f35b633ee5aeb560e01b5f5260045ffd5b346101b35760803660031901126101b357610a7661111c565b610a7e611132565b90604435606435926001600160401b0384116101b357366023850112156101b357610ab661071e9436906024816004013591016112fe565b92610ac28383836113ec565b33611c25565b346101b35760203660031901126101b3576004355f52600860205260405f20805461095a60018060a01b03600184015416926002810154906003810154600482015490610b236006610b1c600586016111bc565b94016111bc565b936040519788978861125c565b346101b3575f3660031901126101b3576020600c54604051908152f35b346101b35760403660031901126101b357610b6661111c565b602435908115158092036101b3576001600160a01b0316908115610bd557335f52600560205260405f20825f5260205260405f2060ff1981541660ff83161790556040519081527f17307eab39ab6107e8899845ad3d59bd9653f200f220920489ca2b5937696c3160203392a3005b50630b61174360e31b5f5260045260245ffd5b346101b3575f3660031901126101b35760206040515f8152f35b346101b3575f3660031901126101b3576040515f600154610c2281611148565b8084529060018116908115610ca85750600114610c4a575b61095a836109468185038261119b565b60015f9081527fb10e2d527612073b26eecdfd717e6a320cf44b4afac2b0732d9fcbe2b7fa0cf6939250905b808210610c8e57509091508101602001610946610c3a565b919260018160209254838588010152019101909291610c76565b60ff191660208086019190915291151560051b840190910191506109469050610c3a565b346101b35760403660031901126101b357610ce5611132565b6004355f52600760205260405f209060018060a01b03165f52602052602060ff60405f2054166040519015158152f35b346101b35760203660031901126101b3576001600160a01b03610d3661111c565b168015610d53575f526003602052602060405f2054604051908152f35b6322718ad960e21b5f525f60045260245ffd5b346101b35760203660031901126101b3576020610d84600435611a38565b6040516001600160a01b039091168152f35b346101b35761071e610da7366112a9565b9060405192610db760208561119b565b5f8452610ac28383836113ec565b346101b35760403660031901126101b357610dde611132565b336001600160a01b03821603610dfa5761071e90600435611ba1565b63334bd91960e11b5f5260045ffd5b346101b35760403660031901126101b35761071e600435610e28611132565b90610e426108e3825f526007602052600160405f20015490565b611b15565b346101b35760203660031901126101b3576020610e726004355f526007602052600160405f20015490565b604051908152f35b346101b35761071e610e8b366112a9565b916113ec565b346101b35760403660031901126101b357610eaa61111c565b602435610eb681611a38565b33151580610f68575b80610f3b575b610f285781906001600160a01b0384811691167f8c5be1e5ebec7d5bd14f71427d1e84f3dd0314c0f7b2291e5b200ac8c7c3b9255f80a45f90815260046020526040902080546001600160a01b0319166001600160a01b03909216919091179055005b63a9fbf51f60e01b5f523360045260245ffd5b506001600160a01b0381165f90815260056020908152604080832033845290915290205460ff1615610ec5565b506001600160a01b038116331415610ebf565b346101b35760203660031901126101b357600435610f9881611a38565b505f526004602052602060018060a01b0360405f205416604051908152f35b346101b3575f3660031901126101b3576040515f5f54610fd681611148565b8084529060018116908115610ca85750600114610ffd5761095a836109468185038261119b565b5f8080527f290decd9548b62a8d60345a988386fc84ba6bc95484008f6362f93160ef3e563939250905b80821061103f57509091508101602001610946610c3a565b919260018160209254838588010152019101909291611027565b346101b35760203660031901126101b3576004359063ffffffff60e01b82168092036101b357602091637965db0b60e01b811490811561109b575b5015158152f35b632483248360e11b8114915081156110b5575b5083611094565b6380ac58cd60e01b8114915081156110e7575b81156110d6575b50836110ae565b6301ffc9a760e01b149050836110cf565b635b5e139f60e01b811491506110c8565b805180835260209291819084018484015e5f828201840152601f01601f1916010190565b600435906001600160a01b03821682036101b357565b602435906001600160a01b03821682036101b357565b90600182811c92168015611176575b602083101461116257565b634e487b7160e01b5f52602260045260245ffd5b91607f1691611157565b60e081019081106001600160401b0382111761063957604052565b90601f801991011681019081106001600160401b0382111761063957604052565b9060405191825f8254926111cf84611148565b808452936001811690811561123a57506001146111f6575b506111f49250038361119b565b565b90505f9291925260205f20905f915b81831061121e5750509060206111f4928201015f6111e7565b6020919350806001915483858901015201910190918492611205565b9050602092506111f494915060ff191682840152151560051b8201015f6111e7565b95926112a69795926112989592885260018060a01b0316602088015260408701526060860152608085015260e060a085015260e08401906110f8565b9160c08184039101526110f8565b90565b60609060031901126101b3576004356001600160a01b03811681036101b357906024356001600160a01b03811681036101b3579060443590565b6001600160401b03811161063957601f01601f191660200190565b92919261130a826112e3565b91611318604051938461119b565b8294818452818301116101b3578281602093845f960137010152565b9080601f830112156101b3578160206112a6933591016112fe565b6001600160401b0381116106395760051b60200190565b9080601f830112156101b357813561137d8161134f565b9261138b604051948561119b565b81845260208085019260051b8201019283116101b357602001905b8282106113b35750505090565b81358152602091820191016113a6565b80548210156113d8575f5260205f2001905f90565b634e487b7160e01b5f52603260045260245ffd5b6001600160a01b0390911691908215611579575f828152600260205260409020546001600160a01b0316928290331515806114e4575b50846114b1575b805f52600360205260405f2060018154019055815f52600260205260405f20816bffffffffffffffffffffffff60a01b825416179055847fddf252ad1be2c89b69c2b068fc378daa952ba7f163c4a11628f55a4df523b3ef5f80a46001600160a01b031680830361149957505050565b6364283d7b60e01b5f5260045260245260445260645ffd5b5f82815260046020526040902080546001600160a01b0319169055845f52600360205260405f205f198154019055611429565b90915080611528575b156114fa5782905f611422565b828461151257637e27328960e01b5f5260045260245ffd5b63177e802f60e01b5f523360045260245260445ffd5b503384148015611557575b806114ed57505f838152600460205260409020546001600160a01b031633146114ed565b505f84815260056020908152604080832033845290915290205460ff16611533565b633250574960e11b5f525f60045260245ffd5b5f19811461159a5760010190565b634e487b7160e01b5f52601160045260245ffd5b805468010000000000000000811015610639576115d0916001820181556113c3565b819291549060031b91821b915f19901b1916179055565b9392916116049060409286526060602087015260608601906110f8565b930152565b9095946001600160a01b03871694919391929185156119e55782156119d6578151156119c757845f52600a60205260405f20865f5260205260405f20546119a657600b54936116578561158c565b600b5561167385809a61166b600c5461158c565b600c55611d5b565b61167d8386611f56565b6040519061168a82611180565b8682526020808301898152604080850188815260608601968752426080870190815260a0870195865260c087018981525f8c81526008909652929094209551865591516001860180546001600160a01b0319166001600160a01b0392909216919091179055905160028501559351600384015551600483015551805160058301916001600160401b038211610639576117238354611148565b601f8111611961575b50602090601f83116001146118fa576006949392915f91836118ef575b50508160011b915f199060031b1c19161790555b0190518051906001600160401b0382116106395761177b8354611148565b601f81116118aa575b50602090601f8311600114611823577fc4d200e0b5cd7c6ee9eec88772cbcd1ebd49f66310ff2cb66b824530cc871d3295949392915f9183611818575b50508160011b915f199060031b1c19161790555b855f5260096020526117ea8460405f206115ae565b845f52600a60205260405f20865f526020528360405f20556118136040519283924291846115e7565b0390a4565b015190505f806117c1565b90601f19831691845f52815f20925f5b81811061189257509160019391857fc4d200e0b5cd7c6ee9eec88772cbcd1ebd49f66310ff2cb66b824530cc871d3299989796941061187a575b505050811b0190556117d5565b01515f1960f88460031b161c191690555f808061186d565b92936020600181928786015181550195019301611833565b835f5260205f20601f840160051c810191602085106118e5575b601f0160051c01905b8181106118da5750611784565b5f81556001016118cd565b90915081906118c4565b015190505f80611749565b90601f19831691845f52815f20925f5b818110611949575091600193918560069897969410611931575b505050811b01905561175d565b01515f1960f88460031b161c191690555f8080611924565b9293602060018192878601518155019501930161190a565b835f5260205f20601f840160051c8101916020851061199c575b601f0160051c01905b818110611991575061172c565b5f8155600101611984565b909150819061197b565b50505050909192505f52600a60205260405f20905f5260205260405f205490565b636e6db68160e11b5f5260045ffd5b63162908e360e11b5f5260045ffd5b63d92e233d60e01b5f5260045ffd5b6119fd81611a38565b505f526006602052611a1160405f206111bc565b5f604051611a2060208261119b565b5290565b80518210156113d85760209160051b010190565b5f818152600260205260409020546001600160a01b0316908115611a5a575090565b637e27328960e01b5f5260045260245ffd5b335f9081527fa4bfd7afe708e2e87e7f0e2ad9b4d545417e0f795f57b5c5ab5d799c565a04f4602052604090205460ff1615611aa457565b63e2517d3f60e01b5f52336004527f9f2df0fed2c77648de5860a4cc508cd0818c85b8b8a1ab4ceeef8d981c8956a660245260445ffd5b5f81815260076020908152604080832033845290915290205460ff1615611aff5750565b63e2517d3f60e01b5f523360045260245260445ffd5b5f8181526007602090815260408083206001600160a01b038616845290915290205460ff16611b9b575f8181526007602090815260408083206001600160a01b0395909516808452949091528120805460ff19166001179055339291907f2f8788117e7eff1d82e926ec794901d17c78024a50270940304540a733656f0d9080a4600190565b50505f90565b5f8181526007602090815260408083206001600160a01b038616845290915290205460ff1615611b9b575f8181526007602090815260408083206001600160a01b0395909516808452949091528120805460ff19169055339291907ff6391f5c32d9c69d2a47ea670b442974b53935d1edc7fd64eb21e047a839171b9080a4600190565b823b611c33575b5050505050565b604051630a85bd0160e11b81526001600160a01b039182166004820152918116602483015260448201939093526080606482015291169160209082908190611c7f9060848301906110f8565b03815f865af15f9181611d16575b50611ce257503d15611cdb573d611ca3816112e3565b90611cb1604051928361119b565b81523d5f602083013e5b80519081611cd65782633250574960e11b5f5260045260245ffd5b602001fd5b6060611cbb565b6001600160e01b03191663757a42ff60e11b01611d0457505f80808080611c2c565b633250574960e11b5f5260045260245ffd5b9091506020813d602011611d53575b81611d326020938361119b565b810103126101b357516001600160e01b0319811681036101b357905f611c8d565b3d9150611d25565b9060209060405190611d6d838361119b565b5f82526001600160a01b038416938415611579575f8281526002855260409020546001600160a01b03168015159081611f25575b865f526003865260405f2060018154019055835f526002865260405f20876bffffffffffffffffffffffff60a01b8254161790558387827fddf252ad1be2c89b69c2b068fc378daa952ba7f163c4a11628f55a4df523b3ef5f80a450611f12573b611e0d575b50505050565b91611e4a91819495936040519384928392630a85bd0160e11b84523360048501525f602485015260448401526080606484015260848301906110f8565b03815f885af15f9181611ed2575b50611ead5750503d15611ea5573d90611e70826112e3565b91611e7e604051938461119b565b82523d5f8284013e5b81519182611ea25783633250574960e11b5f5260045260245ffd5b01fd5b606090611e87565b909291506001600160e01b03191663757a42ff60e11b01611d0457505f808080611e07565b9091508381813d8311611f0b575b611eea818361119b565b810103126101b357516001600160e01b0319811681036101b357905f611e58565b503d611ee0565b6339e3563760e11b5f525f60045260245ffd5b5f8481526004602052604080822080546001600160a01b031916905582825260038852902080545f19019055611da1565b919091805f52600660205260405f2083516001600160401b03811161063957611f7f8254611148565b601f8111612077575b506020601f8211600114611fef57908060209493927ff8e1a15aba9398e019f0b49df1a4fde98ee17ae345cb5f6b5e2c27f5033e8ce796975f92611fe4575b50508160011b915f199060031b1c19161790555b604051908152a1565b015190505f80611fc7565b601f19821695835f52815f20965f5b81811061205f575096600192849260209796957ff8e1a15aba9398e019f0b49df1a4fde98ee17ae345cb5f6b5e2c27f5033e8ce7999a10612047575b505050811b019055611fdb565b01515f1960f88460031b161c191690555f808061203a565b83830151895560019098019760209384019301611ffe565b825f5260205f20601f830160051c810191602084106120b2575b601f0160051c01905b8181106120a75750611f88565b5f815560010161209a565b909150819061209156fea264697066735822122075fad0867691c6cbe97324fa7db0e255bc2879dc5c9af640d2268d87e813444a64736f6c634300081e00332f8788117e7eff1d82e926ec794901d17c78024a50270940304540a733656f0d6d5257204ebe7d88fd91ae87941cb2dd9d8062b64ae5a2bd2d28ec40b9fbf6dfa4bfd7afe708e2e87e7f0e2ad9b4d545417e0f795f57b5c5ab5d799c565a04f4","linkReferences":{}},"methodIdentifiers":{"DEFAULT_ADMIN_ROLE()":"a217fddf","MINTER_ROLE()":"d5391393","approve(address,uint256)":"095ea7b3","balanceOf(address)":"70a08231","batchMintReceipts(uint256,address[],uint256[],uint256[],string,string)":"ef383c48","campaignDonorToken(uint256,address)":"ed49c562","donorTokens(address,uint256)":"f3eb69ab","getApproved(uint256)":"081812fc","getDonorCampaignToken(uint256,address)":"4fac0ec7","getDonorReceipts(address)":"da16c453","getReceipt(uint256)":"b63e6ac3","getRoleAdmin(bytes32)":"248a9ca3","grantRole(bytes32,address)":"2f2ff15d","hasRole(bytes32,address)":"91d14854","isApprovedForAll(address,address)":"e985e9c5","mintReceipt(uint256,address,uint256,uint256,string,string)":"c41ce0fd","name()":"06fdde03","ownerOf(uint256)":"6352211e","receipts(uint256)":"0f7ee1ec","renounceRole(bytes32,address)":"36568abe","revokeRole(bytes32,address)":"d547741f","safeTransferFrom(address,address,uint256)":"42842e0e","safeTransferFrom(address,address,uint256,bytes)":"b88d4fde","setApprovalForAll(address,bool)":"a22cb465","supportsInterface(bytes4)":"01ffc9a7","symbol()":"95d89b41","tokenURI(uint256)":"c87b56dd","totalMinted()":"a2309ff8","transferFrom(address,address,uint256)":"23b872dd"},"id":61}