{"abi":[{"type":"constructor","inputs":[{"name":"admin","type":"address","internalType":"address"}],"stateMutability":"nonpayable"},{"type":"function","name":"DEFAULT_ADMIN_ROLE","inputs":[],"outputs":[{"name":"","type":"bytes32","internalType":"bytes32"}],"stateMutability":"view"},{"type":"function","name":"MINTER_ROLE","inputs":[],"outputs":[{"name":"","type":"bytes32","internalType":"bytes32"}],"stateMutability":"view"},{"type":"function","name":"approve","inputs":[{"name":"to","type":"address","internalType":"address"},{"name":"tokenId","type":"uint256","internalType":"uint256"}],"outputs":[],"stateMutability":"nonpayable"},{"type":"function","name":"balanceOf","inputs":[{"name":"owner","type":"address","internalType":"address"}],"outputs":[{"name":"","type":"uint256","internalType":"uint256"}],"stateMutability":"view"},{"type":"function","name":"batchMintReceipts","inputs":[{"name":"campaignId","type":"uint256","internalType":"uint256"},{"name":"donors","type":"address[]","internalType":"address[]"},{"name":"amounts","type":"uint256[]","internalType":"uint256[]"},{"name":"donatedAts","type":"uint256[]","internalType":"uint256[]"},{"name":"campaignTitle","type":"string","internalType":"string"},{"name":"ipfsMetadata","type":"string","internalType":"string"}],"outputs":[],"stateMutability":"nonpayable"},{"type":"function","name":"campaignDonorToken","inputs":[{"name":"","type":"uint256","internalType":"uint256"},{"name":"","type":"address","internalType":"address"}],"outputs":[{"name":"","type":"uint256","internalType":"uint256"}],"stateMutability":"view"},{"type":"function","name":"donorTokens","inputs":[{"name":"","type":"address","internalType":"address"},{"name":"","type":"uint256","internalType":"uint256"}],"outputs":[{"name":"","type":"uint256","internalType":"uint256"}],"stateMutability":"view"},{"type":"function","name":"getApproved","inputs":[{"name":"tokenId","type":"uint256","internalType":"uint256"}],"outputs":[{"name":"","type":"address","internalType":"address"}],"stateMutability":"view"},{"type":"function","name":"getDonorCampaignToken","inputs":[{"name":"campaignId","type":"uint256","internalType":"uint256"},{"name":"donor","type":"address","internalType":"address"}],"outputs":[{"name":"","type":"uint256","internalType":"uint256"}],"stateMutability":"view"},{"type":"function","name":"getDonorReceipts","inputs":[{"name":"donor","type":"address","internalType":"address"}],"outputs":[{"name":"","type":"uint256[]","internalType":"uint256[]"}],"stateMutability":"view"},{"type":"function","name":"getReceipt","inputs":[{"name":"tokenId","type":"uint256","internalType":"uint256"}],"outputs":[{"name":"campaignId","type":"uint256","internalType":"uint256"},{"name":"donor","type":"address","internalType":"address"},{"name":"amountWei","type":"uint256","internalType":"uint256"},{"name":"donatedAt","type":"uint256","internalType":"uint256"},{"name":"releasedAt","type":"uint256","internalType":"uint256"},{"name":"campaignTitle","type":"string","internalType":"string"},{"name":"ipfsMetadata","type":"string","internalType":"string"}],"stateMutability":"view"},{"type":"function","name":"getRoleAdmin","inputs":[{"name":"role","type":"bytes32","internalType":"bytes32"}],"outputs":[{"name":"","type":"bytes32","internalType":"bytes32"}],"stateMutability":"view"},{"type":"function","name":"grantRole","inputs":[{"name":"role","type":"bytes32","internalType":"bytes32"},{"name":"account","type":"address","internalType":"address"}],"outputs":[],"stateMutability":"nonpayable"},{"type":"function","name":"hasRole","inputs":[{"name":"role","type":"bytes32","internalType":"bytes32"},{"name":"account","type":"address","internalType":"address"}],"outputs":[{"name":"","type":"bool","internalType":"bool"}],"stateMutability":"view"},{"type":"function","name":"isApprovedForAll","inputs":[{"name":"owner","type":"address","internalType":"address"},{"name":"operator","type":"address","internalType":"address"}],"outputs":[{"name":"","type":"bool","internalType":"bool"}],"stateMutability":"view"},{"type":"function","name":"mintReceipt","inputs":[{"name":"campaignId","type":"uint256","internalType":"uint256"},{"name":"donor","type":"address","internalType":"address"},{"name":"amountWei","type":"uint256","internalType":"uint256"},{"name":"donatedAt","type":"uint256","internalType":"uint256"},{"name":"campaignTitle","type":"string","internalType":"string"},{"name":"ipfsMetadata","type":"string","internalType":"string"}],"outputs":[{"name":"tokenId","type":"uint256","internalType":"uint256"}],"stateMutability":"nonpayable"},{"type":"function","name":"name","inputs":[],"outputs":[{"name":"","type":"string","internalType":"string"}],"stateMutability":"view"},{"type":"function","name":"ownerOf","inputs":[{"name":"tokenId","type":"uint256","internalType":"uint256"}],"outputs":[{"name":"","type":"address","internalType":"address"}],"stateMutability":"view"},{"type":"function","name":"receipts","inputs":[{"name":"","type":"uint256","internalType":"uint256"}],"outputs":[{"name":"campaignId","type":"uint256","internalType":"uint256"},{"name":"donor","type":"address","internalType":"address"},{"name":"amountWei","type":"uint256","internalType":"uint256"},{"name":"donatedAt","type":"uint256","internalType":"uint256"},{"name":"releasedAt","type":"uint256","internalType":"uint256"},{"name":"campaignTitle","type":"string","internalType":"string"},{"name":"ipfsMetadata","type":"string","internalType":"string"}],"stateMutability":"view"},{"type":"function","name":"renounceRole","inputs":[{"name":"role","type":"bytes32","internalType":"bytes32"},{"name":"callerConfirmation","type":"address","internalType":"address"}],"outputs":[],"stateMutability":"nonpayable"},{"type":"function","name":"revokeRole","inputs":[{"name":"role","type":"bytes32","internalType":"bytes32"},{"name":"account","type":"address","internalType":"address"}],"outputs":[],"stateMutability":"nonpayable"},{"type":"function","name":"safeTransferFrom","inputs":[{"name":"from","type":"address","internalType":"address"},{"name":"to","type":"address","internalType":"address"},{"name":"tokenId","type":"uint256","internalType":"uint256"}],"outputs":[],"stateMutability":"nonpayable"},{"type":"function","name":"safeTransferFrom","inputs":[{"name":"from","type":"address","internalType":"address"},{"name":"to","type":"address","internalType":"address"},{"name":"tokenId","type":"uint256","internalType":"uint256"},{"name":"data","type":"bytes","internalType":"bytes"}],"outputs":[],"stateMutability":"nonpayable"},{"type":"function","name":"setApprovalForAll","inputs":[{"name":"operator","type":"address","internalType":"address"},{"name":"approved","type":"bool","internalType":"bool"}],"outputs":[],"stateMutability":"nonpayable"},{"type":"function","name":"supportsInterface","inputs":[{"name":"interfaceId","type":"bytes4","internalType":"bytes4"}],"outputs":[{"name":"","type":"bool","internalType":"bool"}],"stateMutability":"view"},{"type":"function","name":"symbol","inputs":[],"outputs":[{"name":"","type":"string","internalType":"string"}],"stateMutability":"view"},{"type":"function","name":"tokenURI","inputs":[{"name":"tokenId","type":"uint256","internalType":"uint256"}],"outputs":[{"name":"","type":"string","internalType":"string"}],"stateMutability":"view"},{"type":"function","name":"totalMinted","inputs":[],"outputs":[{"name":"","type":"uint256","internalType":"uint256"}],"stateMutability":"view"},{"type":"function","name":"transferFrom","inputs":[{"name":"from","type":"address","internalType":"address"},{"name":"to","type":"address","internalType":"address"},{"name":"tokenId","type":"uint256","internalType":"uint256"}],"outputs":[],"stateMutability":"nonpayable"},{"type":"event","name":"Approval","inputs":[{"name":"owner","type":"address","indexed":true,"internalType":"address"},{"name":"approved","type":"address","indexed":true,"internalType":"address"},{"name":"tokenId","type":"uint256","indexed":true,"internalType":"uint256"}],"anonymous":false},{"type":"event","name":"ApprovalForAll","inputs":[{"name":"owner","type":"address","indexed":true,"internalType":"address"},{"name":"operator","type":"address","indexed":true,"internalType":"address"},{"name":"approved","type":"bool","indexed":false,"internalType":"bool"}],"anonymous":false},{"type":"event","name":"BatchMetadataUpdate","inputs":[{"name":"_fromTokenId","type":"uint256","indexed":false,"internalType":"uint256"},{"name":"_toTokenId","type":"uint256","indexed":false,"internalType":"uint256"}],"anonymous":false},{"type":"event","name":"MetadataUpdate","inputs":[{"name":"_tokenId","type":"uint256","indexed":false,"internalType":"uint256"}],"anonymous":false},{"type":"event","name":"ReceiptMinted","inputs":[{"name":"tokenId","type":"uint256","indexed":true,"internalType":"uint256"},{"name":"campaignId","type":"uint256","indexed":true,"internalType":"uint256"},{"name":"donor","type":"address","indexed":true,"internalType":"address"},{"name":"amountWei","type":"uint256","indexed":false,"internalType":"uint256"},{"name":"ipfsMetadata","type":"string","indexed":false,"internalType":"string"},{"name":"timestamp","type":"uint256","indexed":false,"internalType":"uint256"}],"anonymous":false},{"type":"event","name":"RoleAdminChanged","inputs":[{"name":"role","type":"bytes32","indexed":true,"internalType":"bytes32"},{"name":"previousAdminRole","type":"bytes32","indexed":true,"internalType":"bytes32"},{"name":"newAdminRole","type":"bytes32","indexed":true,"internalType":"bytes32"}],"anonymous":false},{"type":"event","name":"RoleGranted","inputs":[{"name":"role","type":"bytes32","indexed":true,"internalType":"bytes32"},{"name":"account","type":"address","indexed":true,"internalType":"address"},{"name":"sender","type":"address","indexed":true,"internalType":"address"}],"anonymous":false},{"type":"event","name":"RoleRevoked","inputs":[{"name":"role","type":"bytes32","indexed":true,"internalType":"bytes32"},{"name":"account","type":"address","indexed":true,"internalType":"address"},{"name":"sender","type":"address","indexed":true,"internalType":"address"}],"anonymous":false},{"type":"event","name":"Transfer","inputs":[{"name":"from","type":"address","indexed":true,"internalType":"address"},{"name":"to","type":"address","indexed":true,"internalType":"address"},{"name":"tokenId","type":"uint256","indexed":true,"internalType":"uint256"}],"anonymous":false},{"type":"error","name":"AccessControlBadConfirmation","inputs":[]},{"type":"error","name":"AccessControlUnauthorizedAccount","inputs":[{"name":"account","type":"address","internalType":"address"},{"name":"neededRole","type":"bytes32","internalType":"bytes32"}]},{"type":"error","name":"ArrayLengthMismatch","inputs":[]},{"type":"error","name":"ERC721IncorrectOwner","inputs":[{"name":"sender","type":"address","internalType":"address"},{"name":"tokenId","type":"uint256","internalType":"uint256"},{"name":"owner","type":"address","internalType":"address"}]},{"type":"error","name":"ERC721InsufficientApproval","inputs":[{"name":"operator","type":"address","internalType":"address"},{"name":"tokenId","type":"uint256","internalType":"uint256"}]},{"type":"error","name":"ERC721InvalidApprover","inputs":[{"name":"approver","type":"address","internalType":"address"}]},{"type":"error","name":"ERC721InvalidOperator","inputs":[{"name":"operator","type":"address","internalType":"address"}]},{"type":"error","name":"ERC721InvalidOwner","inputs":[{"name":"owner","type":"address","internalType":"address"}]},{"type":"error","name":"ERC721InvalidReceiver","inputs":[{"name":"receiver","type":"address","internalType":"address"}]},{"type":"error","name":"ERC721InvalidSender","inputs":[{"name":"sender","type":"address","internalType":"address"}]},{"type":"error","name":"ERC721NonexistentToken","inputs":[{"name":"tokenId","type":"uint256","internalType":"uint256"}]},{"type":"error","name":"InvalidAmount","inputs":[]},{"type":"error","name":"InvalidIPFSHash","inputs":[]},{"type":"error","name":"ReentrancyGuardReentrantCall","inputs":[]},{"type":"error","name":"ZeroAddress","inputs":[]}],"bytecode":{"object":"0x6080604052346103a2576126636020813803918261001c816103a6565b9384928339810103126103a257516001600160a01b0381168082036103a25761004560406103a6565b91601983527f50756c736541696420446f6e6174696f6e205265636569707400000000000000602084015261007a60406103a6565b60048152632820a22960e11b602082015283519092906001600160401b0381116102ab575f54600181811c91168015610398575b602082101461028d57601f811161032b575b50602094601f82116001146102ca579481929394955f926102bf575b50508160011b915f199060031b1c1916175f555b82516001600160401b0381116102ab57600154600181811c911680156102a1575b602082101461028d57601f811161021f575b506020601f82116001146101bc57819293945f926101b1575b50508160011b915f199060031b1c1916176001555b60017f9b779b17422d0df92223018b32b4d1fa46e071723d6817e2486d003becc55f0055156101a2578061018761018d926103cb565b50610441565b506001600b5560405161212e90816104d58239f35b63d92e233d60e01b5f5260045ffd5b015190505f8061013c565b601f1982169060015f52805f20915f5b818110610207575095836001959697106101ef575b505050811b01600155610151565b01515f1960f88460031b161c191690555f80806101e1565b9192602060018192868b0151815501940192016101cc565b818111156101235760015f52601f820160051c7fb10e2d527612073b26eecdfd717e6a320cf44b4afac2b0732d9fcbe2b7fa0cf660208410610285575b81601f9101920160051c03905f5b828110610278575050610123565b5f8282015560010161026a565b5f915061025c565b634e487b7160e01b5f52602260045260245ffd5b90607f1690610111565b634e487b7160e01b5f52604160045260245ffd5b015190505f806100dc565b601f198216955f8052805f20915f5b888110610313575083600195969798106102fb575b505050811b015f556100f0565b01515f1960f88460031b161c191690555f80806102ee565b919260206001819286850151815501940192016102d9565b818111156100c0575f8052601f820160051c7f290decd9548b62a8d60345a988386fc84ba6bc95484008f6362f93160ef3e56360208410610390575b81601f9101920160051c03905f5b8281106103835750506100c0565b5f82820155600101610375565b5f9150610367565b90607f16906100ae565b5f80fd5b6040519190601f01601f191682016001600160401b038111838210176102ab57604052565b6001600160a01b0381165f9081525f5160206126235f395f51905f52602052604090205460ff1661043c576001600160a01b03165f8181525f5160206126235f395f51905f5260205260408120805460ff191660011790553391905f5160206126035f395f51905f528180a4600190565b505f90565b6001600160a01b0381165f9081525f5160206126435f395f51905f52602052604090205460ff1661043c576001600160a01b03165f8181525f5160206126435f395f51905f5260205260408120805460ff191660011790553391907f9f2df0fed2c77648de5860a4cc508cd0818c85b8b8a1ab4ceeef8d981c8956a6905f5160206126035f395f51905f529080a460019056fe6080806040526004361015610012575f80fd5b5f3560e01c90816301ffc9a7146110715750806306fdde0314610fcf578063081812fc14610f93578063095ea7b314610ea95780630f7ee1ec14610ae057806323b872dd14610e92578063248a9ca314610e5f5780632f2ff15d14610e2157806336568abe14610ddd57806342842e0e14610dae5780634fac0ec7146107735780636352211e14610d7e57806370a0823114610d2d57806391d1485414610ce457806395d89b4114610c1a578063a217fddf14610c00578063a22cb46514610b65578063a2309ff814610b48578063b63e6ac314610ae0578063b88d4fde14610a75578063c41ce0fd14610976578063c87b56dd1461093f578063d539139314610905578063d547741f146108c2578063da16c4531461080e578063e985e9c5146107b7578063ed49c56214610773578063ef383c48146101b75763f3eb69ab1461015b575f80fd5b346101b35760403660031901126101b357610174611134565b6001600160a01b03165f908152600960205260409020805460243591908210156101b3576020916101a4916113db565b90549060031b1c604051908152f35b5f80fd5b346101b35760c03660031901126101b3576004356024356001600160401b0381116101b357366023820112156101b35780600401356101f581611367565b9161020360405193846111b3565b8183526024602084019260051b820101903682116101b357602401915b818310610753575050506044356001600160401b0381116101b35761024990369060040161137e565b6064356001600160401b0381116101b35761026890369060040161137e565b926084356001600160401b0381116101b35761028890369060040161134c565b9360a4356001600160401b0381116101b3576102a890369060040161134c565b6102b0611a9c565b84518451811490811591610747575b50610738575f5b8551811015610736576001600160a01b036102e18288611a54565b5116158015610724575b61071c575f848152600a602052604090206001600160a01b0361030e8389611a54565b511660018060a01b03165f5260205260405f205461071c57600b54610332816115a4565b600b55610340600c546115a4565b600c55610360816001600160a01b03610359858b611a54565b5116611d8b565b61036a8382611f86565b6001600160a01b0361037c8389611a54565b51166103888388611a54565b516103938487611a54565b5190604051916103a283611198565b8883526020808401948552604080850193845260608501928352426080860190815260a086018f815260c087018b81525f8a81526008909552929093209551865595516001860180546001600160a01b0319166001600160a01b03929092169190911790559251600285015590516003840155925160048301559151805160058301916001600160401b0382116106455761043d8354611160565b601f81116106cb575b50602090601f8311600114610664576006949392915f9183610659575b50508160011b915f199060031b1c19161790555b0190518051906001600160401b038211610645576104958354611160565b601f81116105f4575b50602090601f831160011461058c57600195949392915f9183610581575b50505f19600383901b1c191690851b1790555b828060a01b036104df838a611a54565b51165f5260096020526104f58160405f206115c6565b855f52600a60205260405f20838060a01b03610511848b611a54565b5116848060a01b03165f526020528060405f205585838060a01b03610536848b611a54565b5116917fc4d200e0b5cd7c6ee9eec88772cbcd1ebd49f66310ff2cb66b824530cc871d32610577610567868c611a54565b516040519182918a4291846115ff565b0390a45b016102c6565b015190508c806104bc565b90601f19831691845f52815f20925f5b8181106105dc575091600197969594929183899593106105c4575b505050811b0190556104cf565b01515f1960f88460031b161c191690558c80806105b7565b9293602060018192878601518155019501930161059c565b8281111561049e57835f5260205f20601f840160051c906020851061063d575b81601f9101920160051c03905f5b82811061063057505061049e565b5f82820155600101610622565b5f9150610614565b634e487b7160e01b5f52604160045260245ffd5b015190508e80610463565b90601f19831691845f52815f20925f5b8181106106b357509160019391856006989796941061069b575b505050811b019055610477565b01515f1960f88460031b161c191690558e808061068e565b92936020600181928786015181550195019301610674565b8281111561044657835f5260205f20601f840160051c9060208510610714575b81601f9101920160051c03905f5b828110610707575050610446565b5f828201556001016106f9565b5f91506106eb565b60019061057b565b5061072f8186611a54565b51156102eb565b005b63512509d360e11b5f5260045ffd5b905082511415876102bf565b82356001600160a01b03811681036101b357815260209283019201610220565b346101b35760403660031901126101b35761078c61114a565b6004355f52600a60205260405f209060018060a01b03165f52602052602060405f2054604051908152f35b346101b35760403660031901126101b3576107d0611134565b6107d861114a565b9060018060a01b03165f52600560205260405f209060018060a01b03165f52602052602060ff60405f2054166040519015158152f35b346101b35760203660031901126101b3576001600160a01b0361082f611134565b165f52600960205260405f20604051806020835491828152019081935f5260205f20905f5b8181106108ac575050508161086a9103826111b3565b604051918291602083019060208452518091526040830191905f5b818110610893575050500390f35b8251845285945060209384019390920191600101610885565b8254845260209093019260019283019201610854565b346101b35760403660031901126101b3576107366004356108e161114a565b906109006108fb825f526007602052600160405f20015490565b611b0b565b611bd1565b346101b3575f3660031901126101b35760206040517f9f2df0fed2c77648de5860a4cc508cd0818c85b8b8a1ab4ceeef8d981c8956a68152f35b346101b35760203660031901126101b35761097261095e600435611a24565b604051918291602083526020830190611110565b0390f35b346101b35760c03660031901126101b35761098f61114a565b6084356001600160401b0381116101b3576109ae90369060040161134c565b9060a4356001600160401b0381116101b3576109ce90369060040161134c565b6109d6611a9c565b60027f9b779b17422d0df92223018b32b4d1fa46e071723d6817e2486d003becc55f005414610a6657602092610a3a9260027f9b779b17422d0df92223018b32b4d1fa46e071723d6817e2486d003becc55f00556064359060443590600435611621565b60017f9b779b17422d0df92223018b32b4d1fa46e071723d6817e2486d003becc55f0055604051908152f35b633ee5aeb560e01b5f5260045ffd5b346101b35760803660031901126101b357610a8e611134565b610a9661114a565b90604435606435926001600160401b0384116101b357366023850112156101b357610ace610736943690602481600401359101611316565b92610ada838383611404565b33611c55565b346101b35760203660031901126101b3576004355f52600860205260405f20805461097260018060a01b03600184015416926002810154906003810154600482015490610b3b6006610b34600586016111d4565b94016111d4565b9360405197889788611274565b346101b3575f3660031901126101b3576020600c54604051908152f35b346101b35760403660031901126101b357610b7e611134565b602435908115158092036101b3576001600160a01b0316908115610bed57335f52600560205260405f20825f5260205260405f2060ff1981541660ff83161790556040519081527f17307eab39ab6107e8899845ad3d59bd9653f200f220920489ca2b5937696c3160203392a3005b50630b61174360e31b5f5260045260245ffd5b346101b3575f3660031901126101b35760206040515f8152f35b346101b3575f3660031901126101b3576040515f600154610c3a81611160565b8084529060018116908115610cc05750600114610c62575b6109728361095e818503826111b3565b60015f9081527fb10e2d527612073b26eecdfd717e6a320cf44b4afac2b0732d9fcbe2b7fa0cf6939250905b808210610ca65750909150810160200161095e610c52565b919260018160209254838588010152019101909291610c8e565b60ff191660208086019190915291151560051b8401909101915061095e9050610c52565b346101b35760403660031901126101b357610cfd61114a565b6004355f52600760205260405f209060018060a01b03165f52602052602060ff60405f2054166040519015158152f35b346101b35760203660031901126101b3576001600160a01b03610d4e611134565b168015610d6b575f526003602052602060405f2054604051908152f35b6322718ad960e21b5f525f60045260245ffd5b346101b35760203660031901126101b3576020610d9c600435611a68565b6040516001600160a01b039091168152f35b346101b357610736610dbf366112c1565b9060405192610dcf6020856111b3565b5f8452610ada838383611404565b346101b35760403660031901126101b357610df661114a565b336001600160a01b03821603610e125761073690600435611bd1565b63334bd91960e11b5f5260045ffd5b346101b35760403660031901126101b357610736600435610e4061114a565b90610e5a6108fb825f526007602052600160405f20015490565b611b45565b346101b35760203660031901126101b3576020610e8a6004355f526007602052600160405f20015490565b604051908152f35b346101b357610736610ea3366112c1565b91611404565b346101b35760403660031901126101b357610ec2611134565b602435610ece81611a68565b33151580610f80575b80610f53575b610f405781906001600160a01b0384811691167f8c5be1e5ebec7d5bd14f71427d1e84f3dd0314c0f7b2291e5b200ac8c7c3b9255f80a45f90815260046020526040902080546001600160a01b0319166001600160a01b03909216919091179055005b63a9fbf51f60e01b5f523360045260245ffd5b506001600160a01b0381165f90815260056020908152604080832033845290915290205460ff1615610edd565b506001600160a01b038116331415610ed7565b346101b35760203660031901126101b357600435610fb081611a68565b505f526004602052602060018060a01b0360405f205416604051908152f35b346101b3575f3660031901126101b3576040515f5f54610fee81611160565b8084529060018116908115610cc05750600114611015576109728361095e818503826111b3565b5f8080527f290decd9548b62a8d60345a988386fc84ba6bc95484008f6362f93160ef3e563939250905b8082106110575750909150810160200161095e610c52565b91926001816020925483858801015201910190929161103f565b346101b35760203660031901126101b3576004359063ffffffff60e01b82168092036101b357602091637965db0b60e01b81149081156110b3575b5015158152f35b632483248360e11b8114915081156110cd575b50836110ac565b6380ac58cd60e01b8114915081156110ff575b81156110ee575b50836110c6565b6301ffc9a760e01b149050836110e7565b635b5e139f60e01b811491506110e0565b805180835260209291819084018484015e5f828201840152601f01601f1916010190565b600435906001600160a01b03821682036101b357565b602435906001600160a01b03821682036101b357565b90600182811c9216801561118e575b602083101461117a57565b634e487b7160e01b5f52602260045260245ffd5b91607f169161116f565b60e081019081106001600160401b0382111761064557604052565b90601f801991011681019081106001600160401b0382111761064557604052565b9060405191825f8254926111e784611160565b8084529360018116908115611252575060011461120e575b5061120c925003836111b3565b565b90505f9291925260205f20905f915b81831061123657505090602061120c928201015f6111ff565b602091935080600191548385890101520191019091849261121d565b90506020925061120c94915060ff191682840152151560051b8201015f6111ff565b95926112be9795926112b09592885260018060a01b0316602088015260408701526060860152608085015260e060a085015260e0840190611110565b9160c0818403910152611110565b90565b60609060031901126101b3576004356001600160a01b03811681036101b357906024356001600160a01b03811681036101b3579060443590565b6001600160401b03811161064557601f01601f191660200190565b929192611322826112fb565b9161133060405193846111b3565b8294818452818301116101b3578281602093845f960137010152565b9080601f830112156101b3578160206112be93359101611316565b6001600160401b0381116106455760051b60200190565b9080601f830112156101b357813561139581611367565b926113a360405194856111b3565b81845260208085019260051b8201019283116101b357602001905b8282106113cb5750505090565b81358152602091820191016113be565b80548210156113f0575f5260205f2001905f90565b634e487b7160e01b5f52603260045260245ffd5b6001600160a01b0390911691908215611591575f828152600260205260409020546001600160a01b0316928290331515806114fc575b50846114c9575b805f52600360205260405f2060018154019055815f52600260205260405f20816bffffffffffffffffffffffff60a01b825416179055847fddf252ad1be2c89b69c2b068fc378daa952ba7f163c4a11628f55a4df523b3ef5f80a46001600160a01b03168083036114b157505050565b6364283d7b60e01b5f5260045260245260445260645ffd5b5f82815260046020526040902080546001600160a01b0319169055845f52600360205260405f205f198154019055611441565b90915080611540575b156115125782905f61143a565b828461152a57637e27328960e01b5f5260045260245ffd5b63177e802f60e01b5f523360045260245260445ffd5b50338414801561156f575b8061150557505f838152600460205260409020546001600160a01b03163314611505565b505f84815260056020908152604080832033845290915290205460ff1661154b565b633250574960e11b5f525f60045260245ffd5b5f1981146115b25760010190565b634e487b7160e01b5f52601160045260245ffd5b805468010000000000000000811015610645576115e8916001820181556113db565b819291549060031b91821b915f19901b1916179055565b93929161161c906040928652606060208701526060860190611110565b930152565b9095946001600160a01b0387169491939192918515611a15578215611a06578151156119f757845f52600a60205260405f20865f5260205260405f20546119d657600b549361166f856115a4565b600b5561168b85809a611683600c546115a4565b600c55611d8b565b6116958386611f86565b604051906116a282611198565b8682526020808301898152604080850188815260608601968752426080870190815260a0870195865260c087018981525f8c81526008909652929094209551865591516001860180546001600160a01b0319166001600160a01b0392909216919091179055905160028501559351600384015551600483015551805160058301916001600160401b0382116106455761173b8354611160565b601f8111611985575b50602090601f831160011461191e576006949392915f9183611913575b50508160011b915f199060031b1c19161790555b0190518051906001600160401b038211610645576117938354611160565b601f81116118c2575b50602090601f831160011461183b577fc4d200e0b5cd7c6ee9eec88772cbcd1ebd49f66310ff2cb66b824530cc871d3295949392915f9183611830575b50508160011b915f199060031b1c19161790555b855f5260096020526118028460405f206115c6565b845f52600a60205260405f20865f526020528360405f205561182b6040519283924291846115ff565b0390a4565b015190505f806117d9565b90601f19831691845f52815f20925f5b8181106118aa57509160019391857fc4d200e0b5cd7c6ee9eec88772cbcd1ebd49f66310ff2cb66b824530cc871d32999897969410611892575b505050811b0190556117ed565b01515f1960f88460031b161c191690555f8080611885565b9293602060018192878601518155019501930161184b565b8281111561179c57835f5260205f20601f840160051c906020851061190b575b81601f9101920160051c03905f5b8281106118fe57505061179c565b5f828201556001016118f0565b5f91506118e2565b015190505f80611761565b90601f19831691845f52815f20925f5b81811061196d575091600193918560069897969410611955575b505050811b019055611775565b01515f1960f88460031b161c191690555f8080611948565b9293602060018192878601518155019501930161192e565b8281111561174457835f5260205f20601f840160051c90602085106119ce575b81601f9101920160051c03905f5b8281106119c1575050611744565b5f828201556001016119b3565b5f91506119a5565b50505050909192505f52600a60205260405f20905f5260205260405f205490565b636e6db68160e11b5f5260045ffd5b63162908e360e11b5f5260045ffd5b63d92e233d60e01b5f5260045ffd5b611a2d81611a68565b505f526006602052611a4160405f206111d4565b5f604051611a506020826111b3565b5290565b80518210156113f05760209160051b010190565b5f818152600260205260409020546001600160a01b0316908115611a8a575090565b637e27328960e01b5f5260045260245ffd5b335f9081527fa4bfd7afe708e2e87e7f0e2ad9b4d545417e0f795f57b5c5ab5d799c565a04f4602052604090205460ff1615611ad457565b63e2517d3f60e01b5f52336004527f9f2df0fed2c77648de5860a4cc508cd0818c85b8b8a1ab4ceeef8d981c8956a660245260445ffd5b5f81815260076020908152604080832033845290915290205460ff1615611b2f5750565b63e2517d3f60e01b5f523360045260245260445ffd5b5f8181526007602090815260408083206001600160a01b038616845290915290205460ff16611bcb575f8181526007602090815260408083206001600160a01b0395909516808452949091528120805460ff19166001179055339291907f2f8788117e7eff1d82e926ec794901d17c78024a50270940304540a733656f0d9080a4600190565b50505f90565b5f8181526007602090815260408083206001600160a01b038616845290915290205460ff1615611bcb575f8181526007602090815260408083206001600160a01b0395909516808452949091528120805460ff19169055339291907ff6391f5c32d9c69d2a47ea670b442974b53935d1edc7fd64eb21e047a839171b9080a4600190565b823b611c63575b5050505050565b604051630a85bd0160e11b81526001600160a01b039182166004820152918116602483015260448201939093526080606482015291169160209082908190611caf906084830190611110565b03815f865af15f9181611d46575b50611d1257503d15611d0b573d611cd3816112fb565b90611ce160405192836111b3565b81523d5f602083013e5b80519081611d065782633250574960e11b5f5260045260245ffd5b602001fd5b6060611ceb565b6001600160e01b03191663757a42ff60e11b01611d3457505f80808080611c5c565b633250574960e11b5f5260045260245ffd5b9091506020813d602011611d83575b81611d62602093836111b3565b810103126101b357516001600160e01b0319811681036101b357905f611cbd565b3d9150611d55565b9060209060405190611d9d83836111b3565b5f82526001600160a01b038416938415611591575f8281526002855260409020546001600160a01b03168015159081611f55575b865f526003865260405f2060018154019055835f526002865260405f20876bffffffffffffffffffffffff60a01b8254161790558387827fddf252ad1be2c89b69c2b068fc378daa952ba7f163c4a11628f55a4df523b3ef5f80a450611f42573b611e3d575b50505050565b91611e7a91819495936040519384928392630a85bd0160e11b84523360048501525f60248501526044840152608060648401526084830190611110565b03815f885af15f9181611f02575b50611edd5750503d15611ed5573d90611ea0826112fb565b91611eae60405193846111b3565b82523d5f8284013e5b81519182611ed25783633250574960e11b5f5260045260245ffd5b01fd5b606090611eb7565b909291506001600160e01b03191663757a42ff60e11b01611d3457505f808080611e37565b9091508381813d8311611f3b575b611f1a81836111b3565b810103126101b357516001600160e01b0319811681036101b357905f611e88565b503d611f10565b6339e3563760e11b5f525f60045260245ffd5b5f8481526004602052604080822080546001600160a01b031916905582825260038852902080545f19019055611dd1565b919091805f52600660205260405f2083516001600160401b03811161064557611faf8254611160565b601f81116120a7575b506020601f821160011461201f57908060209493927ff8e1a15aba9398e019f0b49df1a4fde98ee17ae345cb5f6b5e2c27f5033e8ce796975f92612014575b50508160011b915f199060031b1c19161790555b604051908152a1565b015190505f80611ff7565b601f19821695835f52815f20965f5b81811061208f575096600192849260209796957ff8e1a15aba9398e019f0b49df1a4fde98ee17ae345cb5f6b5e2c27f5033e8ce7999a10612077575b505050811b01905561200b565b01515f1960f88460031b161c191690555f808061206a565b8383015189556001909801976020938401930161202e565b81811115611fb857825f5260205f20601f830160051c90602084106120f0575b81601f9101920160051c03905f5b8281106120e3575050611fb8565b5f828201556001016120d5565b5f91506120c756fea2646970667358221220f2f8ef266da667129d5375e939431ddda00872f4623d45add07719cb5bf078ec64736f6c634300082100332f8788117e7eff1d82e926ec794901d17c78024a50270940304540a733656f0d6d5257204ebe7d88fd91ae87941cb2dd9d8062b64ae5a2bd2d28ec40b9fbf6dfa4bfd7afe708e2e87e7f0e2ad9b4d545417e0f795f57b5c5ab5d799c565a04f4","linkReferences":{}},"methodIdentifiers":{"DEFAULT_ADMIN_ROLE()":"a217fddf","MINTER_ROLE()":"d5391393","approve(address,uint256)":"095ea7b3","balanceOf(address)":"70a08231","batchMintReceipts(uint256,address[],uint256[],uint256[],string,string)":"ef383c48","campaignDonorToken(uint256,address)":"ed49c562","donorTokens(address,uint256)":"f3eb69ab","getApproved(uint256)":"081812fc","getDonorCampaignToken(uint256,address)":"4fac0ec7","getDonorReceipts(address)":"da16c453","getReceipt(uint256)":"b63e6ac3","getRoleAdmin(bytes32)":"248a9ca3","grantRole(bytes32,address)":"2f2ff15d","hasRole(bytes32,address)":"91d14854","isApprovedForAll(address,address)":"e985e9c5","mintReceipt(uint256,address,uint256,uint256,string,string)":"c41ce0fd","name()":"06fdde03","ownerOf(uint256)":"6352211e","receipts(uint256)":"0f7ee1ec","renounceRole(bytes32,address)":"36568abe","revokeRole(bytes32,address)":"d547741f","safeTransferFrom(address,address,uint256)":"42842e0e","safeTransferFrom(address,address,uint256,bytes)":"b88d4fde","setApprovalForAll(address,bool)":"a22cb465","supportsInterface(bytes4)":"01ffc9a7","symbol()":"95d89b41","tokenURI(uint256)":"c87b56dd","totalMinted()":"a2309ff8","transferFrom(address,address,uint256)":"23b872dd"},"id":61}