{"abi":[{"type":"constructor","inputs":[{"name":"_treasury","type":"address","internalType":"address"},{"name":"admin","type":"address","internalType":"address"}],"stateMutability":"nonpayable"},{"type":"receive","stateMutability":"payable"},{"type":"function","name":"CAMPAIGN_ROLE","inputs":[],"outputs":[{"name":"","type":"bytes32","internalType":"bytes32"}],"stateMutability":"view"},{"type":"function","name":"DEFAULT_ADMIN_ROLE","inputs":[],"outputs":[{"name":"","type":"bytes32","internalType":"bytes32"}],"stateMutability":"view"},{"type":"function","name":"PLATFORM_FEE_BPS","inputs":[],"outputs":[{"name":"","type":"uint256","internalType":"uint256"}],"stateMutability":"view"},{"type":"function","name":"PROOF_VALIDATOR_ROLE","inputs":[],"outputs":[{"name":"","type":"bytes32","internalType":"bytes32"}],"stateMutability":"view"},{"type":"function","name":"areFundsReleased","inputs":[{"name":"campaignId","type":"uint256","internalType":"uint256"}],"outputs":[{"name":"","type":"bool","internalType":"bool"}],"stateMutability":"view"},{"type":"function","name":"batchRefund","inputs":[{"name":"campaignId","type":"uint256","internalType":"uint256"},{"name":"donors","type":"address[]","internalType":"address[]"}],"outputs":[],"stateMutability":"nonpayable"},{"type":"function","name":"claimRefund","inputs":[{"name":"campaignId","type":"uint256","internalType":"uint256"}],"outputs":[],"stateMutability":"nonpayable"},{"type":"function","name":"emergencyWithdraw","inputs":[],"outputs":[],"stateMutability":"nonpayable"},{"type":"function","name":"enableRefunds","inputs":[{"name":"campaignId","type":"uint256","internalType":"uint256"}],"outputs":[],"stateMutability":"nonpayable"},{"type":"function","name":"escrowAccounts","inputs":[{"name":"","type":"uint256","internalType":"uint256"}],"outputs":[{"name":"balance","type":"uint256","internalType":"uint256"},{"name":"totalDeposited","type":"uint256","internalType":"uint256"},{"name":"refundEnabled","type":"bool","internalType":"bool"},{"name":"fundsReleased","type":"bool","internalType":"bool"},{"name":"recipient","type":"address","internalType":"address"}],"stateMutability":"view"},{"type":"function","name":"getBalance","inputs":[{"name":"campaignId","type":"uint256","internalType":"uint256"}],"outputs":[{"name":"","type":"uint256","internalType":"uint256"}],"stateMutability":"view"},{"type":"function","name":"getDonorBalance","inputs":[{"name":"campaignId","type":"uint256","internalType":"uint256"},{"name":"donor","type":"address","internalType":"address"}],"outputs":[{"name":"","type":"uint256","internalType":"uint256"}],"stateMutability":"view"},{"type":"function","name":"getDonors","inputs":[{"name":"campaignId","type":"uint256","internalType":"uint256"}],"outputs":[{"name":"","type":"address[]","internalType":"address[]"}],"stateMutability":"view"},{"type":"function","name":"getEscrowInfo","inputs":[{"name":"campaignId","type":"uint256","internalType":"uint256"}],"outputs":[{"name":"balance","type":"uint256","internalType":"uint256"},{"name":"totalDeposited","type":"uint256","internalType":"uint256"},{"name":"refundEnabled","type":"bool","internalType":"bool"},{"name":"fundsReleased","type":"bool","internalType":"bool"},{"name":"recipient","type":"address","internalType":"address"},{"name":"donorCount","type":"uint256","internalType":"uint256"}],"stateMutability":"view"},{"type":"function","name":"getRoleAdmin","inputs":[{"name":"role","type":"bytes32","internalType":"bytes32"}],"outputs":[{"name":"","type":"bytes32","internalType":"bytes32"}],"stateMutability":"view"},{"type":"function","name":"grantRole","inputs":[{"name":"role","type":"bytes32","internalType":"bytes32"},{"name":"account","type":"address","internalType":"address"}],"outputs":[],"stateMutability":"nonpayable"},{"type":"function","name":"hasRole","inputs":[{"name":"role","type":"bytes32","internalType":"bytes32"},{"name":"account","type":"address","internalType":"address"}],"outputs":[{"name":"","type":"bool","internalType":"bool"}],"stateMutability":"view"},{"type":"function","name":"isRefundEnabled","inputs":[{"name":"campaignId","type":"uint256","internalType":"uint256"}],"outputs":[{"name":"","type":"bool","internalType":"bool"}],"stateMutability":"view"},{"type":"function","name":"lockFunds","inputs":[{"name":"campaignId","type":"uint256","internalType":"uint256"},{"name":"donor","type":"address","internalType":"address"}],"outputs":[],"stateMutability":"payable"},{"type":"function","name":"pause","inputs":[],"outputs":[],"stateMutability":"nonpayable"},{"type":"function","name":"paused","inputs":[],"outputs":[{"name":"","type":"bool","internalType":"bool"}],"stateMutability":"view"},{"type":"function","name":"releaseFunds","inputs":[{"name":"campaignId","type":"uint256","internalType":"uint256"},{"name":"recipient","type":"address","internalType":"address"}],"outputs":[],"stateMutability":"nonpayable"},{"type":"function","name":"renounceRole","inputs":[{"name":"role","type":"bytes32","internalType":"bytes32"},{"name":"callerConfirmation","type":"address","internalType":"address"}],"outputs":[],"stateMutability":"nonpayable"},{"type":"function","name":"revokeRole","inputs":[{"name":"role","type":"bytes32","internalType":"bytes32"},{"name":"account","type":"address","internalType":"address"}],"outputs":[],"stateMutability":"nonpayable"},{"type":"function","name":"supportsInterface","inputs":[{"name":"interfaceId","type":"bytes4","internalType":"bytes4"}],"outputs":[{"name":"","type":"bool","internalType":"bool"}],"stateMutability":"view"},{"type":"function","name":"totalFeesCollected","inputs":[],"outputs":[{"name":"","type":"uint256","internalType":"uint256"}],"stateMutability":"view"},{"type":"function","name":"totalLockedFunds","inputs":[],"outputs":[{"name":"","type":"uint256","internalType":"uint256"}],"stateMutability":"view"},{"type":"function","name":"treasury","inputs":[],"outputs":[{"name":"","type":"address","internalType":"address"}],"stateMutability":"view"},{"type":"function","name":"unpause","inputs":[],"outputs":[],"stateMutability":"nonpayable"},{"type":"function","name":"updateTreasury","inputs":[{"name":"newTreasury","type":"address","internalType":"address"}],"outputs":[],"stateMutability":"nonpayable"},{"type":"function","name":"withdrawFees","inputs":[],"outputs":[],"stateMutability":"nonpayable"},{"type":"event","name":"EmergencyWithdrawal","inputs":[{"name":"token","type":"address","indexed":true,"internalType":"address"},{"name":"amount","type":"uint256","indexed":false,"internalType":"uint256"},{"name":"timestamp","type":"uint256","indexed":false,"internalType":"uint256"}],"anonymous":false},{"type":"event","name":"FeeCollected","inputs":[{"name":"campaignId","type":"uint256","indexed":true,"internalType":"uint256"},{"name":"amount","type":"uint256","indexed":false,"internalType":"uint256"}],"anonymous":false},{"type":"event","name":"FundsDeposited","inputs":[{"name":"campaignId","type":"uint256","indexed":true,"internalType":"uint256"},{"name":"donor","type":"address","indexed":true,"internalType":"address"},{"name":"amount","type":"uint256","indexed":false,"internalType":"uint256"}],"anonymous":false},{"type":"event","name":"FundsLocked","inputs":[{"name":"campaignId","type":"uint256","indexed":true,"internalType":"uint256"},{"name":"amount","type":"uint256","indexed":false,"internalType":"uint256"},{"name":"timestamp","type":"uint256","indexed":false,"internalType":"uint256"}],"anonymous":false},{"type":"event","name":"FundsRefunded","inputs":[{"name":"campaignId","type":"uint256","indexed":true,"internalType":"uint256"},{"name":"donor","type":"address","indexed":true,"internalType":"address"},{"name":"amount","type":"uint256","indexed":false,"internalType":"uint256"},{"name":"timestamp","type":"uint256","indexed":false,"internalType":"uint256"}],"anonymous":false},{"type":"event","name":"FundsReleased","inputs":[{"name":"campaignId","type":"uint256","indexed":true,"internalType":"uint256"},{"name":"recipient","type":"address","indexed":true,"internalType":"address"},{"name":"amount","type":"uint256","indexed":false,"internalType":"uint256"},{"name":"timestamp","type":"uint256","indexed":false,"internalType":"uint256"}],"anonymous":false},{"type":"event","name":"FundsWithdrawn","inputs":[{"name":"campaignId","type":"uint256","indexed":true,"internalType":"uint256"},{"name":"recipient","type":"address","indexed":true,"internalType":"address"},{"name":"amount","type":"uint256","indexed":false,"internalType":"uint256"}],"anonymous":false},{"type":"event","name":"Paused","inputs":[{"name":"account","type":"address","indexed":false,"internalType":"address"}],"anonymous":false},{"type":"event","name":"PlatformPaused","inputs":[{"name":"timestamp","type":"uint256","indexed":false,"internalType":"uint256"}],"anonymous":false},{"type":"event","name":"PlatformUnpaused","inputs":[{"name":"timestamp","type":"uint256","indexed":false,"internalType":"uint256"}],"anonymous":false},{"type":"event","name":"RefundIssued","inputs":[{"name":"campaignId","type":"uint256","indexed":true,"internalType":"uint256"},{"name":"donor","type":"address","indexed":true,"internalType":"address"},{"name":"amount","type":"uint256","indexed":false,"internalType":"uint256"}],"anonymous":false},{"type":"event","name":"RefundsEnabled","inputs":[{"name":"campaignId","type":"uint256","indexed":true,"internalType":"uint256"}],"anonymous":false},{"type":"event","name":"RoleAdminChanged","inputs":[{"name":"role","type":"bytes32","indexed":true,"internalType":"bytes32"},{"name":"previousAdminRole","type":"bytes32","indexed":true,"internalType":"bytes32"},{"name":"newAdminRole","type":"bytes32","indexed":true,"internalType":"bytes32"}],"anonymous":false},{"type":"event","name":"RoleGranted","inputs":[{"name":"role","type":"bytes32","indexed":true,"internalType":"bytes32"},{"name":"account","type":"address","indexed":true,"internalType":"address"},{"name":"sender","type":"address","indexed":true,"internalType":"address"}],"anonymous":false},{"type":"event","name":"RoleRevoked","inputs":[{"name":"role","type":"bytes32","indexed":true,"internalType":"bytes32"},{"name":"account","type":"address","indexed":true,"internalType":"address"},{"name":"sender","type":"address","indexed":true,"internalType":"address"}],"anonymous":false},{"type":"event","name":"TreasuryWithdrawal","inputs":[{"name":"to","type":"address","indexed":true,"internalType":"address"},{"name":"amount","type":"uint256","indexed":false,"internalType":"uint256"},{"name":"purpose","type":"string","indexed":false,"internalType":"string"},{"name":"timestamp","type":"uint256","indexed":false,"internalType":"uint256"}],"anonymous":false},{"type":"event","name":"Unpaused","inputs":[{"name":"account","type":"address","indexed":false,"internalType":"address"}],"anonymous":false},{"type":"error","name":"AccessControlBadConfirmation","inputs":[]},{"type":"error","name":"AccessControlUnauthorizedAccount","inputs":[{"name":"account","type":"address","internalType":"address"},{"name":"neededRole","type":"bytes32","internalType":"bytes32"}]},{"type":"error","name":"EnforcedPause","inputs":[]},{"type":"error","name":"ExpectedPause","inputs":[]},{"type":"error","name":"FundsAlreadyReleased","inputs":[]},{"type":"error","name":"InsufficientBalance","inputs":[]},{"type":"error","name":"InsufficientTreasuryFunds","inputs":[]},{"type":"error","name":"InvalidAmount","inputs":[]},{"type":"error","name":"InvalidRecipient","inputs":[]},{"type":"error","name":"ReentrancyGuardReentrantCall","inputs":[]},{"type":"error","name":"RefundNotAvailable","inputs":[]},{"type":"error","name":"TransferFailed","inputs":[]},{"type":"error","name":"Unauthorized","inputs":[]},{"type":"error","name":"ZeroAddress","inputs":[]}],"bytecode":{"object":"0x6080346100f057601f6117b738819003918201601f19168301916001600160401b038311848410176100f45780849260409485528339810103126100f057610052602061004b83610108565b9201610108565b60017f9b779b17422d0df92223018b32b4d1fa46e071723d6817e2486d003becc55f00556001600160a01b0390911690811580156100df575b6100d057600480546001600160a01b0319169092179091556100c0906100b08161011c565b506100ba81610192565b50610225565b5060405161147e90816102b98239f35b63d92e233d60e01b5f5260045ffd5b506001600160a01b0381161561008b565b5f80fd5b634e487b7160e01b5f52604160045260245ffd5b51906001600160a01b03821682036100f057565b6001600160a01b0381165f9081525f5160206117975f395f51905f52602052604090205460ff1661018d576001600160a01b03165f8181525f5160206117975f395f51905f5260205260408120805460ff191660011790553391905f5160206117375f395f51905f528180a4600190565b505f90565b6001600160a01b0381165f9081525f5160206117775f395f51905f52602052604090205460ff1661018d576001600160a01b03165f8181525f5160206117775f395f51905f5260205260408120805460ff191660011790553391907f90c1542e8849f561e480d26d143903b92097f79053ec0e7837aaa255099b002b905f5160206117375f395f51905f529080a4600190565b6001600160a01b0381165f9081525f5160206117575f395f51905f52602052604090205460ff1661018d576001600160a01b03165f8181525f5160206117575f395f51905f5260205260408120805460ff191660011790553391907fafc89d3a9f93959069b55749a3609bdaf5fd6a98429da0b4e63a7cb8636dc9c7905f5160206117375f395f51905f529080a460019056fe608080604052600436101561001c575b50361561001a575f80fd5b005b5f3560e01c90816301ffc9a714611146575080630825c61e14610fb25780631af23a5914610d7a5780631e01043914610d50578063248a9ca314610d1e5780632951651114610c635780632c61466e14610c295780632f2ff15d14610bec57806336568abe14610ba85780633f4ba83a14610b2857806346cc03d814610aee578063476343ee14610a0857806352b2380914610926578063539aa77f1461090b5780635b7baf64146107d05780635c975abb146107ae57806360c6d8ae1461079157806361d027b3146107695780637f51bb1f14610719578063803ae192146105075780638456cb59146104855780638646405e1461041457806391d14854146103cc578063a217fddf146103b2578063b88584bb14610395578063c372568014610360578063c38240e21461032e578063d547741f146102ec578063db2e21bc1461022d578063ed043e3e146101e65763f413b1291461017d575f61000f565b346101e25760203660031901126101e2576004355f52600260205260a060405f208054906002600182015491015490604051928352602083015260ff81161515604083015260ff8160081c1615156060830152600180841b039060101c166080820152f35b5f80fd5b346101e25760403660031901126101e2576101ff611199565b6004355f526002602052600360405f20019060018060a01b03165f52602052602060405f2054604051908152f35b346101e2575f3660031901126101e25761024561122a565b61024d61140c565b6102556112cc565b4780156102dd575f6003555f8080808460018060a01b03600454165af161027a6111de565b50156102ce577f56da9a5ae0bcf6e7c3fdd78a10550e7d0458de1c39bfb7f6e96a3e92dd344a68604060018060a01b0360045416928151908152426020820152a260015f5160206114295f395f51905f5255005b6312171d8360e31b5f5260045ffd5b631e9acf1760e31b5f5260045ffd5b346101e25760403660031901126101e25761001a60043561030b611199565b90610329610324825f525f602052600160405f20015490565b611279565b61138c565b346101e25760203660031901126101e2576004355f526002602052602060ff600260405f200154166040519015158152f35b346101e25760203660031901126101e2576004355f526002602052602060ff600260405f20015460081c166040519015158152f35b346101e2575f3660031901126101e2576020600354604051908152f35b346101e2575f3660031901126101e25760206040515f8152f35b346101e25760403660031901126101e2576103e5611199565b6004355f525f60205260405f209060018060a01b03165f52602052602060ff60405f2054166040519015158152f35b346101e25760203660031901126101e2576004355f52600260205260c060405f208054906001810154906004600282015491015491604051938452602084015260ff81161515604084015260ff8160081c161515606084015260018060a01b039060101c16608083015260a0820152f35b346101e2575f3660031901126101e25761049d61122a565b6104a56112b1565b600160ff19815416176001557f62e78cea01bee320cd4e420270b5ea74000d11b0c9f74754ebdbfc544b05a2586020604051338152a17f61dfea32d49b7cb8477e72ddcc115cc00bbacd0fe7291251b0996cc6b0f5d76d6020604051428152a1005b60403660031901126101e25760043561051e611199565b335f9081527f1223792cbf48f76b6d665b93b10b3304b0682c530f282594d6389153ba192f2d602052604090205460ff16156106e25761055c6112b1565b6105646112cc565b34156106d3576001600160a01b03169081156106c457805f52600260205260405f206003810190835f528160205260405f20541561064e575b600191845f5260205260405f206105b534825461121d565b90556105c234825461121d565b8155016105d034825461121d565b90556105de3460035461121d565b600355807fdcd1b584798444b5aa8d1e99de5359308e14d34a63eb3b0c32a815f05ca62d4160408051348152426020820152a27fe030e47e27825a2ad1b19e4cf2e70bfbfb3124af275c7727a82b114ba7b29a856020604051348152a360015f5160206114295f395f51905f5255005b60048101918254680100000000000000008110156106b0576001810180855581101561069c576001935f5260205f2001856bffffffffffffffffffffffff60a01b825416179055915061059d565b634e487b7160e01b5f52603260045260245ffd5b634e487b7160e01b5f52604160045260245ffd5b63d92e233d60e01b5f5260045ffd5b63162908e360e11b5f5260045ffd5b63e2517d3f60e01b5f52336004527f90c1542e8849f561e480d26d143903b92097f79053ec0e7837aaa255099b002b60245260445ffd5b346101e25760203660031901126101e2576004356001600160a01b038116908190036101e25761074761122a565b80156106c4576bffffffffffffffffffffffff60a01b60045416176004555f80f35b346101e2575f3660031901126101e2576004546040516001600160a01b039091168152602090f35b346101e2575f3660031901126101e2576020600554604051908152f35b346101e2575f3660031901126101e257602060ff600154166040519015158152f35b346101e25760203660031901126101e2576004356107ec6112b1565b6107f46112cc565b805f52600260205260405f2090600282015460ff8116156108fc5760081c60ff166108ed57335f908152600383016020819052604090912054929083156102dd5760018060a01b0333165f526020525f60408120556108548382546111af565b9055610862826003546111af565b6003555f80808085335af16108756111de565b50156102ce57604051828152426020820152817fcca40337e9b245dc8a1a334e63478fc0d233f6de38e9dd99bae080b1b6951e5a60403393a36040519182527f7a482fdeb6bc9a1376f597068a214a7a39472bb2eff1b8cad21ba04f49ddca1b60203393a360015f5160206114295f395f51905f5255005b635c1508a760e01b5f5260045ffd5b630b4d698160e01b5f5260045ffd5b346101e2575f3660031901126101e2576020604051600a8152f35b346101e25760203660031901126101e257335f9081527f1223792cbf48f76b6d665b93b10b3304b0682c530f282594d6389153ba192f2d60205260409020546004359060ff1615806109d0575b6109c257805f526002602052600260405f2001805460ff8160081c166108ed5760ff191660011790557f01fd9d9d9f159bbb346cbe96d08df5b61108b672fa79a2d53fb9c67b9717d2735f80a2005b6282b42960e81b5f5260045ffd5b50335f9081527f1a74ff4c28829b161d9146c06aefbf912daef97c8e2aaced44d3b436a2e3c694602052604090205460ff1615610973565b346101e2575f3660031901126101e257610a2061122a565b610a286112cc565b476003548082115f14610ae657610a3e916111af565b8015610ad7575f8080808460018060a01b03600454165af1610a5e6111de565b50156102ce577fe40f6dcd6985f8586212ae7cfac03174a063cdd14f24947d0062a194b90e65a660a0600180821b03600454169260405190815260606020820152600e60608201526d1199594815da5d1a191c985dd85b60921b6080820152426040820152a260015f5160206114295f395f51905f5255005b6310f199c960e21b5f5260045ffd5b50505f610a3e565b346101e2575f3660031901126101e25760206040517f90c1542e8849f561e480d26d143903b92097f79053ec0e7837aaa255099b002b8152f35b346101e2575f3660031901126101e257610b4061122a565b610b4861140c565b60ff19600154166001557f5db9ee0a495bf2e6ff9c91a7834c1ba4fdd244a5e8aa4e537bd38aeae4b073aa6020604051338152a17f3179dc7b4105a46363cc2d2fedc53c73e8fc528d7c9091692268c880bf1d2b796020604051428152a1005b346101e25760403660031901126101e257610bc1611199565b336001600160a01b03821603610bdd5761001a9060043561138c565b63334bd91960e11b5f5260045ffd5b346101e25760403660031901126101e25761001a600435610c0b611199565b90610c24610324825f525f602052600160405f20015490565b611304565b346101e2575f3660031901126101e25760206040517fafc89d3a9f93959069b55749a3609bdaf5fd6a98429da0b4e63a7cb8636dc9c78152f35b346101e25760203660031901126101e2576004355f526002602052600460405f2001604051806020835491828152019081935f5260205f20905f5b818110610cff5750505081610cb49103826111bc565b604051918291602083019060208452518091526040830191905f5b818110610cdd575050500390f35b82516001600160a01b0316845285945060209384019390920191600101610ccf565b82546001600160a01b0316845260209093019260019283019201610c9e565b346101e25760203660031901126101e2576020610d486004355f525f602052600160405f20015490565b604051908152f35b346101e25760203660031901126101e2576004355f526002602052602060405f2054604051908152f35b346101e25760403660031901126101e257600435610d96611199565b335f9081527f1a74ff4c28829b161d9146c06aefbf912daef97c8e2aaced44d3b436a2e3c694602052604090205490919060ff1615610f7b57610dd76112b1565b610ddf6112cc565b6001600160a01b038216918215610f6c57815f52600260205260405f209081549081156102dd576002830190815460ff8160081c166108ed5760ff81166108fc57610100600160b01b03191660109190911b62010000600160b01b031617610100179055600a818102908282049003610f5857612710610e709104915f610e6684836111af565b94556003546111af565b6003555f80808085885af1610e836111de565b50156102ce5780610ed3575b5060407f93e901cc5aea20ea9655887d9290a3215a5b3999c024812f4e4b749f7534349c918151908152426020820152a360015f5160206114295f395f51905f5255005b5f8080808460018060a01b03600454165af1610eed6111de565b50156102ce577f93e901cc5aea20ea9655887d9290a3215a5b3999c024812f4e4b749f7534349c91837faf7c505ee772ec188af7067e1f73db08ab028e3d564273442b907742b9c41fa0602084610f4860409660055461121d565b6005558551908152a29150610e8f565b634e487b7160e01b5f52601160045260245ffd5b634e46966960e11b5f5260045ffd5b63e2517d3f60e01b5f52336004527fafc89d3a9f93959069b55749a3609bdaf5fd6a98429da0b4e63a7cb8636dc9c760245260445ffd5b346101e25760403660031901126101e25760043560243567ffffffffffffffff81116101e257366023820112156101e25780600401359167ffffffffffffffff83116101e2573660248460051b840101116101e25761100f61122a565b6110176112b1565b61101f6112cc565b805f52600260205260405f2090600282015460ff8116156108fc5760081c60ff166108ed576003820193925f5b84811015611133576024600582901b830101356001600160a01b03811691908290036101e257815f528660205260405f205491821561112957805f52876020525f604081205561109d8387546111af565b86556110ab836003546111af565b6003555f80808086855af16110be6111de565b50156102ce57847f7a482fdeb6bc9a1376f597068a214a7a39472bb2eff1b8cad21ba04f49ddca1b602060019584847fcca40337e9b245dc8a1a334e63478fc0d233f6de38e9dd99bae080b1b6951e5a604080518581524287820152a3604051908152a35b0161104c565b5060019150611123565b60015f5160206114295f395f51905f5255005b346101e25760203660031901126101e2576004359063ffffffff60e01b82168092036101e257602091637965db0b60e01b8114908115611188575b5015158152f35b6301ffc9a760e01b14905083611181565b602435906001600160a01b03821682036101e257565b91908203918211610f5857565b90601f8019910116810190811067ffffffffffffffff8211176106b057604052565b3d15611218573d9067ffffffffffffffff82116106b0576040519161120d601f8201601f1916602001846111bc565b82523d5f602084013e565b606090565b91908201809211610f5857565b335f9081527fad3228b676f7d3cd4284a5443f17f1962b36e491b30a40b2405849e597ba5fb5602052604090205460ff161561126257565b63e2517d3f60e01b5f52336004525f60245260445ffd5b5f8181526020818152604080832033845290915290205460ff161561129b5750565b63e2517d3f60e01b5f523360045260245260445ffd5b60ff600154166112bd57565b63d93c066560e01b5f5260045ffd5b60025f5160206114295f395f51905f5254146112f55760025f5160206114295f395f51905f5255565b633ee5aeb560e01b5f5260045ffd5b5f818152602081815260408083206001600160a01b038616845290915290205460ff16611386575f818152602081815260408083206001600160a01b0395909516808452949091528120805460ff19166001179055339291907f2f8788117e7eff1d82e926ec794901d17c78024a50270940304540a733656f0d9080a4600190565b50505f90565b5f818152602081815260408083206001600160a01b038616845290915290205460ff1615611386575f818152602081815260408083206001600160a01b0395909516808452949091528120805460ff19169055339291907ff6391f5c32d9c69d2a47ea670b442974b53935d1edc7fd64eb21e047a839171b9080a4600190565b60ff600154161561141957565b638dfc202b60e01b5f5260045ffdfe9b779b17422d0df92223018b32b4d1fa46e071723d6817e2486d003becc55f00a2646970667358221220c732463d13b4efb07e78e0a7f35337b2137dbb2ec3303042e38c07f666e564ed64736f6c634300081e00332f8788117e7eff1d82e926ec794901d17c78024a50270940304540a733656f0d1a74ff4c28829b161d9146c06aefbf912daef97c8e2aaced44d3b436a2e3c6941223792cbf48f76b6d665b93b10b3304b0682c530f282594d6389153ba192f2dad3228b676f7d3cd4284a5443f17f1962b36e491b30a40b2405849e597ba5fb5","linkReferences":{}},"methodIdentifiers":{"CAMPAIGN_ROLE()":"46cc03d8","DEFAULT_ADMIN_ROLE()":"a217fddf","PLATFORM_FEE_BPS()":"539aa77f","PROOF_VALIDATOR_ROLE()":"2c61466e","areFundsReleased(uint256)":"c3725680","batchRefund(uint256,address[])":"0825c61e","claimRefund(uint256)":"5b7baf64","emergencyWithdraw()":"db2e21bc","enableRefunds(uint256)":"52b23809","escrowAccounts(uint256)":"f413b129","getBalance(uint256)":"1e010439","getDonorBalance(uint256,address)":"ed043e3e","getDonors(uint256)":"29516511","getEscrowInfo(uint256)":"8646405e","getRoleAdmin(bytes32)":"248a9ca3","grantRole(bytes32,address)":"2f2ff15d","hasRole(bytes32,address)":"91d14854","isRefundEnabled(uint256)":"c38240e2","lockFunds(uint256,address)":"803ae192","pause()":"8456cb59","paused()":"5c975abb","releaseFunds(uint256,address)":"1af23a59","renounceRole(bytes32,address)":"36568abe","revokeRole(bytes32,address)":"d547741f","supportsInterface(bytes4)":"01ffc9a7","totalFeesCollected()":"60c6d8ae","totalLockedFunds()":"b88584bb","treasury()":"61d027b3","unpause()":"3f4ba83a","updateTreasury(address)":"7f51bb1f","withdrawFees()":"476343ee"},"id":52}