{"abi":[{"type":"constructor","inputs":[{"name":"_patToken","type":"address","internalType":"address"},{"name":"_institutionRegistry","type":"address","internalType":"address"},{"name":"admin","type":"address","internalType":"address"}],"stateMutability":"nonpayable"},{"type":"receive","stateMutability":"payable"},{"type":"function","name":"DEFAULT_ADMIN_ROLE","inputs":[],"outputs":[{"name":"","type":"bytes32","internalType":"bytes32"}],"stateMutability":"view"},{"type":"function","name":"EXECUTION_DELAY","inputs":[],"outputs":[{"name":"","type":"uint256","internalType":"uint256"}],"stateMutability":"view"},{"type":"function","name":"EXECUTOR_ROLE","inputs":[],"outputs":[{"name":"","type":"bytes32","internalType":"bytes32"}],"stateMutability":"view"},{"type":"function","name":"MIN_PROPOSAL_THRESHOLD","inputs":[],"outputs":[{"name":"","type":"uint256","internalType":"uint256"}],"stateMutability":"view"},{"type":"function","name":"QUORUM_PERCENTAGE","inputs":[],"outputs":[{"name":"","type":"uint256","internalType":"uint256"}],"stateMutability":"view"},{"type":"function","name":"VOTING_PERIOD","inputs":[],"outputs":[{"name":"","type":"uint256","internalType":"uint256"}],"stateMutability":"view"},{"type":"function","name":"activeProposals","inputs":[{"name":"","type":"uint256","internalType":"uint256"}],"outputs":[{"name":"","type":"uint256","internalType":"uint256"}],"stateMutability":"view"},{"type":"function","name":"cancelProposal","inputs":[{"name":"proposalId","type":"uint256","internalType":"uint256"}],"outputs":[],"stateMutability":"nonpayable"},{"type":"function","name":"castVote","inputs":[{"name":"proposalId","type":"uint256","internalType":"uint256"},{"name":"voteType","type":"uint8","internalType":"uint8"}],"outputs":[],"stateMutability":"nonpayable"},{"type":"function","name":"executeProposal","inputs":[{"name":"proposalId","type":"uint256","internalType":"uint256"}],"outputs":[],"stateMutability":"nonpayable"},{"type":"function","name":"finalizeProposal","inputs":[{"name":"proposalId","type":"uint256","internalType":"uint256"}],"outputs":[],"stateMutability":"nonpayable"},{"type":"function","name":"getActiveProposals","inputs":[],"outputs":[{"name":"","type":"uint256[]","internalType":"uint256[]"}],"stateMutability":"view"},{"type":"function","name":"getProposal","inputs":[{"name":"proposalId","type":"uint256","internalType":"uint256"}],"outputs":[{"name":"proposer","type":"address","internalType":"address"},{"name":"title","type":"string","internalType":"string"},{"name":"description","type":"string","internalType":"string"},{"name":"startTime","type":"uint256","internalType":"uint256"},{"name":"endTime","type":"uint256","internalType":"uint256"},{"name":"forVotes","type":"uint256","internalType":"uint256"},{"name":"againstVotes","type":"uint256","internalType":"uint256"},{"name":"state","type":"uint8","internalType":"enum GovernanceDAO.ProposalState"}],"stateMutability":"view"},{"type":"function","name":"getProposalState","inputs":[{"name":"proposalId","type":"uint256","internalType":"uint256"}],"outputs":[{"name":"","type":"uint8","internalType":"enum GovernanceDAO.ProposalState"}],"stateMutability":"view"},{"type":"function","name":"getQuorumVotes","inputs":[],"outputs":[{"name":"","type":"uint256","internalType":"uint256"}],"stateMutability":"view"},{"type":"function","name":"getRoleAdmin","inputs":[{"name":"role","type":"bytes32","internalType":"bytes32"}],"outputs":[{"name":"","type":"bytes32","internalType":"bytes32"}],"stateMutability":"view"},{"type":"function","name":"getUserProposals","inputs":[{"name":"user","type":"address","internalType":"address"}],"outputs":[{"name":"","type":"uint256[]","internalType":"uint256[]"}],"stateMutability":"view"},{"type":"function","name":"getVote","inputs":[{"name":"proposalId","type":"uint256","internalType":"uint256"},{"name":"voter","type":"address","internalType":"address"}],"outputs":[{"name":"","type":"uint8","internalType":"enum GovernanceDAO.VoteType"}],"stateMutability":"view"},{"type":"function","name":"grantRole","inputs":[{"name":"role","type":"bytes32","internalType":"bytes32"},{"name":"account","type":"address","internalType":"address"}],"outputs":[],"stateMutability":"nonpayable"},{"type":"function","name":"hasRole","inputs":[{"name":"role","type":"bytes32","internalType":"bytes32"},{"name":"account","type":"address","internalType":"address"}],"outputs":[{"name":"","type":"bool","internalType":"bool"}],"stateMutability":"view"},{"type":"function","name":"hasVoted","inputs":[{"name":"proposalId","type":"uint256","internalType":"uint256"},{"name":"voter","type":"address","internalType":"address"}],"outputs":[{"name":"","type":"bool","internalType":"bool"}],"stateMutability":"view"},{"type":"function","name":"institutionRegistry","inputs":[],"outputs":[{"name":"","type":"address","internalType":"contract InstitutionRegistry"}],"stateMutability":"view"},{"type":"function","name":"patToken","inputs":[],"outputs":[{"name":"","type":"address","internalType":"contract PATToken"}],"stateMutability":"view"},{"type":"function","name":"pause","inputs":[],"outputs":[],"stateMutability":"nonpayable"},{"type":"function","name":"paused","inputs":[],"outputs":[{"name":"","type":"bool","internalType":"bool"}],"stateMutability":"view"},{"type":"function","name":"proposalCounter","inputs":[],"outputs":[{"name":"","type":"uint256","internalType":"uint256"}],"stateMutability":"view"},{"type":"function","name":"proposals","inputs":[{"name":"","type":"uint256","internalType":"uint256"}],"outputs":[{"name":"id","type":"uint256","internalType":"uint256"},{"name":"proposer","type":"address","internalType":"address"},{"name":"title","type":"string","internalType":"string"},{"name":"description","type":"string","internalType":"string"},{"name":"startTime","type":"uint256","internalType":"uint256"},{"name":"endTime","type":"uint256","internalType":"uint256"},{"name":"executionTime","type":"uint256","internalType":"uint256"},{"name":"forVotes","type":"uint256","internalType":"uint256"},{"name":"againstVotes","type":"uint256","internalType":"uint256"},{"name":"abstainVotes","type":"uint256","internalType":"uint256"},{"name":"state","type":"uint8","internalType":"enum GovernanceDAO.ProposalState"}],"stateMutability":"view"},{"type":"function","name":"propose","inputs":[{"name":"title","type":"string","internalType":"string"},{"name":"description","type":"string","internalType":"string"},{"name":"targets","type":"address[]","internalType":"address[]"},{"name":"values","type":"uint256[]","internalType":"uint256[]"},{"name":"calldatas","type":"bytes[]","internalType":"bytes[]"}],"outputs":[{"name":"","type":"uint256","internalType":"uint256"}],"stateMutability":"nonpayable"},{"type":"function","name":"queueProposal","inputs":[{"name":"proposalId","type":"uint256","internalType":"uint256"}],"outputs":[],"stateMutability":"nonpayable"},{"type":"function","name":"renounceRole","inputs":[{"name":"role","type":"bytes32","internalType":"bytes32"},{"name":"callerConfirmation","type":"address","internalType":"address"}],"outputs":[],"stateMutability":"nonpayable"},{"type":"function","name":"revokeRole","inputs":[{"name":"role","type":"bytes32","internalType":"bytes32"},{"name":"account","type":"address","internalType":"address"}],"outputs":[],"stateMutability":"nonpayable"},{"type":"function","name":"supportsInterface","inputs":[{"name":"interfaceId","type":"bytes4","internalType":"bytes4"}],"outputs":[{"name":"","type":"bool","internalType":"bool"}],"stateMutability":"view"},{"type":"function","name":"unpause","inputs":[],"outputs":[],"stateMutability":"nonpayable"},{"type":"function","name":"userProposals","inputs":[{"name":"","type":"address","internalType":"address"},{"name":"","type":"uint256","internalType":"uint256"}],"outputs":[{"name":"","type":"uint256","internalType":"uint256"}],"stateMutability":"view"},{"type":"event","name":"Paused","inputs":[{"name":"account","type":"address","indexed":false,"internalType":"address"}],"anonymous":false},{"type":"event","name":"ProposalCreated","inputs":[{"name":"proposalId","type":"uint256","indexed":true,"internalType":"uint256"},{"name":"proposer","type":"address","indexed":true,"internalType":"address"},{"name":"description","type":"string","indexed":false,"internalType":"string"},{"name":"votingEnds","type":"uint256","indexed":false,"internalType":"uint256"},{"name":"timestamp","type":"uint256","indexed":false,"internalType":"uint256"}],"anonymous":false},{"type":"event","name":"ProposalExecuted","inputs":[{"name":"proposalId","type":"uint256","indexed":true,"internalType":"uint256"},{"name":"success","type":"bool","indexed":false,"internalType":"bool"},{"name":"timestamp","type":"uint256","indexed":false,"internalType":"uint256"}],"anonymous":false},{"type":"event","name":"RoleAdminChanged","inputs":[{"name":"role","type":"bytes32","indexed":true,"internalType":"bytes32"},{"name":"previousAdminRole","type":"bytes32","indexed":true,"internalType":"bytes32"},{"name":"newAdminRole","type":"bytes32","indexed":true,"internalType":"bytes32"}],"anonymous":false},{"type":"event","name":"RoleGranted","inputs":[{"name":"role","type":"bytes32","indexed":true,"internalType":"bytes32"},{"name":"account","type":"address","indexed":true,"internalType":"address"},{"name":"sender","type":"address","indexed":true,"internalType":"address"}],"anonymous":false},{"type":"event","name":"RoleRevoked","inputs":[{"name":"role","type":"bytes32","indexed":true,"internalType":"bytes32"},{"name":"account","type":"address","indexed":true,"internalType":"address"},{"name":"sender","type":"address","indexed":true,"internalType":"address"}],"anonymous":false},{"type":"event","name":"Unpaused","inputs":[{"name":"account","type":"address","indexed":false,"internalType":"address"}],"anonymous":false},{"type":"event","name":"VoteCast","inputs":[{"name":"proposalId","type":"uint256","indexed":true,"internalType":"uint256"},{"name":"voter","type":"address","indexed":true,"internalType":"address"},{"name":"support","type":"bool","indexed":false,"internalType":"bool"},{"name":"weight","type":"uint256","indexed":false,"internalType":"uint256"},{"name":"timestamp","type":"uint256","indexed":false,"internalType":"uint256"}],"anonymous":false},{"type":"error","name":"AccessControlBadConfirmation","inputs":[]},{"type":"error","name":"AccessControlUnauthorizedAccount","inputs":[{"name":"account","type":"address","internalType":"address"},{"name":"neededRole","type":"bytes32","internalType":"bytes32"}]},{"type":"error","name":"AlreadyVoted","inputs":[]},{"type":"error","name":"ArrayLengthMismatch","inputs":[]},{"type":"error","name":"EnforcedPause","inputs":[]},{"type":"error","name":"ExpectedPause","inputs":[]},{"type":"error","name":"InsufficientVotingPower","inputs":[]},{"type":"error","name":"InvalidParameter","inputs":[]},{"type":"error","name":"InvalidVoteType","inputs":[]},{"type":"error","name":"ProposalAlreadyExecuted","inputs":[]},{"type":"error","name":"ProposalExecutionFailed","inputs":[]},{"type":"error","name":"ProposalNotActive","inputs":[]},{"type":"error","name":"ReentrancyGuardReentrantCall","inputs":[]},{"type":"error","name":"Unauthorized","inputs":[]},{"type":"error","name":"VotingPeriodEnded","inputs":[]},{"type":"error","name":"VotingPeriodNotEnded","inputs":[]},{"type":"error","name":"ZeroAddress","inputs":[]}],"bytecode":{"object":"0x60803461013d57601f61236638819003918201601f19168301916001600160401b038311848410176101415780849260609460405283398101031261013d5761004781610155565b90610060604061005960208401610155565b9201610155565b60017f9b779b17422d0df92223018b32b4d1fa46e071723d6817e2486d003becc55f0055906001600160a01b03831615801561012c575b801561011b575b61010c5760018054610100600160a81b03191660089490941b610100600160a81b031693909317909255600280546001600160a01b0319166001600160a01b0393909316929092179091556100fc906100f681610169565b506101df565b5060405161209390816102738239f35b63d92e233d60e01b5f5260045ffd5b506001600160a01b0382161561009e565b506001600160a01b03811615610097565b5f80fd5b634e487b7160e01b5f52604160045260245ffd5b51906001600160a01b038216820361013d57565b6001600160a01b0381165f9081525f5160206123465f395f51905f52602052604090205460ff166101da576001600160a01b03165f8181525f5160206123465f395f51905f5260205260408120805460ff191660011790553391905f5160206123065f395f51905f528180a4600190565b505f90565b6001600160a01b0381165f9081525f5160206123265f395f51905f52602052604090205460ff166101da576001600160a01b03165f8181525f5160206123265f395f51905f5260205260408120805460ff191660011790553391907fd8aa0f3194971a2a116679f7c2090f6939c8d4e01a2a8d7e41d55e5351469e63905f5160206123065f395f51905f529080a460019056fe6080604052600436101561001a575b3615610018575f80fd5b005b5f5f3560e01c8063013cf08b1461191157806301ffc9a7146118bb57806307bd0265146118815780630c0512e9146118645780630d61b519146115b65780631b1fcb041461158e5780631b31527f14611545578063248a9ca3146115135780632f2ff15d146114d657806336568abe1461149257806337f135d7146114755780633d90e7ab146114495780633f4ba83a146113e357806343859632146113975780635584c4f9146113235780635652077c146113075780635678138814610fcc5780635c975abb14610fa957806371fb5836146106dc57806378ef11381461065e578063791f5d23146106395780638456cb59146105df5780639080936f146105a857806391d148541461055f57806394a14a34146104ef5780639b7742521461042b578063a217fddf1461040f578063b1610d7e146103f1578063bc3f931f14610387578063c7f758a8146102cf578063d547741f14610288578063e0a8f6f5146101f3578063e40824f8146101b95763ee8a7c151461019b575061000e565b346101b657806003193601126101b6576020604051600a8152f35b80fd5b50346101b65760203660031901126101b657600435906005548210156101b65760206101e483611b54565b90549060031b1c604051908152f35b50346101b65760203660031901126101b65760043580825260036020526040822060018101546001600160a01b0316330361027a57600d0160ff81541660078110156102665760051461025757805460ff1916600617905561025490611ea6565b80f35b6351618d5360e01b8352600483fd5b634e487b7160e01b84526021600452602484fd5b6282b42960e81b8352600483fd5b50346101b65760403660031901126101b6576102cb6004356102a8611b3e565b906102c66102c1825f525f602052600160405f20015490565b611e6e565b611fc2565b5080f35b50346101b65760203660031901126101b657604090600435815260036020522060018060a01b0360018201541660078201546103836008840154600a850154600b8601549060ff600d8801541692610364610338600361033160028c01611a57565b9a01611a57565b6103566040519a8b9a8b5261010060208c01526101008b0190611af7565b9089820360408b0152611af7565b956060880152608087015260a086015260c085015260e0840190611b1b565b0390f35b50346101b65760403660031901126101b6576103a1611b3e565b60043582526003602052600f60408320019060018060a01b03165f5260205260ff60405f2054166040519060038110156103dd57602092508152f35b634e487b7160e01b83526021600452602483fd5b50346101b657806003193601126101b657602060405162093a808152f35b50346101b657806003193601126101b657602090604051908152f35b50346101b657806003193601126101b6576001546040516318160ddd60e01b815291906020908390600490829060081c6001600160a01b03165afa9182156104e25781926104aa575b50600a820291808304600a149015171561049657602082606460405191048152f35b634e487b7160e01b81526011600452602490fd5b9091506020813d6020116104da575b816104c660209383611a22565b810103126104d65751905f610474565b5f80fd5b3d91506104b9565b50604051903d90823e3d90fd5b50346101b65760203660031901126101b6576004358152600360205260408120600d81019060ff8254166007811015610266576003036105505760090154421061054157805460ff1916600417905580f35b630cd7c29960e21b8252600482fd5b637becc13f60e01b8352600483fd5b50346101b65760403660031901126101b657604061057b611b3e565b91600435815280602052209060018060a01b03165f52602052602060ff60405f2054166040519015158152f35b50346101b65760203660031901126101b65760ff600d6040602093600435815260038552200154166105dd6040518092611b1b565bf35b50346101b657806003193601126101b6576105f8611e1f565b610600612042565b600160ff19815416176001557f62e78cea01bee320cd4e420270b5ea74000d11b0c9f74754ebdbfc544b05a2586020604051338152a180f35b50346101b657806003193601126101b657602060405169021e19e0c9bab24000008152f35b50346101b65760203660031901126101b6576001600160a01b03610680611b28565b168152600660205260408120604051918260208354918281520192825260208220915b8181106106c657610383856106ba81870382611a22565b60405191829182611b95565b82548452602090930192600192830192016106a3565b50346101b65760a03660031901126101b6576004356001600160401b038111610fa55761070d903690600401611c1f565b6024356001600160401b038111610fa15761072c903690600401611c1f565b90604435916001600160401b038311610f9d5736602384011215610f9d57826004013561075881611c3d565b936107666040519586611a22565b81855260208501906024829360051b82010190368211610f5d57602401915b818310610f79575050506064356001600160401b038111610f755736602382011215610f755780600401356107b981611c3d565b916107c76040519384611a22565b818352602083016024819360051b83010191368311610f7157602401905b828210610f6157505050608435916001600160401b038311610f5d5736602384011215610f5d5782600401359361081b85611c3d565b936108296040519586611a22565b85855260208501906024829760051b82010190368211610f595760248101925b828410610f15575050505061085c612042565b6001546040516370a0823160e01b8152336004820152906020908290602490829060081c6001600160a01b03165afa8015610f0a578a90610ece575b69021e19e0c9bab2400000915010610ebf578651158015610eb6575b610e8c5787518251811490811591610eaa575b50610e9b57875115610e8c57600454975f198914610e785760018901600455888a52600360205260408a209789895560018901336bffffffffffffffffffffffff60a01b825416179055600289019080516001600160401b038111610e645761093a8161093485546119ea565b85611db1565b60208d601f8311600114610e0257906109679383610c0f575b50508160011b915f199060031b1c19161790565b90555b6003880187516001600160401b038111610dee576109928161098c84546119ea565b84611db1565b60208c601f8311600114610d8d576109be929182610d82575b508160011b915f199060031b1c19161790565b90555b600488019051916001600160401b038311610d6e57600160401b8311610d6e576109f083835481855584611dfe565b908a5260208a208a5b838110610d515750505050600586019051916001600160401b038311610d3d57600160401b8311610d3d57610a3383835481855584611dfe565b90885260208820885b838110610d29575050505060068401905191600160401b8311610d15578154838355808410610c97575b509086526020862086915b838310610ba2575050505042600783015562093a80420191824211610b8e5760088101839055600d01805460ff19166001179055600554600160401b811015610b7a5783610aca826001610ae294016005556005611b80565b90919082549060031b91821b915f19901b1916179055565b338452600660205260408420805490600160401b821015610b665791602095610b3786610aca85829760017f6c98a8c940418b35614f0cd02412d5c9606faff474cbb6cdd6640ba5d1a9f06b98018155611b80565b50610b4d60405191606083526060830190611af7565b93868201524260408201528033940390a3604051908152f35b634e487b7160e01b86526041600452602486fd5b634e487b7160e01b85526041600452602485fd5b634e487b7160e01b85526011600452602485fd5b80518051906001600160401b038211610c8357610bc982610bc386546119ea565b86611db1565b6020908a601f8411600114610c1a578360019592946020948796610c009492610c0f5750508160011b915f199060031b1c19161790565b85555b01920192019190610a71565b015190505f80610953565b50848b52818b209190601f1984168c5b818110610c6b5750936020936001969387969383889510610c53575b505050811b018555610c03565b01515f1960f88460031b161c191690555f8080610c46565b92936020600181928786015181550195019301610c2a565b634e487b7160e01b8a52604160045260248afd5b828852838060208a2001910390885b828110610cb4575050610a66565b808a6001928401610cc581546119ea565b80610cd4575b50505001610ca6565b601f81118514610ce95750555b8a5f80610ccb565b81835260208320610d0591601f0160051c5f1901908601611d96565b8082528160208120915555610ce1565b634e487b7160e01b87526041600452602487fd5b600190602084519401938184015501610a3c565b634e487b7160e01b89526041600452602489fd5b82516001600160a01b0316818301556020909201916001016109f9565b634e487b7160e01b8b52604160045260248bfd5b90508a01515f6109ab565b90601f198316848352818320925b8c828210610dd65750509083600194939210610dbe575b5050811b0190556109c1565b8b01515f1960f88460031b161c191690555f80610db2565b60018495602093958493015181550194019201610d9b565b634e487b7160e01b8c52604160045260248cfd5b9192601f198416858452828420935b818110610e4c5750908460019594939210610e34575b505050811b01905561096a565b01515f1960f88460031b161c191690555f8080610e27565b92936020600181928786015181550195019301610e11565b634e487b7160e01b8d52604160045260248dfd5b634e487b7160e01b8a52601160045260248afd5b630309cb8760e51b8952600489fd5b63512509d360e11b8952600489fd5b9050845114155f6108c7565b508551156108b4565b63cabeb65560e01b8952600489fd5b506020813d602011610f02575b81610ee860209383611a22565b810103126104d65769021e19e0c9bab24000009051610898565b3d9150610edb565b6040513d8c823e3d90fd5b83356001600160401b038111610f5557820136604382011215610f5557602091610f4a83923690604460248201359101611be9565b815201930192610849565b8d80fd5b8b80fd5b8780fd5b81358152602091820191016107e5565b8980fd5b8580fd5b82356001600160a01b0381168103610f9957815260209283019201610785565b8880fd5b8380fd5b8280fd5b5080fd5b50346101b657806003193601126101b657602060ff600154166040519015158152f35b50346104d65760403660031901126104d6576004356024359060ff82168092036104d657600282116112f857805f52600360205260405f2060ff600d8201541660078110156111ef576001036112e957600e81019060018060a01b0333165f528160205260ff60405f2054166112da57600881015442116112cb576001546040516370a0823160e01b8152336004820152906020908290602490829060081c6001600160a01b03165afa90811561127f575f91611299575b5080801561128a57600254604051636be2cefb60e01b815233600482015290602090829060249082906001600160a01b03165afa90811561127f575f91611244575b5060058110156111ef57600481036112175750508060011b908082046002149015171561120357915b335f90815260209190915260409020805460ff1916600117905560038410156111ef57335f908152600f820160205260409020805460ff191685179055600184149384156111c85750600a01611146828254611c54565b90555b60405192835260208301524260408301527f77a255f45c79d26605c257d8dfc37f9a619f53963ddbed1e95aa0aab1c801cee60603393a360015460081c6001600160a01b0316803b156104d6575f8091602460405180948193630c0b769160e21b83523360048401525af16111bc575080f35b61001891505f90611a22565b6111e157600b016111da828254611c54565b9055611149565b600c016111da828254611c54565b634e487b7160e01b5f52602160045260245ffd5b634e487b7160e01b5f52601160045260245ffd5b919391600314611228575b506110ef565b909250600f8102908104600f0361120357600a9004915f611222565b90506020813d602011611277575b8161125f60209383611a22565b810103126104d6575160058110156104d6575f6110c6565b3d9150611252565b6040513d5f823e3d90fd5b63cabeb65560e01b5f5260045ffd5b90506020813d6020116112c3575b816112b460209383611a22565b810103126104d657515f611084565b3d91506112a7565b63370ec37160e21b5f5260045ffd5b637c9a1cf960e01b5f5260045ffd5b637becc13f60e01b5f5260045ffd5b638eed55d160e01b5f5260045ffd5b346104d65760203660031901126104d657610018600435611c61565b346104d6575f3660031901126104d65760405180602060055491828152019060055f527f036b6384b5eca791c62761152d0c79bb0604c104a5fb6f4eb0703f3154bb3db0905f5b81811061138157610383856106ba81870382611a22565b825484526020909301926001928301920161136a565b346104d65760403660031901126104d6576113b0611b3e565b6004355f526003602052600e60405f20019060018060a01b03165f52602052602060ff60405f2054166040519015158152f35b346104d6575f3660031901126104d6576113fb611e1f565b60015460ff81161561143a5760ff19166001557f5db9ee0a495bf2e6ff9c91a7834c1ba4fdd244a5e8aa4e537bd38aeae4b073aa6020604051338152a1005b638dfc202b60e01b5f5260045ffd5b346104d6575f3660031901126104d65760015460405160089190911c6001600160a01b03168152602090f35b346104d6575f3660031901126104d65760206040516202a3008152f35b346104d65760403660031901126104d6576114ab611b3e565b336001600160a01b038216036114c75761001890600435611fc2565b63334bd91960e11b5f5260045ffd5b346104d65760403660031901126104d6576100186004356114f5611b3e565b9061150e6102c1825f525f602052600160405f20015490565b611f3a565b346104d65760203660031901126104d657602061153d6004355f525f602052600160405f20015490565b604051908152f35b346104d65760403660031901126104d65761155e611b28565b6001600160a01b03165f908152600660205260409020805460243591908210156104d6576020916101e491611b80565b346104d6575f3660031901126104d6576002546040516001600160a01b039091168152602090f35b346104d65760203660031901126104d657335f9081527fdae2aa361dfd1ca020a396615627d436107c35eff9fe7738a3512819782d706960205260409020546004359060ff161561182d5760027f9b779b17422d0df92223018b32b4d1fa46e071723d6817e2486d003becc55f00541461181e5760027f9b779b17422d0df92223018b32b4d1fa46e071723d6817e2486d003becc55f0055805f52600360205260405f2090600d82019160ff83541660078110156111ef576004036112e9576009810154421061180f57825460ff1916600517835561169482611ea6565b5f600482016006600584019301915b81548110156117b8576116b68183611b80565b905460039190911b1c6001600160a01b03166116d28286611b80565b90549060031b1c6116e38386611b80565b5090604051915f908054906116f7826119ea565b91600181169081156117a1575060011461176f575b5050915f939181859403925af13d1561176a573d61172981611bce565b906117376040519283611a22565b81525f60203d92013e5b1561174e576001016116a3565b855460ff191660021786556331d436c760e01b5f908152600490fd5b611741565b9091505f5260205f205f905b82821061178d5750508201818361170c565b60018160209254848801520191019061177b565b60ff1916865250508015150283019050818361170c565b847fec8f304a675f7bb10c5d3eb44ea2444dd65a0da66105763bd6b5bb98aa1461db6040805160018152426020820152a260017f9b779b17422d0df92223018b32b4d1fa46e071723d6817e2486d003becc55f0055005b630cd7c29960e21b5f5260045ffd5b633ee5aeb560e01b5f5260045ffd5b63e2517d3f60e01b5f52336004527fd8aa0f3194971a2a116679f7c2090f6939c8d4e01a2a8d7e41d55e5351469e6360245260445ffd5b346104d6575f3660031901126104d6576020600454604051908152f35b346104d6575f3660031901126104d65760206040517fd8aa0f3194971a2a116679f7c2090f6939c8d4e01a2a8d7e41d55e5351469e638152f35b346104d65760203660031901126104d65760043563ffffffff60e01b81168091036104d657602090637965db0b60e01b8114908115611900575b506040519015158152f35b6301ffc9a760e01b149050826118f5565b346104d65760203660031901126104d6576004355f908152600360205260409020805460018201546001600160a01b03169161194f60028201611a57565b61195b60038301611a57565b9160078101549260088201546009830154600a84015491600b85015493600c86015495600d015460ff16966040519a8b9a8b5260208b015260408a0161016090526101608a016119aa91611af7565b89810360608b01526119bb91611af7565b96608089015260a088015260c087015260e0860152610100850152610120840152610140830161038391611b1b565b90600182811c92168015611a18575b6020831014611a0457565b634e487b7160e01b5f52602260045260245ffd5b91607f16916119f9565b90601f801991011681019081106001600160401b03821117611a4357604052565b634e487b7160e01b5f52604160045260245ffd5b9060405191825f825492611a6a846119ea565b8084529360018116908115611ad55750600114611a91575b50611a8f92500383611a22565b565b90505f9291925260205f20905f915b818310611ab9575050906020611a8f928201015f611a82565b6020919350806001915483858901015201910190918492611aa0565b905060209250611a8f94915060ff191682840152151560051b8201015f611a82565b805180835260209291819084018484015e5f828201840152601f01601f1916010190565b9060078210156111ef5752565b600435906001600160a01b03821682036104d657565b602435906001600160a01b03821682036104d657565b600554811015611b6c5760055f5260205f2001905f90565b634e487b7160e01b5f52603260045260245ffd5b8054821015611b6c575f5260205f2001905f90565b60206040818301928281528451809452019201905f5b818110611bb85750505090565b8251845260209384019390920191600101611bab565b6001600160401b038111611a4357601f01601f191660200190565b929192611bf582611bce565b91611c036040519384611a22565b8294818452818301116104d6578281602093845f960137010152565b9080601f830112156104d657816020611c3a93359101611be9565b90565b6001600160401b038111611a435760051b60200190565b9190820180921161120357565b805f52600360205260405f2090600d82019060ff82541660078110156111ef576001036112e957600883015442111561180f57600a8301805490611cb9611cae600b870193845490611c54565b600c87015490611c54565b6001546040516318160ddd60e01b8152906020908290600490829060081c6001600160a01b03165afa90811561127f575f91611d64575b50600a810290808204600a1490151715611203576064900411611d4c575490541015611d365750600360ff198254161790556202a3004201908142116112035760090155565b815460ff1916600217909155611a8f9150611ea6565b5050815460ff1916600217909155611a8f9150611ea6565b90506020813d602011611d8e575b81611d7f60209383611a22565b810103126104d657515f611cf0565b3d9150611d72565b5f5b828110611da457505050565b5f82820155600101611d98565b91601f8211611dbf57505050565b808211611dcb57505050565b611a8f925f5260205f20916020601f830160051c9210611df6575b601f82910160051c039101611d96565b5f9150611de6565b91818110611e0b57505050565b611a8f925f528060205f2001910390611d96565b335f9081527fad3228b676f7d3cd4284a5443f17f1962b36e491b30a40b2405849e597ba5fb5602052604090205460ff1615611e5757565b63e2517d3f60e01b5f52336004525f60245260445ffd5b5f8181526020818152604080832033845290915290205460ff1615611e905750565b63e2517d3f60e01b5f523360045260245260445ffd5b6005545f5b818110611eb757505050565b82611ec182611b54565b90549060031b1c14611ed557600101611eab565b5f198201925090821161120357610aca611ef1611efe93611b54565b90549060031b1c91611b54565b6005548015611f26575f1901611f1381611b54565b8154905f199060031b1b19169055600555565b634e487b7160e01b5f52603160045260245ffd5b5f818152602081815260408083206001600160a01b038616845290915290205460ff16611fbc575f818152602081815260408083206001600160a01b0395909516808452949091528120805460ff19166001179055339291907f2f8788117e7eff1d82e926ec794901d17c78024a50270940304540a733656f0d9080a4600190565b50505f90565b5f818152602081815260408083206001600160a01b038616845290915290205460ff1615611fbc575f818152602081815260408083206001600160a01b0395909516808452949091528120805460ff19169055339291907ff6391f5c32d9c69d2a47ea670b442974b53935d1edc7fd64eb21e047a839171b9080a4600190565b60ff6001541661204e57565b63d93c066560e01b5f5260045ffdfea264697066735822122052e1aac2f3a5245cacd5e145456f467138022b75d69c302d568fe56941addf1864736f6c634300082100332f8788117e7eff1d82e926ec794901d17c78024a50270940304540a733656f0ddae2aa361dfd1ca020a396615627d436107c35eff9fe7738a3512819782d7069ad3228b676f7d3cd4284a5443f17f1962b36e491b30a40b2405849e597ba5fb5","linkReferences":{}},"methodIdentifiers":{"DEFAULT_ADMIN_ROLE()":"a217fddf","EXECUTION_DELAY()":"37f135d7","EXECUTOR_ROLE()":"07bd0265","MIN_PROPOSAL_THRESHOLD()":"791f5d23","QUORUM_PERCENTAGE()":"ee8a7c15","VOTING_PERIOD()":"b1610d7e","activeProposals(uint256)":"e40824f8","cancelProposal(uint256)":"e0a8f6f5","castVote(uint256,uint8)":"56781388","executeProposal(uint256)":"0d61b519","finalizeProposal(uint256)":"5652077c","getActiveProposals()":"5584c4f9","getProposal(uint256)":"c7f758a8","getProposalState(uint256)":"9080936f","getQuorumVotes()":"9b774252","getRoleAdmin(bytes32)":"248a9ca3","getUserProposals(address)":"78ef1138","getVote(uint256,address)":"bc3f931f","grantRole(bytes32,address)":"2f2ff15d","hasRole(bytes32,address)":"91d14854","hasVoted(uint256,address)":"43859632","institutionRegistry()":"1b1fcb04","patToken()":"3d90e7ab","pause()":"8456cb59","paused()":"5c975abb","proposalCounter()":"0c0512e9","proposals(uint256)":"013cf08b","propose(string,string,address[],uint256[],bytes[])":"71fb5836","queueProposal(uint256)":"94a14a34","renounceRole(bytes32,address)":"36568abe","revokeRole(bytes32,address)":"d547741f","supportsInterface(bytes4)":"01ffc9a7","unpause()":"3f4ba83a","userProposals(address,uint256)":"1b31527f"},"id":57}