{"abi":[{"type":"constructor","inputs":[{"name":"_reclaimProtocol","type":"address","internalType":"address"},{"name":"_patToken","type":"address","internalType":"address"},{"name":"_userRegistry","type":"address","internalType":"address"},{"name":"admin","type":"address","internalType":"address"}],"stateMutability":"nonpayable"},{"type":"receive","stateMutability":"payable"},{"type":"function","name":"CHALLENGE_WINDOW","inputs":[],"outputs":[{"name":"","type":"uint256","internalType":"uint256"}],"stateMutability":"view"},{"type":"function","name":"DEFAULT_ADMIN_ROLE","inputs":[],"outputs":[{"name":"","type":"bytes32","internalType":"bytes32"}],"stateMutability":"view"},{"type":"function","name":"ELITE_THRESHOLD","inputs":[],"outputs":[{"name":"","type":"uint256","internalType":"uint256"}],"stateMutability":"view"},{"type":"function","name":"GOOD_THRESHOLD","inputs":[],"outputs":[{"name":"","type":"uint256","internalType":"uint256"}],"stateMutability":"view"},{"type":"function","name":"GOVERNANCE_ROLE","inputs":[],"outputs":[{"name":"","type":"bytes32","internalType":"bytes32"}],"stateMutability":"view"},{"type":"function","name":"INITIAL_REPUTATION","inputs":[],"outputs":[{"name":"","type":"uint256","internalType":"uint256"}],"stateMutability":"view"},{"type":"function","name":"MODERATE_THRESHOLD","inputs":[],"outputs":[{"name":"","type":"uint256","internalType":"uint256"}],"stateMutability":"view"},{"type":"function","name":"POOR_THRESHOLD","inputs":[],"outputs":[{"name":"","type":"uint256","internalType":"uint256"}],"stateMutability":"view"},{"type":"function","name":"VERIFICATION_STAKE","inputs":[],"outputs":[{"name":"","type":"uint256","internalType":"uint256"}],"stateMutability":"view"},{"type":"function","name":"VOTING_PERIOD","inputs":[],"outputs":[{"name":"","type":"uint256","internalType":"uint256"}],"stateMutability":"view"},{"type":"function","name":"banInstitution","inputs":[{"name":"institution","type":"address","internalType":"address"},{"name":"reason","type":"string","internalType":"string"}],"outputs":[],"stateMutability":"nonpayable"},{"type":"function","name":"canCreateCampaign","inputs":[{"name":"institution","type":"address","internalType":"address"}],"outputs":[{"name":"","type":"bool","internalType":"bool"}],"stateMutability":"view"},{"type":"function","name":"challengeCounter","inputs":[],"outputs":[{"name":"","type":"uint256","internalType":"uint256"}],"stateMutability":"view"},{"type":"function","name":"challengeVerification","inputs":[{"name":"institution","type":"address","internalType":"address"},{"name":"reason","type":"string","internalType":"string"}],"outputs":[],"stateMutability":"nonpayable"},{"type":"function","name":"challenges","inputs":[{"name":"","type":"uint256","internalType":"uint256"}],"outputs":[{"name":"challenger","type":"address","internalType":"address"},{"name":"institution","type":"address","internalType":"address"},{"name":"reason","type":"string","internalType":"string"},{"name":"startTime","type":"uint256","internalType":"uint256"},{"name":"forVotes","type":"uint256","internalType":"uint256"},{"name":"againstVotes","type":"uint256","internalType":"uint256"},{"name":"resolved","type":"bool","internalType":"bool"},{"name":"approved","type":"bool","internalType":"bool"}],"stateMutability":"view"},{"type":"function","name":"finalizeVerification","inputs":[{"name":"institution","type":"address","internalType":"address"}],"outputs":[],"stateMutability":"nonpayable"},{"type":"function","name":"getInstitution","inputs":[{"name":"institution","type":"address","internalType":"address"}],"outputs":[{"name":"name","type":"string","internalType":"string"},{"name":"category","type":"string","internalType":"string"},{"name":"country","type":"string","internalType":"string"},{"name":"status","type":"uint8","internalType":"enum InstitutionRegistry.VerificationStatus"},{"name":"reputation","type":"uint256","internalType":"uint256"},{"name":"successfulCampaigns","type":"uint256","internalType":"uint256"},{"name":"totalCampaigns","type":"uint256","internalType":"uint256"},{"name":"totalRaised","type":"uint256","internalType":"uint256"},{"name":"isActive","type":"bool","internalType":"bool"}],"stateMutability":"view"},{"type":"function","name":"getInstitutions","inputs":[{"name":"offset","type":"uint256","internalType":"uint256"},{"name":"limit","type":"uint256","internalType":"uint256"}],"outputs":[{"name":"","type":"address[]","internalType":"address[]"}],"stateMutability":"view"},{"type":"function","name":"getReputationTier","inputs":[{"name":"institution","type":"address","internalType":"address"}],"outputs":[{"name":"","type":"uint8","internalType":"enum InstitutionRegistry.ReputationTier"}],"stateMutability":"view"},{"type":"function","name":"getRoleAdmin","inputs":[{"name":"role","type":"bytes32","internalType":"bytes32"}],"outputs":[{"name":"","type":"bytes32","internalType":"bytes32"}],"stateMutability":"view"},{"type":"function","name":"getTotalInstitutions","inputs":[],"outputs":[{"name":"","type":"uint256","internalType":"uint256"}],"stateMutability":"view"},{"type":"function","name":"grantRole","inputs":[{"name":"role","type":"bytes32","internalType":"bytes32"},{"name":"account","type":"address","internalType":"address"}],"outputs":[],"stateMutability":"nonpayable"},{"type":"function","name":"hasRole","inputs":[{"name":"role","type":"bytes32","internalType":"bytes32"},{"name":"account","type":"address","internalType":"address"}],"outputs":[{"name":"","type":"bool","internalType":"bool"}],"stateMutability":"view"},{"type":"function","name":"institutionList","inputs":[{"name":"","type":"uint256","internalType":"uint256"}],"outputs":[{"name":"","type":"address","internalType":"address"}],"stateMutability":"view"},{"type":"function","name":"institutions","inputs":[{"name":"","type":"address","internalType":"address"}],"outputs":[{"name":"name","type":"string","internalType":"string"},{"name":"category","type":"string","internalType":"string"},{"name":"country","type":"string","internalType":"string"},{"name":"website","type":"string","internalType":"string"},{"name":"zkProofHash","type":"bytes32","internalType":"bytes32"},{"name":"status","type":"uint8","internalType":"enum InstitutionRegistry.VerificationStatus"},{"name":"reputation","type":"uint256","internalType":"uint256"},{"name":"stakeAmount","type":"uint256","internalType":"uint256"},{"name":"registrationTime","type":"uint256","internalType":"uint256"},{"name":"challengeWindowEnd","type":"uint256","internalType":"uint256"},{"name":"successfulCampaigns","type":"uint256","internalType":"uint256"},{"name":"totalCampaigns","type":"uint256","internalType":"uint256"},{"name":"totalRaised","type":"uint256","internalType":"uint256"},{"name":"isActive","type":"bool","internalType":"bool"}],"stateMutability":"view"},{"type":"function","name":"isInstitution","inputs":[{"name":"","type":"address","internalType":"address"}],"outputs":[{"name":"","type":"bool","internalType":"bool"}],"stateMutability":"view"},{"type":"function","name":"patToken","inputs":[],"outputs":[{"name":"","type":"address","internalType":"contract PATToken"}],"stateMutability":"view"},{"type":"function","name":"pause","inputs":[],"outputs":[],"stateMutability":"nonpayable"},{"type":"function","name":"paused","inputs":[],"outputs":[{"name":"","type":"bool","internalType":"bool"}],"stateMutability":"view"},{"type":"function","name":"reclaimProtocol","inputs":[],"outputs":[{"name":"","type":"address","internalType":"contract IReclaim"}],"stateMutability":"view"},{"type":"function","name":"registerInstitution","inputs":[{"name":"name","type":"string","internalType":"string"},{"name":"category","type":"string","internalType":"string"},{"name":"country","type":"string","internalType":"string"},{"name":"website","type":"string","internalType":"string"},{"name":"zkProof","type":"tuple","internalType":"struct IReclaim.SignedClaim","components":[{"name":"claim","type":"tuple","internalType":"struct IReclaim.CompleteClaimData","components":[{"name":"identifier","type":"bytes32","internalType":"bytes32"},{"name":"owner","type":"address","internalType":"address"},{"name":"timestampS","type":"uint32","internalType":"uint32"},{"name":"epoch","type":"uint32","internalType":"uint32"}]},{"name":"signatures","type":"bytes[]","internalType":"bytes[]"}]}],"outputs":[],"stateMutability":"payable"},{"type":"function","name":"renounceRole","inputs":[{"name":"role","type":"bytes32","internalType":"bytes32"},{"name":"callerConfirmation","type":"address","internalType":"address"}],"outputs":[],"stateMutability":"nonpayable"},{"type":"function","name":"resolveChallenge","inputs":[{"name":"challengeId","type":"uint256","internalType":"uint256"}],"outputs":[],"stateMutability":"nonpayable"},{"type":"function","name":"revokeRole","inputs":[{"name":"role","type":"bytes32","internalType":"bytes32"},{"name":"account","type":"address","internalType":"address"}],"outputs":[],"stateMutability":"nonpayable"},{"type":"function","name":"supportsInterface","inputs":[{"name":"interfaceId","type":"bytes4","internalType":"bytes4"}],"outputs":[{"name":"","type":"bool","internalType":"bool"}],"stateMutability":"view"},{"type":"function","name":"unpause","inputs":[],"outputs":[],"stateMutability":"nonpayable"},{"type":"function","name":"updateReclaimProtocol","inputs":[{"name":"newReclaim","type":"address","internalType":"address"}],"outputs":[],"stateMutability":"nonpayable"},{"type":"function","name":"updateReputation","inputs":[{"name":"institution","type":"address","internalType":"address"},{"name":"change","type":"int256","internalType":"int256"},{"name":"reason","type":"string","internalType":"string"}],"outputs":[],"stateMutability":"nonpayable"},{"type":"function","name":"userRegistry","inputs":[],"outputs":[{"name":"","type":"address","internalType":"contract UserRegistry"}],"stateMutability":"view"},{"type":"function","name":"voteOnChallenge","inputs":[{"name":"challengeId","type":"uint256","internalType":"uint256"},{"name":"approve","type":"bool","internalType":"bool"}],"outputs":[],"stateMutability":"nonpayable"},{"type":"function","name":"withdrawStake","inputs":[],"outputs":[],"stateMutability":"nonpayable"},{"type":"event","name":"InstitutionBanned","inputs":[{"name":"institution","type":"address","indexed":true,"internalType":"address"},{"name":"reason","type":"string","indexed":false,"internalType":"string"},{"name":"timestamp","type":"uint256","indexed":false,"internalType":"uint256"}],"anonymous":false},{"type":"event","name":"InstitutionChallenged","inputs":[{"name":"institution","type":"address","indexed":true,"internalType":"address"},{"name":"challenger","type":"address","indexed":true,"internalType":"address"},{"name":"reason","type":"string","indexed":false,"internalType":"string"},{"name":"challengeId","type":"uint256","indexed":false,"internalType":"uint256"},{"name":"timestamp","type":"uint256","indexed":false,"internalType":"uint256"}],"anonymous":false},{"type":"event","name":"InstitutionRegistered","inputs":[{"name":"institution","type":"address","indexed":true,"internalType":"address"},{"name":"name","type":"string","indexed":false,"internalType":"string"},{"name":"stakeAmount","type":"uint256","indexed":false,"internalType":"uint256"},{"name":"timestamp","type":"uint256","indexed":false,"internalType":"uint256"}],"anonymous":false},{"type":"event","name":"InstitutionVerified","inputs":[{"name":"institution","type":"address","indexed":true,"internalType":"address"},{"name":"isVerified","type":"bool","indexed":false,"internalType":"bool"},{"name":"timestamp","type":"uint256","indexed":false,"internalType":"uint256"}],"anonymous":false},{"type":"event","name":"Paused","inputs":[{"name":"account","type":"address","indexed":false,"internalType":"address"}],"anonymous":false},{"type":"event","name":"ReputationUpdated","inputs":[{"name":"institution","type":"address","indexed":true,"internalType":"address"},{"name":"change","type":"int256","indexed":false,"internalType":"int256"},{"name":"newScore","type":"uint256","indexed":false,"internalType":"uint256"},{"name":"reason","type":"string","indexed":false,"internalType":"string"}],"anonymous":false},{"type":"event","name":"RoleAdminChanged","inputs":[{"name":"role","type":"bytes32","indexed":true,"internalType":"bytes32"},{"name":"previousAdminRole","type":"bytes32","indexed":true,"internalType":"bytes32"},{"name":"newAdminRole","type":"bytes32","indexed":true,"internalType":"bytes32"}],"anonymous":false},{"type":"event","name":"RoleGranted","inputs":[{"name":"role","type":"bytes32","indexed":true,"internalType":"bytes32"},{"name":"account","type":"address","indexed":true,"internalType":"address"},{"name":"sender","type":"address","indexed":true,"internalType":"address"}],"anonymous":false},{"type":"event","name":"RoleRevoked","inputs":[{"name":"role","type":"bytes32","indexed":true,"internalType":"bytes32"},{"name":"account","type":"address","indexed":true,"internalType":"address"},{"name":"sender","type":"address","indexed":true,"internalType":"address"}],"anonymous":false},{"type":"event","name":"StakeSlashed","inputs":[{"name":"institution","type":"address","indexed":true,"internalType":"address"},{"name":"amount","type":"uint256","indexed":false,"internalType":"uint256"},{"name":"reason","type":"string","indexed":false,"internalType":"string"},{"name":"timestamp","type":"uint256","indexed":false,"internalType":"uint256"}],"anonymous":false},{"type":"event","name":"StakeWithdrawn","inputs":[{"name":"institution","type":"address","indexed":true,"internalType":"address"},{"name":"amount","type":"uint256","indexed":false,"internalType":"uint256"},{"name":"timestamp","type":"uint256","indexed":false,"internalType":"uint256"}],"anonymous":false},{"type":"event","name":"Unpaused","inputs":[{"name":"account","type":"address","indexed":false,"internalType":"address"}],"anonymous":false},{"type":"error","name":"AccessControlBadConfirmation","inputs":[]},{"type":"error","name":"AccessControlUnauthorizedAccount","inputs":[{"name":"account","type":"address","internalType":"address"},{"name":"neededRole","type":"bytes32","internalType":"bytes32"}]},{"type":"error","name":"AlreadyVoted","inputs":[]},{"type":"error","name":"ChallengeWindowActive","inputs":[]},{"type":"error","name":"ChallengeWindowExpired","inputs":[]},{"type":"error","name":"DisputeAlreadyResolved","inputs":[]},{"type":"error","name":"EnforcedPause","inputs":[]},{"type":"error","name":"ExpectedPause","inputs":[]},{"type":"error","name":"InstitutionAlreadyExists","inputs":[]},{"type":"error","name":"InstitutionNotFound","inputs":[]},{"type":"error","name":"InstitutionNotVerified","inputs":[]},{"type":"error","name":"InsufficientVotingPower","inputs":[]},{"type":"error","name":"InvalidParameter","inputs":[]},{"type":"error","name":"InvalidStakeAmount","inputs":[]},{"type":"error","name":"InvalidZKProof","inputs":[]},{"type":"error","name":"NotInTentativeStatus","inputs":[]},{"type":"error","name":"ReentrancyGuardReentrantCall","inputs":[]},{"type":"error","name":"StakeAlreadyWithdrawn","inputs":[]},{"type":"error","name":"TransferFailed","inputs":[]},{"type":"error","name":"VotingPeriodEnded","inputs":[]},{"type":"error","name":"VotingPeriodNotEnded","inputs":[]},{"type":"error","name":"ZeroAddress","inputs":[]}],"bytecode":{"object":"0x60803461016f57601f612a9c38819003918201601f19168301916001600160401b038311848410176101735780849260809460405283398101031261016f5761004781610187565b9061005460208201610187565b9061006d606061006660408401610187565b9201610187565b60017f9b779b17422d0df92223018b32b4d1fa46e071723d6817e2486d003becc55f0055916001600160a01b03841615801561015e575b801561014d575b801561013c575b61012d5760018054610100600160a81b03191660089590951b610100600160a81b031694909417909355600280546001600160a01b03199081166001600160a01b039586161790915560038054909116919093161790915561011d906101178161019b565b50610211565b5060405161279790816102a58239f35b63d92e233d60e01b5f5260045ffd5b506001600160a01b038316156100b2565b506001600160a01b038216156100ab565b506001600160a01b038116156100a4565b5f80fd5b634e487b7160e01b5f52604160045260245ffd5b51906001600160a01b038216820361016f57565b6001600160a01b0381165f9081525f516020612a7c5f395f51905f52602052604090205460ff1661020c576001600160a01b03165f8181525f516020612a7c5f395f51905f5260205260408120805460ff191660011790553391905f516020612a3c5f395f51905f528180a4600190565b505f90565b6001600160a01b0381165f9081525f516020612a5c5f395f51905f52602052604090205460ff1661020c576001600160a01b03165f8181525f516020612a5c5f395f51905f5260205260408120805460ff191660011790553391907f71840dc4906352362b0cdaf79870196c8e42acafade72d5d5a6d59291253ceb1905f516020612a3c5f395f51905f529080a460019056fe608080604052600436101561001c575b50361561001a575f80fd5b005b5f5f3560e01c91826301ffc9a714611fac57508163020bf7b414611f405781630331df0714611f03578163248a9ca314611ed15781632f2ff15d14611e9457816336568abe14611e50578163383ea72814611e345781633adc43a714611dbb5781633d90e7ab14611d935781633f4ba83a14611d2d5781634e7ce73f14611baa578163594598be14611b8d5781635c7460d614611b655781635c975abb14611b435781636be2cefb14611afb5781637119923614611a1d578163761c7cfe146118125781637b057258146101ed5781638456cb59146117ba5781638f1d3776146117135781638fd859c6146116ad57816391d1485414611665578163a217fddf1461164b578163a81edf9f14611548578163a9bd87a314610b67578163ae27fe9814610a9b578163af6a5056146107b8578163b090cb8114610799578163b1610d7e1461077c578163b2d9767f1461064d578163bed9d86114610539578163d547741f146104f3578163d62aad29146104d6578163e18be8c9146104ba578163e9dfee1b146102d6578163ebc26ac814610293578163f36c8f5c14610259578163f43345721461023e578163f4ab6c3c14610212578163f7fed02c146101f2575063fb3b8bb6146101ed575f61000f565b6120ec565b3461020f578060031936011261020f576020600654604051908152f35b80fd5b3461020f578060031936011261020f5760015460405160089190911c6001600160a01b03168152602090f35b3461020f578060031936011261020f57602060405160648152f35b3461020f578060031936011261020f5760206040517f71840dc4906352362b0cdaf79870196c8e42acafade72d5d5a6d59291253ceb18152f35b3461020f57602036600319011261020f576004359060075482101561020f5760206102bd83612247565b905460405160039290921b1c6001600160a01b03168152f35b3461020f57604036600319011261020f5760243590811515820361020f576102fc6126ee565b600435815260056020526040812060ff6006820154166104ab57600781019260018060a01b0333165f528360205260ff60405f20541661049c57600382015462069780810180911161048857421015610479576002546040516370a0823160e01b8152336004820152939490602090859060249082906001600160a01b03165afa93841561046e578594610436575b50831561042757335f90815260209190915260409020805460ff19166001179055156104115760046103c09101918254612273565b90555b60025481906001600160a01b0316803b1561040e57818091602460405180948193630c0b769160e21b83523360048401525af16103fd5750f35b816104079161202b565b61020f5780f35b50fd5b60056104209101918254612273565b90556103c3565b63cabeb65560e01b8552600485fd5b9093506020813d602011610466575b816104526020938361202b565b810103126104625751928561038b565b5f80fd5b3d9150610445565b6040513d87823e3d90fd5b63370ec37160e21b8352600483fd5b634e487b7160e01b84526011600452602484fd5b637c9a1cf960e01b8352600483fd5b63f10068b560e01b8252600482fd5b3461020f578060031936011261020f5760206040516101f48152f35b3461020f578060031936011261020f57602060405162093a808152f35b3461020f57604036600319011261020f57610535600435610512612015565b9061053061052b825f525f602052600160405f20015490565b6125ae565b61266e565b5080f35b3461020f578060031936011261020f576105516126ee565b610559612709565b338152600460205260408120338252600860205260ff6040832054161561063e5760ff600582015416600681101561062a5760020361061b57600701805490811561060c578290558180808084335af16105b16123bb565b50156105fd576040519081524260208201527f933735aa8de6d7547d0126171b2f31b9c34dd00f3ecd4be85a0ba047db4fafef60403392a260015f5160206127425f395f51905f525580f35b6312171d8360e31b8252600482fd5b63190507cd60e21b8352600483fd5b631c117d4160e21b8252600482fd5b634e487b7160e01b83526021600452602483fd5b631c26b84160e01b8252600482fd5b3461020f57602036600319011261020f576001600160a01b0361066e611fff565b16815260046020526040902061068381612140565b61068f60018301612140565b9161069c60028201612140565b6106a860038301612140565b91600481015492600582015460ff1660068301546007840154600885015490600986015492600a87015494600b88015496600c89015498600d015460ff16996040519d8e809e6101c082526101c08201610701916120bb565b908082039060200152610713916120bb565b8d810360408f0152610724916120bb565b8c810360608e0152610735916120bb565b9960808c015260a08b01610748916120df565b60c08a015260e089015261010088015261012087015261014086015261016085015261018084015215156101a08301520390f35b3461020f578060031936011261020f576020604051620697808152f35b3461020f578060031936011261020f57602060405164e8d4a510008152f35b3461020f576107c6366121e0565b906107cf6126ee565b6001600160a01b031680835260046020526040832060058101805490919060ff166006811015610a8757600103610a785760090154421015610a69576002546040516370a0823160e01b815233600482015290602090829060249082906001600160a01b03165afa801561046e578590610a2e575b683635c9adc5dea00000915010610a1f57805460ff19166003179055600654915f19831461048857600183810160065583855260056020526040852080546001600160a01b03199081163317825591810180549092168417909155815160028201906001600160401b038111610a0b576108be8254612108565b601f81116109c6575b506020601f821160011461094057918161092f94927f224dd8d32553bfa23d3714703f5237dd29c6c7c1e6a50a35077d38e15ac254ff96948a91610935575b508160011b915f199060031b1c19161790555b60034291015560405191829133964291846124ce565b0390a380f35b90508401518a610906565b82885280882090601f198316895b8181106109ae5750927f224dd8d32553bfa23d3714703f5237dd29c6c7c1e6a50a35077d38e15ac254ff9694926001928261092f989610610996575b5050811b019055610919565b8601515f1960f88460031b161c191690558a8061098a565b9192602060018192868b01518155019401920161094e565b82885260208820601f830160051c81019160208410610a01575b601f0160051c01905b8181106109f657506108c7565b8881556001016109e9565b90915081906109e0565b634e487b7160e01b87526041600452602487fd5b63cabeb65560e01b8452600484fd5b506020813d602011610a61575b81610a486020938361202b565b8101031261046257683635c9adc5dea000009051610844565b3d9150610a3b565b632b0fbfc560e11b8452600484fd5b6358c150b560e01b8552600485fd5b634e487b7160e01b86526021600452602486fd5b3461020f57602036600319011261020f57610ab4611fff565b610abc6126ee565b6001600160a01b031680825260046020526040822060058101805490919060ff166006811015610b5357600103610b4457600901544210610b3557600260ff198254161790557fad2cd493de4597a94618ce372f901ccbdbc7f715757a7add8840aa91436de0fc6040805160018152426020820152a280f35b631202122d60e31b8352600483fd5b6358c150b560e01b8452600484fd5b634e487b7160e01b85526021600452602485fd5b60a0366003190112610462576004356001600160401b03811161046257610b9290369060040161209d565b6024356001600160401b03811161046257610bb190369060040161209d565b6044356001600160401b03811161046257610bd090369060040161209d565b6064356001600160401b03811161046257610bef90369060040161209d565b608435916001600160401b03831161046257600319833603019260a08412610462576040519360408501908582106001600160401b038311176110b0576080916040521261046257604051608081018181106001600160401b038211176110b0576040526004820135815260248201356001600160a01b0381168103610462576020820152610c806044830161221f565b6040820152610c916064830161221f565b606082015284526084810135906001600160401b038211610462570136602382011215610462576004810135610cc681612230565b91610cd4604051938461202b565b818352602060048185019360051b83010101903682116104625760248101925b82841061150557505050506020840152610d0c612709565b610d146126ee565b335f52600860205260ff60405f2054166114f65764e8d4a5100034036114e7578451156114d85760015460405163cf2d0baf60e01b815260089190911c6001600160a01b03169060208180610d6c88600483016123ea565b0381855afa908115611483575f9161149d575b501561148e575f6040518092631315b31b60e11b82528180610da489600483016123ea565b03915afa8015611483576113c5575b50335f52600460205260405f209385516001600160401b0381116110b057610ddb8654612108565b601f8111611380575b50806020601f821160011461131d575f91611312575b508160011b915f199060031b1c19161785555b805160018601916001600160401b0382116110b0578190610e2e8454612108565b601f81116112c2575b50602090601f831160011461125f575f92611254575b50508160011b915f199060031b1c19161790555b805160028501916001600160401b0382116110b0578190610e828454612108565b601f8111611204575b50602090601f83116001146111a1575f92611196575b50508160011b915f199060031b1c19161790555b805160038401916001600160401b0382116110b0578190610ed68454612108565b601f8111611146575b50602090601f83116001146110e3575f926110d8575b50508160011b915f199060031b1c19161790555b604051610f2c81610f1e6020820194856123ea565b03601f19810183528261202b565b519020600482015560058101600160ff198254161790556103e8600682015534600782015542600882015562093a804201908142116110c457600d91600982015501600160ff19825416179055335f52600860205260405f20600160ff19825416179055600754680100000000000000008110156110b057806001610fb49201600755612247565b81549060031b9033821b9160018060a01b03901b19161790557f8755f979c4b0d58e987829858957494a63d23a62cd11a20be932cfeaef10c3b460405180611001339442903490846124ce565b0390a26002546001600160a01b0316803b15610462575f809160246040518094819363e577cad360e01b83523360048401525af161109d575b5060035481906001600160a01b0316803b1561040e578180916024604051809481936304273d4760e21b83523360048401525af1611088575b5060015f5160206127425f395f51905f525580f35b816110929161202b565b61020f578082611073565b6110a991505f9061202b565b5f8161103a565b634e487b7160e01b5f52604160045260245ffd5b634e487b7160e01b5f52601160045260245ffd5b015190508780610ef5565b5f8581528281209350601f198516905b81811061112e5750908460019594939210611116575b505050811b019055610f09565b01515f1960f88460031b161c19169055878080611109565b929360206001819287860151815501950193016110f3565b909150835f5260205f20601f840160051c8101916020851061118c575b90601f859493920160051c01905b81811061117e5750610edf565b5f8155849350600101611171565b9091508190611163565b015190508880610ea1565b5f8581528281209350601f198516905b8181106111ec57509084600195949392106111d4575b505050811b019055610eb5565b01515f1960f88460031b161c191690558880806111c7565b929360206001819287860151815501950193016111b1565b909150835f5260205f20601f840160051c8101916020851061124a575b90601f859493920160051c01905b81811061123c5750610e8b565b5f815584935060010161122f565b9091508190611221565b015190508980610e4d565b5f8581528281209350601f198516905b8181106112aa5750908460019594939210611292575b505050811b019055610e61565b01515f1960f88460031b161c19169055898080611285565b9293602060018192878601518155019501930161126f565b909150835f5260205f20601f840160051c81019160208510611308575b90601f859493920160051c01905b8181106112fa5750610e37565b5f81558493506001016112ed565b90915081906112df565b905087015189610dfa565b5f8881528181209250601f198416905b8a8282106113685750509083600194939210611350575b5050811b018555610e0d565b8901515f1960f88460031b161c191690558980611344565b6001849560209395849301518155019401920161132d565b865f5260205f20601f830160051c810191602084106113bb575b601f0160051c01905b8181106113b05750610de4565b5f81556001016113a3565b909150819061139a565b3d805f833e6113d4818361202b565b810190602081830312610462578051906001600160401b03821161046257016060818303126104625760405191606083018381106001600160401b038211176110b05760405281516001600160401b0381116104625781611436918401612488565b835260208201516001600160401b0381116104625781611457918401612488565b602084015260408201516001600160401b038111610462576114799201612488565b6040820152610db3565b6040513d5f823e3d90fd5b6303b2487b60e11b5f5260045ffd5b90506020813d6020116114d0575b816114b86020938361202b565b81010312610462575180151581036104625788610d7f565b3d91506114ab565b630309cb8760e51b5f5260045ffd5b630103be3b60e21b5f5260045ffd5b630157f48960e31b5f5260045ffd5b83356001600160401b0381116104625760049083010136603f820112156104625760209161153d839236906040858201359101612067565b815201930192610cf4565b3461046257611556366121e0565b9061155f61253f565b60018060a01b031690815f52600460205260405f2090825f52600860205260ff60405f2054161561163c5760078260057fcb66e68e157100e5acc6e27ed19b5600bf1ecc5d683db92b64f1d652f50b6ca69401600560ff198254161790555f6006820155600d810160ff198154169055015f81549155837ffaecefd1f3cec803bf1f74dec57739f7e6a2e01607818e139be9b8c326b16568604051604081528061160c60408201876120bb565b4260208301520390a261163160405192839283526060602084015260608301906120bb565b4260408301520390a2005b631c26b84160e01b5f5260045ffd5b34610462575f3660031901126104625760206040515f8152f35b346104625760403660031901126104625761167e612015565b6004355f525f60205260405f209060018060a01b03165f52602052602060ff60405f2054166040519015158152f35b34610462576020366003190112610462576116c6611fff565b6116ce6124f0565b6001600160a01b038116156117045760018054610100600160a81b03191660089290921b610100600160a81b0316919091179055005b63d92e233d60e01b5f5260045ffd5b34610462576020366003190112610462576004355f908152600560205260409020805460018201546001600160a01b039081169291169060ff61175860028301612140565b600383015492600481015461179160066005840154930154936040519889988952602089015261010060408901526101008801906120bb565b946060870152608086015260a0850152818116151560c085015260081c16151560e08301520390f35b34610462575f366003190112610462576117d26124f0565b6117da6126ee565b600160ff19815416176001557f62e78cea01bee320cd4e420270b5ea74000d11b0c9f74754ebdbfc544b05a2586020604051338152a1005b346104625760203660031901126104625761182b6126ee565b6004355f52600560205260405f206006810190815460ff8116611a0e5760038201546206978081018091116110c4574211156119ff5760019060ff1916178255600181019160018060a01b038354165f52600460205260405f2060048301546005840154105f146118f457600501805460ff19166002179055805461ff001916610100179055505460408051600181524260208201526001600160a01b0392909216917fad2cd493de4597a94618ce372f901ccbdbc7f715757a7add8840aa91436de0fc9190a2005b60079160058201600460ff19825416179055600d820160ff19815416905561ff0019815416905501905f82549255816119c2575b507fcb66e68e157100e5acc6e27ed19b5600bf1ecc5d683db92b64f1d652f50b6ca660a092600180851b0390541692839260405190815260606020820152601460608201527310da185b1b195b99d94814dd58d8d95cdcd99d5b60621b6080820152426040820152a27fad2cd493de4597a94618ce372f901ccbdbc7f715757a7add8840aa91436de0fc604080515f8152426020820152a2005b545f90819081908190600186901c906001600160a01b03165af16119e46123bb565b50156119f05782611928565b6312171d8360e31b5f5260045ffd5b630cd7c29960e21b5f5260045ffd5b63f10068b560e01b5f5260045ffd5b34610462576020366003190112610462576001600160a01b03611a3e611fff565b165f52600460205260405f2061012060ff6005830154166006830154600a840154600b850154600c8601549160ff600d8801541693611adb611ad0611a828a612140565b99611ac2611a9e6002611a9760018501612140565b9301612140565b91611ab46040519d8d8f9e8f90815201906120bb565b8c810360208e0152906120bb565b908a820360408c01526120bb565b9660608901906120df565b608087015260a086015260c085015260e084015215156101008301520390f35b3461046257602036600319011261046257611b1c611b17611fff565b612360565b6040516005821015611b2f576020918152f35b634e487b7160e01b5f52602160045260245ffd5b34610462575f36600319011261046257602060ff600154166040519015158152f35b34610462575f366003190112610462576003546040516001600160a01b039091168152602090f35b34610462575f366003190112610462576020600754604051908152f35b3461046257606036600319011261046257611bc3611fff565b6024356044356001600160401b03811161046257611be590369060040161209d565b91611bee61253f565b60018060a01b031691825f52600460205260405f2091835f52600860205260ff60405f2054161561163c575f811315611c9557611c85600684817fff4a98ba68f0ed6e4366697f98d55379dae42c208743b1592e6c6aa1abf3275f96016107d0611c59868354612273565b80835511611c8a575b505b015492604051938493845260208401526060604084015260608301906120bb565b0390a2005b6107d0905587611c62565b5f8112611cc9575b611c8560067fff4a98ba68f0ed6e4366697f98d55379dae42c208743b1592e6c6aa1abf3275f94611c64565b600160ff1b81146110c457611c8560067fff4a98ba68f0ed6e4366697f98d55379dae42c208743b1592e6c6aa1abf3275f94835f038282019081548082115f14611d1c5750505f90555b94505050611c9d565b90611d2691612280565b9055611d13565b34610462575f36600319011261046257611d456124f0565b60015460ff811615611d845760ff19166001557f5db9ee0a495bf2e6ff9c91a7834c1ba4fdd244a5e8aa4e537bd38aeae4b073aa6020604051338152a1005b638dfc202b60e01b5f5260045ffd5b34610462575f366003190112610462576002546040516001600160a01b039091168152602090f35b34610462576020366003190112610462576001600160a01b03611ddc611fff565b165f52600460205260405f2060ff600d8201541680611e03575b6020906040519015158152f35b506005015460ff166006811015611b2f5780600260209214908115611e29575b50611df6565b600191501482611e23565b34610462575f3660031901126104625760206040516105dc8152f35b3461046257604036600319011261046257611e69612015565b336001600160a01b03821603611e855761001a9060043561266e565b63334bd91960e11b5f5260045ffd5b346104625760403660031901126104625761001a600435611eb3612015565b90611ecc61052b825f525f602052600160405f20015490565b6125e6565b34610462576020366003190112610462576020611efb6004355f525f602052600160405f20015490565b604051908152f35b34610462576020366003190112610462576001600160a01b03611f24611fff565b165f526008602052602060ff60405f2054166040519015158152f35b3461046257604036600319011261046257611f5f60243560043561228d565b6040518091602082016020835281518091526020604084019201905f5b818110611f8a575050500390f35b82516001600160a01b0316845285945060209384019390920191600101611f7c565b34610462576020366003190112610462576004359063ffffffff60e01b821680920361046257602091637965db0b60e01b8114908115611fee575b5015158152f35b6301ffc9a760e01b14905083611fe7565b600435906001600160a01b038216820361046257565b602435906001600160a01b038216820361046257565b90601f801991011681019081106001600160401b038211176110b057604052565b6001600160401b0381116110b057601f01601f191660200190565b9291926120738261204c565b91612081604051938461202b565b829481845281830111610462578281602093845f960137010152565b9080601f83011215610462578160206120b893359101612067565b90565b805180835260209291819084018484015e5f828201840152601f01601f1916010190565b906006821015611b2f5752565b34610462575f3660031901126104625760206040516103e88152f35b90600182811c92168015612136575b602083101461212257565b634e487b7160e01b5f52602260045260245ffd5b91607f1691612117565b9060405191825f82549261215384612108565b80845293600181169081156121be575060011461217a575b506121789250038361202b565b565b90505f9291925260205f20905f915b8183106121a2575050906020612178928201015f61216b565b6020919350806001915483858901015201910190918492612189565b90506020925061217894915060ff191682840152151560051b8201015f61216b565b906040600319830112610462576004356001600160a01b03811681036104625791602435906001600160401b038211610462576120b89160040161209d565b359063ffffffff8216820361046257565b6001600160401b0381116110b05760051b60200190565b60075481101561225f5760075f5260205f2001905f90565b634e487b7160e01b5f52603260045260245ffd5b919082018092116110c457565b919082039182116110c457565b9060075490818310156123455781816122b7936122ab869485612273565b11156123355750612280565b6122c081612230565b916122ce604051938461202b565b818352601f196122dd83612230565b013660208501375f5b8281106122f35750505090565b6123056123008284612273565b612247565b9054855160039290921b1c6001600160a01b0316919081101561225f5760019160208260051b87010152016122e6565b612340915082612273565b612280565b50505060405161235660208261202b565b5f81525f36813790565b6001600160a01b03165f908152600460205260409020600601546105dc8110156123b5576103e88110156123af576101f48110156123a957606411156123a4575f90565b600190565b50600290565b50600390565b50600490565b3d156123e5573d906123cc8261204c565b916123da604051938461202b565b82523d5f602084013e565b606090565b60208152602060c082019263ffffffff6060825180518587015260018060a01b03858201511660408701528260408201511682870152015116608084015201519160a080830152825180915260e0820191602060e08360051b8301019401925f915b83831061245b57505050505090565b909192939460208061247960019360df1986820301875289516120bb565b9701930193019193929061244c565b81601f820112156104625780519061249f8261204c565b926124ad604051948561202b565b8284526020838301011161046257815f9260208093018386015e8301015290565b6124e6604092959493956060835260608301906120bb565b9460208201520152565b335f9081527fad3228b676f7d3cd4284a5443f17f1962b36e491b30a40b2405849e597ba5fb5602052604090205460ff161561252857565b63e2517d3f60e01b5f52336004525f60245260445ffd5b335f9081527f316a51056d8b2401ab04c48d9973add294eadde229c785c6d19cde93785467ef602052604090205460ff161561257757565b63e2517d3f60e01b5f52336004527f71840dc4906352362b0cdaf79870196c8e42acafade72d5d5a6d59291253ceb160245260445ffd5b5f8181526020818152604080832033845290915290205460ff16156125d05750565b63e2517d3f60e01b5f523360045260245260445ffd5b5f818152602081815260408083206001600160a01b038616845290915290205460ff16612668575f818152602081815260408083206001600160a01b0395909516808452949091528120805460ff19166001179055339291907f2f8788117e7eff1d82e926ec794901d17c78024a50270940304540a733656f0d9080a4600190565b50505f90565b5f818152602081815260408083206001600160a01b038616845290915290205460ff1615612668575f818152602081815260408083206001600160a01b0395909516808452949091528120805460ff19169055339291907ff6391f5c32d9c69d2a47ea670b442974b53935d1edc7fd64eb21e047a839171b9080a4600190565b60ff600154166126fa57565b63d93c066560e01b5f5260045ffd5b60025f5160206127425f395f51905f5254146127325760025f5160206127425f395f51905f5255565b633ee5aeb560e01b5f5260045ffdfe9b779b17422d0df92223018b32b4d1fa46e071723d6817e2486d003becc55f00a2646970667358221220739742691db7db4821d2cc451d7b70d6af9c8aeb7b422b3fbd8eca9dfae7fe7964736f6c634300081e00332f8788117e7eff1d82e926ec794901d17c78024a50270940304540a733656f0d316a51056d8b2401ab04c48d9973add294eadde229c785c6d19cde93785467efad3228b676f7d3cd4284a5443f17f1962b36e491b30a40b2405849e597ba5fb5","linkReferences":{}},"methodIdentifiers":{"CHALLENGE_WINDOW()":"d62aad29","DEFAULT_ADMIN_ROLE()":"a217fddf","ELITE_THRESHOLD()":"383ea728","GOOD_THRESHOLD()":"fb3b8bb6","GOVERNANCE_ROLE()":"f36c8f5c","INITIAL_REPUTATION()":"7b057258","MODERATE_THRESHOLD()":"e18be8c9","POOR_THRESHOLD()":"f4334572","VERIFICATION_STAKE()":"b090cb81","VOTING_PERIOD()":"b1610d7e","banInstitution(address,string)":"a81edf9f","canCreateCampaign(address)":"3adc43a7","challengeCounter()":"f7fed02c","challengeVerification(address,string)":"af6a5056","challenges(uint256)":"8f1d3776","finalizeVerification(address)":"ae27fe98","getInstitution(address)":"71199236","getInstitutions(uint256,uint256)":"020bf7b4","getReputationTier(address)":"6be2cefb","getRoleAdmin(bytes32)":"248a9ca3","getTotalInstitutions()":"594598be","grantRole(bytes32,address)":"2f2ff15d","hasRole(bytes32,address)":"91d14854","institutionList(uint256)":"ebc26ac8","institutions(address)":"b2d9767f","isInstitution(address)":"0331df07","patToken()":"3d90e7ab","pause()":"8456cb59","paused()":"5c975abb","reclaimProtocol()":"f4ab6c3c","registerInstitution(string,string,string,string,((bytes32,address,uint32,uint32),bytes[]))":"a9bd87a3","renounceRole(bytes32,address)":"36568abe","resolveChallenge(uint256)":"761c7cfe","revokeRole(bytes32,address)":"d547741f","supportsInterface(bytes4)":"01ffc9a7","unpause()":"3f4ba83a","updateReclaimProtocol(address)":"8fd859c6","updateReputation(address,int256,string)":"4e7ce73f","userRegistry()":"5c7460d6","voteOnChallenge(uint256,bool)":"e9dfee1b","withdrawStake()":"bed9d861"},"id":53}