{"abi":[{"type":"constructor","inputs":[{"name":"_reclaimProtocol","type":"address","internalType":"address"},{"name":"_patToken","type":"address","internalType":"address"},{"name":"_userRegistry","type":"address","internalType":"address"},{"name":"admin","type":"address","internalType":"address"}],"stateMutability":"nonpayable"},{"type":"receive","stateMutability":"payable"},{"type":"function","name":"CHALLENGE_WINDOW","inputs":[],"outputs":[{"name":"","type":"uint256","internalType":"uint256"}],"stateMutability":"view"},{"type":"function","name":"DEFAULT_ADMIN_ROLE","inputs":[],"outputs":[{"name":"","type":"bytes32","internalType":"bytes32"}],"stateMutability":"view"},{"type":"function","name":"ELITE_THRESHOLD","inputs":[],"outputs":[{"name":"","type":"uint256","internalType":"uint256"}],"stateMutability":"view"},{"type":"function","name":"GOOD_THRESHOLD","inputs":[],"outputs":[{"name":"","type":"uint256","internalType":"uint256"}],"stateMutability":"view"},{"type":"function","name":"GOVERNANCE_ROLE","inputs":[],"outputs":[{"name":"","type":"bytes32","internalType":"bytes32"}],"stateMutability":"view"},{"type":"function","name":"INITIAL_REPUTATION","inputs":[],"outputs":[{"name":"","type":"uint256","internalType":"uint256"}],"stateMutability":"view"},{"type":"function","name":"MODERATE_THRESHOLD","inputs":[],"outputs":[{"name":"","type":"uint256","internalType":"uint256"}],"stateMutability":"view"},{"type":"function","name":"POOR_THRESHOLD","inputs":[],"outputs":[{"name":"","type":"uint256","internalType":"uint256"}],"stateMutability":"view"},{"type":"function","name":"VERIFICATION_STAKE","inputs":[],"outputs":[{"name":"","type":"uint256","internalType":"uint256"}],"stateMutability":"view"},{"type":"function","name":"VOTING_PERIOD","inputs":[],"outputs":[{"name":"","type":"uint256","internalType":"uint256"}],"stateMutability":"view"},{"type":"function","name":"banInstitution","inputs":[{"name":"institution","type":"address","internalType":"address"},{"name":"reason","type":"string","internalType":"string"}],"outputs":[],"stateMutability":"nonpayable"},{"type":"function","name":"canCreateCampaign","inputs":[{"name":"institution","type":"address","internalType":"address"}],"outputs":[{"name":"","type":"bool","internalType":"bool"}],"stateMutability":"view"},{"type":"function","name":"challengeCounter","inputs":[],"outputs":[{"name":"","type":"uint256","internalType":"uint256"}],"stateMutability":"view"},{"type":"function","name":"challengeVerification","inputs":[{"name":"institution","type":"address","internalType":"address"},{"name":"reason","type":"string","internalType":"string"}],"outputs":[],"stateMutability":"nonpayable"},{"type":"function","name":"challenges","inputs":[{"name":"","type":"uint256","internalType":"uint256"}],"outputs":[{"name":"challenger","type":"address","internalType":"address"},{"name":"institution","type":"address","internalType":"address"},{"name":"reason","type":"string","internalType":"string"},{"name":"startTime","type":"uint256","internalType":"uint256"},{"name":"forVotes","type":"uint256","internalType":"uint256"},{"name":"againstVotes","type":"uint256","internalType":"uint256"},{"name":"resolved","type":"bool","internalType":"bool"},{"name":"approved","type":"bool","internalType":"bool"}],"stateMutability":"view"},{"type":"function","name":"finalizeVerification","inputs":[{"name":"institution","type":"address","internalType":"address"}],"outputs":[],"stateMutability":"nonpayable"},{"type":"function","name":"getInstitution","inputs":[{"name":"institution","type":"address","internalType":"address"}],"outputs":[{"name":"name","type":"string","internalType":"string"},{"name":"category","type":"string","internalType":"string"},{"name":"country","type":"string","internalType":"string"},{"name":"status","type":"uint8","internalType":"enum InstitutionRegistry.VerificationStatus"},{"name":"reputation","type":"uint256","internalType":"uint256"},{"name":"successfulCampaigns","type":"uint256","internalType":"uint256"},{"name":"totalCampaigns","type":"uint256","internalType":"uint256"},{"name":"totalRaised","type":"uint256","internalType":"uint256"},{"name":"isActive","type":"bool","internalType":"bool"}],"stateMutability":"view"},{"type":"function","name":"getInstitutions","inputs":[{"name":"offset","type":"uint256","internalType":"uint256"},{"name":"limit","type":"uint256","internalType":"uint256"}],"outputs":[{"name":"","type":"address[]","internalType":"address[]"}],"stateMutability":"view"},{"type":"function","name":"getReputationTier","inputs":[{"name":"institution","type":"address","internalType":"address"}],"outputs":[{"name":"","type":"uint8","internalType":"enum InstitutionRegistry.ReputationTier"}],"stateMutability":"view"},{"type":"function","name":"getRoleAdmin","inputs":[{"name":"role","type":"bytes32","internalType":"bytes32"}],"outputs":[{"name":"","type":"bytes32","internalType":"bytes32"}],"stateMutability":"view"},{"type":"function","name":"getTotalInstitutions","inputs":[],"outputs":[{"name":"","type":"uint256","internalType":"uint256"}],"stateMutability":"view"},{"type":"function","name":"grantRole","inputs":[{"name":"role","type":"bytes32","internalType":"bytes32"},{"name":"account","type":"address","internalType":"address"}],"outputs":[],"stateMutability":"nonpayable"},{"type":"function","name":"hasRole","inputs":[{"name":"role","type":"bytes32","internalType":"bytes32"},{"name":"account","type":"address","internalType":"address"}],"outputs":[{"name":"","type":"bool","internalType":"bool"}],"stateMutability":"view"},{"type":"function","name":"institutionList","inputs":[{"name":"","type":"uint256","internalType":"uint256"}],"outputs":[{"name":"","type":"address","internalType":"address"}],"stateMutability":"view"},{"type":"function","name":"institutions","inputs":[{"name":"","type":"address","internalType":"address"}],"outputs":[{"name":"name","type":"string","internalType":"string"},{"name":"category","type":"string","internalType":"string"},{"name":"country","type":"string","internalType":"string"},{"name":"website","type":"string","internalType":"string"},{"name":"zkProofHash","type":"bytes32","internalType":"bytes32"},{"name":"status","type":"uint8","internalType":"enum InstitutionRegistry.VerificationStatus"},{"name":"reputation","type":"uint256","internalType":"uint256"},{"name":"stakeAmount","type":"uint256","internalType":"uint256"},{"name":"registrationTime","type":"uint256","internalType":"uint256"},{"name":"challengeWindowEnd","type":"uint256","internalType":"uint256"},{"name":"successfulCampaigns","type":"uint256","internalType":"uint256"},{"name":"totalCampaigns","type":"uint256","internalType":"uint256"},{"name":"totalRaised","type":"uint256","internalType":"uint256"},{"name":"isActive","type":"bool","internalType":"bool"}],"stateMutability":"view"},{"type":"function","name":"isInstitution","inputs":[{"name":"","type":"address","internalType":"address"}],"outputs":[{"name":"","type":"bool","internalType":"bool"}],"stateMutability":"view"},{"type":"function","name":"patToken","inputs":[],"outputs":[{"name":"","type":"address","internalType":"contract PATToken"}],"stateMutability":"view"},{"type":"function","name":"pause","inputs":[],"outputs":[],"stateMutability":"nonpayable"},{"type":"function","name":"paused","inputs":[],"outputs":[{"name":"","type":"bool","internalType":"bool"}],"stateMutability":"view"},{"type":"function","name":"reclaimProtocol","inputs":[],"outputs":[{"name":"","type":"address","internalType":"contract IReclaim"}],"stateMutability":"view"},{"type":"function","name":"recordCampaignFailure","inputs":[{"name":"institution","type":"address","internalType":"address"}],"outputs":[],"stateMutability":"nonpayable"},{"type":"function","name":"recordCampaignSuccess","inputs":[{"name":"institution","type":"address","internalType":"address"},{"name":"amountRaised","type":"uint256","internalType":"uint256"}],"outputs":[],"stateMutability":"nonpayable"},{"type":"function","name":"registerInstitution","inputs":[{"name":"name","type":"string","internalType":"string"},{"name":"category","type":"string","internalType":"string"},{"name":"country","type":"string","internalType":"string"},{"name":"website","type":"string","internalType":"string"},{"name":"zkProof","type":"tuple","internalType":"struct IReclaim.SignedClaim","components":[{"name":"claim","type":"tuple","internalType":"struct IReclaim.CompleteClaimData","components":[{"name":"identifier","type":"bytes32","internalType":"bytes32"},{"name":"owner","type":"address","internalType":"address"},{"name":"timestampS","type":"uint32","internalType":"uint32"},{"name":"epoch","type":"uint32","internalType":"uint32"}]},{"name":"signatures","type":"bytes[]","internalType":"bytes[]"}]}],"outputs":[],"stateMutability":"payable"},{"type":"function","name":"renounceRole","inputs":[{"name":"role","type":"bytes32","internalType":"bytes32"},{"name":"callerConfirmation","type":"address","internalType":"address"}],"outputs":[],"stateMutability":"nonpayable"},{"type":"function","name":"resolveChallenge","inputs":[{"name":"challengeId","type":"uint256","internalType":"uint256"}],"outputs":[],"stateMutability":"nonpayable"},{"type":"function","name":"revokeRole","inputs":[{"name":"role","type":"bytes32","internalType":"bytes32"},{"name":"account","type":"address","internalType":"address"}],"outputs":[],"stateMutability":"nonpayable"},{"type":"function","name":"supportsInterface","inputs":[{"name":"interfaceId","type":"bytes4","internalType":"bytes4"}],"outputs":[{"name":"","type":"bool","internalType":"bool"}],"stateMutability":"view"},{"type":"function","name":"unpause","inputs":[],"outputs":[],"stateMutability":"nonpayable"},{"type":"function","name":"updateReclaimProtocol","inputs":[{"name":"newReclaim","type":"address","internalType":"address"}],"outputs":[],"stateMutability":"nonpayable"},{"type":"function","name":"updateReputation","inputs":[{"name":"institution","type":"address","internalType":"address"},{"name":"change","type":"int256","internalType":"int256"},{"name":"reason","type":"string","internalType":"string"}],"outputs":[],"stateMutability":"nonpayable"},{"type":"function","name":"userRegistry","inputs":[],"outputs":[{"name":"","type":"address","internalType":"contract UserRegistry"}],"stateMutability":"view"},{"type":"function","name":"voteOnChallenge","inputs":[{"name":"challengeId","type":"uint256","internalType":"uint256"},{"name":"approve","type":"bool","internalType":"bool"}],"outputs":[],"stateMutability":"nonpayable"},{"type":"function","name":"withdrawStake","inputs":[],"outputs":[],"stateMutability":"nonpayable"},{"type":"event","name":"InstitutionBanned","inputs":[{"name":"institution","type":"address","indexed":true,"internalType":"address"},{"name":"reason","type":"string","indexed":false,"internalType":"string"},{"name":"timestamp","type":"uint256","indexed":false,"internalType":"uint256"}],"anonymous":false},{"type":"event","name":"InstitutionChallenged","inputs":[{"name":"institution","type":"address","indexed":true,"internalType":"address"},{"name":"challenger","type":"address","indexed":true,"internalType":"address"},{"name":"reason","type":"string","indexed":false,"internalType":"string"},{"name":"challengeId","type":"uint256","indexed":false,"internalType":"uint256"},{"name":"timestamp","type":"uint256","indexed":false,"internalType":"uint256"}],"anonymous":false},{"type":"event","name":"InstitutionRegistered","inputs":[{"name":"institution","type":"address","indexed":true,"internalType":"address"},{"name":"name","type":"string","indexed":false,"internalType":"string"},{"name":"stakeAmount","type":"uint256","indexed":false,"internalType":"uint256"},{"name":"timestamp","type":"uint256","indexed":false,"internalType":"uint256"}],"anonymous":false},{"type":"event","name":"InstitutionVerified","inputs":[{"name":"institution","type":"address","indexed":true,"internalType":"address"},{"name":"isVerified","type":"bool","indexed":false,"internalType":"bool"},{"name":"timestamp","type":"uint256","indexed":false,"internalType":"uint256"}],"anonymous":false},{"type":"event","name":"Paused","inputs":[{"name":"account","type":"address","indexed":false,"internalType":"address"}],"anonymous":false},{"type":"event","name":"ReputationUpdated","inputs":[{"name":"institution","type":"address","indexed":true,"internalType":"address"},{"name":"change","type":"int256","indexed":false,"internalType":"int256"},{"name":"newScore","type":"uint256","indexed":false,"internalType":"uint256"},{"name":"reason","type":"string","indexed":false,"internalType":"string"}],"anonymous":false},{"type":"event","name":"RoleAdminChanged","inputs":[{"name":"role","type":"bytes32","indexed":true,"internalType":"bytes32"},{"name":"previousAdminRole","type":"bytes32","indexed":true,"internalType":"bytes32"},{"name":"newAdminRole","type":"bytes32","indexed":true,"internalType":"bytes32"}],"anonymous":false},{"type":"event","name":"RoleGranted","inputs":[{"name":"role","type":"bytes32","indexed":true,"internalType":"bytes32"},{"name":"account","type":"address","indexed":true,"internalType":"address"},{"name":"sender","type":"address","indexed":true,"internalType":"address"}],"anonymous":false},{"type":"event","name":"RoleRevoked","inputs":[{"name":"role","type":"bytes32","indexed":true,"internalType":"bytes32"},{"name":"account","type":"address","indexed":true,"internalType":"address"},{"name":"sender","type":"address","indexed":true,"internalType":"address"}],"anonymous":false},{"type":"event","name":"StakeSlashed","inputs":[{"name":"institution","type":"address","indexed":true,"internalType":"address"},{"name":"amount","type":"uint256","indexed":false,"internalType":"uint256"},{"name":"reason","type":"string","indexed":false,"internalType":"string"},{"name":"timestamp","type":"uint256","indexed":false,"internalType":"uint256"}],"anonymous":false},{"type":"event","name":"StakeWithdrawn","inputs":[{"name":"institution","type":"address","indexed":true,"internalType":"address"},{"name":"amount","type":"uint256","indexed":false,"internalType":"uint256"},{"name":"timestamp","type":"uint256","indexed":false,"internalType":"uint256"}],"anonymous":false},{"type":"event","name":"Unpaused","inputs":[{"name":"account","type":"address","indexed":false,"internalType":"address"}],"anonymous":false},{"type":"error","name":"AccessControlBadConfirmation","inputs":[]},{"type":"error","name":"AccessControlUnauthorizedAccount","inputs":[{"name":"account","type":"address","internalType":"address"},{"name":"neededRole","type":"bytes32","internalType":"bytes32"}]},{"type":"error","name":"AlreadyVoted","inputs":[]},{"type":"error","name":"ChallengeWindowActive","inputs":[]},{"type":"error","name":"ChallengeWindowExpired","inputs":[]},{"type":"error","name":"DisputeAlreadyResolved","inputs":[]},{"type":"error","name":"EnforcedPause","inputs":[]},{"type":"error","name":"ExpectedPause","inputs":[]},{"type":"error","name":"InstitutionAlreadyExists","inputs":[]},{"type":"error","name":"InstitutionNotFound","inputs":[]},{"type":"error","name":"InstitutionNotVerified","inputs":[]},{"type":"error","name":"InsufficientVotingPower","inputs":[]},{"type":"error","name":"InvalidParameter","inputs":[]},{"type":"error","name":"InvalidStakeAmount","inputs":[]},{"type":"error","name":"InvalidZKProof","inputs":[]},{"type":"error","name":"NotInTentativeStatus","inputs":[]},{"type":"error","name":"ReentrancyGuardReentrantCall","inputs":[]},{"type":"error","name":"StakeAlreadyWithdrawn","inputs":[]},{"type":"error","name":"TransferFailed","inputs":[]},{"type":"error","name":"VotingPeriodEnded","inputs":[]},{"type":"error","name":"VotingPeriodNotEnded","inputs":[]},{"type":"error","name":"ZeroAddress","inputs":[]}],"bytecode":{"object":"0x60803461016f57601f612be338819003918201601f19168301916001600160401b038311848410176101735780849260809460405283398101031261016f5761004781610187565b9061005460208201610187565b9061006d606061006660408401610187565b9201610187565b60017f9b779b17422d0df92223018b32b4d1fa46e071723d6817e2486d003becc55f0055916001600160a01b03841615801561015e575b801561014d575b801561013c575b61012d5760018054610100600160a81b03191660089590951b610100600160a81b031694909417909355600280546001600160a01b03199081166001600160a01b039586161790915560038054909116919093161790915561011d906101178161019b565b50610211565b506040516128de90816102a58239f35b63d92e233d60e01b5f5260045ffd5b506001600160a01b038316156100b2565b506001600160a01b038216156100ab565b506001600160a01b038116156100a4565b5f80fd5b634e487b7160e01b5f52604160045260245ffd5b51906001600160a01b038216820361016f57565b6001600160a01b0381165f9081525f516020612bc35f395f51905f52602052604090205460ff1661020c576001600160a01b03165f8181525f516020612bc35f395f51905f5260205260408120805460ff191660011790553391905f516020612b835f395f51905f528180a4600190565b505f90565b6001600160a01b0381165f9081525f516020612ba35f395f51905f52602052604090205460ff1661020c576001600160a01b03165f8181525f516020612ba35f395f51905f5260205260408120805460ff191660011790553391907f71840dc4906352362b0cdaf79870196c8e42acafade72d5d5a6d59291253ceb1905f516020612b835f395f51905f529080a460019056fe608080604052600436101561001c575b50361561001a575f80fd5b005b5f5f3560e01c91826301ffc9a7146120f357508163020bf7b4146120875781630331df071461204a578163248a9ca3146120185781632f2ff15d14611fdb57816336568abe14611f97578163383ea72814611f7b5781633adc43a714611f025781633d90e7ab14611eda5781633f4ba83a14611e745781634e7ce73f14611cf1578163594598be14611cd45781635c7460d614611cac5781635c975abb14611c8a5781636be2cefb14611c425781637119923614611b64578163761c7cfe146119595781637b057258146102035781638456cb59146119015781638f1d37761461185a5781638fd859c6146117f457816391d14854146117ac5781639253e8dc14611726578163a217fddf1461170c578163a81edf9f14611609578163a9bd87a314610c00578163ae27fe9814610b34578163af6a505614610844578163b090cb8114610824578163b1610d7e14610807578163b2d9767f146106d8578163bd6e659b14610663578163bed9d8611461054f578163d547741f14610509578163d62aad29146104ec578163e18be8c9146104d0578163e9dfee1b146102ec578163ebc26ac8146102a9578163f36c8f5c1461026f578163f433457214610254578163f4ab6c3c14610228578163f7fed02c14610208575063fb3b8bb614610203575f61000f565b612233565b346102255780600319360112610225576020600654604051908152f35b80fd5b3461022557806003193601126102255760015460405160089190911c6001600160a01b03168152602090f35b34610225578060031936011261022557602060405160648152f35b3461022557806003193601126102255760206040517f71840dc4906352362b0cdaf79870196c8e42acafade72d5d5a6d59291253ceb18152f35b3461022557602036600319011261022557600435906007548210156102255760206102d38361238e565b905460405160039290921b1c6001600160a01b03168152f35b346102255760403660031901126102255760243590811515820361022557610312612835565b600435815260056020526040812060ff6006820154166104c157600781019260018060a01b0333165f528360205260ff60405f2054166104b257600382015462069780810180911161049e5742101561048f576002546040516370a0823160e01b8152336004820152939490602090859060249082906001600160a01b03165afa93841561048457859461044c575b50831561043d57335f90815260209190915260409020805460ff19166001179055156104275760046103d691019182546123ba565b90555b60025481906001600160a01b0316803b1561042457818091602460405180948193630c0b769160e21b83523360048401525af16104135750f35b8161041d91612172565b6102255780f35b50fd5b600561043691019182546123ba565b90556103d9565b63cabeb65560e01b8552600485fd5b9093506020813d60201161047c575b8161046860209383612172565b81010312610478575192856103a1565b5f80fd5b3d915061045b565b6040513d87823e3d90fd5b63370ec37160e21b8352600483fd5b634e487b7160e01b84526011600452602484fd5b637c9a1cf960e01b8352600483fd5b63f10068b560e01b8252600482fd5b3461022557806003193601126102255760206040516101f48152f35b34610225578060031936011261022557602060405162093a808152f35b346102255760403660031901126102255761054b60043561052861215c565b90610546610541825f525f602052600160405f20015490565b6126f5565b6127b5565b5080f35b34610225578060031936011261022557610567612835565b61056f612850565b338152600460205260408120338252600860205260ff604083205416156106545760ff600582015416600681101561064057600203610631576007018054908115610622578290558180808084335af16105c7612502565b5015610613576040519081524260208201527f933735aa8de6d7547d0126171b2f31b9c34dd00f3ecd4be85a0ba047db4fafef60403392a260015f5160206128895f395f51905f525580f35b6312171d8360e31b8252600482fd5b63190507cd60e21b8352600483fd5b631c117d4160e21b8252600482fd5b634e487b7160e01b83526021600452602483fd5b631c26b84160e01b8252600482fd5b346102255760203660031901126102255761067c612146565b610684612686565b6001600160a01b0316808252600460209081526040808420928452600890915282205460ff161561065457600b01805490600182018092116106c4575580f35b634e487b7160e01b83526011600452602483fd5b34610225576020366003190112610225576001600160a01b036106f9612146565b16815260046020526040902061070e81612287565b61071a60018301612287565b9161072760028201612287565b61073360038301612287565b91600481015492600582015460ff1660068301546007840154600885015490600986015492600a87015494600b88015496600c89015498600d015460ff16996040519d8e809e6101c082526101c0820161078c91612202565b90808203906020015261079e91612202565b8d810360408f01526107af91612202565b8c810360608e01526107c091612202565b9960808c015260a08b016107d391612226565b60c08a015260e089015261010088015261012087015261014086015261016085015261018084015215156101a08301520390f35b346102255780600319360112610225576020604051620697808152f35b346102255780600319360112610225576020604051652d79883d20008152f35b346102255761085236612327565b9061085b612835565b6001600160a01b031680835260046020526040832060058101805490919060ff166006811015610b2057600103610b115760090154421015610b02576002546040516370a0823160e01b815233600482015290602090829060249082906001600160a01b03165afa8015610484578590610ac7575b683635c9adc5dea00000915010610ab857805460ff19166003179055600654915f19831461049e57600183810160065583855260056020526040852080546001600160a01b03199081163317825591810180549092168417909155815160028201906001600160401b038111610aa45761094a825461224f565b601f8111610a52575b506020601f82116001146109cc5791816109bb94927f224dd8d32553bfa23d3714703f5237dd29c6c7c1e6a50a35077d38e15ac254ff96948a916109c1575b508160011b915f199060031b1c19161790555b6003429101556040519182913396429184612615565b0390a380f35b90508401518a610992565b82885280882090601f198316895b818110610a3a5750927f224dd8d32553bfa23d3714703f5237dd29c6c7c1e6a50a35077d38e15ac254ff969492600192826109bb989610610a22575b5050811b0190556109a5565b8601515f1960f88460031b161c191690558a80610a16565b9192602060018192868b0151815501940192016109da565b818111156109535782885260208820601f830160051c9060208410610a9c575b81601f9101920160051c0390885b828110610a8e575050610953565b808a60019284015501610a80565b899150610a72565b634e487b7160e01b87526041600452602487fd5b63cabeb65560e01b8452600484fd5b506020813d602011610afa575b81610ae160209383612172565b8101031261047857683635c9adc5dea0000090516108d0565b3d9150610ad4565b632b0fbfc560e11b8452600484fd5b6358c150b560e01b8552600485fd5b634e487b7160e01b86526021600452602486fd5b3461022557602036600319011261022557610b4d612146565b610b55612835565b6001600160a01b031680825260046020526040822060058101805490919060ff166006811015610bec57600103610bdd57600901544210610bce57600260ff198254161790557fad2cd493de4597a94618ce372f901ccbdbc7f715757a7add8840aa91436de0fc6040805160018152426020820152a280f35b631202122d60e31b8352600483fd5b6358c150b560e01b8452600484fd5b634e487b7160e01b85526021600452602485fd5b60a0366003190112610478576004356001600160401b03811161047857610c2b9036906004016121e4565b6024356001600160401b03811161047857610c4a9036906004016121e4565b6044356001600160401b03811161047857610c699036906004016121e4565b6064356001600160401b03811161047857610c889036906004016121e4565b608435916001600160401b03831161047857600319833603019260a08412610478576040519360408501908582106001600160401b0383111761114a576080916040521261047857604051608081018181106001600160401b0382111761114a576040526004820135815260248201356001600160a01b0381168103610478576020820152610d1960448301612366565b6040820152610d2a60648301612366565b606082015284526084810135906001600160401b038211610478570136602382011215610478576004810135610d5f81612377565b91610d6d6040519384612172565b818352602060048185019360051b83010101903682116104785760248101925b8284106115c657505050506020840152610da5612850565b610dad612835565b335f52600860205260ff60405f2054166115b757652d79883d200034036115a8578451156115995760015460405163cf2d0baf60e01b815260089190911c6001600160a01b03169060208180610e068860048301612531565b0381855afa908115611544575f9161155e575b501561154f575f6040518092631315b31b60e11b82528180610e3e8960048301612531565b03915afa801561154457611486575b50335f52600460205260405f209385516001600160401b03811161114a57610e75865461224f565b601f8111611435575b50806020601f82116001146113d2575f916113c7575b508160011b915f199060031b1c19161785555b805160018601916001600160401b03821161114a578190610ec8845461224f565b601f811161136e575b50602090601f831160011461130b575f92611300575b50508160011b915f199060031b1c19161790555b805160028501916001600160401b03821161114a578190610f1c845461224f565b601f81116112a7575b50602090601f8311600114611244575f92611239575b50508160011b915f199060031b1c19161790555b805160038401916001600160401b03821161114a578190610f70845461224f565b601f81116111e0575b50602090601f831160011461117d575f92611172575b50508160011b915f199060031b1c19161790555b604051610fc681610fb8602082019485612531565b03601f198101835282612172565b519020600482015560058101600160ff198254161790556103e8600682015534600782015542600882015562093a8042019081421161115e57600d91600982015501600160ff19825416179055335f52600860205260405f20600160ff198254161790556007546801000000000000000081101561114a5780600161104e920160075561238e565b81549060031b9033821b9160018060a01b03901b19161790557f8755f979c4b0d58e987829858957494a63d23a62cd11a20be932cfeaef10c3b46040518061109b33944290349084612615565b0390a26002546001600160a01b0316803b15610478575f809160246040518094819363e577cad360e01b83523360048401525af1611137575b5060035481906001600160a01b0316803b15610424578180916024604051809481936304273d4760e21b83523360048401525af1611122575b5060015f5160206128895f395f51905f525580f35b8161112c91612172565b61022557808261110d565b61114391505f90612172565b5f816110d4565b634e487b7160e01b5f52604160045260245ffd5b634e487b7160e01b5f52601160045260245ffd5b015190508780610f8f565b5f8581528281209350601f198516905b8181106111c857509084600195949392106111b0575b505050811b019055610fa3565b01515f1960f88460031b161c191690558780806111a3565b9293602060018192878601518155019501930161118d565b82811115610f7957909150835f5260205f20601f840160051c9060208510611231575b849392601f0160051c82900391015f5b828110611221575050610f79565b5f81830155859450600101611213565b5f9150611203565b015190508880610f3b565b5f8581528281209350601f198516905b81811061128f5750908460019594939210611277575b505050811b019055610f4f565b01515f1960f88460031b161c1916905588808061126a565b92936020600181928786015181550195019301611254565b82811115610f2557909150835f5260205f20601f840160051c90602085106112f8575b849392601f0160051c82900391015f5b8281106112e8575050610f25565b5f818301558594506001016112da565b5f91506112ca565b015190508980610ee7565b5f8581528281209350601f198516905b818110611356575090846001959493921061133e575b505050811b019055610efb565b01515f1960f88460031b161c19169055898080611331565b9293602060018192878601518155019501930161131b565b82811115610ed157909150835f5260205f20601f840160051c90602085106113bf575b849392601f0160051c82900391015f5b8281106113af575050610ed1565b5f818301558594506001016113a1565b5f9150611391565b905087015189610e94565b5f8881528181209250601f198416905b8a82821061141d5750509083600194939210611405575b5050811b018555610ea7565b8901515f1960f88460031b161c1916905589806113f9565b600184956020939584930151815501940192016113e2565b81811115610e7e57865f5260205f20601f830160051c906020841061147e575b81601f9101920160051c03905f5b828110611471575050610e7e565b5f82820155600101611463565b5f9150611455565b3d805f833e6114958183612172565b810190602081830312610478578051906001600160401b03821161047857016060818303126104785760405191606083018381106001600160401b0382111761114a5760405281516001600160401b03811161047857816114f79184016125cf565b835260208201516001600160401b03811161047857816115189184016125cf565b602084015260408201516001600160401b0381116104785761153a92016125cf565b6040820152610e4d565b6040513d5f823e3d90fd5b6303b2487b60e11b5f5260045ffd5b90506020813d602011611591575b8161157960209383612172565b81010312610478575180151581036104785788610e19565b3d915061156c565b630309cb8760e51b5f5260045ffd5b630103be3b60e21b5f5260045ffd5b630157f48960e31b5f5260045ffd5b83356001600160401b0381116104785760049083010136603f82011215610478576020916115fe8392369060408582013591016121ae565b815201930192610d8d565b346104785761161736612327565b90611620612686565b60018060a01b031690815f52600460205260405f2090825f52600860205260ff60405f205416156116fd5760078260057fcb66e68e157100e5acc6e27ed19b5600bf1ecc5d683db92b64f1d652f50b6ca69401600560ff198254161790555f6006820155600d810160ff198154169055015f81549155837ffaecefd1f3cec803bf1f74dec57739f7e6a2e01607818e139be9b8c326b1656860405160408152806116cd6040820187612202565b4260208301520390a26116f26040519283928352606060208401526060830190612202565b4260408301520390a2005b631c26b84160e01b5f5260045ffd5b34610478575f3660031901126104785760206040515f8152f35b346104785760403660031901126104785761173f612146565b611747612686565b6001600160a01b03165f90815260046020908152604080832060089092529091205460ff16156116fd57600b81018054906001820180921161115e5755600a81019081546001810180911161115e57600c9255016117a860243582546123ba565b9055005b34610478576040366003190112610478576117c561215c565b6004355f525f60205260405f209060018060a01b03165f52602052602060ff60405f2054166040519015158152f35b346104785760203660031901126104785761180d612146565b611815612637565b6001600160a01b0381161561184b5760018054610100600160a81b03191660089290921b610100600160a81b0316919091179055005b63d92e233d60e01b5f5260045ffd5b34610478576020366003190112610478576004355f908152600560205260409020805460018201546001600160a01b039081169291169060ff61189f60028301612287565b60038301549260048101546118d86006600584015493015493604051988998895260208901526101006040890152610100880190612202565b946060870152608086015260a0850152818116151560c085015260081c16151560e08301520390f35b34610478575f36600319011261047857611919612637565b611921612835565b600160ff19815416176001557f62e78cea01bee320cd4e420270b5ea74000d11b0c9f74754ebdbfc544b05a2586020604051338152a1005b3461047857602036600319011261047857611972612835565b6004355f52600560205260405f206006810190815460ff8116611b5557600382015462069780810180911161115e57421115611b465760019060ff1916178255600181019160018060a01b038354165f52600460205260405f2060048301546005840154105f14611a3b57600501805460ff19166002179055805461ff001916610100179055505460408051600181524260208201526001600160a01b0392909216917fad2cd493de4597a94618ce372f901ccbdbc7f715757a7add8840aa91436de0fc9190a2005b60079160058201600460ff19825416179055600d820160ff19815416905561ff0019815416905501905f8254925581611b09575b507fcb66e68e157100e5acc6e27ed19b5600bf1ecc5d683db92b64f1d652f50b6ca660a092600180851b0390541692839260405190815260606020820152601460608201527310da185b1b195b99d94814dd58d8d95cdcd99d5b60621b6080820152426040820152a27fad2cd493de4597a94618ce372f901ccbdbc7f715757a7add8840aa91436de0fc604080515f8152426020820152a2005b545f90819081908190600186901c906001600160a01b03165af1611b2b612502565b5015611b375782611a6f565b6312171d8360e31b5f5260045ffd5b630cd7c29960e21b5f5260045ffd5b63f10068b560e01b5f5260045ffd5b34610478576020366003190112610478576001600160a01b03611b85612146565b165f52600460205260405f2061012060ff6005830154166006830154600a840154600b850154600c8601549160ff600d8801541693611c22611c17611bc98a612287565b99611c09611be56002611bde60018501612287565b9301612287565b91611bfb6040519d8d8f9e8f9081520190612202565b8c810360208e015290612202565b908a820360408c0152612202565b966060890190612226565b608087015260a086015260c085015260e084015215156101008301520390f35b3461047857602036600319011261047857611c63611c5e612146565b6124a7565b6040516005821015611c76576020918152f35b634e487b7160e01b5f52602160045260245ffd5b34610478575f36600319011261047857602060ff600154166040519015158152f35b34610478575f366003190112610478576003546040516001600160a01b039091168152602090f35b34610478575f366003190112610478576020600754604051908152f35b3461047857606036600319011261047857611d0a612146565b6024356044356001600160401b03811161047857611d2c9036906004016121e4565b91611d35612686565b60018060a01b031691825f52600460205260405f2091835f52600860205260ff60405f205416156116fd575f811315611ddc57611dcc600684817fff4a98ba68f0ed6e4366697f98d55379dae42c208743b1592e6c6aa1abf3275f96016107d0611da08683546123ba565b80835511611dd1575b505b01549260405193849384526020840152606060408401526060830190612202565b0390a2005b6107d0905587611da9565b5f8112611e10575b611dcc60067fff4a98ba68f0ed6e4366697f98d55379dae42c208743b1592e6c6aa1abf3275f94611dab565b600160ff1b811461115e57611dcc60067fff4a98ba68f0ed6e4366697f98d55379dae42c208743b1592e6c6aa1abf3275f94835f038282019081548082115f14611e635750505f90555b94505050611de4565b90611e6d916123c7565b9055611e5a565b34610478575f36600319011261047857611e8c612637565b60015460ff811615611ecb5760ff19166001557f5db9ee0a495bf2e6ff9c91a7834c1ba4fdd244a5e8aa4e537bd38aeae4b073aa6020604051338152a1005b638dfc202b60e01b5f5260045ffd5b34610478575f366003190112610478576002546040516001600160a01b039091168152602090f35b34610478576020366003190112610478576001600160a01b03611f23612146565b165f52600460205260405f2060ff600d8201541680611f4a575b6020906040519015158152f35b506005015460ff166006811015611c765780600260209214908115611f70575b50611f3d565b600191501482611f6a565b34610478575f3660031901126104785760206040516105dc8152f35b3461047857604036600319011261047857611fb061215c565b336001600160a01b03821603611fcc5761001a906004356127b5565b63334bd91960e11b5f5260045ffd5b346104785760403660031901126104785761001a600435611ffa61215c565b90612013610541825f525f602052600160405f20015490565b61272d565b346104785760203660031901126104785760206120426004355f525f602052600160405f20015490565b604051908152f35b34610478576020366003190112610478576001600160a01b0361206b612146565b165f526008602052602060ff60405f2054166040519015158152f35b34610478576040366003190112610478576120a66024356004356123d4565b6040518091602082016020835281518091526020604084019201905f5b8181106120d1575050500390f35b82516001600160a01b03168452859450602093840193909201916001016120c3565b34610478576020366003190112610478576004359063ffffffff60e01b821680920361047857602091637965db0b60e01b8114908115612135575b5015158152f35b6301ffc9a760e01b1490508361212e565b600435906001600160a01b038216820361047857565b602435906001600160a01b038216820361047857565b90601f801991011681019081106001600160401b0382111761114a57604052565b6001600160401b03811161114a57601f01601f191660200190565b9291926121ba82612193565b916121c86040519384612172565b829481845281830111610478578281602093845f960137010152565b9080601f83011215610478578160206121ff933591016121ae565b90565b805180835260209291819084018484015e5f828201840152601f01601f1916010190565b906006821015611c765752565b34610478575f3660031901126104785760206040516103e88152f35b90600182811c9216801561227d575b602083101461226957565b634e487b7160e01b5f52602260045260245ffd5b91607f169161225e565b9060405191825f82549261229a8461224f565b808452936001811690811561230557506001146122c1575b506122bf92500383612172565b565b90505f9291925260205f20905f915b8183106122e95750509060206122bf928201015f6122b2565b60209193508060019154838589010152019101909184926122d0565b9050602092506122bf94915060ff191682840152151560051b8201015f6122b2565b906040600319830112610478576004356001600160a01b03811681036104785791602435906001600160401b038211610478576121ff916004016121e4565b359063ffffffff8216820361047857565b6001600160401b03811161114a5760051b60200190565b6007548110156123a65760075f5260205f2001905f90565b634e487b7160e01b5f52603260045260245ffd5b9190820180921161115e57565b9190820391821161115e57565b90600754908183101561248c5781816123fe936123f28694856123ba565b111561247c57506123c7565b61240781612377565b916124156040519384612172565b818352601f1961242483612377565b013660208501375f5b82811061243a5750505090565b61244c61244782846123ba565b61238e565b9054855160039290921b1c6001600160a01b031691908110156123a65760019160208260051b870101520161242d565b6124879150826123ba565b6123c7565b50505060405161249d602082612172565b5f81525f36813790565b6001600160a01b03165f908152600460205260409020600601546105dc8110156124fc576103e88110156124f6576101f48110156124f057606411156124eb575f90565b600190565b50600290565b50600390565b50600490565b3d1561252c573d9061251382612193565b916125216040519384612172565b82523d5f602084013e565b606090565b60208152602060c082019263ffffffff6060825180518587015260018060a01b03858201511660408701528260408201511682870152015116608084015201519160a080830152825180915260e0820191602060e08360051b8301019401925f915b8383106125a257505050505090565b90919293946020806125c060019360df198682030187528951612202565b97019301930191939290612593565b81601f82011215610478578051906125e682612193565b926125f46040519485612172565b8284526020838301011161047857815f9260208093018386015e8301015290565b61262d60409295949395606083526060830190612202565b9460208201520152565b335f9081527fad3228b676f7d3cd4284a5443f17f1962b36e491b30a40b2405849e597ba5fb5602052604090205460ff161561266f57565b63e2517d3f60e01b5f52336004525f60245260445ffd5b335f9081527f316a51056d8b2401ab04c48d9973add294eadde229c785c6d19cde93785467ef602052604090205460ff16156126be57565b63e2517d3f60e01b5f52336004527f71840dc4906352362b0cdaf79870196c8e42acafade72d5d5a6d59291253ceb160245260445ffd5b5f8181526020818152604080832033845290915290205460ff16156127175750565b63e2517d3f60e01b5f523360045260245260445ffd5b5f818152602081815260408083206001600160a01b038616845290915290205460ff166127af575f818152602081815260408083206001600160a01b0395909516808452949091528120805460ff19166001179055339291907f2f8788117e7eff1d82e926ec794901d17c78024a50270940304540a733656f0d9080a4600190565b50505f90565b5f818152602081815260408083206001600160a01b038616845290915290205460ff16156127af575f818152602081815260408083206001600160a01b0395909516808452949091528120805460ff19169055339291907ff6391f5c32d9c69d2a47ea670b442974b53935d1edc7fd64eb21e047a839171b9080a4600190565b60ff6001541661284157565b63d93c066560e01b5f5260045ffd5b60025f5160206128895f395f51905f5254146128795760025f5160206128895f395f51905f5255565b633ee5aeb560e01b5f5260045ffdfe9b779b17422d0df92223018b32b4d1fa46e071723d6817e2486d003becc55f00a26469706673582212205c002c458b7c63dd8bf9b035c58b8634c5804007d95c283060a14ba56e2ec3e364736f6c634300082100332f8788117e7eff1d82e926ec794901d17c78024a50270940304540a733656f0d316a51056d8b2401ab04c48d9973add294eadde229c785c6d19cde93785467efad3228b676f7d3cd4284a5443f17f1962b36e491b30a40b2405849e597ba5fb5","linkReferences":{}},"methodIdentifiers":{"CHALLENGE_WINDOW()":"d62aad29","DEFAULT_ADMIN_ROLE()":"a217fddf","ELITE_THRESHOLD()":"383ea728","GOOD_THRESHOLD()":"fb3b8bb6","GOVERNANCE_ROLE()":"f36c8f5c","INITIAL_REPUTATION()":"7b057258","MODERATE_THRESHOLD()":"e18be8c9","POOR_THRESHOLD()":"f4334572","VERIFICATION_STAKE()":"b090cb81","VOTING_PERIOD()":"b1610d7e","banInstitution(address,string)":"a81edf9f","canCreateCampaign(address)":"3adc43a7","challengeCounter()":"f7fed02c","challengeVerification(address,string)":"af6a5056","challenges(uint256)":"8f1d3776","finalizeVerification(address)":"ae27fe98","getInstitution(address)":"71199236","getInstitutions(uint256,uint256)":"020bf7b4","getReputationTier(address)":"6be2cefb","getRoleAdmin(bytes32)":"248a9ca3","getTotalInstitutions()":"594598be","grantRole(bytes32,address)":"2f2ff15d","hasRole(bytes32,address)":"91d14854","institutionList(uint256)":"ebc26ac8","institutions(address)":"b2d9767f","isInstitution(address)":"0331df07","patToken()":"3d90e7ab","pause()":"8456cb59","paused()":"5c975abb","reclaimProtocol()":"f4ab6c3c","recordCampaignFailure(address)":"bd6e659b","recordCampaignSuccess(address,uint256)":"9253e8dc","registerInstitution(string,string,string,string,((bytes32,address,uint32,uint32),bytes[]))":"a9bd87a3","renounceRole(bytes32,address)":"36568abe","resolveChallenge(uint256)":"761c7cfe","revokeRole(bytes32,address)":"d547741f","supportsInterface(bytes4)":"01ffc9a7","unpause()":"3f4ba83a","updateReclaimProtocol(address)":"8fd859c6","updateReputation(address,int256,string)":"4e7ce73f","userRegistry()":"5c7460d6","voteOnChallenge(uint256,bool)":"e9dfee1b","withdrawStake()":"bed9d861"},"id":53}