{"abi":[{"type":"constructor","inputs":[{"name":"admin","type":"address","internalType":"address"}],"stateMutability":"nonpayable"},{"type":"function","name":"ACCURATE_VOTE_REWARD","inputs":[],"outputs":[{"name":"","type":"uint256","internalType":"uint256"}],"stateMutability":"view"},{"type":"function","name":"CAMPAIGN_COMPLETION_REWARD","inputs":[],"outputs":[{"name":"","type":"uint256","internalType":"uint256"}],"stateMutability":"view"},{"type":"function","name":"DEFAULT_ADMIN_ROLE","inputs":[],"outputs":[{"name":"","type":"bytes32","internalType":"bytes32"}],"stateMutability":"view"},{"type":"function","name":"MAX_SUPPLY","inputs":[],"outputs":[{"name":"","type":"uint256","internalType":"uint256"}],"stateMutability":"view"},{"type":"function","name":"MINTER_ROLE","inputs":[],"outputs":[{"name":"","type":"bytes32","internalType":"bytes32"}],"stateMutability":"view"},{"type":"function","name":"PAUSER_ROLE","inputs":[],"outputs":[{"name":"","type":"bytes32","internalType":"bytes32"}],"stateMutability":"view"},{"type":"function","name":"TOKENS_PER_DOLLAR","inputs":[],"outputs":[{"name":"","type":"uint256","internalType":"uint256"}],"stateMutability":"view"},{"type":"function","name":"VERIFICATION_REWARD","inputs":[],"outputs":[{"name":"","type":"uint256","internalType":"uint256"}],"stateMutability":"view"},{"type":"function","name":"VOTE_REWARD","inputs":[],"outputs":[{"name":"","type":"uint256","internalType":"uint256"}],"stateMutability":"view"},{"type":"function","name":"allowance","inputs":[{"name":"owner","type":"address","internalType":"address"},{"name":"spender","type":"address","internalType":"address"}],"outputs":[{"name":"","type":"uint256","internalType":"uint256"}],"stateMutability":"view"},{"type":"function","name":"approve","inputs":[{"name":"spender","type":"address","internalType":"address"},{"name":"value","type":"uint256","internalType":"uint256"}],"outputs":[{"name":"","type":"bool","internalType":"bool"}],"stateMutability":"nonpayable"},{"type":"function","name":"balanceOf","inputs":[{"name":"account","type":"address","internalType":"address"}],"outputs":[{"name":"","type":"uint256","internalType":"uint256"}],"stateMutability":"view"},{"type":"function","name":"campaignTokens","inputs":[{"name":"","type":"address","internalType":"address"}],"outputs":[{"name":"","type":"uint256","internalType":"uint256"}],"stateMutability":"view"},{"type":"function","name":"decimals","inputs":[],"outputs":[{"name":"","type":"uint8","internalType":"uint8"}],"stateMutability":"view"},{"type":"function","name":"donationTokens","inputs":[{"name":"","type":"address","internalType":"address"}],"outputs":[{"name":"","type":"uint256","internalType":"uint256"}],"stateMutability":"view"},{"type":"function","name":"getRoleAdmin","inputs":[{"name":"role","type":"bytes32","internalType":"bytes32"}],"outputs":[{"name":"","type":"bytes32","internalType":"bytes32"}],"stateMutability":"view"},{"type":"function","name":"getUserTokenStats","inputs":[{"name":"user","type":"address","internalType":"address"}],"outputs":[{"name":"balance","type":"uint256","internalType":"uint256"},{"name":"earned","type":"uint256","internalType":"uint256"},{"name":"fromDonations","type":"uint256","internalType":"uint256"},{"name":"fromVoting","type":"uint256","internalType":"uint256"},{"name":"fromCampaigns","type":"uint256","internalType":"uint256"}],"stateMutability":"view"},{"type":"function","name":"grantRole","inputs":[{"name":"role","type":"bytes32","internalType":"bytes32"},{"name":"account","type":"address","internalType":"address"}],"outputs":[],"stateMutability":"nonpayable"},{"type":"function","name":"hasRole","inputs":[{"name":"role","type":"bytes32","internalType":"bytes32"},{"name":"account","type":"address","internalType":"address"}],"outputs":[{"name":"","type":"bool","internalType":"bool"}],"stateMutability":"view"},{"type":"function","name":"mintCustomReward","inputs":[{"name":"recipient","type":"address","internalType":"address"},{"name":"amount","type":"uint256","internalType":"uint256"},{"name":"reason","type":"string","internalType":"string"}],"outputs":[],"stateMutability":"nonpayable"},{"type":"function","name":"mintForAccurateVote","inputs":[{"name":"voter","type":"address","internalType":"address"}],"outputs":[],"stateMutability":"nonpayable"},{"type":"function","name":"mintForCampaignCompletion","inputs":[{"name":"institution","type":"address","internalType":"address"}],"outputs":[],"stateMutability":"nonpayable"},{"type":"function","name":"mintForDonation","inputs":[{"name":"donor","type":"address","internalType":"address"},{"name":"dollarAmount","type":"uint256","internalType":"uint256"}],"outputs":[],"stateMutability":"nonpayable"},{"type":"function","name":"mintForVerification","inputs":[{"name":"institution","type":"address","internalType":"address"}],"outputs":[],"stateMutability":"nonpayable"},{"type":"function","name":"mintForVoting","inputs":[{"name":"voter","type":"address","internalType":"address"}],"outputs":[],"stateMutability":"nonpayable"},{"type":"function","name":"name","inputs":[],"outputs":[{"name":"","type":"string","internalType":"string"}],"stateMutability":"view"},{"type":"function","name":"pause","inputs":[],"outputs":[],"stateMutability":"nonpayable"},{"type":"function","name":"paused","inputs":[],"outputs":[{"name":"","type":"bool","internalType":"bool"}],"stateMutability":"view"},{"type":"function","name":"remainingSupply","inputs":[],"outputs":[{"name":"","type":"uint256","internalType":"uint256"}],"stateMutability":"view"},{"type":"function","name":"renounceRole","inputs":[{"name":"role","type":"bytes32","internalType":"bytes32"},{"name":"callerConfirmation","type":"address","internalType":"address"}],"outputs":[],"stateMutability":"nonpayable"},{"type":"function","name":"revokeRole","inputs":[{"name":"role","type":"bytes32","internalType":"bytes32"},{"name":"account","type":"address","internalType":"address"}],"outputs":[],"stateMutability":"nonpayable"},{"type":"function","name":"supportsInterface","inputs":[{"name":"interfaceId","type":"bytes4","internalType":"bytes4"}],"outputs":[{"name":"","type":"bool","internalType":"bool"}],"stateMutability":"view"},{"type":"function","name":"symbol","inputs":[],"outputs":[{"name":"","type":"string","internalType":"string"}],"stateMutability":"view"},{"type":"function","name":"totalEarned","inputs":[{"name":"","type":"address","internalType":"address"}],"outputs":[{"name":"","type":"uint256","internalType":"uint256"}],"stateMutability":"view"},{"type":"function","name":"totalMinted","inputs":[],"outputs":[{"name":"","type":"uint256","internalType":"uint256"}],"stateMutability":"view"},{"type":"function","name":"totalSupply","inputs":[],"outputs":[{"name":"","type":"uint256","internalType":"uint256"}],"stateMutability":"view"},{"type":"function","name":"transfer","inputs":[{"name":"to","type":"address","internalType":"address"},{"name":"value","type":"uint256","internalType":"uint256"}],"outputs":[{"name":"","type":"bool","internalType":"bool"}],"stateMutability":"nonpayable"},{"type":"function","name":"transferFrom","inputs":[{"name":"from","type":"address","internalType":"address"},{"name":"to","type":"address","internalType":"address"},{"name":"value","type":"uint256","internalType":"uint256"}],"outputs":[{"name":"","type":"bool","internalType":"bool"}],"stateMutability":"nonpayable"},{"type":"function","name":"unpause","inputs":[],"outputs":[],"stateMutability":"nonpayable"},{"type":"function","name":"votingTokens","inputs":[{"name":"","type":"address","internalType":"address"}],"outputs":[{"name":"","type":"uint256","internalType":"uint256"}],"stateMutability":"view"},{"type":"event","name":"Approval","inputs":[{"name":"owner","type":"address","indexed":true,"internalType":"address"},{"name":"spender","type":"address","indexed":true,"internalType":"address"},{"name":"value","type":"uint256","indexed":false,"internalType":"uint256"}],"anonymous":false},{"type":"event","name":"Paused","inputs":[{"name":"account","type":"address","indexed":false,"internalType":"address"}],"anonymous":false},{"type":"event","name":"PlatformPaused","inputs":[{"name":"timestamp","type":"uint256","indexed":false,"internalType":"uint256"}],"anonymous":false},{"type":"event","name":"PlatformUnpaused","inputs":[{"name":"timestamp","type":"uint256","indexed":false,"internalType":"uint256"}],"anonymous":false},{"type":"event","name":"RoleAdminChanged","inputs":[{"name":"role","type":"bytes32","indexed":true,"internalType":"bytes32"},{"name":"previousAdminRole","type":"bytes32","indexed":true,"internalType":"bytes32"},{"name":"newAdminRole","type":"bytes32","indexed":true,"internalType":"bytes32"}],"anonymous":false},{"type":"event","name":"RoleGranted","inputs":[{"name":"role","type":"bytes32","indexed":true,"internalType":"bytes32"},{"name":"account","type":"address","indexed":true,"internalType":"address"},{"name":"sender","type":"address","indexed":true,"internalType":"address"}],"anonymous":false},{"type":"event","name":"RoleRevoked","inputs":[{"name":"role","type":"bytes32","indexed":true,"internalType":"bytes32"},{"name":"account","type":"address","indexed":true,"internalType":"address"},{"name":"sender","type":"address","indexed":true,"internalType":"address"}],"anonymous":false},{"type":"event","name":"TokensMinted","inputs":[{"name":"recipient","type":"address","indexed":true,"internalType":"address"},{"name":"amount","type":"uint256","indexed":false,"internalType":"uint256"},{"name":"reason","type":"string","indexed":false,"internalType":"string"},{"name":"timestamp","type":"uint256","indexed":false,"internalType":"uint256"}],"anonymous":false},{"type":"event","name":"Transfer","inputs":[{"name":"from","type":"address","indexed":true,"internalType":"address"},{"name":"to","type":"address","indexed":true,"internalType":"address"},{"name":"value","type":"uint256","indexed":false,"internalType":"uint256"}],"anonymous":false},{"type":"event","name":"Unpaused","inputs":[{"name":"account","type":"address","indexed":false,"internalType":"address"}],"anonymous":false},{"type":"error","name":"AccessControlBadConfirmation","inputs":[]},{"type":"error","name":"AccessControlUnauthorizedAccount","inputs":[{"name":"account","type":"address","internalType":"address"},{"name":"neededRole","type":"bytes32","internalType":"bytes32"}]},{"type":"error","name":"ERC20InsufficientAllowance","inputs":[{"name":"spender","type":"address","internalType":"address"},{"name":"allowance","type":"uint256","internalType":"uint256"},{"name":"needed","type":"uint256","internalType":"uint256"}]},{"type":"error","name":"ERC20InsufficientBalance","inputs":[{"name":"sender","type":"address","internalType":"address"},{"name":"balance","type":"uint256","internalType":"uint256"},{"name":"needed","type":"uint256","internalType":"uint256"}]},{"type":"error","name":"ERC20InvalidApprover","inputs":[{"name":"approver","type":"address","internalType":"address"}]},{"type":"error","name":"ERC20InvalidReceiver","inputs":[{"name":"receiver","type":"address","internalType":"address"}]},{"type":"error","name":"ERC20InvalidSender","inputs":[{"name":"sender","type":"address","internalType":"address"}]},{"type":"error","name":"ERC20InvalidSpender","inputs":[{"name":"spender","type":"address","internalType":"address"}]},{"type":"error","name":"EnforcedPause","inputs":[]},{"type":"error","name":"ExpectedPause","inputs":[]},{"type":"error","name":"InvalidMintAmount","inputs":[]},{"type":"error","name":"MintCapExceeded","inputs":[]},{"type":"error","name":"ZeroAddress","inputs":[]}],"bytecode":{"object":"0x60806040523461036557611d236020813803918261001c81610369565b93849283398101031261036557516001600160a01b0381168103610365576100446040610369565b90600e82526d283ab639b2a0b4b2102a37b5b2b760911b602083015261006a6040610369565b600381526214105560ea1b602082015282519091906001600160401b03811161026b57600354600181811c9116801561035b575b602082101461024d57601f81116102ed575b506020601f821160011461028a57819293945f9261027f575b50508160011b915f199060031b1c1916176003555b8151916001600160401b03831161026b57600454600181811c91168015610261575b602082101461024d57601f81116101df575b50602090601f84116001146101775761015c93915f918361016c575b50508160011b915f199060031b1c1916176004555b61014c8161038e565b5061015681610404565b50610497565b50604051611778908161052b8239f35b015190505f8061012e565b90601f1984169160045f52815f20925f5b8181106101c7575091600193918661015c9794106101af575b505050811b01600455610143565b01515f1960f88460031b161c191690555f80806101a1565b92936020600181928786015181550195019301610188565b838111156101125760045f52601f840160051c7f8a35acfbc15ff81a39ae7d344fd709f28e8600b4aa8c65c6b64bfe7fe36bd19b60208610610245575b81601f9101920160051c03905f5b828110610238575050610112565b5f8282015560010161022a565b5f915061021c565b634e487b7160e01b5f52602260045260245ffd5b90607f1690610100565b634e487b7160e01b5f52604160045260245ffd5b015190505f806100c9565b601f1982169060035f52805f20915f5b8181106102d5575095836001959697106102bd575b505050811b016003556100de565b01515f1960f88460031b161c191690555f80806102af565b9192602060018192868b01518155019401920161029a565b818111156100b05760035f52601f820160051c7fc2575a0e9e593c00f959f8c92f12db2869c3395a3b0502d05e2516446f71f85b60208410610353575b81601f9101920160051c03905f5b8281106103465750506100b0565b5f82820155600101610338565b5f915061032a565b90607f169061009e565b5f80fd5b6040519190601f01601f191682016001600160401b0381118382101761026b57604052565b6001600160a01b0381165f9081525f516020611ce35f395f51905f52602052604090205460ff166103ff576001600160a01b03165f8181525f516020611ce35f395f51905f5260205260408120805460ff191660011790553391905f516020611ca35f395f51905f528180a4600190565b505f90565b6001600160a01b0381165f9081525f516020611cc35f395f51905f52602052604090205460ff166103ff576001600160a01b03165f8181525f516020611cc35f395f51905f5260205260408120805460ff191660011790553391907f9f2df0fed2c77648de5860a4cc508cd0818c85b8b8a1ab4ceeef8d981c8956a6905f516020611ca35f395f51905f529080a4600190565b6001600160a01b0381165f9081525f516020611d035f395f51905f52602052604090205460ff166103ff576001600160a01b03165f8181525f516020611d035f395f51905f5260205260408120805460ff191660011790553391907f65d7a28e3265b37a6474929f336521b332c1681b933f6cb9f3376673440d862a905f516020611ca35f395f51905f529080a460019056fe6080806040526004361015610012575f80fd5b5f3560e01c90816301ffc9a7146111465750806306fdde031461108b578063095ea7b31461100957806309d99bb714610f5157806317c8967114610dcb57806318160ddd14610dae5780631a7dfad414610d8c57806323b872dd14610cad578063248a9ca314610c7a578063293a2d9c146101d45780632f2ff15d14610c3c578063302dda4414610aaf578063313ce56714610a9457806332cb6b0c14610a6f57806336568abe14610a2b57806339d20b33146109f35780633f4ba83a1461096357806349852515146109415780635c975abb1461091f578063649aca4a146108e757806370a08231146108b057806377d54dce1461081a5780638456cb591461079757806391d148541461074e57806395d89b4114610642578063a217fddf14610628578063a2309ff81461060b578063a9059cbb146105da578063b6f2ec57146105b7578063ba1103d41461057f578063c569a98414610509578063c6a23519146103ee578063d5391393146103b4578063d547741f14610371578063da0239a614610320578063dd62ed3e146102d0578063e577cad31461024f578063e63ab1e914610215578063eca964e3146101d95763fd4f9a21146101d4575f80fd5b6111e9565b34610211576020366003190112610211576001600160a01b036101fa6111bd565b165f52600a602052602060405f2054604051908152f35b5f80fd5b34610211575f3660031901126102115760206040517f65d7a28e3265b37a6474929f336521b332c1681b933f6cb9f3376673440d862a8152f35b34610211576020366003190112610211576102686111bd565b61027061123b565b610278611353565b6001600160a01b038116156102c1576102bf906040519061029a60408361120c565b601382527215995c9a599a58d85d1a5bdb8814995dd85c99606a1b602083015261136e565b005b63d92e233d60e01b5f5260045ffd5b34610211576040366003190112610211576102e96111bd565b6102f16111d3565b6001600160a01b039182165f908152600160209081526040808320949093168252928352819020549051908152f35b34610211575f366003190112610211576007546a52b7d2dcc80cd2e4000000036a52b7d2dcc80cd2e4000000811161035d57602090604051908152f35b634e487b7160e01b5f52601160045260245ffd5b34610211576040366003190112610211576102bf6004356103906111d3565b906103af6103aa825f526005602052600160405f20015490565b611319565b61167e565b34610211575f3660031901126102115760206040517f9f2df0fed2c77648de5860a4cc508cd0818c85b8b8a1ab4ceeef8d981c8956a68152f35b34610211576060366003190112610211576104076111bd565b60443560243567ffffffffffffffff8211610211573660238301121561021157816004013567ffffffffffffffff81116104f55760405192610453601f8301601f19166020018561120c565b818452366024838301011161021157815f926024602093018387013784010152335f9081527f05b8ccbb9d4d8fb16ea74ce3c29a41f1b461fbdaff4714a0d9a8eb05499746bc602052604090205460ff16156104de576104b1611353565b6001600160a01b038316156102c15780156104cf576102bf92611492565b63199f5a0360e31b5f5260045ffd5b63e2517d3f60e01b5f52336004525f60245260445ffd5b634e487b7160e01b5f52604160045260245ffd5b346102115760203660031901126102115760a06001600160a01b0361052c6111bd565b165f908152602081815260408083205460088352818420546009845282852054600a855283862054600b865295849020548451938452948301919091529181019190915260608101929092526080820152f35b34610211576020366003190112610211576001600160a01b036105a06111bd565b165f52600b602052602060405f2054604051908152f35b34610211575f3660031901126102115760206040516802b5e3af16b18800008152f35b34610211576040366003190112610211576106006105f66111bd565b6024359033611553565b602060405160018152f35b34610211575f366003190112610211576020600754604051908152f35b34610211575f3660031901126102115760206040515f8152f35b34610211575f366003190112610211576040515f6004548060011c90600181168015610744575b6020831081146107305782855290811561070c57506001146106ae575b6106aa836106968185038261120c565b604051918291602083526020830190611199565b0390f35b91905060045f527f8a35acfbc15ff81a39ae7d344fd709f28e8600b4aa8c65c6b64bfe7fe36bd19b915f905b8082106106f257509091508101602001610696610686565b9192600181602092548385880101520191019092916106da565b60ff191660208086019190915291151560051b840190910191506106969050610686565b634e487b7160e01b5f52602260045260245ffd5b91607f1691610669565b34610211576040366003190112610211576107676111d3565b6004355f52600560205260405f209060018060a01b03165f52602052602060ff60405f2054166040519015158152f35b34610211575f366003190112610211576107af6112aa565b6107b7611353565b600160ff1960065416176006557f62e78cea01bee320cd4e420270b5ea74000d11b0c9f74754ebdbfc544b05a2586020604051338152a17f61dfea32d49b7cb8477e72ddcc115cc00bbacd0fe7291251b0996cc6b0f5d76d6020604051428152a1005b34610211576020366003190112610211576108336111bd565b61083b61123b565b610843611353565b6001600160a01b0381169081156102c15761088c906040519061086760408361120c565b601382527221b0b6b830b4b3b71021b7b6b83632ba34b7b760691b602083015261136e565b5f52600b60205260405f2080549068056bc75e2d63100000820180921161035d5755005b34610211576020366003190112610211576001600160a01b036108d16111bd565b165f525f602052602060405f2054604051908152f35b34610211576020366003190112610211576001600160a01b036109086111bd565b165f526008602052602060405f2054604051908152f35b34610211575f36600319011261021157602060ff600654166040519015158152f35b34610211575f366003190112610211576020604051670de0b6b3a76400008152f35b34610211575f3660031901126102115761097b6112aa565b60065460ff8116156109e45760ff19166006557f5db9ee0a495bf2e6ff9c91a7834c1ba4fdd244a5e8aa4e537bd38aeae4b073aa6020604051338152a17f3179dc7b4105a46363cc2d2fedc53c73e8fc528d7c9091692268c880bf1d2b796020604051428152a1005b638dfc202b60e01b5f5260045ffd5b34610211576020366003190112610211576001600160a01b03610a146111bd565b165f526009602052602060405f2054604051908152f35b3461021157604036600319011261021157610a446111d3565b336001600160a01b03821603610a60576102bf9060043561167e565b63334bd91960e11b5f5260045ffd5b34610211575f3660031901126102115760206040516a52b7d2dcc80cd2e40000008152f35b34610211575f36600319011261021157602060405160128152f35b3461021157602036600319011261021157610ac86111bd565b610ad061123b565b610ad8611353565b6001600160a01b031680156102c1576040908151610af6838261120c565b60148152732b37ba34b733902830b93a34b1b4b830ba34b7b760611b6020820152600754678ac7230489e80000810180911161035d576a52b7d2dcc80cd2e400000010610c2d57610b45611353565b600254678ac7230489e80000810180911161035d57600255815f525f602052825f20678ac7230489e800008154019055815f5f5160206117035f395f51905f5260208651678ac7230489e800008152a3600754678ac7230489e80000810180911161035d57600755815f526008602052825f20805490678ac7230489e80000820180921161035d5783925f5160206117235f395f51905f5292610c0492558551918291678ac7230489e800008352606060208401526060830190611199565b42878301520390a25f52600a6020525f20805490678ac7230489e80000820180921161035d5755005b6363f10f7760e01b5f5260045ffd5b34610211576040366003190112610211576102bf600435610c5b6111d3565b90610c756103aa825f526005602052600160405f20015490565b6115f2565b34610211576020366003190112610211576020610ca56004355f526005602052600160405f20015490565b604051908152f35b3461021157606036600319011261021157610cc66111bd565b610cce6111d3565b6001600160a01b0382165f818152600160209081526040808320338452909152902054909260443592915f198110610d0c575b506106009350611553565b838110610d71578415610d5e573315610d4b57610600945f52600160205260405f2060018060a01b0333165f526020528360405f209103905584610d01565b634a1406b160e11b5f525f60045260245ffd5b63e602df0560e01b5f525f60045260245ffd5b8390637dc7a0d960e11b5f523360045260245260445260645ffd5b34610211575f366003190112610211576020604051678ac7230489e800008152f35b34610211575f366003190112610211576020600254604051908152f35b3461021157602036600319011261021157610de46111bd565b610dec61123b565b610df4611353565b6001600160a01b031680156102c1576040908151610e12838261120c565b60148152731058d8dd5c985d1948159bdd194814995dd85c9960621b60208201526007546802b5e3af16b1880000810180911161035d576a52b7d2dcc80cd2e400000010610c2d57610e62611353565b6002546802b5e3af16b1880000810180911161035d57600255815f525f602052825f206802b5e3af16b18800008154019055815f5f5160206117035f395f51905f52602086516802b5e3af16b18800008152a36007546802b5e3af16b1880000810180911161035d57600755815f526008602052825f208054906802b5e3af16b1880000820180921161035d5783925f5160206117235f395f51905f5292610f27925585519182916802b5e3af16b18800008352606060208401526060830190611199565b42878301520390a25f52600a6020525f208054906802b5e3af16b1880000820180921161035d5755005b3461021157604036600319011261021157610f6a6111bd565b602435610f7561123b565b610f7d611353565b6001600160a01b0382169081156102c157670de0b6b3a7640000810290808204670de0b6b3a7640000149015171561035d57670de0b6b3a7640000610fef9104928360405191610fce60408461120c565b600f83526e111bdb985d1a5bdb8814995dd85c99608a1b6020840152611492565b5f52600960205261100560405f2091825461122e565b9055005b34610211576040366003190112610211576110226111bd565b602435903315610d5e576001600160a01b0316908115610d4b57335f52600160205260405f20825f526020528060405f20556040519081527f8c5be1e5ebec7d5bd14f71427d1e84f3dd0314c0f7b2291e5b200ac8c7c3b92560203392a3602060405160018152f35b34610211575f366003190112610211576040515f6003548060011c9060018116801561113c575b6020831081146107305782855290811561070c57506001146110de576106aa836106968185038261120c565b91905060035f527fc2575a0e9e593c00f959f8c92f12db2869c3395a3b0502d05e2516446f71f85b915f905b80821061112257509091508101602001610696610686565b91926001816020925483858801015201910190929161110a565b91607f16916110b2565b34610211576020366003190112610211576004359063ffffffff60e01b821680920361021157602091637965db0b60e01b8114908115611188575b5015158152f35b6301ffc9a760e01b14905083611181565b805180835260209291819084018484015e5f828201840152601f01601f1916010190565b600435906001600160a01b038216820361021157565b602435906001600160a01b038216820361021157565b34610211575f36600319011261021157602060405168056bc75e2d631000008152f35b90601f8019910116810190811067ffffffffffffffff8211176104f557604052565b9190820180921161035d57565b335f9081527f15a28d26fa1bf736cf7edc9922607171ccb09c3c73b808e7772a3013e068a522602052604090205460ff161561127357565b63e2517d3f60e01b5f52336004527f9f2df0fed2c77648de5860a4cc508cd0818c85b8b8a1ab4ceeef8d981c8956a660245260445ffd5b335f9081527f99f2891db7a8db76249871a02b43b68c0bb8f22ef8a3bc1034ae9375ef6b7c3c602052604090205460ff16156112e257565b63e2517d3f60e01b5f52336004527f65d7a28e3265b37a6474929f336521b332c1681b933f6cb9f3376673440d862a60245260445ffd5b5f81815260056020908152604080832033845290915290205460ff161561133d5750565b63e2517d3f60e01b5f523360045260245260445ffd5b60ff6006541661135f57565b63d93c066560e01b5f5260045ffd5b60075468056bc75e2d63100000810180911161035d576a52b7d2dcc80cd2e400000010610c2d576001600160a01b031690811561147f576113ad611353565b60025468056bc75e2d63100000810180911161035d57600255815f525f60205260405f2068056bc75e2d631000008154019055815f5f5160206117035f395f51905f52602060405168056bc75e2d631000008152a360075468056bc75e2d63100000810180911161035d57600755815f52600860205260405f2080549168056bc75e2d63100000830180931161035d575f5160206117235f395f51905f5292611474925560405191829168056bc75e2d631000008352606060208401526060830190611199565b4260408301520390a2565b63ec442f0560e01b5f525f60045260245ffd5b6a52b7d2dcc80cd2e40000006114aa8360075461122e565b11610c2d576001600160a01b031691821561147f575f5160206117235f395f51905f52916114d6611353565b6114e28160025461122e565b600255835f525f60205260405f20818154019055835f5f5160206117035f395f51905f526020604051858152a361151b8160075461122e565b600755835f52600860205260405f2061153582825461122e565b90556114746040519283928352606060208401526060830190611199565b6001600160a01b03169081156115df576001600160a01b031691821561147f5761157b611353565b815f525f60205260405f20548181106115c657815f5160206117035f395f51905f5292602092855f525f84520360405f2055845f525f825260405f20818154019055604051908152a3565b8263391434e360e21b5f5260045260245260445260645ffd5b634b637e8f60e11b5f525f60045260245ffd5b5f8181526005602090815260408083206001600160a01b038616845290915290205460ff16611678575f8181526005602090815260408083206001600160a01b0395909516808452949091528120805460ff19166001179055339291907f2f8788117e7eff1d82e926ec794901d17c78024a50270940304540a733656f0d9080a4600190565b50505f90565b5f8181526005602090815260408083206001600160a01b038616845290915290205460ff1615611678575f8181526005602090815260408083206001600160a01b0395909516808452949091528120805460ff19169055339291907ff6391f5c32d9c69d2a47ea670b442974b53935d1edc7fd64eb21e047a839171b9080a460019056feddf252ad1be2c89b69c2b068fc378daa952ba7f163c4a11628f55a4df523b3ef04133ee4cb027e1c5fce5e3481289278a93bd16a65a3b65b428a6d239e706bfba2646970667358221220df80dfe446402d10c75d1100f7eacf4d63b3f23dc9cfb603c8afaf55fbaae57364736f6c634300082100332f8788117e7eff1d82e926ec794901d17c78024a50270940304540a733656f0d15a28d26fa1bf736cf7edc9922607171ccb09c3c73b808e7772a3013e068a52205b8ccbb9d4d8fb16ea74ce3c29a41f1b461fbdaff4714a0d9a8eb05499746bc99f2891db7a8db76249871a02b43b68c0bb8f22ef8a3bc1034ae9375ef6b7c3c","linkReferences":{}},"methodIdentifiers":{"ACCURATE_VOTE_REWARD()":"b6f2ec57","CAMPAIGN_COMPLETION_REWARD()":"293a2d9c","DEFAULT_ADMIN_ROLE()":"a217fddf","MAX_SUPPLY()":"32cb6b0c","MINTER_ROLE()":"d5391393","PAUSER_ROLE()":"e63ab1e9","TOKENS_PER_DOLLAR()":"49852515","VERIFICATION_REWARD()":"fd4f9a21","VOTE_REWARD()":"1a7dfad4","allowance(address,address)":"dd62ed3e","approve(address,uint256)":"095ea7b3","balanceOf(address)":"70a08231","campaignTokens(address)":"ba1103d4","decimals()":"313ce567","donationTokens(address)":"39d20b33","getRoleAdmin(bytes32)":"248a9ca3","getUserTokenStats(address)":"c569a984","grantRole(bytes32,address)":"2f2ff15d","hasRole(bytes32,address)":"91d14854","mintCustomReward(address,uint256,string)":"c6a23519","mintForAccurateVote(address)":"17c89671","mintForCampaignCompletion(address)":"77d54dce","mintForDonation(address,uint256)":"09d99bb7","mintForVerification(address)":"e577cad3","mintForVoting(address)":"302dda44","name()":"06fdde03","pause()":"8456cb59","paused()":"5c975abb","remainingSupply()":"da0239a6","renounceRole(bytes32,address)":"36568abe","revokeRole(bytes32,address)":"d547741f","supportsInterface(bytes4)":"01ffc9a7","symbol()":"95d89b41","totalEarned(address)":"649aca4a","totalMinted()":"a2309ff8","totalSupply()":"18160ddd","transfer(address,uint256)":"a9059cbb","transferFrom(address,address,uint256)":"23b872dd","unpause()":"3f4ba83a","votingTokens(address)":"eca964e3"},"id":62}