{"abi":[{"type":"constructor","inputs":[{"name":"_escrowManager","type":"address","internalType":"address"},{"name":"_campaignFactory","type":"address","internalType":"address"},{"name":"_institutionRegistry","type":"address","internalType":"address"},{"name":"_patToken","type":"address","internalType":"address"},{"name":"_donationNFT","type":"address","internalType":"address"},{"name":"_treasury","type":"address","internalType":"address"},{"name":"admin","type":"address","internalType":"address"}],"stateMutability":"nonpayable"},{"type":"receive","stateMutability":"payable"},{"type":"function","name":"CHALLENGE_PERIOD","inputs":[],"outputs":[{"name":"","type":"uint256","internalType":"uint256"}],"stateMutability":"view"},{"type":"function","name":"DEFAULT_ADMIN_ROLE","inputs":[],"outputs":[{"name":"","type":"bytes32","internalType":"bytes32"}],"stateMutability":"view"},{"type":"function","name":"DISPUTE_VOTING_PERIOD","inputs":[],"outputs":[{"name":"","type":"uint256","internalType":"uint256"}],"stateMutability":"view"},{"type":"function","name":"GOVERNANCE_ROLE","inputs":[],"outputs":[{"name":"","type":"bytes32","internalType":"bytes32"}],"stateMutability":"view"},{"type":"function","name":"MIN_CHALLENGE_STAKE","inputs":[],"outputs":[{"name":"","type":"uint256","internalType":"uint256"}],"stateMutability":"view"},{"type":"function","name":"STORAGE_FEE","inputs":[],"outputs":[{"name":"","type":"uint256","internalType":"uint256"}],"stateMutability":"view"},{"type":"function","name":"campaignFactory","inputs":[],"outputs":[{"name":"","type":"address","internalType":"contract CampaignFactory"}],"stateMutability":"view"},{"type":"function","name":"challengeProof","inputs":[{"name":"campaignId","type":"uint256","internalType":"uint256"},{"name":"reason","type":"string","internalType":"string"}],"outputs":[],"stateMutability":"nonpayable"},{"type":"function","name":"claimVotingReward","inputs":[{"name":"disputeId","type":"uint256","internalType":"uint256"}],"outputs":[],"stateMutability":"nonpayable"},{"type":"function","name":"disputeCounter","inputs":[],"outputs":[{"name":"","type":"uint256","internalType":"uint256"}],"stateMutability":"view"},{"type":"function","name":"disputes","inputs":[{"name":"","type":"uint256","internalType":"uint256"}],"outputs":[{"name":"campaignId","type":"uint256","internalType":"uint256"},{"name":"challenger","type":"address","internalType":"address"},{"name":"reason","type":"string","internalType":"string"},{"name":"startTime","type":"uint256","internalType":"uint256"},{"name":"forVotes","type":"uint256","internalType":"uint256"},{"name":"againstVotes","type":"uint256","internalType":"uint256"},{"name":"resolved","type":"bool","internalType":"bool"},{"name":"approved","type":"bool","internalType":"bool"}],"stateMutability":"view"},{"type":"function","name":"donationNFT","inputs":[],"outputs":[{"name":"","type":"address","internalType":"contract DonationNFT"}],"stateMutability":"view"},{"type":"function","name":"escrowManager","inputs":[],"outputs":[{"name":"","type":"address","internalType":"contract EscrowManager"}],"stateMutability":"view"},{"type":"function","name":"finalizeProof","inputs":[{"name":"campaignId","type":"uint256","internalType":"uint256"}],"outputs":[],"stateMutability":"nonpayable"},{"type":"function","name":"getDispute","inputs":[{"name":"disputeId","type":"uint256","internalType":"uint256"}],"outputs":[{"name":"campaignId","type":"uint256","internalType":"uint256"},{"name":"challenger","type":"address","internalType":"address"},{"name":"reason","type":"string","internalType":"string"},{"name":"forVotes","type":"uint256","internalType":"uint256"},{"name":"againstVotes","type":"uint256","internalType":"uint256"},{"name":"resolved","type":"bool","internalType":"bool"},{"name":"approved","type":"bool","internalType":"bool"}],"stateMutability":"view"},{"type":"function","name":"getProof","inputs":[{"name":"campaignId","type":"uint256","internalType":"uint256"}],"outputs":[{"name":"institution","type":"address","internalType":"address"},{"name":"ipfsHash","type":"string","internalType":"string"},{"name":"receiptsHash","type":"string","internalType":"string"},{"name":"photosHash","type":"string","internalType":"string"},{"name":"status","type":"uint8","internalType":"enum ProofValidator.ProofStatus"},{"name":"autoValidationPassed","type":"bool","internalType":"bool"},{"name":"submittedAt","type":"uint256","internalType":"uint256"},{"name":"challengePeriodEnd","type":"uint256","internalType":"uint256"}],"stateMutability":"view"},{"type":"function","name":"getRoleAdmin","inputs":[{"name":"role","type":"bytes32","internalType":"bytes32"}],"outputs":[{"name":"","type":"bytes32","internalType":"bytes32"}],"stateMutability":"view"},{"type":"function","name":"grantRole","inputs":[{"name":"role","type":"bytes32","internalType":"bytes32"},{"name":"account","type":"address","internalType":"address"}],"outputs":[],"stateMutability":"nonpayable"},{"type":"function","name":"hasClaimedReward","inputs":[{"name":"disputeId","type":"uint256","internalType":"uint256"},{"name":"voter","type":"address","internalType":"address"}],"outputs":[{"name":"","type":"bool","internalType":"bool"}],"stateMutability":"view"},{"type":"function","name":"hasRole","inputs":[{"name":"role","type":"bytes32","internalType":"bytes32"},{"name":"account","type":"address","internalType":"address"}],"outputs":[{"name":"","type":"bool","internalType":"bool"}],"stateMutability":"view"},{"type":"function","name":"hasVoted","inputs":[{"name":"disputeId","type":"uint256","internalType":"uint256"},{"name":"voter","type":"address","internalType":"address"}],"outputs":[{"name":"","type":"bool","internalType":"bool"}],"stateMutability":"view"},{"type":"function","name":"institutionRegistry","inputs":[],"outputs":[{"name":"","type":"address","internalType":"contract InstitutionRegistry"}],"stateMutability":"view"},{"type":"function","name":"internalDisputeCreated","inputs":[{"name":"","type":"uint256","internalType":"uint256"}],"outputs":[{"name":"","type":"bool","internalType":"bool"}],"stateMutability":"view"},{"type":"function","name":"patToken","inputs":[],"outputs":[{"name":"","type":"address","internalType":"contract PATToken"}],"stateMutability":"view"},{"type":"function","name":"pause","inputs":[],"outputs":[],"stateMutability":"nonpayable"},{"type":"function","name":"paused","inputs":[],"outputs":[{"name":"","type":"bool","internalType":"bool"}],"stateMutability":"view"},{"type":"function","name":"proofs","inputs":[{"name":"","type":"uint256","internalType":"uint256"}],"outputs":[{"name":"campaignId","type":"uint256","internalType":"uint256"},{"name":"institution","type":"address","internalType":"address"},{"name":"ipfsHash","type":"string","internalType":"string"},{"name":"receiptsHash","type":"string","internalType":"string"},{"name":"photosHash","type":"string","internalType":"string"},{"name":"metricsHash","type":"string","internalType":"string"},{"name":"submittedAt","type":"uint256","internalType":"uint256"},{"name":"challengePeriodEnd","type":"uint256","internalType":"uint256"},{"name":"status","type":"uint8","internalType":"enum ProofValidator.ProofStatus"},{"name":"autoValidationPassed","type":"bool","internalType":"bool"},{"name":"disputeId","type":"uint256","internalType":"uint256"}],"stateMutability":"view"},{"type":"function","name":"renounceRole","inputs":[{"name":"role","type":"bytes32","internalType":"bytes32"},{"name":"callerConfirmation","type":"address","internalType":"address"}],"outputs":[],"stateMutability":"nonpayable"},{"type":"function","name":"resolveDispute","inputs":[{"name":"disputeId","type":"uint256","internalType":"uint256"}],"outputs":[],"stateMutability":"nonpayable"},{"type":"function","name":"revokeRole","inputs":[{"name":"role","type":"bytes32","internalType":"bytes32"},{"name":"account","type":"address","internalType":"address"}],"outputs":[],"stateMutability":"nonpayable"},{"type":"function","name":"submitProof","inputs":[{"name":"campaignId","type":"uint256","internalType":"uint256"},{"name":"ipfsHash","type":"string","internalType":"string"},{"name":"receiptsHash","type":"string","internalType":"string"},{"name":"photosHash","type":"string","internalType":"string"},{"name":"metricsHash","type":"string","internalType":"string"}],"outputs":[],"stateMutability":"payable"},{"type":"function","name":"supportsInterface","inputs":[{"name":"interfaceId","type":"bytes4","internalType":"bytes4"}],"outputs":[{"name":"","type":"bool","internalType":"bool"}],"stateMutability":"view"},{"type":"function","name":"treasury","inputs":[],"outputs":[{"name":"","type":"address","internalType":"address"}],"stateMutability":"view"},{"type":"function","name":"unpause","inputs":[],"outputs":[],"stateMutability":"nonpayable"},{"type":"function","name":"updateTreasury","inputs":[{"name":"newTreasury","type":"address","internalType":"address"}],"outputs":[],"stateMutability":"nonpayable"},{"type":"function","name":"voteOnDispute","inputs":[{"name":"disputeId","type":"uint256","internalType":"uint256"},{"name":"approve","type":"bool","internalType":"bool"}],"outputs":[],"stateMutability":"nonpayable"},{"type":"event","name":"DisputeVoteCast","inputs":[{"name":"disputeId","type":"uint256","indexed":true,"internalType":"uint256"},{"name":"voter","type":"address","indexed":true,"internalType":"address"},{"name":"approve","type":"bool","indexed":false,"internalType":"bool"},{"name":"weight","type":"uint256","indexed":false,"internalType":"uint256"},{"name":"timestamp","type":"uint256","indexed":false,"internalType":"uint256"}],"anonymous":false},{"type":"event","name":"Paused","inputs":[{"name":"account","type":"address","indexed":false,"internalType":"address"}],"anonymous":false},{"type":"event","name":"ProofChallenged","inputs":[{"name":"campaignId","type":"uint256","indexed":true,"internalType":"uint256"},{"name":"challenger","type":"address","indexed":true,"internalType":"address"},{"name":"reason","type":"string","indexed":false,"internalType":"string"},{"name":"disputeId","type":"uint256","indexed":false,"internalType":"uint256"},{"name":"timestamp","type":"uint256","indexed":false,"internalType":"uint256"}],"anonymous":false},{"type":"event","name":"ProofDisputeResolved","inputs":[{"name":"disputeId","type":"uint256","indexed":true,"internalType":"uint256"},{"name":"campaignId","type":"uint256","indexed":true,"internalType":"uint256"},{"name":"approved","type":"bool","indexed":false,"internalType":"bool"},{"name":"timestamp","type":"uint256","indexed":false,"internalType":"uint256"}],"anonymous":false},{"type":"event","name":"ProofFinalized","inputs":[{"name":"campaignId","type":"uint256","indexed":true,"internalType":"uint256"},{"name":"approved","type":"bool","indexed":false,"internalType":"bool"},{"name":"timestamp","type":"uint256","indexed":false,"internalType":"uint256"}],"anonymous":false},{"type":"event","name":"ProofSubmitted","inputs":[{"name":"campaignId","type":"uint256","indexed":true,"internalType":"uint256"},{"name":"ipfsHash","type":"string","indexed":false,"internalType":"string"},{"name":"timestamp","type":"uint256","indexed":false,"internalType":"uint256"}],"anonymous":false},{"type":"event","name":"ProofValidated","inputs":[{"name":"campaignId","type":"uint256","indexed":true,"internalType":"uint256"},{"name":"isValid","type":"bool","indexed":false,"internalType":"bool"},{"name":"autoApproved","type":"bool","indexed":false,"internalType":"bool"},{"name":"timestamp","type":"uint256","indexed":false,"internalType":"uint256"}],"anonymous":false},{"type":"event","name":"RoleAdminChanged","inputs":[{"name":"role","type":"bytes32","indexed":true,"internalType":"bytes32"},{"name":"previousAdminRole","type":"bytes32","indexed":true,"internalType":"bytes32"},{"name":"newAdminRole","type":"bytes32","indexed":true,"internalType":"bytes32"}],"anonymous":false},{"type":"event","name":"RoleGranted","inputs":[{"name":"role","type":"bytes32","indexed":true,"internalType":"bytes32"},{"name":"account","type":"address","indexed":true,"internalType":"address"},{"name":"sender","type":"address","indexed":true,"internalType":"address"}],"anonymous":false},{"type":"event","name":"RoleRevoked","inputs":[{"name":"role","type":"bytes32","indexed":true,"internalType":"bytes32"},{"name":"account","type":"address","indexed":true,"internalType":"address"},{"name":"sender","type":"address","indexed":true,"internalType":"address"}],"anonymous":false},{"type":"event","name":"Unpaused","inputs":[{"name":"account","type":"address","indexed":false,"internalType":"address"}],"anonymous":false},{"type":"event","name":"VoterRewardAvailable","inputs":[{"name":"disputeId","type":"uint256","indexed":true,"internalType":"uint256"},{"name":"winningVote","type":"bool","indexed":false,"internalType":"bool"},{"name":"timestamp","type":"uint256","indexed":false,"internalType":"uint256"}],"anonymous":false},{"type":"event","name":"VoterRewardClaimed","inputs":[{"name":"disputeId","type":"uint256","indexed":true,"internalType":"uint256"},{"name":"voter","type":"address","indexed":true,"internalType":"address"},{"name":"amount","type":"uint256","indexed":false,"internalType":"uint256"},{"name":"timestamp","type":"uint256","indexed":false,"internalType":"uint256"}],"anonymous":false},{"type":"error","name":"AccessControlBadConfirmation","inputs":[]},{"type":"error","name":"AccessControlUnauthorizedAccount","inputs":[{"name":"account","type":"address","internalType":"address"},{"name":"neededRole","type":"bytes32","internalType":"bytes32"}]},{"type":"error","name":"AlreadyVoted","inputs":[]},{"type":"error","name":"CampaignNotActive","inputs":[]},{"type":"error","name":"ChallengeWindowActive","inputs":[]},{"type":"error","name":"ChallengeWindowExpired","inputs":[]},{"type":"error","name":"DisputeAlreadyResolved","inputs":[]},{"type":"error","name":"DisputeNotResolved","inputs":[]},{"type":"error","name":"EnforcedPause","inputs":[]},{"type":"error","name":"ExpectedPause","inputs":[]},{"type":"error","name":"InsufficientVotingPower","inputs":[]},{"type":"error","name":"InvalidAmount","inputs":[]},{"type":"error","name":"InvalidIPFSHash","inputs":[]},{"type":"error","name":"InvalidProofData","inputs":[]},{"type":"error","name":"ProofAlreadySubmitted","inputs":[]},{"type":"error","name":"ProofNotSubmitted","inputs":[]},{"type":"error","name":"ReentrancyGuardReentrantCall","inputs":[]},{"type":"error","name":"RewardAlreadyClaimed","inputs":[]},{"type":"error","name":"TransferFailed","inputs":[]},{"type":"error","name":"Unauthorized","inputs":[]},{"type":"error","name":"UnauthorizedCampaignCreator","inputs":[]},{"type":"error","name":"VotingPeriodEnded","inputs":[]},{"type":"error","name":"VotingPeriodNotEnded","inputs":[]},{"type":"error","name":"ZeroAddress","inputs":[]}],"bytecode":{"object":"0x60803461020c57601f612e5538819003918201601f19168301916001600160401b038311848410176102105780849260e09460405283398101031261020c5761004781610224565b9061005460208201610224565b9061006160408201610224565b61006d60608301610224565b61007960808401610224565b9161009260c061008b60a08701610224565b9501610224565b60017f9b779b17422d0df92223018b32b4d1fa46e071723d6817e2486d003becc55f0055946001600160a01b0387161580156101fb575b80156101ea575b80156101d9575b80156101c8575b80156101b7575b80156101a6575b6101975760018054610100600160a81b03191660089890981b610100600160a81b031697909717909655600280546001600160a01b03199081166001600160a01b03988916179091556003805482169288169290921790915560048054821692871692909217909155600580548216928616929092179091556006805490911691909316179091556101879061018181610238565b506102ae565b50604051612ab390816103428239f35b63d92e233d60e01b5f5260045ffd5b506001600160a01b038616156100ec565b506001600160a01b038516156100e5565b506001600160a01b038416156100de565b506001600160a01b038316156100d7565b506001600160a01b038216156100d0565b506001600160a01b038116156100c9565b5f80fd5b634e487b7160e01b5f52604160045260245ffd5b51906001600160a01b038216820361020c57565b6001600160a01b0381165f9081525f516020612e355f395f51905f52602052604090205460ff166102a9576001600160a01b03165f8181525f516020612e355f395f51905f5260205260408120805460ff191660011790553391905f516020612df55f395f51905f528180a4600190565b505f90565b6001600160a01b0381165f9081525f516020612e155f395f51905f52602052604090205460ff166102a9576001600160a01b03165f8181525f516020612e155f395f51905f5260205260408120805460ff191660011790553391907f71840dc4906352362b0cdaf79870196c8e42acafade72d5d5a6d59291253ceb1905f516020612df55f395f51905f529080a460019056fe608080604052600436101561001c575b50361561001a575f80fd5b005b5f905f3560e01c90816301ffc9a7146120e15750806311149ada146120145780631a06c8ce14611ff75780631b1fcb0414611fcf5780632384220214611fa7578063248a9ca314611f755780632f2ff15d14611f385780632fbd685614611f1057806336568abe14611ecc5780633d90e7ab14611ea45780633f4ba83a14611e3e5780634385963214611df2578063489d51ea14611ae1578063564a565d14611a3f5780635c975abb14611a1d57806361d027b3146119f55780637d36f4d3146119d85780637f51bb1f146119795780638456cb59146119215780638c8cbc3d146119015780638e0841651461161057806391d14854146115c85780639a181e40146113d55780639ddaf5aa146112ce578063a217fddf146112b2578063a4f5df1214610fed578063bd05e8b914610fc9578063c12255c414610f9c578063c2b7b86814610c4c578063c3a079ed14610c2e578063c8b727a114610be1578063d547741f14610b9a578063e3a96cbd14610b07578063eea75ec41461021c578063f36c8f5c146101e15763fcf8fa630361000f57346101de5760203660031901126101de5760ff60406020926004358152600a84522054166040519015158152f35b80fd5b50346101de57806003193601126101de5760206040517f71840dc4906352362b0cdaf79870196c8e42acafade72d5d5a6d59291253ceb18152f35b5060a03660031901126101de576004356024356001600160401b038111610b035761024b90369060040161228f565b6044356001600160401b038111610aff5761026a90369060040161228f565b6064356001600160401b038111610afb5761028990369060040161228f565b6084356001600160401b038111610af7576102a890369060040161228f565b906102b1612519565b6102b9612551565b6002546040516315663e3360e21b815260048101879052908790829060249082906001600160a01b03165afa908115610aec5787908892610a47575b50336001600160a01b0390911603610a385760029061031381612326565b03610a2957848652600760205260ff6008604088200154166006811015610a1557610a06576509184e72a00034106109f7578351156109e8578486526007602052604086208581556001810180546001600160a01b03191633179055845190939060028501906001600160401b03811161091557610391825461217b565b601f8111610996575b50806020601f8211600114610934578a91610929575b508160011b915f199060031b1c19161790555b805160038501916001600160401b0382116109155781906103e4845461217b565b601f81116108bb575b50602090601f8311600114610859578a9261084e575b50508160011b915f199060031b1c19161790555b805160048401916001600160401b03821161083a578190610438845461217b565b601f81116107e0575b50602090601f831160011461077e578992610773575b50508160011b915f199060031b1c19161790555b805160058301916001600160401b03821161075f57819061048c845461217b565b601f8111610705575b50602090601f83116001146106a3578892610698575b50508160011b915f199060031b1c19161790555b4260068201556202a3004201804211610684576007820155600801805460ff19166001179055600654839081908190819034906001600160a01b03165af13d1561067f573d61050d81612274565b9061051b60405192836121b3565b81528460203d92013e5b15610670577f0e678dad27a7a9d38a52c40207550ba15b5aa72e506c9ec8d3b13d44bd823acf6105648392604051918291604083526040830190612134565b4260208301520390a28082526007602052600860408320610588600382015461217b565b1515610597600483015461217b565b15156105a6600584015461217b565b15159082610668575b5081610660575b501561061b5701805461ffff1916610102179055604080516001808252602082015242918101919091527f025f80a0ccf9d7d26bffb500d9142528f4e287468fd326ca7a1d68db242ebf7490606090a25b60015f516020612a5e5f395f51905f525580f35b0161ff001981541690557f025f80a0ccf9d7d26bffb500d9142528f4e287468fd326ca7a1d68db242ebf746060604051848152846020820152426040820152a2610607565b90505f6105b6565b91505f6105af565b6312171d8360e31b8352600483fd5b610525565b634e487b7160e01b85526011600452602485fd5b015190505f806104ab565b8489528189209250601f198416895b8181106106ed57509084600195949392106106d5575b505050811b0190556104bf565b01515f1960f88460031b161c191690555f80806106c8565b929360206001819287860151815501950193016106b2565b828111156104955790915083885260208820601f840160051c9060208510610757575b849392601f0160051c8290039101895b828110610746575050610495565b8082018b9055859450600101610738565b899150610728565b634e487b7160e01b87526041600452602487fd5b015190505f80610457565b848a52818a209250601f1984168a5b8181106107c857509084600195949392106107b0575b505050811b01905561046b565b01515f1960f88460031b161c191690555f80806107a3565b9293602060018192878601518155019501930161078d565b828111156104415790915083895260208920601f840160051c9060208510610832575b849392601f0160051c82900391018a5b828110610821575050610441565b8082018c9055859450600101610813565b8a9150610803565b634e487b7160e01b88526041600452602488fd5b015190505f80610403565b848b52818b209250601f1984168b5b8181106108a3575090846001959493921061088b575b505050811b019055610417565b01515f1960f88460031b161c191690555f808061087e565b92936020600181928786015181550195019301610868565b828111156103ed57909150838a5260208a20601f840160051c906020851061090d575b849392601f0160051c82900391018b5b8281106108fc5750506103ed565b8082018d90558594506001016108ee565b8b91506108de565b634e487b7160e01b89526041600452602489fd5b90508701515f6103b0565b838b52808b209150601f1983168b5b8a82821061097e5750509083600194939210610966575b5050811b0190556103c3565b8901515f1960f88460031b161c191690555f8061095a565b60018495602093958493015181550194019201610943565b8181111561039a57828a5260208a20601f830160051c90602084106109e0575b81601f9101920160051c03908a5b8281106109d257505061039a565b808c600192840155016109c4565b8b91506109b6565b636e6db68160e11b8652600486fd5b63162908e360e11b8652600486fd5b633e77430d60e01b8652600486fd5b634e487b7160e01b87526021600452602487fd5b63219a945b60e11b8652600486fd5b63dea4837160e01b8752600487fd5b9150503d8088833e610a5981836121b3565b810161010082820312610ae457610a6f82612330565b9160208101516001600160401b038111610ae85782610a8f918301612344565b5060408101516001600160401b038111610ae85782610aaf918301612344565b5060608101516001600160401b038111610ae85760e092610ad1918301612344565b500151906005821015610ae4575f6102f5565b8780fd5b8980fd5b6040513d89823e3d90fd5b8580fd5b8480fd5b8380fd5b8280fd5b50346101de5760203660031901126101de576040906004358152600860205220805460018060a01b036001830154169160ff6004820154916005810154610b76610b586002600685015494016121d4565b6040519788978852602088015260e0604088015260e0870190612134565b9360608601526080850152818116151560a085015260081c16151560c08301520390f35b50346101de5760403660031901126101de57610bdd600435610bba612165565b90610bd8610bd3825f525f602052600160405f20015490565b6123d9565b612499565b5080f35b50346101de5760403660031901126101de5760096040610bff612165565b926004358152600860205220019060018060a01b03165f52602052602060ff60405f2054166040519015158152f35b50346101de57806003193601126101de5760206040516202a3008152f35b50346101de5760203660031901126101de57600435610c69612519565b610c71612551565b808252600860205260408220906006820191825460ff8116610f8d576003820154620697808101809111610f7957421115610f6a5760019060ff1916178355600481015460058201541092805461ff008560081b169061ff0019161790555491805f14610f635760045b838552600760205260086040862001906006811015610f4f5760ff80198354169116179055805f14610d855760407f2f6e18b14d5b12efabd958876a4223f9139ace877fc84dd929964fe7213b47ed91610d34856125b6565b837f12d92ecad36ab0b6a973c771937fbc8ca854808b2753e7fe18dcd4aae0d7246683805160018152426020820152a25b8151908152426020820152a360015f516020612a5e5f395f51905f525580f35b82845260076020526040842060015485919060081c6001600160a01b0316803b15610b03578280916024604051809481936352b2380960e01b83528b60048401525af1908115610f44578391610f2b575b5050600354600191909101546001600160a01b039182169116813b15610b0357829160c483926040519485938492634e7ce73f60e01b8452600484015260c719602484015260606044840152603b60648401527f50726f6f662072656a6563746564202d206672617564756c656e74206f72206960848401527f6e73756666696369656e7420696d706163742065766964656e6365000000000060a48401525af18015610f2057610f0b575b505060407f2f6e18b14d5b12efabd958876a4223f9139ace877fc84dd929964fe7213b47ed91847fc1835c03d79adfa051c9a071ceb015038e96301669d9c4567d042342abbf4fda838051898152426020820152a2837f12d92ecad36ab0b6a973c771937fbc8ca854808b2753e7fe18dcd4aae0d72466838051898152426020820152a2610d65565b81610f15916121b3565b610aff57835f610e82565b6040513d84823e3d90fd5b81610f35916121b3565b610f4057815f610dd6565b5080fd5b6040513d85823e3d90fd5b634e487b7160e01b86526021600452602486fd5b6005610cdb565b630cd7c29960e21b8552600485fd5b634e487b7160e01b86526011600452602486fd5b63f10068b560e01b8552600485fd5b50346101de57806003193601126101de5760015460405160089190911c6001600160a01b03168152602090f35b50346101de57806003193601126101de576020604051683635c9adc5dea000008152f35b50346101de5760403660031901126101de576004356024359081151591828103610aff57611019612551565b8184526008602052604084209060ff600683015416610f8d57335f90815260078301602081905260409091205460ff166112a35760038301546206978081018091116111ee57421015611294579060249291602060018060a01b0360045416604051958680926370a0823160e01b82523360048301525afa938415610aec57879461125c575b5083801561124d57600354604051636be2cefb60e01b815233600482015290602090829060249082906001600160a01b03165afa8015611242578990611202575b600491506110ed81612326565b146111d6575b50335f908152602091825260408082208054600160ff1991821617909155600886019093529020805490911660ff8716179055156111c157600401611139828254612319565b90555b60405192835260208301524260408301527f4335e52a38329dc5d382f06ce4b517cd3bb107e4900ca1c3880a2fc298f2076e60603393a360045481906001600160a01b0316803b156111be57818091602460405180948193630c0b769160e21b83523360048401525af16111ad5750f35b816111b7916121b3565b6101de5780f35b50fd5b6005016111cf828254612319565b905561113c565b8091945060011b9081046002036111ee57925f6110f3565b634e487b7160e01b87526011600452602487fd5b506020813d60201161123a575b8161121c602093836121b3565b8101031261123657516005811015611236576004906110e0565b8880fd5b3d915061120f565b6040513d8b823e3d90fd5b63cabeb65560e01b8852600488fd5b9093506020813d60201161128c575b81611278602093836121b3565b810103126112885751925f61109f565b5f80fd5b3d915061126b565b63370ec37160e21b8652600486fd5b637c9a1cf960e01b8652600486fd5b50346101de57806003193601126101de57602090604051908152f35b50346101de5760203660031901126101de576004358152600760205260409020805460018201546001600160a01b03169161130b600282016121d4565b611317600383016121d4565b91611324600482016121d4565b92611331600583016121d4565b6006830154946007840154926008850154946009015495604051998a998a5260208a0152604089016101609052610160890161136c91612134565b88810360608a015261137d91612134565b878103608089015261138e91612134565b86810360a088015261139f91612134565b9360c086015260e0850152610100840160ff8216906113bd91612158565b60081c60ff1615156101208401526101408301520390f35b5034611288576020366003190112611288576004356113f2612519565b6113fa612551565b805f52600860205260405f2090600682015460ff8116156115b957335f90815260078401602052604090205460ff161561159c57600983019260018060a01b0333165f528360205260ff60405f2054166115aa57335f9081526008918201602052604090205491901c60ff9081161515911615150361159c5760018060a01b0360045416916040519263b6f2ec5760e01b8452602084600481845afa938415611591575f9461155d575b50803b15611288575f80916024604051809481936317c8967160e01b83523360048401525af19081611548575b506114e5576312171d8360e31b8452600484fd5b60018060a01b0333165f5260205260405f20600160ff198254161790556040519182524260208301527f5058cc2a44c9f055f85589c4121122cdfd7b9970563391c41dc34a13c5ea357160403393a360015f516020612a5e5f395f51905f525580f35b6115559195505f906121b3565b5f935f6114d1565b9093506020813d602011611589575b81611579602093836121b3565b810103126112885751925f6114a4565b3d915061156c565b6040513d5f823e3d90fd5b6282b42960e81b5f5260045ffd5b632cfe303760e21b5f5260045ffd5b63453ee4f760e11b5f5260045ffd5b34611288576040366003190112611288576115e1612165565b6004355f525f60205260405f209060018060a01b03165f52602052602060ff60405f2054166040519015158152f35b34611288576040366003190112611288576004356024356001600160401b0381116112885761164390369060040161228f565b9061164c612551565b805f52600760205260405f2091600883019260ff84541660068110156118ed57600181141590816118e1575b506118d25760078101544210156118c3576024602060018060a01b0360045416604051928380926370a0823160e01b82523360048301525afa8015611591575f90611888575b683635c9adc5dea0000091501061187957600993600360ff1982541617905583549384916116eb836122d5565b825501555f8381526008602052604090208281556001810180546001600160a01b03191633179055815160028201906001600160401b03811161186557611732825461217b565b601f8111611814575b506020601f82116001146117a057918161179094925f516020612a3e5f395f51905f5296945f91611795575b508160011b915f199060031b1c19161790555b60034291015560405191829133964291846122f7565b0390a3005b905084015189611767565b601f19821690835f52805f20915f5b8181106117fc5750925f516020612a3e5f395f51905f52969492600192826117909896106117e4575b5050811b01905561177a565b8601515f1960f88460031b161c1916905589806117d8565b9192602060018192868b0151815501940192016117af565b8181111561173b57825f5260205f20601f830160051c906020841061185d575b81601f9101920160051c03905f5b82811061185057505061173b565b5f82820155600101611842565b5f9150611834565b634e487b7160e01b5f52604160045260245ffd5b63cabeb65560e01b5f5260045ffd5b506020813d6020116118bb575b816118a2602093836121b3565b8101031261128857683635c9adc5dea0000090516116be565b3d9150611895565b632b0fbfc560e11b5f5260045ffd5b634d4522d960e01b5f5260045ffd5b60029150141585611678565b634e487b7160e01b5f52602160045260245ffd5b34611288575f3660031901126112885760206040516509184e72a0008152f35b34611288575f3660031901126112885761193961238a565b611941612551565b600160ff19815416176001557f62e78cea01bee320cd4e420270b5ea74000d11b0c9f74754ebdbfc544b05a2586020604051338152a1005b34611288576020366003190112611288576004356001600160a01b03811690819003611288576119a761238a565b80156119c9576bffffffffffffffffffffffff60a01b60065416176006555f80f35b63d92e233d60e01b5f5260045ffd5b34611288575f366003190112611288576020600954604051908152f35b34611288575f366003190112611288576006546040516001600160a01b039091168152602090f35b34611288575f36600319011261128857602060ff600154166040519015158152f35b34611288576020366003190112611288576004355f908152600860205260409020805460018201546001600160a01b03169160ff611a7f600283016121d4565b6003830154926004810154611ab86006600584015493015493604051988998895260208901526101006040890152610100880190612134565b946060870152608086015260a0850152818116151560c085015260081c16151560e08301520390f35b3461128857602036600319011261128857600435611afd612519565b611b05612551565b805f52600760205260405f20600881019081549060ff821691600683101591826118ed57600284141580611de4575b611dd557600701544210611dc65760081c60ff168181611db5575b5015611b7e575050805460ff19166004179055611b6b906125b6565b60015f516020612a5e5f395f51905f5255005b6118ed57600303611b91575b5050611b6b565b600360ff19825416179055805f52600a60205260ff60405f20541615611bb8575b80611b8a565b806009915f52600a60205260405f20600160ff19825416179055604051611be06060826121b3565b602a81527f4175746f2d76616c69646174696f6e206661696c65643a204d697373696e6720602082015269636f6d706f6e656e747360b01b6040820152815f52600760205260405f208354938491611c37836122d5565b825501555f8381526008602052604090208281556001810180546001600160a01b03191630179055815160028201906001600160401b03811161186557611c7e825461217b565b601f8111611d64575b506020601f8211600114611cf0579181611cdc94925f516020612a3e5f395f51905f5296945f91611ce5575b508160011b915f199060031b1c19161790555b60034291015560405191829130964291846122f7565b0390a380611bb2565b905084015189611cb3565b601f19821690835f52805f20915f5b818110611d4c5750925f516020612a3e5f395f51905f5296949260019282611cdc989610611d34575b5050811b019055611cc6565b8601515f1960f88460031b161c191690558980611d28565b9192602060018192868b015181550194019201611cff565b81811115611c8757825f5260205f20601f830160051c9060208410611dad575b81601f9101920160051c03905f5b828110611da0575050611c87565b5f82820155600101611d92565b5f9150611d84565b90506118ed57600382141581611b4f565b631202122d60e31b5f5260045ffd5b6371f4a19360e11b5f5260045ffd5b505f92506001841415611b34565b3461128857604036600319011261128857611e0b612165565b6004355f526008602052600760405f20019060018060a01b03165f52602052602060ff60405f2054166040519015158152f35b34611288575f36600319011261128857611e5661238a565b60015460ff811615611e955760ff19166001557f5db9ee0a495bf2e6ff9c91a7834c1ba4fdd244a5e8aa4e537bd38aeae4b073aa6020604051338152a1005b638dfc202b60e01b5f5260045ffd5b34611288575f366003190112611288576004546040516001600160a01b039091168152602090f35b3461128857604036600319011261128857611ee5612165565b336001600160a01b03821603611f015761001a90600435612499565b63334bd91960e11b5f5260045ffd5b34611288575f366003190112611288576002546040516001600160a01b039091168152602090f35b346112885760403660031901126112885761001a600435611f57612165565b90611f70610bd3825f525f602052600160405f20015490565b612411565b34611288576020366003190112611288576020611f9f6004355f525f602052600160405f20015490565b604051908152f35b34611288575f366003190112611288576005546040516001600160a01b039091168152602090f35b34611288575f366003190112611288576003546040516001600160a01b039091168152602090f35b34611288575f366003190112611288576020604051620697808152f35b34611288576020366003190112611288576004355f52600760205260405f2060018060a01b036001820154166008820154600683015460078401549060ff6120b8612061600288016121d4565b966120aa61207d6004612076600385016121d4565b93016121d4565b9161209c6040519a8b9a8b5261010060208c01526101008b0190612134565b9089820360408b0152612134565b908782036060890152612134565b936120c860808701838316612158565b60081c16151560a085015260c084015260e08301520390f35b34611288576020366003190112611288576004359063ffffffff60e01b821680920361128857602091637965db0b60e01b8114908115612123575b5015158152f35b6301ffc9a760e01b1490508361211c565b805180835260209291819084018484015e5f828201840152601f01601f1916010190565b9060068210156118ed5752565b602435906001600160a01b038216820361128857565b90600182811c921680156121a9575b602083101461219557565b634e487b7160e01b5f52602260045260245ffd5b91607f169161218a565b90601f801991011681019081106001600160401b0382111761186557604052565b9060405191825f8254926121e78461217b565b8084529360018116908115612252575060011461220e575b5061220c925003836121b3565b565b90505f9291925260205f20905f915b81831061223657505090602061220c928201015f6121ff565b602091935080600191548385890101520191019091849261221d565b90506020925061220c94915060ff191682840152151560051b8201015f6121ff565b6001600160401b03811161186557601f01601f191660200190565b81601f82011215611288578035906122a682612274565b926122b460405194856121b3565b8284526020838301011161128857815f926020809301838601378301015290565b5f1981146122e35760010190565b634e487b7160e01b5f52601160045260245ffd5b61230f60409295949395606083526060830190612134565b9460208201520152565b919082018092116122e357565b600511156118ed57565b51906001600160a01b038216820361128857565b81601f820112156112885780519061235b82612274565b9261236960405194856121b3565b8284526020838301011161128857815f9260208093018386015e8301015290565b335f9081527fad3228b676f7d3cd4284a5443f17f1962b36e491b30a40b2405849e597ba5fb5602052604090205460ff16156123c257565b63e2517d3f60e01b5f52336004525f60245260445ffd5b5f8181526020818152604080832033845290915290205460ff16156123fb5750565b63e2517d3f60e01b5f523360045260245260445ffd5b5f818152602081815260408083206001600160a01b038616845290915290205460ff16612493575f818152602081815260408083206001600160a01b0395909516808452949091528120805460ff19166001179055339291907f2f8788117e7eff1d82e926ec794901d17c78024a50270940304540a733656f0d9080a4600190565b50505f90565b5f818152602081815260408083206001600160a01b038616845290915290205460ff1615612493575f818152602081815260408083206001600160a01b0395909516808452949091528120805460ff19169055339291907ff6391f5c32d9c69d2a47ea670b442974b53935d1edc7fd64eb21e047a839171b9080a4600190565b60025f516020612a5e5f395f51905f5254146125425760025f516020612a5e5f395f51905f5255565b633ee5aeb560e01b5f5260045ffd5b60ff6001541661255d57565b63d93c066560e01b5f5260045ffd5b6001600160401b0381116118655760051b60200190565b90602080835192838152019201905f5b8181106125a05750505090565b8251845260209384019390920191600101612593565b5f815f52600760205260405f209060018060a01b0360015460081c1660018060a01b03600184015416813b15611288575f91604483926040519485938492631af23a5960e01b84528a600485015260248401525af1801561159157612a2a575b506002546001600160a01b0316803b15610f405781809160246040518094819363012aa7e360e71b83528960048401525af18015610f2057612a15575b50600254604051633e405b9b60e11b81526004810185905291908190839060249082906001600160a01b03165afa90809282829183946128e5575b506126cb575b50505050507fc1835c03d79adfa051c9a071ceb015038e96301669d9c4567d042342abbf4fda6040805160018152426020820152a2565b835194856126da575b50612694565b6126e98698949793959661256c565b976126f7604051998a6121b3565b808952612706601f199161256c565b013660208a0137600681015495855b815181101561274f57895181101561273b578088602060019360051b8d01015201612715565b634e487b7160e01b87526032600452602487fd5b509296919495509296600260018060a01b0360055416940192843b156128e15794929091869492604051968795631de7078960e31b875260c487018b600489015260c060248901528251809152602060e48901930190895b8181106128bc57505050916127cf6127e1926127f395946003198a83030160448b0152612583565b87810360031901606489015290612583565b85810360031901608487015290612134565b906003198483030160a4850152849181549161280e8361217b565b9283835286886001831692835f1461289a57505050600114612859575b5050508383809203925af1612844575b808080806126d4565b61284f8280926121b3565b6101de578061283b565b8652602086208693509091905b81841061287b5750500160200183838061282b565b8054602084860181019190915289975088965090930192600101612866565b9095919650602093508694925060ff191683830152151560051b01019261282b565b82516001600160a01b031685528c9a508b9950602094850194909201916001016127a7565b8680fd5b94509250503d8082853e6128f981856121b3565b8301606084820312610f405783516001600160401b038111610b035784019080601f83011215610b035781519161292f8361256c565b9261293d60405194856121b3565b80845260208085019160051b83010191838311610af757602001905b8282106129fd5750505060208501516001600160401b038111610aff5785019481601f87011215610aff578551956129908761256c565b9661299e60405198896121b3565b80885260208089019160051b830101918483116128e157602001905b8282106129ed575050506040810151906001600160401b038211610afb576129e3929101612344565b909390925f61268e565b81518152602091820191016129ba565b60208091612a0a84612330565b815201910190612959565b612a208280926121b3565b6101de575f612653565b612a3691505f906121b3565b5f5f61261656fe2311b58a66c4a6aeeb65b16cdb4446f3cfb57d85a7e30ea907fdbf58f9e2b55e9b779b17422d0df92223018b32b4d1fa46e071723d6817e2486d003becc55f00a264697066735822122071a4519fec38014989648e52c24348be12f1a18e800e041511a6569eb0679f9864736f6c634300082100332f8788117e7eff1d82e926ec794901d17c78024a50270940304540a733656f0d316a51056d8b2401ab04c48d9973add294eadde229c785c6d19cde93785467efad3228b676f7d3cd4284a5443f17f1962b36e491b30a40b2405849e597ba5fb5","linkReferences":{}},"methodIdentifiers":{"CHALLENGE_PERIOD()":"c3a079ed","DEFAULT_ADMIN_ROLE()":"a217fddf","DISPUTE_VOTING_PERIOD()":"1a06c8ce","GOVERNANCE_ROLE()":"f36c8f5c","MIN_CHALLENGE_STAKE()":"bd05e8b9","STORAGE_FEE()":"8c8cbc3d","campaignFactory()":"2fbd6856","challengeProof(uint256,string)":"8e084165","claimVotingReward(uint256)":"9a181e40","disputeCounter()":"7d36f4d3","disputes(uint256)":"564a565d","donationNFT()":"23842202","escrowManager()":"c12255c4","finalizeProof(uint256)":"489d51ea","getDispute(uint256)":"e3a96cbd","getProof(uint256)":"11149ada","getRoleAdmin(bytes32)":"248a9ca3","grantRole(bytes32,address)":"2f2ff15d","hasClaimedReward(uint256,address)":"c8b727a1","hasRole(bytes32,address)":"91d14854","hasVoted(uint256,address)":"43859632","institutionRegistry()":"1b1fcb04","internalDisputeCreated(uint256)":"fcf8fa63","patToken()":"3d90e7ab","pause()":"8456cb59","paused()":"5c975abb","proofs(uint256)":"9ddaf5aa","renounceRole(bytes32,address)":"36568abe","resolveDispute(uint256)":"c2b7b868","revokeRole(bytes32,address)":"d547741f","submitProof(uint256,string,string,string,string)":"eea75ec4","supportsInterface(bytes4)":"01ffc9a7","treasury()":"61d027b3","unpause()":"3f4ba83a","updateTreasury(address)":"7f51bb1f","voteOnDispute(uint256,bool)":"a4f5df12"},"id":54}