{"abi":[{"type":"constructor","inputs":[{"name":"_escrowManager","type":"address","internalType":"address"},{"name":"_campaignFactory","type":"address","internalType":"address"},{"name":"_institutionRegistry","type":"address","internalType":"address"},{"name":"_patToken","type":"address","internalType":"address"},{"name":"_treasury","type":"address","internalType":"address"},{"name":"admin","type":"address","internalType":"address"}],"stateMutability":"nonpayable"},{"type":"receive","stateMutability":"payable"},{"type":"function","name":"CHALLENGE_PERIOD","inputs":[],"outputs":[{"name":"","type":"uint256","internalType":"uint256"}],"stateMutability":"view"},{"type":"function","name":"DEFAULT_ADMIN_ROLE","inputs":[],"outputs":[{"name":"","type":"bytes32","internalType":"bytes32"}],"stateMutability":"view"},{"type":"function","name":"DISPUTE_VOTING_PERIOD","inputs":[],"outputs":[{"name":"","type":"uint256","internalType":"uint256"}],"stateMutability":"view"},{"type":"function","name":"GOVERNANCE_ROLE","inputs":[],"outputs":[{"name":"","type":"bytes32","internalType":"bytes32"}],"stateMutability":"view"},{"type":"function","name":"MIN_CHALLENGE_STAKE","inputs":[],"outputs":[{"name":"","type":"uint256","internalType":"uint256"}],"stateMutability":"view"},{"type":"function","name":"STORAGE_FEE","inputs":[],"outputs":[{"name":"","type":"uint256","internalType":"uint256"}],"stateMutability":"view"},{"type":"function","name":"campaignFactory","inputs":[],"outputs":[{"name":"","type":"address","internalType":"contract CampaignFactory"}],"stateMutability":"view"},{"type":"function","name":"challengeProof","inputs":[{"name":"campaignId","type":"uint256","internalType":"uint256"},{"name":"reason","type":"string","internalType":"string"}],"outputs":[],"stateMutability":"nonpayable"},{"type":"function","name":"claimVotingReward","inputs":[{"name":"disputeId","type":"uint256","internalType":"uint256"}],"outputs":[],"stateMutability":"nonpayable"},{"type":"function","name":"disputeCounter","inputs":[],"outputs":[{"name":"","type":"uint256","internalType":"uint256"}],"stateMutability":"view"},{"type":"function","name":"disputes","inputs":[{"name":"","type":"uint256","internalType":"uint256"}],"outputs":[{"name":"campaignId","type":"uint256","internalType":"uint256"},{"name":"challenger","type":"address","internalType":"address"},{"name":"reason","type":"string","internalType":"string"},{"name":"startTime","type":"uint256","internalType":"uint256"},{"name":"forVotes","type":"uint256","internalType":"uint256"},{"name":"againstVotes","type":"uint256","internalType":"uint256"},{"name":"resolved","type":"bool","internalType":"bool"},{"name":"approved","type":"bool","internalType":"bool"}],"stateMutability":"view"},{"type":"function","name":"escrowManager","inputs":[],"outputs":[{"name":"","type":"address","internalType":"contract EscrowManager"}],"stateMutability":"view"},{"type":"function","name":"finalizeProof","inputs":[{"name":"campaignId","type":"uint256","internalType":"uint256"}],"outputs":[],"stateMutability":"nonpayable"},{"type":"function","name":"getDispute","inputs":[{"name":"disputeId","type":"uint256","internalType":"uint256"}],"outputs":[{"name":"campaignId","type":"uint256","internalType":"uint256"},{"name":"challenger","type":"address","internalType":"address"},{"name":"reason","type":"string","internalType":"string"},{"name":"forVotes","type":"uint256","internalType":"uint256"},{"name":"againstVotes","type":"uint256","internalType":"uint256"},{"name":"resolved","type":"bool","internalType":"bool"},{"name":"approved","type":"bool","internalType":"bool"}],"stateMutability":"view"},{"type":"function","name":"getProof","inputs":[{"name":"campaignId","type":"uint256","internalType":"uint256"}],"outputs":[{"name":"institution","type":"address","internalType":"address"},{"name":"ipfsHash","type":"string","internalType":"string"},{"name":"receiptsHash","type":"string","internalType":"string"},{"name":"photosHash","type":"string","internalType":"string"},{"name":"status","type":"uint8","internalType":"enum ProofValidator.ProofStatus"},{"name":"autoValidationPassed","type":"bool","internalType":"bool"},{"name":"submittedAt","type":"uint256","internalType":"uint256"},{"name":"challengePeriodEnd","type":"uint256","internalType":"uint256"}],"stateMutability":"view"},{"type":"function","name":"getRoleAdmin","inputs":[{"name":"role","type":"bytes32","internalType":"bytes32"}],"outputs":[{"name":"","type":"bytes32","internalType":"bytes32"}],"stateMutability":"view"},{"type":"function","name":"grantRole","inputs":[{"name":"role","type":"bytes32","internalType":"bytes32"},{"name":"account","type":"address","internalType":"address"}],"outputs":[],"stateMutability":"nonpayable"},{"type":"function","name":"hasClaimedReward","inputs":[{"name":"disputeId","type":"uint256","internalType":"uint256"},{"name":"voter","type":"address","internalType":"address"}],"outputs":[{"name":"","type":"bool","internalType":"bool"}],"stateMutability":"view"},{"type":"function","name":"hasRole","inputs":[{"name":"role","type":"bytes32","internalType":"bytes32"},{"name":"account","type":"address","internalType":"address"}],"outputs":[{"name":"","type":"bool","internalType":"bool"}],"stateMutability":"view"},{"type":"function","name":"hasVoted","inputs":[{"name":"disputeId","type":"uint256","internalType":"uint256"},{"name":"voter","type":"address","internalType":"address"}],"outputs":[{"name":"","type":"bool","internalType":"bool"}],"stateMutability":"view"},{"type":"function","name":"institutionRegistry","inputs":[],"outputs":[{"name":"","type":"address","internalType":"contract InstitutionRegistry"}],"stateMutability":"view"},{"type":"function","name":"patToken","inputs":[],"outputs":[{"name":"","type":"address","internalType":"contract PATToken"}],"stateMutability":"view"},{"type":"function","name":"pause","inputs":[],"outputs":[],"stateMutability":"nonpayable"},{"type":"function","name":"paused","inputs":[],"outputs":[{"name":"","type":"bool","internalType":"bool"}],"stateMutability":"view"},{"type":"function","name":"proofs","inputs":[{"name":"","type":"uint256","internalType":"uint256"}],"outputs":[{"name":"campaignId","type":"uint256","internalType":"uint256"},{"name":"institution","type":"address","internalType":"address"},{"name":"ipfsHash","type":"string","internalType":"string"},{"name":"receiptsHash","type":"string","internalType":"string"},{"name":"photosHash","type":"string","internalType":"string"},{"name":"metricsHash","type":"string","internalType":"string"},{"name":"submittedAt","type":"uint256","internalType":"uint256"},{"name":"challengePeriodEnd","type":"uint256","internalType":"uint256"},{"name":"status","type":"uint8","internalType":"enum ProofValidator.ProofStatus"},{"name":"autoValidationPassed","type":"bool","internalType":"bool"},{"name":"disputeId","type":"uint256","internalType":"uint256"}],"stateMutability":"view"},{"type":"function","name":"renounceRole","inputs":[{"name":"role","type":"bytes32","internalType":"bytes32"},{"name":"callerConfirmation","type":"address","internalType":"address"}],"outputs":[],"stateMutability":"nonpayable"},{"type":"function","name":"resolveDispute","inputs":[{"name":"disputeId","type":"uint256","internalType":"uint256"}],"outputs":[],"stateMutability":"nonpayable"},{"type":"function","name":"revokeRole","inputs":[{"name":"role","type":"bytes32","internalType":"bytes32"},{"name":"account","type":"address","internalType":"address"}],"outputs":[],"stateMutability":"nonpayable"},{"type":"function","name":"submitProof","inputs":[{"name":"campaignId","type":"uint256","internalType":"uint256"},{"name":"ipfsHash","type":"string","internalType":"string"},{"name":"receiptsHash","type":"string","internalType":"string"},{"name":"photosHash","type":"string","internalType":"string"},{"name":"metricsHash","type":"string","internalType":"string"}],"outputs":[],"stateMutability":"payable"},{"type":"function","name":"supportsInterface","inputs":[{"name":"interfaceId","type":"bytes4","internalType":"bytes4"}],"outputs":[{"name":"","type":"bool","internalType":"bool"}],"stateMutability":"view"},{"type":"function","name":"treasury","inputs":[],"outputs":[{"name":"","type":"address","internalType":"address"}],"stateMutability":"view"},{"type":"function","name":"unpause","inputs":[],"outputs":[],"stateMutability":"nonpayable"},{"type":"function","name":"updateTreasury","inputs":[{"name":"newTreasury","type":"address","internalType":"address"}],"outputs":[],"stateMutability":"nonpayable"},{"type":"function","name":"voteOnDispute","inputs":[{"name":"disputeId","type":"uint256","internalType":"uint256"},{"name":"approve","type":"bool","internalType":"bool"}],"outputs":[],"stateMutability":"nonpayable"},{"type":"event","name":"DisputeVoteCast","inputs":[{"name":"disputeId","type":"uint256","indexed":true,"internalType":"uint256"},{"name":"voter","type":"address","indexed":true,"internalType":"address"},{"name":"approve","type":"bool","indexed":false,"internalType":"bool"},{"name":"weight","type":"uint256","indexed":false,"internalType":"uint256"},{"name":"timestamp","type":"uint256","indexed":false,"internalType":"uint256"}],"anonymous":false},{"type":"event","name":"Paused","inputs":[{"name":"account","type":"address","indexed":false,"internalType":"address"}],"anonymous":false},{"type":"event","name":"ProofChallenged","inputs":[{"name":"campaignId","type":"uint256","indexed":true,"internalType":"uint256"},{"name":"challenger","type":"address","indexed":true,"internalType":"address"},{"name":"reason","type":"string","indexed":false,"internalType":"string"},{"name":"disputeId","type":"uint256","indexed":false,"internalType":"uint256"},{"name":"timestamp","type":"uint256","indexed":false,"internalType":"uint256"}],"anonymous":false},{"type":"event","name":"ProofDisputeResolved","inputs":[{"name":"disputeId","type":"uint256","indexed":true,"internalType":"uint256"},{"name":"campaignId","type":"uint256","indexed":true,"internalType":"uint256"},{"name":"approved","type":"bool","indexed":false,"internalType":"bool"},{"name":"timestamp","type":"uint256","indexed":false,"internalType":"uint256"}],"anonymous":false},{"type":"event","name":"ProofFinalized","inputs":[{"name":"campaignId","type":"uint256","indexed":true,"internalType":"uint256"},{"name":"approved","type":"bool","indexed":false,"internalType":"bool"},{"name":"timestamp","type":"uint256","indexed":false,"internalType":"uint256"}],"anonymous":false},{"type":"event","name":"ProofSubmitted","inputs":[{"name":"campaignId","type":"uint256","indexed":true,"internalType":"uint256"},{"name":"ipfsHash","type":"string","indexed":false,"internalType":"string"},{"name":"timestamp","type":"uint256","indexed":false,"internalType":"uint256"}],"anonymous":false},{"type":"event","name":"ProofValidated","inputs":[{"name":"campaignId","type":"uint256","indexed":true,"internalType":"uint256"},{"name":"isValid","type":"bool","indexed":false,"internalType":"bool"},{"name":"autoApproved","type":"bool","indexed":false,"internalType":"bool"},{"name":"timestamp","type":"uint256","indexed":false,"internalType":"uint256"}],"anonymous":false},{"type":"event","name":"RoleAdminChanged","inputs":[{"name":"role","type":"bytes32","indexed":true,"internalType":"bytes32"},{"name":"previousAdminRole","type":"bytes32","indexed":true,"internalType":"bytes32"},{"name":"newAdminRole","type":"bytes32","indexed":true,"internalType":"bytes32"}],"anonymous":false},{"type":"event","name":"RoleGranted","inputs":[{"name":"role","type":"bytes32","indexed":true,"internalType":"bytes32"},{"name":"account","type":"address","indexed":true,"internalType":"address"},{"name":"sender","type":"address","indexed":true,"internalType":"address"}],"anonymous":false},{"type":"event","name":"RoleRevoked","inputs":[{"name":"role","type":"bytes32","indexed":true,"internalType":"bytes32"},{"name":"account","type":"address","indexed":true,"internalType":"address"},{"name":"sender","type":"address","indexed":true,"internalType":"address"}],"anonymous":false},{"type":"event","name":"Unpaused","inputs":[{"name":"account","type":"address","indexed":false,"internalType":"address"}],"anonymous":false},{"type":"event","name":"VoterRewardAvailable","inputs":[{"name":"disputeId","type":"uint256","indexed":true,"internalType":"uint256"},{"name":"winningVote","type":"bool","indexed":false,"internalType":"bool"},{"name":"timestamp","type":"uint256","indexed":false,"internalType":"uint256"}],"anonymous":false},{"type":"event","name":"VoterRewardClaimed","inputs":[{"name":"disputeId","type":"uint256","indexed":true,"internalType":"uint256"},{"name":"voter","type":"address","indexed":true,"internalType":"address"},{"name":"amount","type":"uint256","indexed":false,"internalType":"uint256"},{"name":"timestamp","type":"uint256","indexed":false,"internalType":"uint256"}],"anonymous":false},{"type":"error","name":"AccessControlBadConfirmation","inputs":[]},{"type":"error","name":"AccessControlUnauthorizedAccount","inputs":[{"name":"account","type":"address","internalType":"address"},{"name":"neededRole","type":"bytes32","internalType":"bytes32"}]},{"type":"error","name":"AlreadyVoted","inputs":[]},{"type":"error","name":"CampaignNotActive","inputs":[]},{"type":"error","name":"ChallengeWindowActive","inputs":[]},{"type":"error","name":"ChallengeWindowExpired","inputs":[]},{"type":"error","name":"DisputeAlreadyResolved","inputs":[]},{"type":"error","name":"DisputeNotResolved","inputs":[]},{"type":"error","name":"EnforcedPause","inputs":[]},{"type":"error","name":"ExpectedPause","inputs":[]},{"type":"error","name":"InsufficientVotingPower","inputs":[]},{"type":"error","name":"InvalidAmount","inputs":[]},{"type":"error","name":"InvalidIPFSHash","inputs":[]},{"type":"error","name":"InvalidProofData","inputs":[]},{"type":"error","name":"ProofAlreadySubmitted","inputs":[]},{"type":"error","name":"ProofNotSubmitted","inputs":[]},{"type":"error","name":"ReentrancyGuardReentrantCall","inputs":[]},{"type":"error","name":"RewardAlreadyClaimed","inputs":[]},{"type":"error","name":"TransferFailed","inputs":[]},{"type":"error","name":"Unauthorized","inputs":[]},{"type":"error","name":"UnauthorizedCampaignCreator","inputs":[]},{"type":"error","name":"VotingPeriodEnded","inputs":[]},{"type":"error","name":"VotingPeriodNotEnded","inputs":[]},{"type":"error","name":"ZeroAddress","inputs":[]}],"bytecode":{"object":"0x6080346101d857601f6129b338819003918201601f19168301916001600160401b038311848410176101dc5780849260c0946040528339810103126101d857610047816101f0565b90610054602082016101f0565b90610061604082016101f0565b61006d606083016101f0565b9061008660a061007f608086016101f0565b94016101f0565b60017f9b779b17422d0df92223018b32b4d1fa46e071723d6817e2486d003becc55f0055936001600160a01b0386161580156101c7575b80156101b6575b80156101a5575b8015610194575b8015610183575b6101745760018054610100600160a81b03191660089790971b610100600160a81b031696909617909555600280546001600160a01b03199081166001600160a01b039788161790915560038054821692871692909217909155600480548216928616929092179091556005805490911691909316179091556101649061015e81610204565b5061027a565b50604051612645908161030e8239f35b63d92e233d60e01b5f5260045ffd5b506001600160a01b038516156100d9565b506001600160a01b038416156100d2565b506001600160a01b038316156100cb565b506001600160a01b038216156100c4565b506001600160a01b038116156100bd565b5f80fd5b634e487b7160e01b5f52604160045260245ffd5b51906001600160a01b03821682036101d857565b6001600160a01b0381165f9081525f5160206129935f395f51905f52602052604090205460ff16610275576001600160a01b03165f8181525f5160206129935f395f51905f5260205260408120805460ff191660011790553391905f5160206129535f395f51905f528180a4600190565b505f90565b6001600160a01b0381165f9081525f5160206129735f395f51905f52602052604090205460ff16610275576001600160a01b03165f8181525f5160206129735f395f51905f5260205260408120805460ff191660011790553391907f71840dc4906352362b0cdaf79870196c8e42acafade72d5d5a6d59291253ceb1905f5160206129535f395f51905f529080a460019056fe608080604052600436101561001c575b50361561001a575f80fd5b005b5f905f3560e01c90816301ffc9a7146120625750806311149ada14611f955780631a06c8ce14611f785780631b1fcb0414611f50578063248a9ca314611f1e5780632f2ff15d14611ee15780632fbd685614611eb957806336568abe14611e755780633d90e7ab14611e4d5780633f4ba83a14611de75780634385963214611d9b578063489d51ea14611a72578063564a565d146119d05780635c975abb146119ae57806361d027b3146119865780637d36f4d3146119695780637f51bb1f1461190a5780638456cb59146118b25780638c8cbc3d146118915780638e084165146115aa57806391d14854146115625780639a181e401461136f5780639ddaf5aa14611268578063a217fddf1461124c578063a4f5df1214610f8b578063bd05e8b914610f67578063c12255c414610f3a578063c2b7b86814610bea578063c3a079ed14610bcc578063c8b727a114610b7f578063d547741f14610b38578063e3a96cbd14610aa5578063eea75ec4146101d75763f36c8f5c0361000f57346101d457806003193601126101d45760206040517f71840dc4906352362b0cdaf79870196c8e42acafade72d5d5a6d59291253ceb18152f35b80fd5b5060a03660031901126101d4576004356024356001600160401b038111610aa157610206903690600401612210565b6044356001600160401b038111610a9d57610225903690600401612210565b6064356001600160401b038111610a9957610244903690600401612210565b6084356001600160401b038111610a9557610263903690600401612210565b9061026c612486565b6102746124be565b6002546040516315663e3360e21b815260048101879052908790829060249082906001600160a01b03165afa908115610a8a57879088926109d8575b50336001600160a01b03909116036109c9576002906102ce816122a7565b036109ba57848652600660205260ff60086040882001541660068110156109a65761099757662386f26fc10000341061098857835115610979578486526006602052604086208581556001810180546001600160a01b03191633179055845190939060028501906001600160401b0381116108b35761034d82546120fc565b601f8111610934575b50806020601f82116001146108d2578a916108c7575b508160011b915f199060031b1c19161790555b805160038501916001600160401b0382116108b35781906103a084546120fc565b601f8111610863575b50602090601f8311600114610801578a926107f6575b50508160011b915f199060031b1c19161790555b805160048401916001600160401b0382116107e25781906103f484546120fc565b601f8111610792575b50602090601f8311600114610730578992610725575b50508160011b915f199060031b1c19161790555b805160058301916001600160401b03821161071157819061044884546120fc565b601f81116106c1575b50602090601f831160011461065f578892610654575b50508160011b915f199060031b1c19161790555b4260068201556202a3004201804211610640576007820155600801805460ff19166001179055600554839081908190819034906001600160a01b03165af13d1561063b573d6104c9816121f5565b906104d76040519283612134565b81528460203d92013e5b1561062c577f0e678dad27a7a9d38a52c40207550ba15b5aa72e506c9ec8d3b13d44bd823acf61052083926040519182916040835260408301906120b5565b4260208301520390a2808252600660205260086040832061054460038201546120fc565b151561055360048301546120fc565b151561056260058401546120fc565b15159082610624575b508161061c575b50156105d75701805461ffff1916610102179055604080516001808252602082015242918101919091527f025f80a0ccf9d7d26bffb500d9142528f4e287468fd326ca7a1d68db242ebf7490606090a25b60015f5160206125f05f395f51905f525580f35b0161ff001981541690557f025f80a0ccf9d7d26bffb500d9142528f4e287468fd326ca7a1d68db242ebf746060604051848152846020820152426040820152a26105c3565b90505f610572565b91505f61056b565b6312171d8360e31b8352600483fd5b6104e1565b634e487b7160e01b85526011600452602485fd5b015190505f80610467565b8489528189209250601f198416895b8181106106a95750908460019594939210610691575b505050811b01905561047b565b01515f1960f88460031b161c191690555f8080610684565b9293602060018192878601518155019501930161066e565b90915083885260208820601f840160051c81019160208510610707575b90601f859493920160051c01905b8181106106f95750610451565b8981558493506001016106ec565b90915081906106de565b634e487b7160e01b87526041600452602487fd5b015190505f80610413565b848a52818a209250601f1984168a5b81811061077a5750908460019594939210610762575b505050811b019055610427565b01515f1960f88460031b161c191690555f8080610755565b9293602060018192878601518155019501930161073f565b90915083895260208920601f840160051c810191602085106107d8575b90601f859493920160051c01905b8181106107ca57506103fd565b8a81558493506001016107bd565b90915081906107af565b634e487b7160e01b88526041600452602488fd5b015190505f806103bf565b848b52818b209250601f1984168b5b81811061084b5750908460019594939210610833575b505050811b0190556103d3565b01515f1960f88460031b161c191690555f8080610826565b92936020600181928786015181550195019301610810565b909150838a5260208a20601f840160051c810191602085106108a9575b90601f859493920160051c01905b81811061089b57506103a9565b8b815584935060010161088e565b9091508190610880565b634e487b7160e01b89526041600452602489fd5b90508701515f61036c565b838b52808b209150601f1983168b5b8a82821061091c5750509083600194939210610904575b5050811b01905561037f565b8901515f1960f88460031b161c191690555f806108f8565b600184956020939584930151815501940192016108e1565b828a5260208a20601f830160051c8101916020841061096f575b601f0160051c01905b8181106109645750610356565b8a8155600101610957565b909150819061094e565b636e6db68160e11b8652600486fd5b63162908e360e11b8652600486fd5b633e77430d60e01b8652600486fd5b634e487b7160e01b87526021600452602487fd5b63219a945b60e11b8652600486fd5b63dea4837160e01b8752600487fd5b9150503d8088833e6109ea8183612134565b810161010082820312610a7e578151916001600160a01b0383168303610a865760208101516001600160401b038111610a825782610a299183016122b1565b5060408101516001600160401b038111610a825782610a499183016122b1565b5060608101516001600160401b038111610a825760e092610a6b9183016122b1565b500151906005821015610a7e575f6102b0565b8780fd5b8980fd5b8880fd5b6040513d89823e3d90fd5b8580fd5b8480fd5b8380fd5b8280fd5b50346101d45760203660031901126101d4576040906004358152600760205220805460018060a01b036001830154169160ff6004820154916005810154610b14610af6600260068501549401612155565b6040519788978852602088015260e0604088015260e08701906120b5565b9360608601526080850152818116151560a085015260081c16151560c08301520390f35b50346101d45760403660031901126101d457610b7b600435610b586120e6565b90610b76610b71825f525f602052600160405f20015490565b612346565b612406565b5080f35b50346101d45760403660031901126101d45760096040610b9d6120e6565b926004358152600760205220019060018060a01b03165f52602052602060ff60405f2054166040519015158152f35b50346101d457806003193601126101d45760206040516202a3008152f35b50346101d45760203660031901126101d457600435610c07612486565b610c0f6124be565b808252600760205260408220906006820191825460ff8116610f2b576003820154620697808101809111610f1757421115610f085760019060ff1916178355600481015460058201541092805461ff008560081b169061ff0019161790555491805f14610f015760045b838552600660205260086040862001906006811015610eed5760ff80198354169116179055805f14610d235760407f2f6e18b14d5b12efabd958876a4223f9139ace877fc84dd929964fe7213b47ed91610cd2856124d9565b837f12d92ecad36ab0b6a973c771937fbc8ca854808b2753e7fe18dcd4aae0d7246683805160018152426020820152a25b8151908152426020820152a360015f5160206125f05f395f51905f525580f35b82845260066020526040842060015485919060081c6001600160a01b0316803b15610aa1578280916024604051809481936352b2380960e01b83528b60048401525af1908115610ee2578391610ec9575b5050600354600191909101546001600160a01b039182169116813b15610aa157829160c483926040519485938492634e7ce73f60e01b8452600484015260c719602484015260606044840152603b60648401527f50726f6f662072656a6563746564202d206672617564756c656e74206f72206960848401527f6e73756666696369656e7420696d706163742065766964656e6365000000000060a48401525af18015610ebe57610ea9575b505060407f2f6e18b14d5b12efabd958876a4223f9139ace877fc84dd929964fe7213b47ed91847fc1835c03d79adfa051c9a071ceb015038e96301669d9c4567d042342abbf4fda838051898152426020820152a2837f12d92ecad36ab0b6a973c771937fbc8ca854808b2753e7fe18dcd4aae0d72466838051898152426020820152a2610d03565b81610eb391612134565b610a9d57835f610e20565b6040513d84823e3d90fd5b81610ed391612134565b610ede57815f610d74565b5080fd5b6040513d85823e3d90fd5b634e487b7160e01b86526021600452602486fd5b6005610c79565b630cd7c29960e21b8552600485fd5b634e487b7160e01b86526011600452602486fd5b63f10068b560e01b8552600485fd5b50346101d457806003193601126101d45760015460405160089190911c6001600160a01b03168152602090f35b50346101d457806003193601126101d4576020604051683635c9adc5dea000008152f35b50346101d45760403660031901126101d4576004356024359081151591828103610a9d57610fb76124be565b8184526007602052604084209060ff600683015416610f2b57335f90815260078301602081905260409091205460ff1661123d57600383015462069780810180911161118c5742101561122e579060249291602060018060a01b0360045416604051958680926370a0823160e01b82523360048301525afa938415610a8a5787946111f6575b508380156111e757600354604051636be2cefb60e01b815233600482015290602090829060249082906001600160a01b03165afa80156111dc5789906111a0575b6004915061108b816122a7565b14611174575b50335f908152602091825260408082208054600160ff1991821617909155600886019093529020805490911660ff87161790551561115f576004016110d782825461229a565b90555b60405192835260208301524260408301527f4335e52a38329dc5d382f06ce4b517cd3bb107e4900ca1c3880a2fc298f2076e60603393a360045481906001600160a01b0316803b1561115c57818091602460405180948193630c0b769160e21b83523360048401525af161114b5750f35b8161115591612134565b6101d45780f35b50fd5b60050161116d82825461229a565b90556110da565b8091945060011b90810460020361118c57925f611091565b634e487b7160e01b87526011600452602487fd5b506020813d6020116111d4575b816111ba60209383612134565b81010312610a8657516005811015610a865760049061107e565b3d91506111ad565b6040513d8b823e3d90fd5b63cabeb65560e01b8852600488fd5b9093506020813d602011611226575b8161121260209383612134565b810103126112225751925f61103d565b5f80fd5b3d9150611205565b63370ec37160e21b8652600486fd5b637c9a1cf960e01b8652600486fd5b50346101d457806003193601126101d457602090604051908152f35b50346101d45760203660031901126101d4576004358152600660205260409020805460018201546001600160a01b0316916112a560028201612155565b6112b160038301612155565b916112be60048201612155565b926112cb60058301612155565b6006830154946007840154926008850154946009015495604051998a998a5260208a01526040890161016090526101608901611306916120b5565b88810360608a0152611317916120b5565b8781036080890152611328916120b5565b86810360a0880152611339916120b5565b9360c086015260e0850152610100840160ff821690611357916120d9565b60081c60ff1615156101208401526101408301520390f35b50346112225760203660031901126112225760043561138c612486565b6113946124be565b805f52600760205260405f2090600682015460ff81161561155357335f90815260078401602052604090205460ff161561153657600983019260018060a01b0333165f528360205260ff60405f20541661154457335f9081526008918201602052604090205491901c60ff908116151591161515036115365760018060a01b0360045416916040519263b6f2ec5760e01b8452602084600481845afa93841561152b575f946114f7575b50803b15611222575f80916024604051809481936317c8967160e01b83523360048401525af190816114e2575b5061147f576312171d8360e31b8452600484fd5b60018060a01b0333165f5260205260405f20600160ff198254161790556040519182524260208301527f5058cc2a44c9f055f85589c4121122cdfd7b9970563391c41dc34a13c5ea357160403393a360015f5160206125f05f395f51905f525580f35b6114ef9195505f90612134565b5f935f61146b565b9093506020813d602011611523575b8161151360209383612134565b810103126112225751925f61143e565b3d9150611506565b6040513d5f823e3d90fd5b6282b42960e81b5f5260045ffd5b632cfe303760e21b5f5260045ffd5b63453ee4f760e11b5f5260045ffd5b346112225760403660031901126112225761157b6120e6565b6004355f525f60205260405f209060018060a01b03165f52602052602060ff60405f2054166040519015158152f35b34611222576040366003190112611222576004356024356001600160401b038111611222576115dd903690600401612210565b906115e66124be565b805f52600660205260405f2091600883019260ff845416600681101561187d5760018114159081611871575b50611862576007810154421015611853576024602060018060a01b0360045416604051928380926370a0823160e01b82523360048301525afa801561152b575f90611818575b683635c9adc5dea0000091501061180957600993600360ff1982541617905560085493849161168683612256565b60085501555f8381526007602052604090208281556001810180546001600160a01b03191633179055815160028201906001600160401b0381116117f5576116ce82546120fc565b601f81116117b0575b506020601f821160011461173c57918161172c94925f5160206125d05f395f51905f5296945f91611731575b508160011b915f199060031b1c19161790555b6003429101556040519182913396429184612278565b0390a3005b905084015189611703565b601f19821690835f52805f20915f5b8181106117985750925f5160206125d05f395f51905f529694926001928261172c989610611780575b5050811b019055611716565b8601515f1960f88460031b161c191690558980611774565b9192602060018192868b01518155019401920161174b565b825f5260205f20601f830160051c810191602084106117eb575b601f0160051c01905b8181106117e057506116d7565b5f81556001016117d3565b90915081906117ca565b634e487b7160e01b5f52604160045260245ffd5b63cabeb65560e01b5f5260045ffd5b506020813d60201161184b575b8161183260209383612134565b8101031261122257683635c9adc5dea000009051611658565b3d9150611825565b632b0fbfc560e11b5f5260045ffd5b634d4522d960e01b5f5260045ffd5b60029150141585611612565b634e487b7160e01b5f52602160045260245ffd5b34611222575f366003190112611222576020604051662386f26fc100008152f35b34611222575f366003190112611222576118ca6122f7565b6118d26124be565b600160ff19815416176001557f62e78cea01bee320cd4e420270b5ea74000d11b0c9f74754ebdbfc544b05a2586020604051338152a1005b34611222576020366003190112611222576004356001600160a01b03811690819003611222576119386122f7565b801561195a576bffffffffffffffffffffffff60a01b60055416176005555f80f35b63d92e233d60e01b5f5260045ffd5b34611222575f366003190112611222576020600854604051908152f35b34611222575f366003190112611222576005546040516001600160a01b039091168152602090f35b34611222575f36600319011261122257602060ff600154166040519015158152f35b34611222576020366003190112611222576004355f908152600760205260409020805460018201546001600160a01b03169160ff611a1060028301612155565b6003830154926004810154611a4960066005840154930154936040519889988952602089015261010060408901526101008801906120b5565b946060870152608086015260a0850152818116151560c085015260081c16151560e08301520390f35b3461122257602036600319011261122257600435611a8e612486565b611a966124be565b805f52600660205260405f206008810190815460ff8116906006821015908161187d57600283141580611d8d575b611d7e5760078401544210611d6f5760081c60ff168181611d5e575b5015611b11575050815460ff191660041790915550611afe906124d9565b60015f5160206125f05f395f51905f5255005b61187d57600303611b25575b505050611afe565b815460ff1916600317909155600901541580611d24575b611b48575b8080611b1d565b600990604051611b59606082612134565b602a81527f4175746f2d76616c69646174696f6e206661696c65643a204d697373696e6720602082015269636f6d706f6e656e747360b01b6040820152815f52600660205260405f20600854938491611bb183612256565b60085501555f8381526007602052604090208281556001810180546001600160a01b03191630179055815160028201906001600160401b0381116117f557611bf982546120fc565b601f8111611cdf575b506020601f8211600114611c6b579181611c5794925f5160206125d05f395f51905f5296945f91611c60575b508160011b915f199060031b1c19161790555b6003429101556040519182913096429184612278565b0390a380611b41565b905084015189611c2e565b601f19821690835f52805f20915f5b818110611cc75750925f5160206125d05f395f51905f5296949260019282611c57989610611caf575b5050811b019055611c41565b8601515f1960f88460031b161c191690558980611ca3565b9192602060018192868b015181550194019201611c7a565b825f5260205f20601f830160051c81019160208410611d1a575b601f0160051c01905b818110611d0f5750611c02565b5f8155600101611d02565b9091508190611cf9565b505f805260076020527f6d5257204ebe7d88fd91ae87941cb2dd9d8062b64ae5a2bd2d28ec40b9fbf6e0546001600160a01b031615611b3c565b905061187d57600382141581611ae0565b631202122d60e31b5f5260045ffd5b6371f4a19360e11b5f5260045ffd5b505f91506001831415611ac4565b3461122257604036600319011261122257611db46120e6565b6004355f526007602052600760405f20019060018060a01b03165f52602052602060ff60405f2054166040519015158152f35b34611222575f36600319011261122257611dff6122f7565b60015460ff811615611e3e5760ff19166001557f5db9ee0a495bf2e6ff9c91a7834c1ba4fdd244a5e8aa4e537bd38aeae4b073aa6020604051338152a1005b638dfc202b60e01b5f5260045ffd5b34611222575f366003190112611222576004546040516001600160a01b039091168152602090f35b3461122257604036600319011261122257611e8e6120e6565b336001600160a01b03821603611eaa5761001a90600435612406565b63334bd91960e11b5f5260045ffd5b34611222575f366003190112611222576002546040516001600160a01b039091168152602090f35b346112225760403660031901126112225761001a600435611f006120e6565b90611f19610b71825f525f602052600160405f20015490565b61237e565b34611222576020366003190112611222576020611f486004355f525f602052600160405f20015490565b604051908152f35b34611222575f366003190112611222576003546040516001600160a01b039091168152602090f35b34611222575f366003190112611222576020604051620697808152f35b34611222576020366003190112611222576004355f52600660205260405f2060018060a01b036001820154166008820154600683015460078401549060ff612039611fe260028801612155565b9661202b611ffe6004611ff760038501612155565b9301612155565b9161201d6040519a8b9a8b5261010060208c01526101008b01906120b5565b9089820360408b01526120b5565b9087820360608901526120b5565b93612049608087018383166120d9565b60081c16151560a085015260c084015260e08301520390f35b34611222576020366003190112611222576004359063ffffffff60e01b821680920361122257602091637965db0b60e01b81149081156120a4575b5015158152f35b6301ffc9a760e01b1490508361209d565b805180835260209291819084018484015e5f828201840152601f01601f1916010190565b90600682101561187d5752565b602435906001600160a01b038216820361122257565b90600182811c9216801561212a575b602083101461211657565b634e487b7160e01b5f52602260045260245ffd5b91607f169161210b565b90601f801991011681019081106001600160401b038211176117f557604052565b9060405191825f825492612168846120fc565b80845293600181169081156121d3575060011461218f575b5061218d92500383612134565b565b90505f9291925260205f20905f915b8183106121b757505090602061218d928201015f612180565b602091935080600191548385890101520191019091849261219e565b90506020925061218d94915060ff191682840152151560051b8201015f612180565b6001600160401b0381116117f557601f01601f191660200190565b81601f8201121561122257803590612227826121f5565b926122356040519485612134565b8284526020838301011161122257815f926020809301838601378301015290565b5f1981146122645760010190565b634e487b7160e01b5f52601160045260245ffd5b612290604092959493956060835260608301906120b5565b9460208201520152565b9190820180921161226457565b6005111561187d57565b81601f82011215611222578051906122c8826121f5565b926122d66040519485612134565b8284526020838301011161122257815f9260208093018386015e8301015290565b335f9081527fad3228b676f7d3cd4284a5443f17f1962b36e491b30a40b2405849e597ba5fb5602052604090205460ff161561232f57565b63e2517d3f60e01b5f52336004525f60245260445ffd5b5f8181526020818152604080832033845290915290205460ff16156123685750565b63e2517d3f60e01b5f523360045260245260445ffd5b5f818152602081815260408083206001600160a01b038616845290915290205460ff16612400575f818152602081815260408083206001600160a01b0395909516808452949091528120805460ff19166001179055339291907f2f8788117e7eff1d82e926ec794901d17c78024a50270940304540a733656f0d9080a4600190565b50505f90565b5f818152602081815260408083206001600160a01b038616845290915290205460ff1615612400575f818152602081815260408083206001600160a01b0395909516808452949091528120805460ff19169055339291907ff6391f5c32d9c69d2a47ea670b442974b53935d1edc7fd64eb21e047a839171b9080a4600190565b60025f5160206125f05f395f51905f5254146124af5760025f5160206125f05f395f51905f5255565b633ee5aeb560e01b5f5260045ffd5b60ff600154166124ca57565b63d93c066560e01b5f5260045ffd5b5f818152600660205260408120600180549101546001600160a01b0360089290921c82169116813b15611222575f91604483926040519485938492631af23a5960e01b845289600485015260248401525af1801561152b576125bc575b506002546001600160a01b0316803b15610ede5781809160246040518094819363012aa7e360e71b83528860048401525af18015610ebe576125a7575b50507fc1835c03d79adfa051c9a071ceb015038e96301669d9c4567d042342abbf4fda6040805160018152426020820152a2565b6125b2828092612134565b6101d45780612573565b6125c891505f90612134565b5f5f61253656fe2311b58a66c4a6aeeb65b16cdb4446f3cfb57d85a7e30ea907fdbf58f9e2b55e9b779b17422d0df92223018b32b4d1fa46e071723d6817e2486d003becc55f00a26469706673582212205d53cb62e66cb28510d5bb74db135de0ccc0f674518b28f67f07e6d245da154d64736f6c634300081e00332f8788117e7eff1d82e926ec794901d17c78024a50270940304540a733656f0d316a51056d8b2401ab04c48d9973add294eadde229c785c6d19cde93785467efad3228b676f7d3cd4284a5443f17f1962b36e491b30a40b2405849e597ba5fb5","linkReferences":{}},"methodIdentifiers":{"CHALLENGE_PERIOD()":"c3a079ed","DEFAULT_ADMIN_ROLE()":"a217fddf","DISPUTE_VOTING_PERIOD()":"1a06c8ce","GOVERNANCE_ROLE()":"f36c8f5c","MIN_CHALLENGE_STAKE()":"bd05e8b9","STORAGE_FEE()":"8c8cbc3d","campaignFactory()":"2fbd6856","challengeProof(uint256,string)":"8e084165","claimVotingReward(uint256)":"9a181e40","disputeCounter()":"7d36f4d3","disputes(uint256)":"564a565d","escrowManager()":"c12255c4","finalizeProof(uint256)":"489d51ea","getDispute(uint256)":"e3a96cbd","getProof(uint256)":"11149ada","getRoleAdmin(bytes32)":"248a9ca3","grantRole(bytes32,address)":"2f2ff15d","hasClaimedReward(uint256,address)":"c8b727a1","hasRole(bytes32,address)":"91d14854","hasVoted(uint256,address)":"43859632","institutionRegistry()":"1b1fcb04","patToken()":"3d90e7ab","pause()":"8456cb59","paused()":"5c975abb","proofs(uint256)":"9ddaf5aa","renounceRole(bytes32,address)":"36568abe","resolveDispute(uint256)":"c2b7b868","revokeRole(bytes32,address)":"d547741f","submitProof(uint256,string,string,string,string)":"eea75ec4","supportsInterface(bytes4)":"01ffc9a7","treasury()":"61d027b3","unpause()":"3f4ba83a","updateTreasury(address)":"7f51bb1f","voteOnDispute(uint256,bool)":"a4f5df12"},"id":54}