{"abi":[{"type":"constructor","inputs":[{"name":"admin","type":"address","internalType":"address"}],"stateMutability":"nonpayable"},{"type":"receive","stateMutability":"payable"},{"type":"function","name":"DEFAULT_ADMIN_ROLE","inputs":[],"outputs":[{"name":"","type":"bytes32","internalType":"bytes32"}],"stateMutability":"view"},{"type":"function","name":"GOVERNANCE_ROLE","inputs":[],"outputs":[{"name":"","type":"bytes32","internalType":"bytes32"}],"stateMutability":"view"},{"type":"function","name":"WITHDRAWER_ROLE","inputs":[],"outputs":[{"name":"","type":"bytes32","internalType":"bytes32"}],"stateMutability":"view"},{"type":"function","name":"allocationsByPurpose","inputs":[{"name":"","type":"string","internalType":"string"}],"outputs":[{"name":"","type":"uint256","internalType":"uint256"}],"stateMutability":"view"},{"type":"function","name":"assignWithdrawer","inputs":[{"name":"delegate","type":"address","internalType":"address"}],"outputs":[],"stateMutability":"nonpayable"},{"type":"function","name":"batchWithdraw","inputs":[{"name":"recipients","type":"address[]","internalType":"address[]"},{"name":"amounts","type":"uint256[]","internalType":"uint256[]"},{"name":"purpose","type":"string","internalType":"string"}],"outputs":[],"stateMutability":"nonpayable"},{"type":"function","name":"deposit","inputs":[{"name":"source","type":"string","internalType":"string"}],"outputs":[],"stateMutability":"payable"},{"type":"function","name":"deposits","inputs":[{"name":"","type":"address","internalType":"address"}],"outputs":[{"name":"","type":"uint256","internalType":"uint256"}],"stateMutability":"view"},{"type":"function","name":"getAllocation","inputs":[{"name":"purpose","type":"string","internalType":"string"}],"outputs":[{"name":"","type":"uint256","internalType":"uint256"}],"stateMutability":"view"},{"type":"function","name":"getBalance","inputs":[],"outputs":[{"name":"","type":"uint256","internalType":"uint256"}],"stateMutability":"view"},{"type":"function","name":"getRoleAdmin","inputs":[{"name":"role","type":"bytes32","internalType":"bytes32"}],"outputs":[{"name":"","type":"bytes32","internalType":"bytes32"}],"stateMutability":"view"},{"type":"function","name":"getStats","inputs":[],"outputs":[{"name":"balance","type":"uint256","internalType":"uint256"},{"name":"depositsTotal","type":"uint256","internalType":"uint256"},{"name":"withdrawalsTotal","type":"uint256","internalType":"uint256"}],"stateMutability":"view"},{"type":"function","name":"grantRole","inputs":[{"name":"role","type":"bytes32","internalType":"bytes32"},{"name":"account","type":"address","internalType":"address"}],"outputs":[],"stateMutability":"nonpayable"},{"type":"function","name":"hasRole","inputs":[{"name":"role","type":"bytes32","internalType":"bytes32"},{"name":"account","type":"address","internalType":"address"}],"outputs":[{"name":"","type":"bool","internalType":"bool"}],"stateMutability":"view"},{"type":"function","name":"pause","inputs":[],"outputs":[],"stateMutability":"nonpayable"},{"type":"function","name":"paused","inputs":[],"outputs":[{"name":"","type":"bool","internalType":"bool"}],"stateMutability":"view"},{"type":"function","name":"renounceRole","inputs":[{"name":"role","type":"bytes32","internalType":"bytes32"},{"name":"callerConfirmation","type":"address","internalType":"address"}],"outputs":[],"stateMutability":"nonpayable"},{"type":"function","name":"revokeRole","inputs":[{"name":"role","type":"bytes32","internalType":"bytes32"},{"name":"account","type":"address","internalType":"address"}],"outputs":[],"stateMutability":"nonpayable"},{"type":"function","name":"supportsInterface","inputs":[{"name":"interfaceId","type":"bytes4","internalType":"bytes4"}],"outputs":[{"name":"","type":"bool","internalType":"bool"}],"stateMutability":"view"},{"type":"function","name":"totalDeposits","inputs":[],"outputs":[{"name":"","type":"uint256","internalType":"uint256"}],"stateMutability":"view"},{"type":"function","name":"totalWithdrawals","inputs":[],"outputs":[{"name":"","type":"uint256","internalType":"uint256"}],"stateMutability":"view"},{"type":"function","name":"unpause","inputs":[],"outputs":[],"stateMutability":"nonpayable"},{"type":"function","name":"withdraw","inputs":[{"name":"recipient","type":"address","internalType":"address"},{"name":"amount","type":"uint256","internalType":"uint256"},{"name":"purpose","type":"string","internalType":"string"}],"outputs":[],"stateMutability":"nonpayable"},{"type":"function","name":"withdrawERC20","inputs":[{"name":"token","type":"address","internalType":"address"},{"name":"recipient","type":"address","internalType":"address"},{"name":"amount","type":"uint256","internalType":"uint256"}],"outputs":[],"stateMutability":"nonpayable"},{"type":"event","name":"Paused","inputs":[{"name":"account","type":"address","indexed":false,"internalType":"address"}],"anonymous":false},{"type":"event","name":"RoleAdminChanged","inputs":[{"name":"role","type":"bytes32","indexed":true,"internalType":"bytes32"},{"name":"previousAdminRole","type":"bytes32","indexed":true,"internalType":"bytes32"},{"name":"newAdminRole","type":"bytes32","indexed":true,"internalType":"bytes32"}],"anonymous":false},{"type":"event","name":"RoleGranted","inputs":[{"name":"role","type":"bytes32","indexed":true,"internalType":"bytes32"},{"name":"account","type":"address","indexed":true,"internalType":"address"},{"name":"sender","type":"address","indexed":true,"internalType":"address"}],"anonymous":false},{"type":"event","name":"RoleRevoked","inputs":[{"name":"role","type":"bytes32","indexed":true,"internalType":"bytes32"},{"name":"account","type":"address","indexed":true,"internalType":"address"},{"name":"sender","type":"address","indexed":true,"internalType":"address"}],"anonymous":false},{"type":"event","name":"TreasuryDeposit","inputs":[{"name":"from","type":"address","indexed":true,"internalType":"address"},{"name":"amount","type":"uint256","indexed":false,"internalType":"uint256"},{"name":"source","type":"string","indexed":false,"internalType":"string"},{"name":"timestamp","type":"uint256","indexed":false,"internalType":"uint256"}],"anonymous":false},{"type":"event","name":"TreasuryWithdrawal","inputs":[{"name":"to","type":"address","indexed":true,"internalType":"address"},{"name":"amount","type":"uint256","indexed":false,"internalType":"uint256"},{"name":"purpose","type":"string","indexed":false,"internalType":"string"},{"name":"timestamp","type":"uint256","indexed":false,"internalType":"uint256"}],"anonymous":false},{"type":"event","name":"Unpaused","inputs":[{"name":"account","type":"address","indexed":false,"internalType":"address"}],"anonymous":false},{"type":"error","name":"AccessControlBadConfirmation","inputs":[]},{"type":"error","name":"AccessControlUnauthorizedAccount","inputs":[{"name":"account","type":"address","internalType":"address"},{"name":"neededRole","type":"bytes32","internalType":"bytes32"}]},{"type":"error","name":"ArrayLengthMismatch","inputs":[]},{"type":"error","name":"ContractPaused","inputs":[]},{"type":"error","name":"EnforcedPause","inputs":[]},{"type":"error","name":"ExpectedPause","inputs":[]},{"type":"error","name":"InsufficientTreasuryFunds","inputs":[]},{"type":"error","name":"InvalidAmount","inputs":[]},{"type":"error","name":"InvalidParameter","inputs":[]},{"type":"error","name":"ReentrancyGuardReentrantCall","inputs":[]},{"type":"error","name":"SafeERC20FailedOperation","inputs":[{"name":"token","type":"address","internalType":"address"}]},{"type":"error","name":"TransferFailed","inputs":[]},{"type":"error","name":"ZeroAddress","inputs":[]}],"bytecode":{"object":"0x6080346100b557601f6112de38819003918201601f19168301916001600160401b038311848410176100b9578084926020946040528339810103126100b557516001600160a01b0381168082036100b55760017f9b779b17422d0df92223018b32b4d1fa46e071723d6817e2486d003becc55f0055156100a65780610086610096926100cd565b5061009081610143565b506101d6565b50604051610ff4908161026a8239f35b63d92e233d60e01b5f5260045ffd5b5f80fd5b634e487b7160e01b5f52604160045260245ffd5b6001600160a01b0381165f9081525f5160206112be5f395f51905f52602052604090205460ff1661013e576001600160a01b03165f8181525f5160206112be5f395f51905f5260205260408120805460ff191660011790553391905f51602061125e5f395f51905f528180a4600190565b505f90565b6001600160a01b0381165f9081525f51602061129e5f395f51905f52602052604090205460ff1661013e576001600160a01b03165f8181525f51602061129e5f395f51905f5260205260408120805460ff191660011790553391907f71840dc4906352362b0cdaf79870196c8e42acafade72d5d5a6d59291253ceb1905f51602061125e5f395f51905f529080a4600190565b6001600160a01b0381165f9081525f51602061127e5f395f51905f52602052604090205460ff1661013e576001600160a01b03165f8181525f51602061127e5f395f51905f5260205260408120805460ff191660011790553391907f10dac8c06a04bec0b551627dad28bc00d6516b0caacd1c7b345fcdb5211334e4905f51602061125e5f395f51905f529080a460019056fe60808060405260043610156100b5575b50361561001a575f80fd5b60ff600154166100a65761003034600254610be0565b600255335f52600460205260405f2061004a348254610be0565b905560405134815260606020820152600f60608201526e2234b932b1ba102a3930b739b332b960891b60808201524260408201527f806db0e968e04a7e1850e8596edf021fa6cc1d8961ef7c9e6286a1af3e49e09460a03392a2005b63ab35696f60e01b5f5260045ffd5b5f3560e01c90816301ffc9a714610a995750806302c35e8e1461084357806312065fe014610a7e578063248a9ca314610a4c5780632f2ff15d14610a0f57806336568abe146109cb5780633f4ba83a1461096557806344004cc1146108995780635bc93373146108435780635c975abb1461082157806360464627146108045780637d882097146107e75780638456cb591461077e57806385f438c11461074457806391d14854146106fc578063a217fddf146106e2578063a26e118614610643578063a53d4cad1461060a578063c59d4847146105de578063d547741f1461059a578063ddc03e7014610383578063e088747b1461023f578063f36c8f5c146102055763fc7e286d146101c9575f61000f565b34610201576020366003190112610201576001600160a01b036101ea610b99565b165f526004602052602060405f2054604051908152f35b5f80fd5b34610201575f3660031901126102015760206040517f71840dc4906352362b0cdaf79870196c8e42acafade72d5d5a6d59291253ceb18152f35b3461020157606036600319011261020157610258610b99565b6024359060443567ffffffffffffffff81116102015761027c903690600401610b42565b90610285610ce6565b61028d610f66565b60ff600154166100a6576001600160a01b031691821561037457801561036557478111610356576102c081600354610be0565b600355604051602081845180838701835e810160058152030190206102e6828254610be0565b90555f80808084875af16102f8610c72565b5015610347577fe40f6dcd6985f8586212ae7cfac03174a063cdd14f24947d0062a194b90e65a691610331604051928392429184610c01565b0390a260015f516020610f9f5f395f51905f5255005b6312171d8360e31b5f5260045ffd5b6310f199c960e21b5f5260045ffd5b63162908e360e11b5f5260045ffd5b63d92e233d60e01b5f5260045ffd5b346102015760603660031901126102015760043567ffffffffffffffff8111610201576103b4903690600401610baf565b60243567ffffffffffffffff8111610201576103d4903690600401610baf565b91909260443567ffffffffffffffff8111610201576103f7903690600401610b42565b92610400610ce6565b610408610f66565b60ff600154166100a65780830361058b57821561057c575f945f5b82811061055c5750478611610356575f5b84811061048757866104726020808961044f85600354610be0565b600355604051928184925191829101835e81016005815203019020918254610be0565b905560015f516020610f9f5f395f51905f5255005b6001600160a01b036104a261049d838888610c3a565b610c5e565b1615610374576104b3818484610c3a565b3515610554575f8080806001600160a01b036104d361049d878c8c610c3a565b166104df868989610c3a565b35905af16104eb610c72565b5015610347578061050261049d6001938888610c3a565b7fe40f6dcd6985f8586212ae7cfac03174a063cdd14f24947d0062a194b90e65a661054a610531848888610c3a565b3592604051918291878060a01b0316948c429184610c01565b0390a25b01610434565b60019061054e565b9561057560019161056e898686610c3a565b3590610be0565b9601610423565b630309cb8760e51b5f5260045ffd5b63512509d360e11b5f5260045ffd5b34610201576040366003190112610201576105dc6004356105b9610b83565b906105d76105d2825f525f602052600160405f20015490565b610d55565b610ee6565b005b34610201575f366003190112610201576060476002546003549060405192835260208301526040820152f35b3461020157602036600319011261020157610623610b99565b61062b610c97565b6001600160a01b03811615610374576105dc90610d8d565b60203660031901126102015760043567ffffffffffffffff81116102015761066f903690600401610b42565b610677610f66565b60ff600154166100a657341561036557335f52600460205260405f2061069e348254610be0565b90556106ac34600254610be0565b6002557f806db0e968e04a7e1850e8596edf021fa6cc1d8961ef7c9e6286a1af3e49e09460405180610331339442903484610c01565b34610201575f3660031901126102015760206040515f8152f35b3461020157604036600319011261020157610715610b83565b6004355f525f60205260405f209060018060a01b03165f52602052602060ff60405f2054166040519015158152f35b34610201575f3660031901126102015760206040517f10dac8c06a04bec0b551627dad28bc00d6516b0caacd1c7b345fcdb5211334e48152f35b34610201575f36600319011261020157610796610c97565b60015460ff81166107d85760019060ff1916176001557f62e78cea01bee320cd4e420270b5ea74000d11b0c9f74754ebdbfc544b05a2586020604051338152a1005b63d93c066560e01b5f5260045ffd5b34610201575f366003190112610201576020600254604051908152f35b34610201575f366003190112610201576020600354604051908152f35b34610201575f36600319011261020157602060ff600154166040519015158152f35b346102015760203660031901126102015760043567ffffffffffffffff81116102015760208061087881933690600401610b42565b604051928184925191829101835e8101600581520301902054604051908152f35b34610201576060366003190112610201576108b2610b99565b6108ba610b83565b90604435916108c7610c97565b6108cf610f66565b6001600160a01b03169081156103745782156103655760018060a01b0316916040519163a9059cbb60e01b5f5260045260245260205f60448180865af19060015f5114821615610945575b50156109335760015f516020610f9f5f395f51905f5255005b635274afe760e01b5f5260045260245ffd5b600182151661095d5750813b15153d1516168261091a565b3d5f823e3d90fd5b34610201575f3660031901126102015761097d610c97565b60015460ff8116156109bc5760ff19166001557f5db9ee0a495bf2e6ff9c91a7834c1ba4fdd244a5e8aa4e537bd38aeae4b073aa6020604051338152a1005b638dfc202b60e01b5f5260045ffd5b34610201576040366003190112610201576109e4610b83565b336001600160a01b03821603610a00576105dc90600435610ee6565b63334bd91960e11b5f5260045ffd5b34610201576040366003190112610201576105dc600435610a2e610b83565b90610a476105d2825f525f602052600160405f20015490565b610e5e565b34610201576020366003190112610201576020610a766004355f525f602052600160405f20015490565b604051908152f35b34610201575f36600319011261020157602047604051908152f35b34610201576020366003190112610201576004359063ffffffff60e01b821680920361020157602091637965db0b60e01b8114908115610adb575b5015158152f35b6301ffc9a760e01b14905083610ad4565b6040519190601f01601f1916820167ffffffffffffffff811183821017610b1257604052565b634e487b7160e01b5f52604160045260245ffd5b67ffffffffffffffff8111610b1257601f01601f191660200190565b81601f8201121561020157803590610b61610b5c83610b26565b610aec565b928284526020838301011161020157815f926020809301838601378301015290565b602435906001600160a01b038216820361020157565b600435906001600160a01b038216820361020157565b9181601f840112156102015782359167ffffffffffffffff8311610201576020808501948460051b01011161020157565b91908201809211610bed57565b634e487b7160e01b5f52601160045260245ffd5b9392916020608091604093875260608288015280519182918260608a0152018388015e5f828288010152601f8019910116850101930152565b9190811015610c4a5760051b0190565b634e487b7160e01b5f52603260045260245ffd5b356001600160a01b03811681036102015790565b3d15610c92573d90610c86610b5c83610b26565b9182523d5f602084013e565b606090565b335f9081527fad3228b676f7d3cd4284a5443f17f1962b36e491b30a40b2405849e597ba5fb5602052604090205460ff1615610ccf57565b63e2517d3f60e01b5f52336004525f60245260445ffd5b335f9081527f10d7f32a6930100c7e03899d583513ff548ac958e569f497049662337b6f49b9602052604090205460ff1615610d1e57565b63e2517d3f60e01b5f52336004527f10dac8c06a04bec0b551627dad28bc00d6516b0caacd1c7b345fcdb5211334e460245260445ffd5b5f8181526020818152604080832033845290915290205460ff1615610d775750565b63e2517d3f60e01b5f523360045260245260445ffd5b6001600160a01b0381165f9081527f10d7f32a6930100c7e03899d583513ff548ac958e569f497049662337b6f49b9602052604090205460ff16610e59576001600160a01b03165f8181527f10d7f32a6930100c7e03899d583513ff548ac958e569f497049662337b6f49b960205260408120805460ff191660011790553391907f10dac8c06a04bec0b551627dad28bc00d6516b0caacd1c7b345fcdb5211334e4907f2f8788117e7eff1d82e926ec794901d17c78024a50270940304540a733656f0d9080a4600190565b505f90565b5f818152602081815260408083206001600160a01b038616845290915290205460ff16610ee0575f818152602081815260408083206001600160a01b0395909516808452949091528120805460ff19166001179055339291907f2f8788117e7eff1d82e926ec794901d17c78024a50270940304540a733656f0d9080a4600190565b50505f90565b5f818152602081815260408083206001600160a01b038616845290915290205460ff1615610ee0575f818152602081815260408083206001600160a01b0395909516808452949091528120805460ff19169055339291907ff6391f5c32d9c69d2a47ea670b442974b53935d1edc7fd64eb21e047a839171b9080a4600190565b60025f516020610f9f5f395f51905f525414610f8f5760025f516020610f9f5f395f51905f5255565b633ee5aeb560e01b5f5260045ffdfe9b779b17422d0df92223018b32b4d1fa46e071723d6817e2486d003becc55f00a2646970667358221220b8ff5381c29058faa3a8d2579c2ac756f13ef676b9caca808327b768a2fbc38d64736f6c634300081e00332f8788117e7eff1d82e926ec794901d17c78024a50270940304540a733656f0d10d7f32a6930100c7e03899d583513ff548ac958e569f497049662337b6f49b9316a51056d8b2401ab04c48d9973add294eadde229c785c6d19cde93785467efad3228b676f7d3cd4284a5443f17f1962b36e491b30a40b2405849e597ba5fb5","linkReferences":{}},"methodIdentifiers":{"DEFAULT_ADMIN_ROLE()":"a217fddf","GOVERNANCE_ROLE()":"f36c8f5c","WITHDRAWER_ROLE()":"85f438c1","allocationsByPurpose(string)":"5bc93373","assignWithdrawer(address)":"a53d4cad","batchWithdraw(address[],uint256[],string)":"ddc03e70","deposit(string)":"a26e1186","deposits(address)":"fc7e286d","getAllocation(string)":"02c35e8e","getBalance()":"12065fe0","getRoleAdmin(bytes32)":"248a9ca3","getStats()":"c59d4847","grantRole(bytes32,address)":"2f2ff15d","hasRole(bytes32,address)":"91d14854","pause()":"8456cb59","paused()":"5c975abb","renounceRole(bytes32,address)":"36568abe","revokeRole(bytes32,address)":"d547741f","supportsInterface(bytes4)":"01ffc9a7","totalDeposits()":"7d882097","totalWithdrawals()":"60464627","unpause()":"3f4ba83a","withdraw(address,uint256,string)":"e088747b","withdrawERC20(address,address,uint256)":"44004cc1"},"id":55}