{"abi":[{"type":"constructor","inputs":[{"name":"admin","type":"address","internalType":"address"}],"stateMutability":"nonpayable"},{"type":"function","name":"DEFAULT_ADMIN_ROLE","inputs":[],"outputs":[{"name":"","type":"bytes32","internalType":"bytes32"}],"stateMutability":"view"},{"type":"function","name":"campaignFactory","inputs":[],"outputs":[{"name":"","type":"address","internalType":"address"}],"stateMutability":"view"},{"type":"function","name":"getPlatformStats","inputs":[],"outputs":[{"name":"total","type":"uint256","internalType":"uint256"},{"name":"institutions","type":"uint256","internalType":"uint256"},{"name":"donors","type":"uint256","internalType":"uint256"}],"stateMutability":"view"},{"type":"function","name":"getProfile","inputs":[{"name":"user","type":"address","internalType":"address"}],"outputs":[{"name":"role","type":"uint8","internalType":"enum UserRegistry.UserRole"},{"name":"previousRole","type":"uint8","internalType":"enum UserRegistry.UserRole"},{"name":"isFirstTimeUser","type":"bool","internalType":"bool"},{"name":"hasEverDonated","type":"bool","internalType":"bool"},{"name":"hasEverStaked","type":"bool","internalType":"bool"},{"name":"registeredAt","type":"uint256","internalType":"uint256"},{"name":"lastRoleChangeAt","type":"uint256","internalType":"uint256"}],"stateMutability":"view"},{"type":"function","name":"getRegisteredUsers","inputs":[{"name":"offset","type":"uint256","internalType":"uint256"},{"name":"limit","type":"uint256","internalType":"uint256"}],"outputs":[{"name":"","type":"address[]","internalType":"address[]"}],"stateMutability":"view"},{"type":"function","name":"getRole","inputs":[{"name":"user","type":"address","internalType":"address"}],"outputs":[{"name":"","type":"uint8","internalType":"enum UserRegistry.UserRole"}],"stateMutability":"view"},{"type":"function","name":"getRoleAdmin","inputs":[{"name":"role","type":"bytes32","internalType":"bytes32"}],"outputs":[{"name":"","type":"bytes32","internalType":"bytes32"}],"stateMutability":"view"},{"type":"function","name":"grantRole","inputs":[{"name":"role","type":"bytes32","internalType":"bytes32"},{"name":"account","type":"address","internalType":"address"}],"outputs":[],"stateMutability":"nonpayable"},{"type":"function","name":"hasRole","inputs":[{"name":"role","type":"bytes32","internalType":"bytes32"},{"name":"account","type":"address","internalType":"address"}],"outputs":[{"name":"","type":"bool","internalType":"bool"}],"stateMutability":"view"},{"type":"function","name":"hasSelectedRole","inputs":[{"name":"user","type":"address","internalType":"address"}],"outputs":[{"name":"","type":"bool","internalType":"bool"}],"stateMutability":"view"},{"type":"function","name":"institutionRegistry","inputs":[],"outputs":[{"name":"","type":"address","internalType":"address"}],"stateMutability":"view"},{"type":"function","name":"isRegistered","inputs":[{"name":"","type":"address","internalType":"address"}],"outputs":[{"name":"","type":"bool","internalType":"bool"}],"stateMutability":"view"},{"type":"function","name":"markAsDonated","inputs":[{"name":"user","type":"address","internalType":"address"}],"outputs":[],"stateMutability":"nonpayable"},{"type":"function","name":"markAsStaked","inputs":[{"name":"user","type":"address","internalType":"address"}],"outputs":[],"stateMutability":"nonpayable"},{"type":"function","name":"pause","inputs":[],"outputs":[],"stateMutability":"nonpayable"},{"type":"function","name":"paused","inputs":[],"outputs":[{"name":"","type":"bool","internalType":"bool"}],"stateMutability":"view"},{"type":"function","name":"profiles","inputs":[{"name":"","type":"address","internalType":"address"}],"outputs":[{"name":"role","type":"uint8","internalType":"enum UserRegistry.UserRole"},{"name":"previousRole","type":"uint8","internalType":"enum UserRegistry.UserRole"},{"name":"registeredAt","type":"uint256","internalType":"uint256"},{"name":"lastRoleChangeAt","type":"uint256","internalType":"uint256"},{"name":"hasEverDonated","type":"bool","internalType":"bool"},{"name":"hasEverStaked","type":"bool","internalType":"bool"}],"stateMutability":"view"},{"type":"function","name":"registeredUsers","inputs":[{"name":"","type":"uint256","internalType":"uint256"}],"outputs":[{"name":"","type":"address","internalType":"address"}],"stateMutability":"view"},{"type":"function","name":"renounceRole","inputs":[{"name":"role","type":"bytes32","internalType":"bytes32"},{"name":"callerConfirmation","type":"address","internalType":"address"}],"outputs":[],"stateMutability":"nonpayable"},{"type":"function","name":"revokeRole","inputs":[{"name":"role","type":"bytes32","internalType":"bytes32"},{"name":"account","type":"address","internalType":"address"}],"outputs":[],"stateMutability":"nonpayable"},{"type":"function","name":"selectRole","inputs":[{"name":"role","type":"uint8","internalType":"enum UserRegistry.UserRole"}],"outputs":[],"stateMutability":"nonpayable"},{"type":"function","name":"setContractAddresses","inputs":[{"name":"_campaignFactory","type":"address","internalType":"address"},{"name":"_institutionRegistry","type":"address","internalType":"address"}],"outputs":[],"stateMutability":"nonpayable"},{"type":"function","name":"suggestRole","inputs":[{"name":"user","type":"address","internalType":"address"}],"outputs":[{"name":"suggested","type":"uint8","internalType":"enum UserRegistry.UserRole"},{"name":"reason","type":"string","internalType":"string"}],"stateMutability":"view"},{"type":"function","name":"supportsInterface","inputs":[{"name":"interfaceId","type":"bytes4","internalType":"bytes4"}],"outputs":[{"name":"","type":"bool","internalType":"bool"}],"stateMutability":"view"},{"type":"function","name":"switchToPreviousRole","inputs":[],"outputs":[],"stateMutability":"nonpayable"},{"type":"function","name":"totalDonorUsers","inputs":[],"outputs":[{"name":"","type":"uint256","internalType":"uint256"}],"stateMutability":"view"},{"type":"function","name":"totalInstitutionUsers","inputs":[],"outputs":[{"name":"","type":"uint256","internalType":"uint256"}],"stateMutability":"view"},{"type":"function","name":"totalUsers","inputs":[],"outputs":[{"name":"","type":"uint256","internalType":"uint256"}],"stateMutability":"view"},{"type":"function","name":"unpause","inputs":[],"outputs":[],"stateMutability":"nonpayable"},{"type":"event","name":"Paused","inputs":[{"name":"account","type":"address","indexed":false,"internalType":"address"}],"anonymous":false},{"type":"event","name":"ProfileUpdated","inputs":[{"name":"user","type":"address","indexed":true,"internalType":"address"},{"name":"hasEverDonated","type":"bool","indexed":false,"internalType":"bool"},{"name":"hasEverStaked","type":"bool","indexed":false,"internalType":"bool"},{"name":"timestamp","type":"uint256","indexed":false,"internalType":"uint256"}],"anonymous":false},{"type":"event","name":"RoleAdminChanged","inputs":[{"name":"role","type":"bytes32","indexed":true,"internalType":"bytes32"},{"name":"previousAdminRole","type":"bytes32","indexed":true,"internalType":"bytes32"},{"name":"newAdminRole","type":"bytes32","indexed":true,"internalType":"bytes32"}],"anonymous":false},{"type":"event","name":"RoleGranted","inputs":[{"name":"role","type":"bytes32","indexed":true,"internalType":"bytes32"},{"name":"account","type":"address","indexed":true,"internalType":"address"},{"name":"sender","type":"address","indexed":true,"internalType":"address"}],"anonymous":false},{"type":"event","name":"RoleRevoked","inputs":[{"name":"role","type":"bytes32","indexed":true,"internalType":"bytes32"},{"name":"account","type":"address","indexed":true,"internalType":"address"},{"name":"sender","type":"address","indexed":true,"internalType":"address"}],"anonymous":false},{"type":"event","name":"RoleSelected","inputs":[{"name":"user","type":"address","indexed":true,"internalType":"address"},{"name":"role","type":"uint8","indexed":false,"internalType":"enum UserRegistry.UserRole"},{"name":"isFirstTime","type":"bool","indexed":false,"internalType":"bool"},{"name":"timestamp","type":"uint256","indexed":false,"internalType":"uint256"}],"anonymous":false},{"type":"event","name":"RoleSwitched","inputs":[{"name":"user","type":"address","indexed":true,"internalType":"address"},{"name":"fromRole","type":"uint8","indexed":false,"internalType":"enum UserRegistry.UserRole"},{"name":"toRole","type":"uint8","indexed":false,"internalType":"enum UserRegistry.UserRole"},{"name":"timestamp","type":"uint256","indexed":false,"internalType":"uint256"}],"anonymous":false},{"type":"event","name":"Unpaused","inputs":[{"name":"account","type":"address","indexed":false,"internalType":"address"}],"anonymous":false},{"type":"error","name":"AccessControlBadConfirmation","inputs":[]},{"type":"error","name":"AccessControlUnauthorizedAccount","inputs":[{"name":"account","type":"address","internalType":"address"},{"name":"neededRole","type":"bytes32","internalType":"bytes32"}]},{"type":"error","name":"ContractPaused","inputs":[]},{"type":"error","name":"EnforcedPause","inputs":[]},{"type":"error","name":"ExpectedPause","inputs":[]},{"type":"error","name":"Unauthorized","inputs":[]},{"type":"error","name":"ZeroAddress","inputs":[]}],"bytecode":{"object":"0x60803461007d57601f61140d38819003918201601f19168301916001600160401b038311848410176100815780849260209460405283398101031261007d57516001600160a01b03811680820361007d571561006e5761005e90610095565b506040516112ce908161011f8239f35b63d92e233d60e01b5f5260045ffd5b5f80fd5b634e487b7160e01b5f52604160045260245ffd5b6001600160a01b0381165f9081525f5160206113ed5f395f51905f52602052604090205460ff16610119576001600160a01b03165f8181525f5160206113ed5f395f51905f5260205260408120805460ff191660011790553391907f2f8788117e7eff1d82e926ec794901d17c78024a50270940304540a733656f0d8180a4600190565b505f9056fe6080806040526004361015610012575f80fd5b5f3560e01c90816301ffc9a714610d2c575080630f53a47014610c8e578063109cf51c14610be9578063136d888314610bbb5780631b1fcb0414610b93578063248a9ca314610b615780632f2ff15d14610b245780632fbd685614610afc57806336568abe14610ab85780633f4ba83a14610a525780634427673314610a1057806349cdb35d146107925780635c975abb146109ee5780637141a4a0146109d15780637259e0f81461098f5780637edbe1e21461092e5780638456cb59146108d657806391d148541461088e578063a217fddf14610874578063bbe15627146107ec578063bff1f9e1146107cf578063c3c5a54714610792578063c4323d261461054e578063c6978ded14610531578063cd931e401461045f578063d16846571461039a578063d547741f14610356578063d91f2fa5146102ea5763feb9c2c31461015b575f80fd5b346102e6575f3660031901126102e65761017361127d565b335f52600260205260405f20335f52600460205260ff60405f205416156102b05780549060ff8260081c1691600383101561025757821561026b5760ff16906101bc8282610f75565b6101c68382610f94565b6002429101556003811015610257576102318160017ffad151cb300cd4d3a9b149848cd84313d90e540c09bf7231a3c5662f016b24a893145f146102365761020f600854610fac565b60085561021d600954610fcc565b6009555b6040519182913395429184610fda565b0390a2005b610241600954610fac565b60095561024f600854610fcc565b600855610221565b634e487b7160e01b5f52602160045260245ffd5b60405162461bcd60e51b815260206004820152601d60248201527f4e6f2070726576696f757320726f6c6520746f2073776974636820746f0000006044820152606490fd5b60405162461bcd60e51b815260206004820152600e60248201526d139bdd081c9959da5cdd195c995960921b6044820152606490fd5b5f80fd5b346102e65760403660031901126102e657610309602435600435611024565b6040518091602082016020835281518091526020604084019201905f5b818110610334575050500390f35b82516001600160a01b0316845285945060209384019390920191600101610326565b346102e65760403660031901126102e657610398600435610375610d95565b9061039361038e825f525f602052600160405f20015490565b61113d565b6111fd565b005b346102e65760203660031901126102e6576103b3610d7f565b6005546001600160a01b031633036104515760ff600154166104425760018060a01b0316805f526002602052600360405f2001600160ff19825416179055805f5260026020527f817bc9885cb0df195da090d1bb9ab4d24d589d48f6438c2deaf84fc2dd513e1d606060ff600360405f20015460081c16604051906001825215156020820152426040820152a2005b63ab35696f60e01b5f5260045ffd5b6282b42960e81b5f5260045ffd5b346102e65760403660031901126102e657610478610d7f565b610480610d95565b906104896110ee565b6001600160a01b031680158015610520575b610511576bffffffffffffffffffffffff60a01b600554161760055560018060a01b03166bffffffffffffffffffffffff60a01b60065416176006556040515f81525f60208201524260408201527ffad151cb300cd4d3a9b149848cd84313d90e540c09bf7231a3c5662f016b24a860603092a2005b63d92e233d60e01b5f5260045ffd5b506001600160a01b0382161561049b565b346102e6575f3660031901126102e6576020600854604051908152f35b346102e65760203660031901126102e65760043560038110156102e65761057361127d565b600181145f818015610786575b1561075257335f52600260205260405f20335f52600460205260ff60405f205416155f146106a5574260018201556105b88482610f94565b600242910155335f52600460205260405f20600160ff1982541617905560035468010000000000000000811015610691578060016105f99201600355610db8565b81546001600160a01b0360039290921b91821b19163390911b17905560075461062190610fcc565b600755610257571561067e57610638600854610fcc565b6008555b6106496040518092610dab565b600160208201524260408201527fdf7d30eb78cff834d3bc8b9338da18f1666f8590a7102fa1d36717e804edc40c60603392a2005b610689600954610fcc565b60095561063c565b634e487b7160e01b5f52604160045260245ffd5b805460ff16925090610257576003821015610257578282146107165781816106f17ffad151cb300cd4d3a9b149848cd84313d90e540c09bf7231a3c5662f016b24a89461023194610f75565b6106fb8582610f94565b600242910155600181145f146102365761020f600854610fac565b60405162461bcd60e51b8152602060048201526014602482015273416c7265616479206f6e207468697320726f6c6560601b6044820152606490fd5b60405162461bcd60e51b815260206004820152600c60248201526b496e76616c696420726f6c6560a01b6044820152606490fd5b50505f60028314610580565b346102e65760203660031901126102e6576001600160a01b036107b3610d7f565b165f526004602052602060ff60405f2054166040519015158152f35b346102e6575f3660031901126102e6576020600754604051908152f35b346102e65760203660031901126102e6576001600160a01b0361080d610d7f565b165f52600260205260c060405f2060ff81549160018101549060036002820154910154916108536040519561084487878316610dab565b85602088019160081c16610dab565b604085015260608401528181161515608084015260081c16151560a0820152f35b346102e6575f3660031901126102e65760206040515f8152f35b346102e65760403660031901126102e6576108a7610d95565b6004355f525f60205260405f209060018060a01b03165f52602052602060ff60405f2054166040519015158152f35b346102e6575f3660031901126102e6576108ee6110ee565b6108f661127d565b600160ff19815416176001557f62e78cea01bee320cd4e420270b5ea74000d11b0c9f74754ebdbfc544b05a2586020604051338152a1005b346102e65760203660031901126102e65761096460606020610956610951610d7f565b610e0a565b604051948593928490610dab565b6040828401528051918291826040860152018484015e5f828201840152601f01601f19168101030190f35b346102e65760203660031901126102e6576004356003548110156102e6576109b8602091610db8565b905460405160039290921b1c6001600160a01b03168152f35b346102e6575f3660031901126102e6576020600954604051908152f35b346102e6575f3660031901126102e657602060ff600154166040519015158152f35b346102e65760203660031901126102e6576001600160a01b03610a31610d7f565b165f526002602052602060ff60405f205416610a506040518092610dab565bf35b346102e6575f3660031901126102e657610a6a6110ee565b60015460ff811615610aa95760ff19166001557f5db9ee0a495bf2e6ff9c91a7834c1ba4fdd244a5e8aa4e537bd38aeae4b073aa6020604051338152a1005b638dfc202b60e01b5f5260045ffd5b346102e65760403660031901126102e657610ad1610d95565b336001600160a01b03821603610aed57610398906004356111fd565b63334bd91960e11b5f5260045ffd5b346102e6575f3660031901126102e6576005546040516001600160a01b039091168152602090f35b346102e65760403660031901126102e657610398600435610b43610d95565b90610b5c61038e825f525f602052600160405f20015490565b611175565b346102e65760203660031901126102e6576020610b8b6004355f525f602052600160405f20015490565b604051908152f35b346102e6575f3660031901126102e6576006546040516001600160a01b039091168152602090f35b346102e6575f3660031901126102e65760606007546008546009549060405192835260208301526040820152f35b346102e65760203660031901126102e657610c02610d7f565b6006546001600160a01b031633036104515760ff60015416610442576001600160a01b03165f81815260026020908152604091829020600301805461ff0019811661010017909155825160ff9091161515815260019181019190915242918101919091527f817bc9885cb0df195da090d1bb9ab4d24d589d48f6438c2deaf84fc2dd513e1d90606090a2005b346102e65760203660031901126102e65760e06001600160a01b03610cb1610d7f565b16805f52600260205260405f208054915f52600460205260ff60405f205416159060ff60038201546002600184015493015493610d0660405196610cf788868316610dab565b84602089019160081c16610dab565b60408601528181161515606086015260081c161515608084015260a083015260c0820152f35b346102e65760203660031901126102e6576004359063ffffffff60e01b82168092036102e657602091637965db0b60e01b8114908115610d6e575b5015158152f35b6301ffc9a760e01b14905083610d67565b600435906001600160a01b03821682036102e657565b602435906001600160a01b03821682036102e657565b9060038210156102575752565b600354811015610dd05760035f5260205f2001905f90565b634e487b7160e01b5f52603260045260245ffd5b6040519190601f01601f1916820167ffffffffffffffff81118382101761069157604052565b6001600160a01b03165f908152600260209081526040808320600490925290912054606092919060ff16610f30576003919250015460ff8160081c16610ede5760ff16610e95575f90610e5d6060610de4565b602281527f4e65772075736572202d20706c656173652073656c65637420796f757220726f6020820152616c6560f01b604082015290565b600290610ea26060610de4565b602681527f57616c6c65742068617320646f6e6174656420746f2063616d706169676e73206020820152656265666f726560d01b604082015290565b50600190610eec6060610de4565b602e81527f57616c6c657420686173207374616b656420666f7220696e737469747574696f60208201526d37103b32b934b334b1b0ba34b7b760911b604082015290565b60ff610f3e91541692610de4565b602181527f52657475726e696e672075736572202d207573696e6720736176656420726f6c6020820152606560f81b604082015290565b9060038110156102575761ff0082549160081b169061ff001916179055565b9060038110156102575760ff80198354169116179055565b8015610fb8575f190190565b634e487b7160e01b5f52601160045260245ffd5b5f198114610fb85760010190565b610ffb604092959493610ff1836060810198610dab565b6020830190610dab565b0152565b67ffffffffffffffff81116106915760051b60200190565b91908201809211610fb857565b9060035490818310156110d7578161103c8285611017565b11156110c757505b818103908111610fb85761105f61105a82610fff565b610de4565b81815291601f1961106f83610fff565b013660208501375f5b8281106110855750505090565b6110976110928284611017565b610db8565b9054855160039290921b1c6001600160a01b03169190811015610dd05760019160208260051b8701015201611078565b6110d2915082611017565b611044565b5050506110e46020610de4565b5f81525f36813790565b335f9081527fad3228b676f7d3cd4284a5443f17f1962b36e491b30a40b2405849e597ba5fb5602052604090205460ff161561112657565b63e2517d3f60e01b5f52336004525f60245260445ffd5b5f8181526020818152604080832033845290915290205460ff161561115f5750565b63e2517d3f60e01b5f523360045260245260445ffd5b5f818152602081815260408083206001600160a01b038616845290915290205460ff166111f7575f818152602081815260408083206001600160a01b0395909516808452949091528120805460ff19166001179055339291907f2f8788117e7eff1d82e926ec794901d17c78024a50270940304540a733656f0d9080a4600190565b50505f90565b5f818152602081815260408083206001600160a01b038616845290915290205460ff16156111f7575f818152602081815260408083206001600160a01b0395909516808452949091528120805460ff19169055339291907ff6391f5c32d9c69d2a47ea670b442974b53935d1edc7fd64eb21e047a839171b9080a4600190565b60ff6001541661128957565b63d93c066560e01b5f5260045ffdfea264697066735822122089004b8371954ea5957b785e421c5875619ccf6cde76f5c7cff23809cc3ceea364736f6c63430008210033ad3228b676f7d3cd4284a5443f17f1962b36e491b30a40b2405849e597ba5fb5","linkReferences":{}},"methodIdentifiers":{"DEFAULT_ADMIN_ROLE()":"a217fddf","campaignFactory()":"2fbd6856","getPlatformStats()":"136d8883","getProfile(address)":"0f53a470","getRegisteredUsers(uint256,uint256)":"d91f2fa5","getRole(address)":"44276733","getRoleAdmin(bytes32)":"248a9ca3","grantRole(bytes32,address)":"2f2ff15d","hasRole(bytes32,address)":"91d14854","hasSelectedRole(address)":"49cdb35d","institutionRegistry()":"1b1fcb04","isRegistered(address)":"c3c5a547","markAsDonated(address)":"d1684657","markAsStaked(address)":"109cf51c","pause()":"8456cb59","paused()":"5c975abb","profiles(address)":"bbe15627","registeredUsers(uint256)":"7259e0f8","renounceRole(bytes32,address)":"36568abe","revokeRole(bytes32,address)":"d547741f","selectRole(uint8)":"c4323d26","setContractAddresses(address,address)":"cd931e40","suggestRole(address)":"7edbe1e2","supportsInterface(bytes4)":"01ffc9a7","switchToPreviousRole()":"feb9c2c3","totalDonorUsers()":"7141a4a0","totalInstitutionUsers()":"c6978ded","totalUsers()":"bff1f9e1","unpause()":"3f4ba83a"},"id":56}